{
	"contracts/Diamond/Diamond.sol": {
		"Diamond": {
			"abi": [
				{
					"inputs": [
						{
							"internalType": "address",
							"name": "r1",
							"type": "address"
						},
						{
							"internalType": "address",
							"name": "r2",
							"type": "address"
						},
						{
							"internalType": "bytes4",
							"name": "s1",
							"type": "bytes4"
						},
						{
							"internalType": "bytes4",
							"name": "s2",
							"type": "bytes4"
						}
					],
					"stateMutability": "nonpayable",
					"type": "constructor"
				},
				{
					"anonymous": false,
					"inputs": [
						{
							"components": [
								{
									"internalType": "address",
									"name": "facetAddress",
									"type": "address"
								},
								{
									"internalType": "enum IDiamond.FacetCutAction",
									"name": "action",
									"type": "uint8"
								},
								{
									"internalType": "bytes4[]",
									"name": "functionSelectors",
									"type": "bytes4[]"
								}
							],
							"indexed": false,
							"internalType": "struct IDiamond.FacetCut[]",
							"name": "_diamondCut",
							"type": "tuple[]"
						},
						{
							"indexed": false,
							"internalType": "address",
							"name": "_init",
							"type": "address"
						},
						{
							"indexed": false,
							"internalType": "bytes",
							"name": "_calldata",
							"type": "bytes"
						}
					],
					"name": "DiamondCut",
					"type": "event"
				},
				{
					"stateMutability": "payable",
					"type": "fallback"
				},
				{
					"inputs": [
						{
							"components": [
								{
									"internalType": "address",
									"name": "facetAddress",
									"type": "address"
								},
								{
									"internalType": "enum IDiamond.FacetCutAction",
									"name": "action",
									"type": "uint8"
								},
								{
									"internalType": "bytes4[]",
									"name": "functionSelectors",
									"type": "bytes4[]"
								}
							],
							"internalType": "struct IDiamond.FacetCut[]",
							"name": "_diamondCut",
							"type": "tuple[]"
						},
						{
							"internalType": "address",
							"name": "_init",
							"type": "address"
						},
						{
							"internalType": "bytes",
							"name": "_calldata",
							"type": "bytes"
						}
					],
					"name": "diamondCut",
					"outputs": [],
					"stateMutability": "nonpayable",
					"type": "function"
				},
				{
					"inputs": [],
					"name": "getNumber10",
					"outputs": [
						{
							"internalType": "uint256",
							"name": "num",
							"type": "uint256"
						}
					],
					"stateMutability": "view",
					"type": "function"
				},
				{
					"inputs": [],
					"name": "getNumber100",
					"outputs": [
						{
							"internalType": "uint256",
							"name": "num",
							"type": "uint256"
						}
					],
					"stateMutability": "view",
					"type": "function"
				}
			],
			"devdoc": {
				"kind": "dev",
				"methods": {
					"diamondCut((address,uint8,bytes4[])[],address,bytes)": {
						"params": {
							"_calldata": "A function call, including function selector and arguments                  _calldata is executed with delegatecall on _init",
							"_diamondCut": "Contains the facet addresses and function selectors",
							"_init": "The address of the contract or facet to execute _calldata"
						}
					}
				},
				"version": 1
			},
			"evm": {
				"assembly": "    /* \"contracts/Diamond/Diamond.sol\":86:2729  contract Diamond is IDiamondCut, DiamondStorage{... */\n  mstore(0x40, 0x80)\n    /* \"contracts/Diamond/Diamond.sol\":473:609  constructor(address r1, address r2, bytes4 s1, bytes4 s2){... */\n  callvalue\n  dup1\n  iszero\n  tag_1\n  jumpi\n  0x00\n  dup1\n  revert\ntag_1:\n  pop\n  mload(0x40)\n  sub(codesize, bytecodeSize)\n  dup1\n  bytecodeSize\n  dup4\n  codecopy\n  dup2\n  dup2\n  add\n  0x40\n  mstore\n  dup2\n  add\n  swap1\n  tag_2\n  swap2\n  swap1\n  tag_3\n  jump\t// in\ntag_2:\n    /* \"contracts/Diamond/Diamond.sol\":564:566  r1 */\n  dup4\n    /* \"contracts/Diamond/Diamond.sol\":540:557  selectorToAddress */\n  0x00\n    /* \"contracts/Diamond/Diamond.sol\":540:561  selectorToAddress[s1] */\n  dup1\n    /* \"contracts/Diamond/Diamond.sol\":558:560  s1 */\n  dup5\n    /* \"contracts/Diamond/Diamond.sol\":540:561  selectorToAddress[s1] */\n  not(0xffffffffffffffffffffffffffffffffffffffffffffffffffffffff)\n  and\n  not(0xffffffffffffffffffffffffffffffffffffffffffffffffffffffff)\n  and\n  dup2\n  mstore\n  0x20\n  add\n  swap1\n  dup2\n  mstore\n  0x20\n  add\n  0x00\n  keccak256\n  0x00\n    /* \"contracts/Diamond/Diamond.sol\":540:566  selectorToAddress[s1] = r1 */\n  0x0100\n  exp\n  dup2\n  sload\n  dup2\n  0xffffffffffffffffffffffffffffffffffffffff\n  mul\n  not\n  and\n  swap1\n  dup4\n  0xffffffffffffffffffffffffffffffffffffffff\n  and\n  mul\n  or\n  swap1\n  sstore\n  pop\n    /* \"contracts/Diamond/Diamond.sol\":600:602  r2 */\n  dup3\n    /* \"contracts/Diamond/Diamond.sol\":576:593  selectorToAddress */\n  0x00\n    /* \"contracts/Diamond/Diamond.sol\":576:597  selectorToAddress[s2] */\n  dup1\n    /* \"contracts/Diamond/Diamond.sol\":594:596  s2 */\n  dup4\n    /* \"contracts/Diamond/Diamond.sol\":576:597  selectorToAddress[s2] */\n  not(0xffffffffffffffffffffffffffffffffffffffffffffffffffffffff)\n  and\n  not(0xffffffffffffffffffffffffffffffffffffffffffffffffffffffff)\n  and\n  dup2\n  mstore\n  0x20\n  add\n  swap1\n  dup2\n  mstore\n  0x20\n  add\n  0x00\n  keccak256\n  0x00\n    /* \"contracts/Diamond/Diamond.sol\":576:602  selectorToAddress[s2] = r2 */\n  0x0100\n  exp\n  dup2\n  sload\n  dup2\n  0xffffffffffffffffffffffffffffffffffffffff\n  mul\n  not\n  and\n  swap1\n  dup4\n  0xffffffffffffffffffffffffffffffffffffffff\n  and\n  mul\n  or\n  swap1\n  sstore\n  pop\n    /* \"contracts/Diamond/Diamond.sol\":473:609  constructor(address r1, address r2, bytes4 s1, bytes4 s2){... */\n  pop\n  pop\n  pop\n  pop\n    /* \"contracts/Diamond/Diamond.sol\":86:2729  contract Diamond is IDiamondCut, DiamondStorage{... */\n  jump(tag_6)\n    /* \"#utility.yul\":88:205   */\ntag_8:\n    /* \"#utility.yul\":197:198   */\n  0x00\n    /* \"#utility.yul\":194:195   */\n  dup1\n    /* \"#utility.yul\":187:199   */\n  revert\n    /* \"#utility.yul\":334:460   */\ntag_10:\n    /* \"#utility.yul\":371:378   */\n  0x00\n    /* \"#utility.yul\":411:453   */\n  0xffffffffffffffffffffffffffffffffffffffff\n    /* \"#utility.yul\":404:409   */\n  dup3\n    /* \"#utility.yul\":400:454   */\n  and\n    /* \"#utility.yul\":389:454   */\n  swap1\n  pop\n    /* \"#utility.yul\":334:460   */\n  swap2\n  swap1\n  pop\n  jump\t// out\n    /* \"#utility.yul\":466:562   */\ntag_11:\n    /* \"#utility.yul\":503:510   */\n  0x00\n    /* \"#utility.yul\":532:556   */\n  tag_23\n    /* \"#utility.yul\":550:555   */\n  dup3\n    /* \"#utility.yul\":532:556   */\n  tag_10\n  jump\t// in\ntag_23:\n    /* \"#utility.yul\":521:556   */\n  swap1\n  pop\n    /* \"#utility.yul\":466:562   */\n  swap2\n  swap1\n  pop\n  jump\t// out\n    /* \"#utility.yul\":568:690   */\ntag_12:\n    /* \"#utility.yul\":641:665   */\n  tag_25\n    /* \"#utility.yul\":659:664   */\n  dup2\n    /* \"#utility.yul\":641:665   */\n  tag_11\n  jump\t// in\ntag_25:\n    /* \"#utility.yul\":634:639   */\n  dup2\n    /* \"#utility.yul\":631:666   */\n  eq\n    /* \"#utility.yul\":621:684   */\n  tag_26\n  jumpi\n    /* \"#utility.yul\":680:681   */\n  0x00\n    /* \"#utility.yul\":677:678   */\n  dup1\n    /* \"#utility.yul\":670:682   */\n  revert\n    /* \"#utility.yul\":621:684   */\ntag_26:\n    /* \"#utility.yul\":568:690   */\n  pop\n  jump\t// out\n    /* \"#utility.yul\":696:839   */\ntag_13:\n    /* \"#utility.yul\":753:758   */\n  0x00\n    /* \"#utility.yul\":784:790   */\n  dup2\n    /* \"#utility.yul\":778:791   */\n  mload\n    /* \"#utility.yul\":769:791   */\n  swap1\n  pop\n    /* \"#utility.yul\":800:833   */\n  tag_28\n    /* \"#utility.yul\":827:832   */\n  dup2\n    /* \"#utility.yul\":800:833   */\n  tag_12\n  jump\t// in\ntag_28:\n    /* \"#utility.yul\":696:839   */\n  swap3\n  swap2\n  pop\n  pop\n  jump\t// out\n    /* \"#utility.yul\":845:994   */\ntag_14:\n    /* \"#utility.yul\":881:888   */\n  0x00\n    /* \"#utility.yul\":921:987   */\n  0xffffffff00000000000000000000000000000000000000000000000000000000\n    /* \"#utility.yul\":914:919   */\n  dup3\n    /* \"#utility.yul\":910:988   */\n  and\n    /* \"#utility.yul\":899:988   */\n  swap1\n  pop\n    /* \"#utility.yul\":845:994   */\n  swap2\n  swap1\n  pop\n  jump\t// out\n    /* \"#utility.yul\":1000:1120   */\ntag_15:\n    /* \"#utility.yul\":1072:1095   */\n  tag_31\n    /* \"#utility.yul\":1089:1094   */\n  dup2\n    /* \"#utility.yul\":1072:1095   */\n  tag_14\n  jump\t// in\ntag_31:\n    /* \"#utility.yul\":1065:1070   */\n  dup2\n    /* \"#utility.yul\":1062:1096   */\n  eq\n    /* \"#utility.yul\":1052:1114   */\n  tag_32\n  jumpi\n    /* \"#utility.yul\":1110:1111   */\n  0x00\n    /* \"#utility.yul\":1107:1108   */\n  dup1\n    /* \"#utility.yul\":1100:1112   */\n  revert\n    /* \"#utility.yul\":1052:1114   */\ntag_32:\n    /* \"#utility.yul\":1000:1120   */\n  pop\n  jump\t// out\n    /* \"#utility.yul\":1126:1267   */\ntag_16:\n    /* \"#utility.yul\":1182:1187   */\n  0x00\n    /* \"#utility.yul\":1213:1219   */\n  dup2\n    /* \"#utility.yul\":1207:1220   */\n  mload\n    /* \"#utility.yul\":1198:1220   */\n  swap1\n  pop\n    /* \"#utility.yul\":1229:1261   */\n  tag_34\n    /* \"#utility.yul\":1255:1260   */\n  dup2\n    /* \"#utility.yul\":1229:1261   */\n  tag_15\n  jump\t// in\ntag_34:\n    /* \"#utility.yul\":1126:1267   */\n  swap3\n  swap2\n  pop\n  pop\n  jump\t// out\n    /* \"#utility.yul\":1273:2089   */\ntag_3:\n    /* \"#utility.yul\":1368:1374   */\n  0x00\n    /* \"#utility.yul\":1376:1382   */\n  dup1\n    /* \"#utility.yul\":1384:1390   */\n  0x00\n    /* \"#utility.yul\":1392:1398   */\n  dup1\n    /* \"#utility.yul\":1441:1444   */\n  0x80\n    /* \"#utility.yul\":1429:1438   */\n  dup6\n    /* \"#utility.yul\":1420:1427   */\n  dup8\n    /* \"#utility.yul\":1416:1439   */\n  sub\n    /* \"#utility.yul\":1412:1445   */\n  slt\n    /* \"#utility.yul\":1409:1529   */\n  iszero\n  tag_36\n  jumpi\n    /* \"#utility.yul\":1448:1527   */\n  tag_37\n  tag_8\n  jump\t// in\ntag_37:\n    /* \"#utility.yul\":1409:1529   */\ntag_36:\n    /* \"#utility.yul\":1568:1569   */\n  0x00\n    /* \"#utility.yul\":1593:1657   */\n  tag_38\n    /* \"#utility.yul\":1649:1656   */\n  dup8\n    /* \"#utility.yul\":1640:1646   */\n  dup3\n    /* \"#utility.yul\":1629:1638   */\n  dup9\n    /* \"#utility.yul\":1625:1647   */\n  add\n    /* \"#utility.yul\":1593:1657   */\n  tag_13\n  jump\t// in\ntag_38:\n    /* \"#utility.yul\":1583:1657   */\n  swap5\n  pop\n    /* \"#utility.yul\":1539:1667   */\n  pop\n    /* \"#utility.yul\":1706:1708   */\n  0x20\n    /* \"#utility.yul\":1732:1796   */\n  tag_39\n    /* \"#utility.yul\":1788:1795   */\n  dup8\n    /* \"#utility.yul\":1779:1785   */\n  dup3\n    /* \"#utility.yul\":1768:1777   */\n  dup9\n    /* \"#utility.yul\":1764:1786   */\n  add\n    /* \"#utility.yul\":1732:1796   */\n  tag_13\n  jump\t// in\ntag_39:\n    /* \"#utility.yul\":1722:1796   */\n  swap4\n  pop\n    /* \"#utility.yul\":1677:1806   */\n  pop\n    /* \"#utility.yul\":1845:1847   */\n  0x40\n    /* \"#utility.yul\":1871:1934   */\n  tag_40\n    /* \"#utility.yul\":1926:1933   */\n  dup8\n    /* \"#utility.yul\":1917:1923   */\n  dup3\n    /* \"#utility.yul\":1906:1915   */\n  dup9\n    /* \"#utility.yul\":1902:1924   */\n  add\n    /* \"#utility.yul\":1871:1934   */\n  tag_16\n  jump\t// in\ntag_40:\n    /* \"#utility.yul\":1861:1934   */\n  swap3\n  pop\n    /* \"#utility.yul\":1816:1944   */\n  pop\n    /* \"#utility.yul\":1983:1985   */\n  0x60\n    /* \"#utility.yul\":2009:2072   */\n  tag_41\n    /* \"#utility.yul\":2064:2071   */\n  dup8\n    /* \"#utility.yul\":2055:2061   */\n  dup3\n    /* \"#utility.yul\":2044:2053   */\n  dup9\n    /* \"#utility.yul\":2040:2062   */\n  add\n    /* \"#utility.yul\":2009:2072   */\n  tag_16\n  jump\t// in\ntag_41:\n    /* \"#utility.yul\":1999:2072   */\n  swap2\n  pop\n    /* \"#utility.yul\":1954:2082   */\n  pop\n    /* \"#utility.yul\":1273:2089   */\n  swap3\n  swap6\n  swap2\n  swap5\n  pop\n  swap3\n  pop\n  jump\t// out\n    /* \"contracts/Diamond/Diamond.sol\":86:2729  contract Diamond is IDiamondCut, DiamondStorage{... */\ntag_6:\n  dataSize(sub_0)\n  dup1\n  dataOffset(sub_0)\n  0x00\n  codecopy\n  0x00\n  return\nstop\n\nsub_0: assembly {\n        /* \"contracts/Diamond/Diamond.sol\":86:2729  contract Diamond is IDiamondCut, DiamondStorage{... */\n      mstore(0x40, 0x80)\n      jumpi(tag_1, lt(calldatasize, 0x04))\n      shr(0xe0, calldataload(0x00))\n      dup1\n      0x02c85697\n      eq\n      tag_3\n      jumpi\n      dup1\n      0x0e90f45d\n      eq\n      tag_4\n      jumpi\n      dup1\n      0x1f931c1c\n      eq\n      tag_5\n      jumpi\n      jump(tag_2)\n    tag_1:\n    tag_2:\n        /* \"contracts/Diamond/Diamond.sol\":697:710  address facet */\n      0x00\n        /* \"contracts/Diamond/Diamond.sol\":713:730  selectorToAddress */\n      dup1\n        /* \"contracts/Diamond/Diamond.sol\":713:739  selectorToAddress[msg.sig] */\n      0x00\n        /* \"contracts/Diamond/Diamond.sol\":731:738  msg.sig */\n      dup1\n      calldataload\n      0xffffffff00000000000000000000000000000000000000000000000000000000\n      and\n        /* \"contracts/Diamond/Diamond.sol\":713:739  selectorToAddress[msg.sig] */\n      not(0xffffffffffffffffffffffffffffffffffffffffffffffffffffffff)\n      and\n      not(0xffffffffffffffffffffffffffffffffffffffffffffffffffffffff)\n      and\n      dup2\n      mstore\n      0x20\n      add\n      swap1\n      dup2\n      mstore\n      0x20\n      add\n      0x00\n      keccak256\n      0x00\n      swap1\n      sload\n      swap1\n      0x0100\n      exp\n      swap1\n      div\n      0xffffffffffffffffffffffffffffffffffffffff\n      and\n        /* \"contracts/Diamond/Diamond.sol\":697:739  address facet = selectorToAddress[msg.sig] */\n      swap1\n      pop\n        /* \"contracts/Diamond/Diamond.sol\":774:775  0 */\n      0x00\n        /* \"contracts/Diamond/Diamond.sol\":757:776  facet != address(0) */\n      0xffffffffffffffffffffffffffffffffffffffff\n      and\n        /* \"contracts/Diamond/Diamond.sol\":757:762  facet */\n      dup2\n        /* \"contracts/Diamond/Diamond.sol\":757:776  facet != address(0) */\n      0xffffffffffffffffffffffffffffffffffffffff\n      and\n      sub\n        /* \"contracts/Diamond/Diamond.sol\":749:777  require(facet != address(0)) */\n      tag_8\n      jumpi\n      0x00\n      dup1\n      revert\n    tag_8:\n        /* \"contracts/Diamond/Diamond.sol\":974:988  calldatasize() */\n      calldatasize\n        /* \"contracts/Diamond/Diamond.sol\":971:972  0 */\n      0x00\n        /* \"contracts/Diamond/Diamond.sol\":968:969  0 */\n      dup1\n        /* \"contracts/Diamond/Diamond.sol\":955:989  calldatacopy(0, 0, calldatasize()) */\n      calldatacopy\n        /* \"contracts/Diamond/Diamond.sol\":1118:1119  0 */\n      0x00\n        /* \"contracts/Diamond/Diamond.sol\":1115:1116  0 */\n      dup1\n        /* \"contracts/Diamond/Diamond.sol\":1099:1113  calldatasize() */\n      calldatasize\n        /* \"contracts/Diamond/Diamond.sol\":1096:1097  0 */\n      0x00\n        /* \"contracts/Diamond/Diamond.sol\":1089:1094  facet */\n      dup5\n        /* \"contracts/Diamond/Diamond.sol\":1082:1087  gas() */\n      gas\n        /* \"contracts/Diamond/Diamond.sol\":1069:1120  delegatecall(gas(), facet, 0, calldatasize(), 0, 0) */\n      delegatecall\n        /* \"contracts/Diamond/Diamond.sol\":1190:1206  returndatasize() */\n      returndatasize\n        /* \"contracts/Diamond/Diamond.sol\":1187:1188  0 */\n      0x00\n        /* \"contracts/Diamond/Diamond.sol\":1184:1185  0 */\n      dup1\n        /* \"contracts/Diamond/Diamond.sol\":1169:1207  returndatacopy(0, 0, returndatasize()) */\n      returndatacopy\n        /* \"contracts/Diamond/Diamond.sol\":1294:1300  result */\n      dup1\n        /* \"contracts/Diamond/Diamond.sol\":1318:1319  0 */\n      0x00\n        /* \"contracts/Diamond/Diamond.sol\":1313:1349  case 0 {revert(0, returndatasize())} */\n      dup2\n      eq\n      tag_10\n      jumpi\n        /* \"contracts/Diamond/Diamond.sol\":1382:1398  returndatasize() */\n      returndatasize\n        /* \"contracts/Diamond/Diamond.sol\":1379:1380  0 */\n      0x00\n        /* \"contracts/Diamond/Diamond.sol\":1371:1399  return (0, returndatasize()) */\n      return\n        /* \"contracts/Diamond/Diamond.sol\":1313:1349  case 0 {revert(0, returndatasize())} */\n    tag_10:\n        /* \"contracts/Diamond/Diamond.sol\":1331:1347  returndatasize() */\n      returndatasize\n        /* \"contracts/Diamond/Diamond.sol\":1328:1329  0 */\n      0x00\n        /* \"contracts/Diamond/Diamond.sol\":1321:1348  revert(0, returndatasize()) */\n      revert\n        /* \"contracts/Diamond/Diamond.sol\":334:467  function getNumber100() public view returns(uint256 num){... */\n    tag_3:\n      callvalue\n      dup1\n      iszero\n      tag_11\n      jumpi\n      0x00\n      dup1\n      revert\n    tag_11:\n      pop\n      tag_12\n      tag_13\n      jump\t// in\n    tag_12:\n      mload(0x40)\n      tag_14\n      swap2\n      swap1\n      tag_15\n      jump\t// in\n    tag_14:\n      mload(0x40)\n      dup1\n      swap2\n      sub\n      swap1\n      return\n        /* \"contracts/Diamond/Diamond.sol\":197:328  function getNumber10() public view returns(uint256 num){... */\n    tag_4:\n      callvalue\n      dup1\n      iszero\n      tag_16\n      jumpi\n      0x00\n      dup1\n      revert\n    tag_16:\n      pop\n      tag_17\n      tag_18\n      jump\t// in\n    tag_17:\n      mload(0x40)\n      tag_19\n      swap2\n      swap1\n      tag_15\n      jump\t// in\n    tag_19:\n      mload(0x40)\n      dup1\n      swap2\n      sub\n      swap1\n      return\n        /* \"contracts/Diamond/Diamond.sol\":1422:2727  function diamondCut(FacetCut[] calldata _diamondCut, address _init, bytes calldata _calldata) external{... */\n    tag_5:\n      callvalue\n      dup1\n      iszero\n      tag_20\n      jumpi\n      0x00\n      dup1\n      revert\n    tag_20:\n      pop\n      tag_21\n      0x04\n      dup1\n      calldatasize\n      sub\n      dup2\n      add\n      swap1\n      tag_22\n      swap2\n      swap1\n      tag_23\n      jump\t// in\n    tag_22:\n      tag_24\n      jump\t// in\n    tag_21:\n      stop\n        /* \"contracts/Diamond/Diamond.sol\":334:467  function getNumber100() public view returns(uint256 num){... */\n    tag_13:\n        /* \"contracts/Diamond/Diamond.sol\":378:389  uint256 num */\n      0x00\n        /* \"contracts/Diamond/Diamond.sol\":400:420  MyStorage storage ms */\n      dup1\n        /* \"contracts/Diamond/Diamond.sol\":423:434  myStorage() */\n      tag_26\n        /* \"contracts/Diamond/Diamond.sol\":423:432  myStorage */\n      tag_27\n        /* \"contracts/Diamond/Diamond.sol\":423:434  myStorage() */\n      jump\t// in\n    tag_26:\n        /* \"contracts/Diamond/Diamond.sol\":400:434  MyStorage storage ms = myStorage() */\n      swap1\n      pop\n        /* \"contracts/Diamond/Diamond.sol\":451:453  ms */\n      dup1\n        /* \"contracts/Diamond/Diamond.sol\":451:460  ms.num100 */\n      0x01\n      add\n      sload\n        /* \"contracts/Diamond/Diamond.sol\":444:460  return ms.num100 */\n      swap2\n      pop\n      pop\n        /* \"contracts/Diamond/Diamond.sol\":334:467  function getNumber100() public view returns(uint256 num){... */\n      swap1\n      jump\t// out\n        /* \"contracts/Diamond/Diamond.sol\":197:328  function getNumber10() public view returns(uint256 num){... */\n    tag_18:\n        /* \"contracts/Diamond/Diamond.sol\":240:251  uint256 num */\n      0x00\n        /* \"contracts/Diamond/Diamond.sol\":262:282  MyStorage storage ms */\n      dup1\n        /* \"contracts/Diamond/Diamond.sol\":285:296  myStorage() */\n      tag_29\n        /* \"contracts/Diamond/Diamond.sol\":285:294  myStorage */\n      tag_27\n        /* \"contracts/Diamond/Diamond.sol\":285:296  myStorage() */\n      jump\t// in\n    tag_29:\n        /* \"contracts/Diamond/Diamond.sol\":262:296  MyStorage storage ms = myStorage() */\n      swap1\n      pop\n        /* \"contracts/Diamond/Diamond.sol\":313:315  ms */\n      dup1\n        /* \"contracts/Diamond/Diamond.sol\":313:321  ms.num10 */\n      0x00\n      add\n      sload\n        /* \"contracts/Diamond/Diamond.sol\":306:321  return ms.num10 */\n      swap2\n      pop\n      pop\n        /* \"contracts/Diamond/Diamond.sol\":197:328  function getNumber10() public view returns(uint256 num){... */\n      swap1\n      jump\t// out\n        /* \"contracts/Diamond/Diamond.sol\":1422:2727  function diamondCut(FacetCut[] calldata _diamondCut, address _init, bytes calldata _calldata) external{... */\n    tag_24:\n        /* \"contracts/Diamond/Diamond.sol\":1539:1545  uint i */\n      0x00\n        /* \"contracts/Diamond/Diamond.sol\":1534:2721  for (uint i = 0; i < _diamondCut.length; i++){... */\n    tag_31:\n        /* \"contracts/Diamond/Diamond.sol\":1555:1566  _diamondCut */\n      dup6\n      dup6\n        /* \"contracts/Diamond/Diamond.sol\":1555:1573  _diamondCut.length */\n      swap1\n      pop\n        /* \"contracts/Diamond/Diamond.sol\":1551:1552  i */\n      dup2\n        /* \"contracts/Diamond/Diamond.sol\":1551:1573  i < _diamondCut.length */\n      lt\n        /* \"contracts/Diamond/Diamond.sol\":1534:2721  for (uint i = 0; i < _diamondCut.length; i++){... */\n      iszero\n      tag_32\n      jumpi\n        /* \"contracts/Diamond/Diamond.sol\":1621:1639  FacetCutAction.Add */\n      0x00\n        /* \"contracts/Diamond/Diamond.sol\":1596:1639  _diamondCut[i].action == FacetCutAction.Add */\n      0x02\n      dup2\n      gt\n      iszero\n      tag_34\n      jumpi\n      tag_35\n      tag_36\n      jump\t// in\n    tag_35:\n    tag_34:\n        /* \"contracts/Diamond/Diamond.sol\":1596:1607  _diamondCut */\n      dup7\n      dup7\n        /* \"contracts/Diamond/Diamond.sol\":1608:1609  i */\n      dup4\n        /* \"contracts/Diamond/Diamond.sol\":1596:1610  _diamondCut[i] */\n      dup2\n      dup2\n      lt\n      tag_37\n      jumpi\n      tag_38\n      tag_39\n      jump\t// in\n    tag_38:\n    tag_37:\n      swap1\n      pop\n      0x20\n      mul\n      dup2\n      add\n      swap1\n      tag_40\n      swap2\n      swap1\n      tag_41\n      jump\t// in\n    tag_40:\n        /* \"contracts/Diamond/Diamond.sol\":1596:1617  _diamondCut[i].action */\n      0x20\n      add\n      0x20\n      dup2\n      add\n      swap1\n      tag_42\n      swap2\n      swap1\n      tag_43\n      jump\t// in\n    tag_42:\n        /* \"contracts/Diamond/Diamond.sol\":1596:1639  _diamondCut[i].action == FacetCutAction.Add */\n      0x02\n      dup2\n      gt\n      iszero\n      tag_44\n      jumpi\n      tag_45\n      tag_36\n      jump\t// in\n    tag_45:\n    tag_44:\n      sub\n        /* \"contracts/Diamond/Diamond.sol\":1593:1978  if(_diamondCut[i].action == FacetCutAction.Add){... */\n      tag_46\n      jumpi\n        /* \"contracts/Diamond/Diamond.sol\":1662:1668  uint k */\n      0x00\n        /* \"contracts/Diamond/Diamond.sol\":1658:1964  for(uint k = 0; k < _diamondCut[i].functionSelectors.length; k++){... */\n    tag_47:\n        /* \"contracts/Diamond/Diamond.sol\":1678:1689  _diamondCut */\n      dup7\n      dup7\n        /* \"contracts/Diamond/Diamond.sol\":1690:1691  i */\n      dup4\n        /* \"contracts/Diamond/Diamond.sol\":1678:1692  _diamondCut[i] */\n      dup2\n      dup2\n      lt\n      tag_50\n      jumpi\n      tag_51\n      tag_39\n      jump\t// in\n    tag_51:\n    tag_50:\n      swap1\n      pop\n      0x20\n      mul\n      dup2\n      add\n      swap1\n      tag_52\n      swap2\n      swap1\n      tag_41\n      jump\t// in\n    tag_52:\n        /* \"contracts/Diamond/Diamond.sol\":1678:1710  _diamondCut[i].functionSelectors */\n      dup1\n      0x40\n      add\n      swap1\n      tag_53\n      swap2\n      swap1\n      tag_54\n      jump\t// in\n    tag_53:\n        /* \"contracts/Diamond/Diamond.sol\":1678:1717  _diamondCut[i].functionSelectors.length */\n      swap1\n      pop\n        /* \"contracts/Diamond/Diamond.sol\":1674:1675  k */\n      dup2\n        /* \"contracts/Diamond/Diamond.sol\":1674:1717  k < _diamondCut[i].functionSelectors.length */\n      lt\n        /* \"contracts/Diamond/Diamond.sol\":1658:1964  for(uint k = 0; k < _diamondCut[i].functionSelectors.length; k++){... */\n      iszero\n      tag_48\n      jumpi\n        /* \"contracts/Diamond/Diamond.sol\":1814:1815  0 */\n      0x00\n        /* \"contracts/Diamond/Diamond.sol\":1748:1816  selectorToAddress[_diamondCut[i].functionSelectors[k]] == address(0) */\n      0xffffffffffffffffffffffffffffffffffffffff\n      and\n        /* \"contracts/Diamond/Diamond.sol\":1748:1765  selectorToAddress */\n      0x00\n        /* \"contracts/Diamond/Diamond.sol\":1748:1802  selectorToAddress[_diamondCut[i].functionSelectors[k]] */\n      dup1\n        /* \"contracts/Diamond/Diamond.sol\":1766:1777  _diamondCut */\n      dup10\n      dup10\n        /* \"contracts/Diamond/Diamond.sol\":1778:1779  i */\n      dup7\n        /* \"contracts/Diamond/Diamond.sol\":1766:1780  _diamondCut[i] */\n      dup2\n      dup2\n      lt\n      tag_55\n      jumpi\n      tag_56\n      tag_39\n      jump\t// in\n    tag_56:\n    tag_55:\n      swap1\n      pop\n      0x20\n      mul\n      dup2\n      add\n      swap1\n      tag_57\n      swap2\n      swap1\n      tag_41\n      jump\t// in\n    tag_57:\n        /* \"contracts/Diamond/Diamond.sol\":1766:1798  _diamondCut[i].functionSelectors */\n      dup1\n      0x40\n      add\n      swap1\n      tag_58\n      swap2\n      swap1\n      tag_54\n      jump\t// in\n    tag_58:\n        /* \"contracts/Diamond/Diamond.sol\":1799:1800  k */\n      dup6\n        /* \"contracts/Diamond/Diamond.sol\":1766:1801  _diamondCut[i].functionSelectors[k] */\n      dup2\n      dup2\n      lt\n      tag_59\n      jumpi\n      tag_60\n      tag_39\n      jump\t// in\n    tag_60:\n    tag_59:\n      swap1\n      pop\n      0x20\n      mul\n      add\n      0x20\n      dup2\n      add\n      swap1\n      tag_61\n      swap2\n      swap1\n      tag_62\n      jump\t// in\n    tag_61:\n        /* \"contracts/Diamond/Diamond.sol\":1748:1802  selectorToAddress[_diamondCut[i].functionSelectors[k]] */\n      not(0xffffffffffffffffffffffffffffffffffffffffffffffffffffffff)\n      and\n      not(0xffffffffffffffffffffffffffffffffffffffffffffffffffffffff)\n      and\n      dup2\n      mstore\n      0x20\n      add\n      swap1\n      dup2\n      mstore\n      0x20\n      add\n      0x00\n      keccak256\n      0x00\n      swap1\n      sload\n      swap1\n      0x0100\n      exp\n      swap1\n      div\n      0xffffffffffffffffffffffffffffffffffffffff\n      and\n        /* \"contracts/Diamond/Diamond.sol\":1748:1816  selectorToAddress[_diamondCut[i].functionSelectors[k]] == address(0) */\n      0xffffffffffffffffffffffffffffffffffffffff\n      and\n      sub\n        /* \"contracts/Diamond/Diamond.sol\":1745:1946  if(selectorToAddress[_diamondCut[i].functionSelectors[k]] == address(0)){... */\n      tag_63\n      jumpi\n        /* \"contracts/Diamond/Diamond.sol\":1896:1907  _diamondCut */\n      dup7\n      dup7\n        /* \"contracts/Diamond/Diamond.sol\":1908:1909  i */\n      dup4\n        /* \"contracts/Diamond/Diamond.sol\":1896:1910  _diamondCut[i] */\n      dup2\n      dup2\n      lt\n      tag_64\n      jumpi\n      tag_65\n      tag_39\n      jump\t// in\n    tag_65:\n    tag_64:\n      swap1\n      pop\n      0x20\n      mul\n      dup2\n      add\n      swap1\n      tag_66\n      swap2\n      swap1\n      tag_41\n      jump\t// in\n    tag_66:\n        /* \"contracts/Diamond/Diamond.sol\":1896:1923  _diamondCut[i].facetAddress */\n      0x00\n      add\n      0x20\n      dup2\n      add\n      swap1\n      tag_67\n      swap2\n      swap1\n      tag_68\n      jump\t// in\n    tag_67:\n        /* \"contracts/Diamond/Diamond.sol\":1839:1856  selectorToAddress */\n      0x00\n        /* \"contracts/Diamond/Diamond.sol\":1839:1893  selectorToAddress[_diamondCut[i].functionSelectors[k]] */\n      dup1\n        /* \"contracts/Diamond/Diamond.sol\":1857:1868  _diamondCut */\n      dup10\n      dup10\n        /* \"contracts/Diamond/Diamond.sol\":1869:1870  i */\n      dup7\n        /* \"contracts/Diamond/Diamond.sol\":1857:1871  _diamondCut[i] */\n      dup2\n      dup2\n      lt\n      tag_69\n      jumpi\n      tag_70\n      tag_39\n      jump\t// in\n    tag_70:\n    tag_69:\n      swap1\n      pop\n      0x20\n      mul\n      dup2\n      add\n      swap1\n      tag_71\n      swap2\n      swap1\n      tag_41\n      jump\t// in\n    tag_71:\n        /* \"contracts/Diamond/Diamond.sol\":1857:1889  _diamondCut[i].functionSelectors */\n      dup1\n      0x40\n      add\n      swap1\n      tag_72\n      swap2\n      swap1\n      tag_54\n      jump\t// in\n    tag_72:\n        /* \"contracts/Diamond/Diamond.sol\":1890:1891  k */\n      dup6\n        /* \"contracts/Diamond/Diamond.sol\":1857:1892  _diamondCut[i].functionSelectors[k] */\n      dup2\n      dup2\n      lt\n      tag_73\n      jumpi\n      tag_74\n      tag_39\n      jump\t// in\n    tag_74:\n    tag_73:\n      swap1\n      pop\n      0x20\n      mul\n      add\n      0x20\n      dup2\n      add\n      swap1\n      tag_75\n      swap2\n      swap1\n      tag_62\n      jump\t// in\n    tag_75:\n        /* \"contracts/Diamond/Diamond.sol\":1839:1893  selectorToAddress[_diamondCut[i].functionSelectors[k]] */\n      not(0xffffffffffffffffffffffffffffffffffffffffffffffffffffffff)\n      and\n      not(0xffffffffffffffffffffffffffffffffffffffffffffffffffffffff)\n      and\n      dup2\n      mstore\n      0x20\n      add\n      swap1\n      dup2\n      mstore\n      0x20\n      add\n      0x00\n      keccak256\n      0x00\n        /* \"contracts/Diamond/Diamond.sol\":1839:1923  selectorToAddress[_diamondCut[i].functionSelectors[k]] = _diamondCut[i].facetAddress */\n      0x0100\n      exp\n      dup2\n      sload\n      dup2\n      0xffffffffffffffffffffffffffffffffffffffff\n      mul\n      not\n      and\n      swap1\n      dup4\n      0xffffffffffffffffffffffffffffffffffffffff\n      and\n      mul\n      or\n      swap1\n      sstore\n      pop\n        /* \"contracts/Diamond/Diamond.sol\":1745:1946  if(selectorToAddress[_diamondCut[i].functionSelectors[k]] == address(0)){... */\n    tag_63:\n        /* \"contracts/Diamond/Diamond.sol\":1719:1722  k++ */\n      dup1\n      dup1\n      tag_76\n      swap1\n      tag_77\n      jump\t// in\n    tag_76:\n      swap2\n      pop\n      pop\n        /* \"contracts/Diamond/Diamond.sol\":1658:1964  for(uint k = 0; k < _diamondCut[i].functionSelectors.length; k++){... */\n      jump(tag_47)\n    tag_48:\n      pop\n        /* \"contracts/Diamond/Diamond.sol\":1593:1978  if(_diamondCut[i].action == FacetCutAction.Add){... */\n    tag_46:\n        /* \"contracts/Diamond/Diamond.sol\":2020:2042  FacetCutAction.Replace */\n      0x01\n        /* \"contracts/Diamond/Diamond.sol\":1995:2042  _diamondCut[i].action == FacetCutAction.Replace */\n      0x02\n      dup2\n      gt\n      iszero\n      tag_78\n      jumpi\n      tag_79\n      tag_36\n      jump\t// in\n    tag_79:\n    tag_78:\n        /* \"contracts/Diamond/Diamond.sol\":1995:2006  _diamondCut */\n      dup7\n      dup7\n        /* \"contracts/Diamond/Diamond.sol\":2007:2008  i */\n      dup4\n        /* \"contracts/Diamond/Diamond.sol\":1995:2009  _diamondCut[i] */\n      dup2\n      dup2\n      lt\n      tag_80\n      jumpi\n      tag_81\n      tag_39\n      jump\t// in\n    tag_81:\n    tag_80:\n      swap1\n      pop\n      0x20\n      mul\n      dup2\n      add\n      swap1\n      tag_82\n      swap2\n      swap1\n      tag_41\n      jump\t// in\n    tag_82:\n        /* \"contracts/Diamond/Diamond.sol\":1995:2016  _diamondCut[i].action */\n      0x20\n      add\n      0x20\n      dup2\n      add\n      swap1\n      tag_83\n      swap2\n      swap1\n      tag_43\n      jump\t// in\n    tag_83:\n        /* \"contracts/Diamond/Diamond.sol\":1995:2042  _diamondCut[i].action == FacetCutAction.Replace */\n      0x02\n      dup2\n      gt\n      iszero\n      tag_84\n      jumpi\n      tag_85\n      tag_36\n      jump\t// in\n    tag_85:\n    tag_84:\n      sub\n        /* \"contracts/Diamond/Diamond.sol\":1992:2381  if(_diamondCut[i].action == FacetCutAction.Replace){... */\n      tag_86\n      jumpi\n        /* \"contracts/Diamond/Diamond.sol\":2065:2071  uint k */\n      0x00\n        /* \"contracts/Diamond/Diamond.sol\":2061:2367  for(uint k = 0; k < _diamondCut[i].functionSelectors.length; k++){... */\n    tag_87:\n        /* \"contracts/Diamond/Diamond.sol\":2081:2092  _diamondCut */\n      dup7\n      dup7\n        /* \"contracts/Diamond/Diamond.sol\":2093:2094  i */\n      dup4\n        /* \"contracts/Diamond/Diamond.sol\":2081:2095  _diamondCut[i] */\n      dup2\n      dup2\n      lt\n      tag_90\n      jumpi\n      tag_91\n      tag_39\n      jump\t// in\n    tag_91:\n    tag_90:\n      swap1\n      pop\n      0x20\n      mul\n      dup2\n      add\n      swap1\n      tag_92\n      swap2\n      swap1\n      tag_41\n      jump\t// in\n    tag_92:\n        /* \"contracts/Diamond/Diamond.sol\":2081:2113  _diamondCut[i].functionSelectors */\n      dup1\n      0x40\n      add\n      swap1\n      tag_93\n      swap2\n      swap1\n      tag_54\n      jump\t// in\n    tag_93:\n        /* \"contracts/Diamond/Diamond.sol\":2081:2120  _diamondCut[i].functionSelectors.length */\n      swap1\n      pop\n        /* \"contracts/Diamond/Diamond.sol\":2077:2078  k */\n      dup2\n        /* \"contracts/Diamond/Diamond.sol\":2077:2120  k < _diamondCut[i].functionSelectors.length */\n      lt\n        /* \"contracts/Diamond/Diamond.sol\":2061:2367  for(uint k = 0; k < _diamondCut[i].functionSelectors.length; k++){... */\n      iszero\n      tag_88\n      jumpi\n        /* \"contracts/Diamond/Diamond.sol\":2217:2218  0 */\n      0x00\n        /* \"contracts/Diamond/Diamond.sol\":2151:2219  selectorToAddress[_diamondCut[i].functionSelectors[k]] != address(0) */\n      0xffffffffffffffffffffffffffffffffffffffff\n      and\n        /* \"contracts/Diamond/Diamond.sol\":2151:2168  selectorToAddress */\n      0x00\n        /* \"contracts/Diamond/Diamond.sol\":2151:2205  selectorToAddress[_diamondCut[i].functionSelectors[k]] */\n      dup1\n        /* \"contracts/Diamond/Diamond.sol\":2169:2180  _diamondCut */\n      dup10\n      dup10\n        /* \"contracts/Diamond/Diamond.sol\":2181:2182  i */\n      dup7\n        /* \"contracts/Diamond/Diamond.sol\":2169:2183  _diamondCut[i] */\n      dup2\n      dup2\n      lt\n      tag_94\n      jumpi\n      tag_95\n      tag_39\n      jump\t// in\n    tag_95:\n    tag_94:\n      swap1\n      pop\n      0x20\n      mul\n      dup2\n      add\n      swap1\n      tag_96\n      swap2\n      swap1\n      tag_41\n      jump\t// in\n    tag_96:\n        /* \"contracts/Diamond/Diamond.sol\":2169:2201  _diamondCut[i].functionSelectors */\n      dup1\n      0x40\n      add\n      swap1\n      tag_97\n      swap2\n      swap1\n      tag_54\n      jump\t// in\n    tag_97:\n        /* \"contracts/Diamond/Diamond.sol\":2202:2203  k */\n      dup6\n        /* \"contracts/Diamond/Diamond.sol\":2169:2204  _diamondCut[i].functionSelectors[k] */\n      dup2\n      dup2\n      lt\n      tag_98\n      jumpi\n      tag_99\n      tag_39\n      jump\t// in\n    tag_99:\n    tag_98:\n      swap1\n      pop\n      0x20\n      mul\n      add\n      0x20\n      dup2\n      add\n      swap1\n      tag_100\n      swap2\n      swap1\n      tag_62\n      jump\t// in\n    tag_100:\n        /* \"contracts/Diamond/Diamond.sol\":2151:2205  selectorToAddress[_diamondCut[i].functionSelectors[k]] */\n      not(0xffffffffffffffffffffffffffffffffffffffffffffffffffffffff)\n      and\n      not(0xffffffffffffffffffffffffffffffffffffffffffffffffffffffff)\n      and\n      dup2\n      mstore\n      0x20\n      add\n      swap1\n      dup2\n      mstore\n      0x20\n      add\n      0x00\n      keccak256\n      0x00\n      swap1\n      sload\n      swap1\n      0x0100\n      exp\n      swap1\n      div\n      0xffffffffffffffffffffffffffffffffffffffff\n      and\n        /* \"contracts/Diamond/Diamond.sol\":2151:2219  selectorToAddress[_diamondCut[i].functionSelectors[k]] != address(0) */\n      0xffffffffffffffffffffffffffffffffffffffff\n      and\n      eq\n        /* \"contracts/Diamond/Diamond.sol\":2148:2349  if(selectorToAddress[_diamondCut[i].functionSelectors[k]] != address(0)){... */\n      tag_101\n      jumpi\n        /* \"contracts/Diamond/Diamond.sol\":2299:2310  _diamondCut */\n      dup7\n      dup7\n        /* \"contracts/Diamond/Diamond.sol\":2311:2312  i */\n      dup4\n        /* \"contracts/Diamond/Diamond.sol\":2299:2313  _diamondCut[i] */\n      dup2\n      dup2\n      lt\n      tag_102\n      jumpi\n      tag_103\n      tag_39\n      jump\t// in\n    tag_103:\n    tag_102:\n      swap1\n      pop\n      0x20\n      mul\n      dup2\n      add\n      swap1\n      tag_104\n      swap2\n      swap1\n      tag_41\n      jump\t// in\n    tag_104:\n        /* \"contracts/Diamond/Diamond.sol\":2299:2326  _diamondCut[i].facetAddress */\n      0x00\n      add\n      0x20\n      dup2\n      add\n      swap1\n      tag_105\n      swap2\n      swap1\n      tag_68\n      jump\t// in\n    tag_105:\n        /* \"contracts/Diamond/Diamond.sol\":2242:2259  selectorToAddress */\n      0x00\n        /* \"contracts/Diamond/Diamond.sol\":2242:2296  selectorToAddress[_diamondCut[i].functionSelectors[k]] */\n      dup1\n        /* \"contracts/Diamond/Diamond.sol\":2260:2271  _diamondCut */\n      dup10\n      dup10\n        /* \"contracts/Diamond/Diamond.sol\":2272:2273  i */\n      dup7\n        /* \"contracts/Diamond/Diamond.sol\":2260:2274  _diamondCut[i] */\n      dup2\n      dup2\n      lt\n      tag_106\n      jumpi\n      tag_107\n      tag_39\n      jump\t// in\n    tag_107:\n    tag_106:\n      swap1\n      pop\n      0x20\n      mul\n      dup2\n      add\n      swap1\n      tag_108\n      swap2\n      swap1\n      tag_41\n      jump\t// in\n    tag_108:\n        /* \"contracts/Diamond/Diamond.sol\":2260:2292  _diamondCut[i].functionSelectors */\n      dup1\n      0x40\n      add\n      swap1\n      tag_109\n      swap2\n      swap1\n      tag_54\n      jump\t// in\n    tag_109:\n        /* \"contracts/Diamond/Diamond.sol\":2293:2294  k */\n      dup6\n        /* \"contracts/Diamond/Diamond.sol\":2260:2295  _diamondCut[i].functionSelectors[k] */\n      dup2\n      dup2\n      lt\n      tag_110\n      jumpi\n      tag_111\n      tag_39\n      jump\t// in\n    tag_111:\n    tag_110:\n      swap1\n      pop\n      0x20\n      mul\n      add\n      0x20\n      dup2\n      add\n      swap1\n      tag_112\n      swap2\n      swap1\n      tag_62\n      jump\t// in\n    tag_112:\n        /* \"contracts/Diamond/Diamond.sol\":2242:2296  selectorToAddress[_diamondCut[i].functionSelectors[k]] */\n      not(0xffffffffffffffffffffffffffffffffffffffffffffffffffffffff)\n      and\n      not(0xffffffffffffffffffffffffffffffffffffffffffffffffffffffff)\n      and\n      dup2\n      mstore\n      0x20\n      add\n      swap1\n      dup2\n      mstore\n      0x20\n      add\n      0x00\n      keccak256\n      0x00\n        /* \"contracts/Diamond/Diamond.sol\":2242:2326  selectorToAddress[_diamondCut[i].functionSelectors[k]] = _diamondCut[i].facetAddress */\n      0x0100\n      exp\n      dup2\n      sload\n      dup2\n      0xffffffffffffffffffffffffffffffffffffffff\n      mul\n      not\n      and\n      swap1\n      dup4\n      0xffffffffffffffffffffffffffffffffffffffff\n      and\n      mul\n      or\n      swap1\n      sstore\n      pop\n        /* \"contracts/Diamond/Diamond.sol\":2148:2349  if(selectorToAddress[_diamondCut[i].functionSelectors[k]] != address(0)){... */\n    tag_101:\n        /* \"contracts/Diamond/Diamond.sol\":2122:2125  k++ */\n      dup1\n      dup1\n      tag_113\n      swap1\n      tag_77\n      jump\t// in\n    tag_113:\n      swap2\n      pop\n      pop\n        /* \"contracts/Diamond/Diamond.sol\":2061:2367  for(uint k = 0; k < _diamondCut[i].functionSelectors.length; k++){... */\n      jump(tag_87)\n    tag_88:\n      pop\n        /* \"contracts/Diamond/Diamond.sol\":1992:2381  if(_diamondCut[i].action == FacetCutAction.Replace){... */\n    tag_86:\n        /* \"contracts/Diamond/Diamond.sol\":2423:2444  FacetCutAction.Remove */\n      0x02\n        /* \"contracts/Diamond/Diamond.sol\":2398:2444  _diamondCut[i].action == FacetCutAction.Remove */\n      dup1\n      dup2\n      gt\n      iszero\n      tag_114\n      jumpi\n      tag_115\n      tag_36\n      jump\t// in\n    tag_115:\n    tag_114:\n        /* \"contracts/Diamond/Diamond.sol\":2398:2409  _diamondCut */\n      dup7\n      dup7\n        /* \"contracts/Diamond/Diamond.sol\":2410:2411  i */\n      dup4\n        /* \"contracts/Diamond/Diamond.sol\":2398:2412  _diamondCut[i] */\n      dup2\n      dup2\n      lt\n      tag_116\n      jumpi\n      tag_117\n      tag_39\n      jump\t// in\n    tag_117:\n    tag_116:\n      swap1\n      pop\n      0x20\n      mul\n      dup2\n      add\n      swap1\n      tag_118\n      swap2\n      swap1\n      tag_41\n      jump\t// in\n    tag_118:\n        /* \"contracts/Diamond/Diamond.sol\":2398:2419  _diamondCut[i].action */\n      0x20\n      add\n      0x20\n      dup2\n      add\n      swap1\n      tag_119\n      swap2\n      swap1\n      tag_43\n      jump\t// in\n    tag_119:\n        /* \"contracts/Diamond/Diamond.sol\":2398:2444  _diamondCut[i].action == FacetCutAction.Remove */\n      0x02\n      dup2\n      gt\n      iszero\n      tag_120\n      jumpi\n      tag_121\n      tag_36\n      jump\t// in\n    tag_121:\n    tag_120:\n      sub\n        /* \"contracts/Diamond/Diamond.sol\":2395:2650  if(_diamondCut[i].action == FacetCutAction.Remove){... */\n      tag_122\n      jumpi\n        /* \"contracts/Diamond/Diamond.sol\":2467:2473  uint k */\n      0x00\n        /* \"contracts/Diamond/Diamond.sol\":2463:2636  for(uint k = 0; k < _diamondCut[i].functionSelectors.length; k++){... */\n    tag_123:\n        /* \"contracts/Diamond/Diamond.sol\":2483:2494  _diamondCut */\n      dup7\n      dup7\n        /* \"contracts/Diamond/Diamond.sol\":2495:2496  i */\n      dup4\n        /* \"contracts/Diamond/Diamond.sol\":2483:2497  _diamondCut[i] */\n      dup2\n      dup2\n      lt\n      tag_126\n      jumpi\n      tag_127\n      tag_39\n      jump\t// in\n    tag_127:\n    tag_126:\n      swap1\n      pop\n      0x20\n      mul\n      dup2\n      add\n      swap1\n      tag_128\n      swap2\n      swap1\n      tag_41\n      jump\t// in\n    tag_128:\n        /* \"contracts/Diamond/Diamond.sol\":2483:2515  _diamondCut[i].functionSelectors */\n      dup1\n      0x40\n      add\n      swap1\n      tag_129\n      swap2\n      swap1\n      tag_54\n      jump\t// in\n    tag_129:\n        /* \"contracts/Diamond/Diamond.sol\":2483:2522  _diamondCut[i].functionSelectors.length */\n      swap1\n      pop\n        /* \"contracts/Diamond/Diamond.sol\":2479:2480  k */\n      dup2\n        /* \"contracts/Diamond/Diamond.sol\":2479:2522  k < _diamondCut[i].functionSelectors.length */\n      lt\n        /* \"contracts/Diamond/Diamond.sol\":2463:2636  for(uint k = 0; k < _diamondCut[i].functionSelectors.length; k++){... */\n      iszero\n      tag_124\n      jumpi\n        /* \"contracts/Diamond/Diamond.sol\":2615:2616  0 */\n      0x00\n        /* \"contracts/Diamond/Diamond.sol\":2550:2567  selectorToAddress */\n      dup1\n        /* \"contracts/Diamond/Diamond.sol\":2550:2604  selectorToAddress[_diamondCut[i].functionSelectors[k]] */\n      0x00\n        /* \"contracts/Diamond/Diamond.sol\":2568:2579  _diamondCut */\n      dup10\n      dup10\n        /* \"contracts/Diamond/Diamond.sol\":2580:2581  i */\n      dup7\n        /* \"contracts/Diamond/Diamond.sol\":2568:2582  _diamondCut[i] */\n      dup2\n      dup2\n      lt\n      tag_130\n      jumpi\n      tag_131\n      tag_39\n      jump\t// in\n    tag_131:\n    tag_130:\n      swap1\n      pop\n      0x20\n      mul\n      dup2\n      add\n      swap1\n      tag_132\n      swap2\n      swap1\n      tag_41\n      jump\t// in\n    tag_132:\n        /* \"contracts/Diamond/Diamond.sol\":2568:2600  _diamondCut[i].functionSelectors */\n      dup1\n      0x40\n      add\n      swap1\n      tag_133\n      swap2\n      swap1\n      tag_54\n      jump\t// in\n    tag_133:\n        /* \"contracts/Diamond/Diamond.sol\":2601:2602  k */\n      dup6\n        /* \"contracts/Diamond/Diamond.sol\":2568:2603  _diamondCut[i].functionSelectors[k] */\n      dup2\n      dup2\n      lt\n      tag_134\n      jumpi\n      tag_135\n      tag_39\n      jump\t// in\n    tag_135:\n    tag_134:\n      swap1\n      pop\n      0x20\n      mul\n      add\n      0x20\n      dup2\n      add\n      swap1\n      tag_136\n      swap2\n      swap1\n      tag_62\n      jump\t// in\n    tag_136:\n        /* \"contracts/Diamond/Diamond.sol\":2550:2604  selectorToAddress[_diamondCut[i].functionSelectors[k]] */\n      not(0xffffffffffffffffffffffffffffffffffffffffffffffffffffffff)\n      and\n      not(0xffffffffffffffffffffffffffffffffffffffffffffffffffffffff)\n      and\n      dup2\n      mstore\n      0x20\n      add\n      swap1\n      dup2\n      mstore\n      0x20\n      add\n      0x00\n      keccak256\n      0x00\n        /* \"contracts/Diamond/Diamond.sol\":2550:2617  selectorToAddress[_diamondCut[i].functionSelectors[k]] = address(0) */\n      0x0100\n      exp\n      dup2\n      sload\n      dup2\n      0xffffffffffffffffffffffffffffffffffffffff\n      mul\n      not\n      and\n      swap1\n      dup4\n      0xffffffffffffffffffffffffffffffffffffffff\n      and\n      mul\n      or\n      swap1\n      sstore\n      pop\n        /* \"contracts/Diamond/Diamond.sol\":2524:2527  k++ */\n      dup1\n      dup1\n      tag_137\n      swap1\n      tag_77\n      jump\t// in\n    tag_137:\n      swap2\n      pop\n      pop\n        /* \"contracts/Diamond/Diamond.sol\":2463:2636  for(uint k = 0; k < _diamondCut[i].functionSelectors.length; k++){... */\n      jump(tag_123)\n    tag_124:\n      pop\n        /* \"contracts/Diamond/Diamond.sol\":2395:2650  if(_diamondCut[i].action == FacetCutAction.Remove){... */\n    tag_122:\n        /* \"contracts/Diamond/Diamond.sol\":2669:2710  DiamondCut(_diamondCut, _init, _calldata) */\n      0x8faa70878671ccd212d20771b795c50af8fd3ff6cf27f4bde57e5d4de0aeb673\n        /* \"contracts/Diamond/Diamond.sol\":2680:2691  _diamondCut */\n      dup7\n      dup7\n        /* \"contracts/Diamond/Diamond.sol\":2693:2698  _init */\n      dup7\n        /* \"contracts/Diamond/Diamond.sol\":2700:2709  _calldata */\n      dup7\n      dup7\n        /* \"contracts/Diamond/Diamond.sol\":2669:2710  DiamondCut(_diamondCut, _init, _calldata) */\n      mload(0x40)\n      tag_138\n      swap6\n      swap5\n      swap4\n      swap3\n      swap2\n      swap1\n      tag_139\n      jump\t// in\n    tag_138:\n      mload(0x40)\n      dup1\n      swap2\n      sub\n      swap1\n      log1\n        /* \"contracts/Diamond/Diamond.sol\":1575:1578  i++ */\n      dup1\n      dup1\n      tag_140\n      swap1\n      tag_77\n      jump\t// in\n    tag_140:\n      swap2\n      pop\n      pop\n        /* \"contracts/Diamond/Diamond.sol\":1534:2721  for (uint i = 0; i < _diamondCut.length; i++){... */\n      jump(tag_31)\n    tag_32:\n      pop\n        /* \"contracts/Diamond/Diamond.sol\":1422:2727  function diamondCut(FacetCut[] calldata _diamondCut, address _init, bytes calldata _calldata) external{... */\n      pop\n      pop\n      pop\n      pop\n      pop\n      jump\t// out\n        /* \"contracts/Diamond/DiamondStorage.sol\":217:362  function myStorage() internal pure returns(MyStorage storage ms) {... */\n    tag_27:\n        /* \"contracts/Diamond/DiamondStorage.sol\":260:280  MyStorage storage ms */\n      0x00\n        /* \"contracts/Diamond/DiamondStorage.sol\":288:303  bytes32 ms_slot */\n      dup1\n        /* \"contracts/Diamond/DiamondStorage.sol\":306:323  keccak256(\"nums\") */\n      0x20bdb322702e8f31eb02a18e466059b6b3224433a6e129849583a03f267f40a3\n        /* \"contracts/Diamond/DiamondStorage.sol\":288:323  bytes32 ms_slot = keccak256(\"nums\") */\n      swap1\n      pop\n        /* \"contracts/Diamond/DiamondStorage.sol\":350:357  ms_slot */\n      dup1\n        /* \"contracts/Diamond/DiamondStorage.sol\":339:357  ms.slot := ms_slot */\n      swap2\n      pop\n        /* \"contracts/Diamond/DiamondStorage.sol\":338:358  {ms.slot := ms_slot} */\n      pop\n        /* \"contracts/Diamond/DiamondStorage.sol\":217:362  function myStorage() internal pure returns(MyStorage storage ms) {... */\n      swap1\n      jump\t// out\n        /* \"#utility.yul\":7:84   */\n    tag_142:\n        /* \"#utility.yul\":44:51   */\n      0x00\n        /* \"#utility.yul\":73:78   */\n      dup2\n        /* \"#utility.yul\":62:78   */\n      swap1\n      pop\n        /* \"#utility.yul\":7:84   */\n      swap2\n      swap1\n      pop\n      jump\t// out\n        /* \"#utility.yul\":90:208   */\n    tag_143:\n        /* \"#utility.yul\":177:201   */\n      tag_198\n        /* \"#utility.yul\":195:200   */\n      dup2\n        /* \"#utility.yul\":177:201   */\n      tag_142\n      jump\t// in\n    tag_198:\n        /* \"#utility.yul\":172:175   */\n      dup3\n        /* \"#utility.yul\":165:202   */\n      mstore\n        /* \"#utility.yul\":90:208   */\n      pop\n      pop\n      jump\t// out\n        /* \"#utility.yul\":214:436   */\n    tag_15:\n        /* \"#utility.yul\":307:311   */\n      0x00\n        /* \"#utility.yul\":345:347   */\n      0x20\n        /* \"#utility.yul\":334:343   */\n      dup3\n        /* \"#utility.yul\":330:348   */\n      add\n        /* \"#utility.yul\":322:348   */\n      swap1\n      pop\n        /* \"#utility.yul\":358:429   */\n      tag_200\n        /* \"#utility.yul\":426:427   */\n      0x00\n        /* \"#utility.yul\":415:424   */\n      dup4\n        /* \"#utility.yul\":411:428   */\n      add\n        /* \"#utility.yul\":402:408   */\n      dup5\n        /* \"#utility.yul\":358:429   */\n      tag_143\n      jump\t// in\n    tag_200:\n        /* \"#utility.yul\":214:436   */\n      swap3\n      swap2\n      pop\n      pop\n      jump\t// out\n        /* \"#utility.yul\":523:640   */\n    tag_145:\n        /* \"#utility.yul\":632:633   */\n      0x00\n        /* \"#utility.yul\":629:630   */\n      dup1\n        /* \"#utility.yul\":622:634   */\n      revert\n        /* \"#utility.yul\":646:763   */\n    tag_146:\n        /* \"#utility.yul\":755:756   */\n      0x00\n        /* \"#utility.yul\":752:753   */\n      dup1\n        /* \"#utility.yul\":745:757   */\n      revert\n        /* \"#utility.yul\":769:886   */\n    tag_147:\n        /* \"#utility.yul\":878:879   */\n      0x00\n        /* \"#utility.yul\":875:876   */\n      dup1\n        /* \"#utility.yul\":868:880   */\n      revert\n        /* \"#utility.yul\":892:1009   */\n    tag_148:\n        /* \"#utility.yul\":1001:1002   */\n      0x00\n        /* \"#utility.yul\":998:999   */\n      dup1\n        /* \"#utility.yul\":991:1003   */\n      revert\n        /* \"#utility.yul\":1015:1132   */\n    tag_149:\n        /* \"#utility.yul\":1124:1125   */\n      0x00\n        /* \"#utility.yul\":1121:1122   */\n      dup1\n        /* \"#utility.yul\":1114:1126   */\n      revert\n        /* \"#utility.yul\":1172:1767   */\n    tag_150:\n        /* \"#utility.yul\":1272:1280   */\n      0x00\n        /* \"#utility.yul\":1282:1288   */\n      dup1\n        /* \"#utility.yul\":1332:1335   */\n      dup4\n        /* \"#utility.yul\":1325:1329   */\n      0x1f\n        /* \"#utility.yul\":1317:1323   */\n      dup5\n        /* \"#utility.yul\":1313:1330   */\n      add\n        /* \"#utility.yul\":1309:1336   */\n      slt\n        /* \"#utility.yul\":1299:1421   */\n      tag_208\n      jumpi\n        /* \"#utility.yul\":1340:1419   */\n      tag_209\n      tag_147\n      jump\t// in\n    tag_209:\n        /* \"#utility.yul\":1299:1421   */\n    tag_208:\n        /* \"#utility.yul\":1453:1459   */\n      dup3\n        /* \"#utility.yul\":1440:1460   */\n      calldataload\n        /* \"#utility.yul\":1430:1460   */\n      swap1\n      pop\n        /* \"#utility.yul\":1483:1501   */\n      0xffffffffffffffff\n        /* \"#utility.yul\":1475:1481   */\n      dup2\n        /* \"#utility.yul\":1472:1502   */\n      gt\n        /* \"#utility.yul\":1469:1586   */\n      iszero\n      tag_210\n      jumpi\n        /* \"#utility.yul\":1505:1584   */\n      tag_211\n      tag_148\n      jump\t// in\n    tag_211:\n        /* \"#utility.yul\":1469:1586   */\n    tag_210:\n        /* \"#utility.yul\":1619:1623   */\n      0x20\n        /* \"#utility.yul\":1611:1617   */\n      dup4\n        /* \"#utility.yul\":1607:1624   */\n      add\n        /* \"#utility.yul\":1595:1624   */\n      swap2\n      pop\n        /* \"#utility.yul\":1673:1676   */\n      dup4\n        /* \"#utility.yul\":1665:1669   */\n      0x20\n        /* \"#utility.yul\":1657:1663   */\n      dup3\n        /* \"#utility.yul\":1653:1670   */\n      mul\n        /* \"#utility.yul\":1643:1651   */\n      dup4\n        /* \"#utility.yul\":1639:1671   */\n      add\n        /* \"#utility.yul\":1636:1677   */\n      gt\n        /* \"#utility.yul\":1633:1761   */\n      iszero\n      tag_212\n      jumpi\n        /* \"#utility.yul\":1680:1759   */\n      tag_213\n      tag_149\n      jump\t// in\n    tag_213:\n        /* \"#utility.yul\":1633:1761   */\n    tag_212:\n        /* \"#utility.yul\":1172:1767   */\n      swap3\n      pop\n      swap3\n      swap1\n      pop\n      jump\t// out\n        /* \"#utility.yul\":1773:1899   */\n    tag_151:\n        /* \"#utility.yul\":1810:1817   */\n      0x00\n        /* \"#utility.yul\":1850:1892   */\n      0xffffffffffffffffffffffffffffffffffffffff\n        /* \"#utility.yul\":1843:1848   */\n      dup3\n        /* \"#utility.yul\":1839:1893   */\n      and\n        /* \"#utility.yul\":1828:1893   */\n      swap1\n      pop\n        /* \"#utility.yul\":1773:1899   */\n      swap2\n      swap1\n      pop\n      jump\t// out\n        /* \"#utility.yul\":1905:2001   */\n    tag_152:\n        /* \"#utility.yul\":1942:1949   */\n      0x00\n        /* \"#utility.yul\":1971:1995   */\n      tag_216\n        /* \"#utility.yul\":1989:1994   */\n      dup3\n        /* \"#utility.yul\":1971:1995   */\n      tag_151\n      jump\t// in\n    tag_216:\n        /* \"#utility.yul\":1960:1995   */\n      swap1\n      pop\n        /* \"#utility.yul\":1905:2001   */\n      swap2\n      swap1\n      pop\n      jump\t// out\n        /* \"#utility.yul\":2007:2129   */\n    tag_153:\n        /* \"#utility.yul\":2080:2104   */\n      tag_218\n        /* \"#utility.yul\":2098:2103   */\n      dup2\n        /* \"#utility.yul\":2080:2104   */\n      tag_152\n      jump\t// in\n    tag_218:\n        /* \"#utility.yul\":2073:2078   */\n      dup2\n        /* \"#utility.yul\":2070:2105   */\n      eq\n        /* \"#utility.yul\":2060:2123   */\n      tag_219\n      jumpi\n        /* \"#utility.yul\":2119:2120   */\n      0x00\n        /* \"#utility.yul\":2116:2117   */\n      dup1\n        /* \"#utility.yul\":2109:2121   */\n      revert\n        /* \"#utility.yul\":2060:2123   */\n    tag_219:\n        /* \"#utility.yul\":2007:2129   */\n      pop\n      jump\t// out\n        /* \"#utility.yul\":2135:2274   */\n    tag_154:\n        /* \"#utility.yul\":2181:2186   */\n      0x00\n        /* \"#utility.yul\":2219:2225   */\n      dup2\n        /* \"#utility.yul\":2206:2226   */\n      calldataload\n        /* \"#utility.yul\":2197:2226   */\n      swap1\n      pop\n        /* \"#utility.yul\":2235:2268   */\n      tag_221\n        /* \"#utility.yul\":2262:2267   */\n      dup2\n        /* \"#utility.yul\":2235:2268   */\n      tag_153\n      jump\t// in\n    tag_221:\n        /* \"#utility.yul\":2135:2274   */\n      swap3\n      swap2\n      pop\n      pop\n      jump\t// out\n        /* \"#utility.yul\":2293:2845   */\n    tag_155:\n        /* \"#utility.yul\":2350:2358   */\n      0x00\n        /* \"#utility.yul\":2360:2366   */\n      dup1\n        /* \"#utility.yul\":2410:2413   */\n      dup4\n        /* \"#utility.yul\":2403:2407   */\n      0x1f\n        /* \"#utility.yul\":2395:2401   */\n      dup5\n        /* \"#utility.yul\":2391:2408   */\n      add\n        /* \"#utility.yul\":2387:2414   */\n      slt\n        /* \"#utility.yul\":2377:2499   */\n      tag_223\n      jumpi\n        /* \"#utility.yul\":2418:2497   */\n      tag_224\n      tag_147\n      jump\t// in\n    tag_224:\n        /* \"#utility.yul\":2377:2499   */\n    tag_223:\n        /* \"#utility.yul\":2531:2537   */\n      dup3\n        /* \"#utility.yul\":2518:2538   */\n      calldataload\n        /* \"#utility.yul\":2508:2538   */\n      swap1\n      pop\n        /* \"#utility.yul\":2561:2579   */\n      0xffffffffffffffff\n        /* \"#utility.yul\":2553:2559   */\n      dup2\n        /* \"#utility.yul\":2550:2580   */\n      gt\n        /* \"#utility.yul\":2547:2664   */\n      iszero\n      tag_225\n      jumpi\n        /* \"#utility.yul\":2583:2662   */\n      tag_226\n      tag_148\n      jump\t// in\n    tag_226:\n        /* \"#utility.yul\":2547:2664   */\n    tag_225:\n        /* \"#utility.yul\":2697:2701   */\n      0x20\n        /* \"#utility.yul\":2689:2695   */\n      dup4\n        /* \"#utility.yul\":2685:2702   */\n      add\n        /* \"#utility.yul\":2673:2702   */\n      swap2\n      pop\n        /* \"#utility.yul\":2751:2754   */\n      dup4\n        /* \"#utility.yul\":2743:2747   */\n      0x01\n        /* \"#utility.yul\":2735:2741   */\n      dup3\n        /* \"#utility.yul\":2731:2748   */\n      mul\n        /* \"#utility.yul\":2721:2729   */\n      dup4\n        /* \"#utility.yul\":2717:2749   */\n      add\n        /* \"#utility.yul\":2714:2755   */\n      gt\n        /* \"#utility.yul\":2711:2839   */\n      iszero\n      tag_227\n      jumpi\n        /* \"#utility.yul\":2758:2837   */\n      tag_228\n      tag_149\n      jump\t// in\n    tag_228:\n        /* \"#utility.yul\":2711:2839   */\n    tag_227:\n        /* \"#utility.yul\":2293:2845   */\n      swap3\n      pop\n      swap3\n      swap1\n      pop\n      jump\t// out\n        /* \"#utility.yul\":2851:3952   */\n    tag_23:\n        /* \"#utility.yul\":2993:2999   */\n      0x00\n        /* \"#utility.yul\":3001:3007   */\n      dup1\n        /* \"#utility.yul\":3009:3015   */\n      0x00\n        /* \"#utility.yul\":3017:3023   */\n      dup1\n        /* \"#utility.yul\":3025:3031   */\n      0x00\n        /* \"#utility.yul\":3074:3076   */\n      0x60\n        /* \"#utility.yul\":3062:3071   */\n      dup7\n        /* \"#utility.yul\":3053:3060   */\n      dup9\n        /* \"#utility.yul\":3049:3072   */\n      sub\n        /* \"#utility.yul\":3045:3077   */\n      slt\n        /* \"#utility.yul\":3042:3161   */\n      iszero\n      tag_230\n      jumpi\n        /* \"#utility.yul\":3080:3159   */\n      tag_231\n      tag_145\n      jump\t// in\n    tag_231:\n        /* \"#utility.yul\":3042:3161   */\n    tag_230:\n        /* \"#utility.yul\":3228:3229   */\n      0x00\n        /* \"#utility.yul\":3217:3226   */\n      dup7\n        /* \"#utility.yul\":3213:3230   */\n      add\n        /* \"#utility.yul\":3200:3231   */\n      calldataload\n        /* \"#utility.yul\":3258:3276   */\n      0xffffffffffffffff\n        /* \"#utility.yul\":3250:3256   */\n      dup2\n        /* \"#utility.yul\":3247:3277   */\n      gt\n        /* \"#utility.yul\":3244:3361   */\n      iszero\n      tag_232\n      jumpi\n        /* \"#utility.yul\":3280:3359   */\n      tag_233\n      tag_146\n      jump\t// in\n    tag_233:\n        /* \"#utility.yul\":3244:3361   */\n    tag_232:\n        /* \"#utility.yul\":3393:3500   */\n      tag_234\n        /* \"#utility.yul\":3492:3499   */\n      dup9\n        /* \"#utility.yul\":3483:3489   */\n      dup3\n        /* \"#utility.yul\":3472:3481   */\n      dup10\n        /* \"#utility.yul\":3468:3490   */\n      add\n        /* \"#utility.yul\":3393:3500   */\n      tag_150\n      jump\t// in\n    tag_234:\n        /* \"#utility.yul\":3375:3500   */\n      swap6\n      pop\n      swap6\n      pop\n        /* \"#utility.yul\":3171:3510   */\n      pop\n        /* \"#utility.yul\":3549:3551   */\n      0x20\n        /* \"#utility.yul\":3575:3628   */\n      tag_235\n        /* \"#utility.yul\":3620:3627   */\n      dup9\n        /* \"#utility.yul\":3611:3617   */\n      dup3\n        /* \"#utility.yul\":3600:3609   */\n      dup10\n        /* \"#utility.yul\":3596:3618   */\n      add\n        /* \"#utility.yul\":3575:3628   */\n      tag_154\n      jump\t// in\n    tag_235:\n        /* \"#utility.yul\":3565:3628   */\n      swap4\n      pop\n        /* \"#utility.yul\":3520:3638   */\n      pop\n        /* \"#utility.yul\":3705:3707   */\n      0x40\n        /* \"#utility.yul\":3694:3703   */\n      dup7\n        /* \"#utility.yul\":3690:3708   */\n      add\n        /* \"#utility.yul\":3677:3709   */\n      calldataload\n        /* \"#utility.yul\":3736:3754   */\n      0xffffffffffffffff\n        /* \"#utility.yul\":3728:3734   */\n      dup2\n        /* \"#utility.yul\":3725:3755   */\n      gt\n        /* \"#utility.yul\":3722:3839   */\n      iszero\n      tag_236\n      jumpi\n        /* \"#utility.yul\":3758:3837   */\n      tag_237\n      tag_146\n      jump\t// in\n    tag_237:\n        /* \"#utility.yul\":3722:3839   */\n    tag_236:\n        /* \"#utility.yul\":3871:3935   */\n      tag_238\n        /* \"#utility.yul\":3927:3934   */\n      dup9\n        /* \"#utility.yul\":3918:3924   */\n      dup3\n        /* \"#utility.yul\":3907:3916   */\n      dup10\n        /* \"#utility.yul\":3903:3925   */\n      add\n        /* \"#utility.yul\":3871:3935   */\n      tag_155\n      jump\t// in\n    tag_238:\n        /* \"#utility.yul\":3853:3935   */\n      swap3\n      pop\n      swap3\n      pop\n        /* \"#utility.yul\":3648:3945   */\n      pop\n        /* \"#utility.yul\":2851:3952   */\n      swap3\n      swap6\n      pop\n      swap3\n      swap6\n      swap1\n      swap4\n      pop\n      jump\t// out\n        /* \"#utility.yul\":3958:4138   */\n    tag_36:\n        /* \"#utility.yul\":4006:4083   */\n      0x4e487b7100000000000000000000000000000000000000000000000000000000\n        /* \"#utility.yul\":4003:4004   */\n      0x00\n        /* \"#utility.yul\":3996:4084   */\n      mstore\n        /* \"#utility.yul\":4103:4107   */\n      0x21\n        /* \"#utility.yul\":4100:4101   */\n      0x04\n        /* \"#utility.yul\":4093:4108   */\n      mstore\n        /* \"#utility.yul\":4127:4131   */\n      0x24\n        /* \"#utility.yul\":4124:4125   */\n      0x00\n        /* \"#utility.yul\":4117:4132   */\n      revert\n        /* \"#utility.yul\":4144:4324   */\n    tag_39:\n        /* \"#utility.yul\":4192:4269   */\n      0x4e487b7100000000000000000000000000000000000000000000000000000000\n        /* \"#utility.yul\":4189:4190   */\n      0x00\n        /* \"#utility.yul\":4182:4270   */\n      mstore\n        /* \"#utility.yul\":4289:4293   */\n      0x32\n        /* \"#utility.yul\":4286:4287   */\n      0x04\n        /* \"#utility.yul\":4279:4294   */\n      mstore\n        /* \"#utility.yul\":4313:4317   */\n      0x24\n        /* \"#utility.yul\":4310:4311   */\n      0x00\n        /* \"#utility.yul\":4303:4318   */\n      revert\n        /* \"#utility.yul\":4330:4447   */\n    tag_156:\n        /* \"#utility.yul\":4439:4440   */\n      0x00\n        /* \"#utility.yul\":4436:4437   */\n      dup1\n        /* \"#utility.yul\":4429:4441   */\n      revert\n        /* \"#utility.yul\":4453:4570   */\n    tag_157:\n        /* \"#utility.yul\":4562:4563   */\n      0x00\n        /* \"#utility.yul\":4559:4560   */\n      dup1\n        /* \"#utility.yul\":4552:4564   */\n      revert\n        /* \"#utility.yul\":4576:4693   */\n    tag_158:\n        /* \"#utility.yul\":4685:4686   */\n      0x00\n        /* \"#utility.yul\":4682:4683   */\n      dup1\n        /* \"#utility.yul\":4675:4687   */\n      revert\n        /* \"#utility.yul\":4699:5092   */\n    tag_41:\n        /* \"#utility.yul\":4792:4796   */\n      0x00\n        /* \"#utility.yul\":4846:4857   */\n      dup3\n        /* \"#utility.yul\":4833:4858   */\n      calldataload\n        /* \"#utility.yul\":4946:4947   */\n      0x01\n        /* \"#utility.yul\":4940:4944   */\n      0x60\n        /* \"#utility.yul\":4936:4948   */\n      sub\n        /* \"#utility.yul\":4925:4933   */\n      dup4\n        /* \"#utility.yul\":4909:4923   */\n      calldatasize\n        /* \"#utility.yul\":4905:4934   */\n      sub\n        /* \"#utility.yul\":4901:4949   */\n      sub\n        /* \"#utility.yul\":4881:4899   */\n      dup2\n        /* \"#utility.yul\":4877:4950   */\n      slt\n        /* \"#utility.yul\":4867:5035   */\n      tag_245\n      jumpi\n        /* \"#utility.yul\":4954:5033   */\n      tag_246\n      tag_156\n      jump\t// in\n    tag_246:\n        /* \"#utility.yul\":4867:5035   */\n    tag_245:\n        /* \"#utility.yul\":5066:5084   */\n      dup1\n        /* \"#utility.yul\":5056:5064   */\n      dup4\n        /* \"#utility.yul\":5052:5085   */\n      add\n        /* \"#utility.yul\":5044:5085   */\n      swap2\n      pop\n        /* \"#utility.yul\":4797:5092   */\n      pop\n        /* \"#utility.yul\":4699:5092   */\n      swap3\n      swap2\n      pop\n      pop\n      jump\t// out\n        /* \"#utility.yul\":5098:5215   */\n    tag_159:\n        /* \"#utility.yul\":5189:5190   */\n      0x03\n        /* \"#utility.yul\":5182:5187   */\n      dup2\n        /* \"#utility.yul\":5179:5191   */\n      lt\n        /* \"#utility.yul\":5169:5209   */\n      tag_248\n      jumpi\n        /* \"#utility.yul\":5205:5206   */\n      0x00\n        /* \"#utility.yul\":5202:5203   */\n      dup1\n        /* \"#utility.yul\":5195:5207   */\n      revert\n        /* \"#utility.yul\":5169:5209   */\n    tag_248:\n        /* \"#utility.yul\":5098:5215   */\n      pop\n      jump\t// out\n        /* \"#utility.yul\":5221:5396   */\n    tag_160:\n        /* \"#utility.yul\":5285:5290   */\n      0x00\n        /* \"#utility.yul\":5323:5329   */\n      dup2\n        /* \"#utility.yul\":5310:5330   */\n      calldataload\n        /* \"#utility.yul\":5301:5330   */\n      swap1\n      pop\n        /* \"#utility.yul\":5339:5390   */\n      tag_250\n        /* \"#utility.yul\":5384:5389   */\n      dup2\n        /* \"#utility.yul\":5339:5390   */\n      tag_159\n      jump\t// in\n    tag_250:\n        /* \"#utility.yul\":5221:5396   */\n      swap3\n      swap2\n      pop\n      pop\n      jump\t// out\n        /* \"#utility.yul\":5402:5767   */\n    tag_43:\n        /* \"#utility.yul\":5479:5485   */\n      0x00\n        /* \"#utility.yul\":5528:5530   */\n      0x20\n        /* \"#utility.yul\":5516:5525   */\n      dup3\n        /* \"#utility.yul\":5507:5514   */\n      dup5\n        /* \"#utility.yul\":5503:5526   */\n      sub\n        /* \"#utility.yul\":5499:5531   */\n      slt\n        /* \"#utility.yul\":5496:5615   */\n      iszero\n      tag_252\n      jumpi\n        /* \"#utility.yul\":5534:5613   */\n      tag_253\n      tag_145\n      jump\t// in\n    tag_253:\n        /* \"#utility.yul\":5496:5615   */\n    tag_252:\n        /* \"#utility.yul\":5654:5655   */\n      0x00\n        /* \"#utility.yul\":5679:5750   */\n      tag_254\n        /* \"#utility.yul\":5742:5749   */\n      dup5\n        /* \"#utility.yul\":5733:5739   */\n      dup3\n        /* \"#utility.yul\":5722:5731   */\n      dup6\n        /* \"#utility.yul\":5718:5740   */\n      add\n        /* \"#utility.yul\":5679:5750   */\n      tag_160\n      jump\t// in\n    tag_254:\n        /* \"#utility.yul\":5669:5750   */\n      swap2\n      pop\n        /* \"#utility.yul\":5625:5760   */\n      pop\n        /* \"#utility.yul\":5402:5767   */\n      swap3\n      swap2\n      pop\n      pop\n      jump\t// out\n        /* \"#utility.yul\":5773:6512   */\n    tag_54:\n        /* \"#utility.yul\":5865:5869   */\n      0x00\n        /* \"#utility.yul\":5871:5877   */\n      dup1\n        /* \"#utility.yul\":5927:5938   */\n      dup4\n        /* \"#utility.yul\":5914:5939   */\n      calldataload\n        /* \"#utility.yul\":6027:6028   */\n      0x01\n        /* \"#utility.yul\":6021:6025   */\n      0x20\n        /* \"#utility.yul\":6017:6029   */\n      sub\n        /* \"#utility.yul\":6006:6014   */\n      dup5\n        /* \"#utility.yul\":5990:6004   */\n      calldatasize\n        /* \"#utility.yul\":5986:6015   */\n      sub\n        /* \"#utility.yul\":5982:6030   */\n      sub\n        /* \"#utility.yul\":5962:5980   */\n      dup2\n        /* \"#utility.yul\":5958:6031   */\n      slt\n        /* \"#utility.yul\":5948:6116   */\n      tag_256\n      jumpi\n        /* \"#utility.yul\":6035:6114   */\n      tag_257\n      tag_156\n      jump\t// in\n    tag_257:\n        /* \"#utility.yul\":5948:6116   */\n    tag_256:\n        /* \"#utility.yul\":6147:6165   */\n      dup1\n        /* \"#utility.yul\":6137:6145   */\n      dup5\n        /* \"#utility.yul\":6133:6166   */\n      add\n        /* \"#utility.yul\":6125:6166   */\n      swap3\n      pop\n        /* \"#utility.yul\":6199:6203   */\n      dup3\n        /* \"#utility.yul\":6186:6204   */\n      calldataload\n        /* \"#utility.yul\":6176:6204   */\n      swap2\n      pop\n        /* \"#utility.yul\":6227:6245   */\n      0xffffffffffffffff\n        /* \"#utility.yul\":6219:6225   */\n      dup3\n        /* \"#utility.yul\":6216:6246   */\n      gt\n        /* \"#utility.yul\":6213:6330   */\n      iszero\n      tag_258\n      jumpi\n        /* \"#utility.yul\":6249:6328   */\n      tag_259\n      tag_157\n      jump\t// in\n    tag_259:\n        /* \"#utility.yul\":6213:6330   */\n    tag_258:\n        /* \"#utility.yul\":6357:6359   */\n      0x20\n        /* \"#utility.yul\":6351:6355   */\n      dup4\n        /* \"#utility.yul\":6347:6360   */\n      add\n        /* \"#utility.yul\":6339:6360   */\n      swap3\n      pop\n        /* \"#utility.yul\":6414:6418   */\n      0x20\n        /* \"#utility.yul\":6406:6412   */\n      dup3\n        /* \"#utility.yul\":6402:6419   */\n      mul\n        /* \"#utility.yul\":6386:6400   */\n      calldatasize\n        /* \"#utility.yul\":6382:6420   */\n      sub\n        /* \"#utility.yul\":6376:6380   */\n      dup4\n        /* \"#utility.yul\":6372:6421   */\n      sgt\n        /* \"#utility.yul\":6369:6505   */\n      iszero\n      tag_260\n      jumpi\n        /* \"#utility.yul\":6424:6503   */\n      tag_261\n      tag_158\n      jump\t// in\n    tag_261:\n        /* \"#utility.yul\":6369:6505   */\n    tag_260:\n        /* \"#utility.yul\":5878:6512   */\n      pop\n        /* \"#utility.yul\":5773:6512   */\n      swap3\n      pop\n      swap3\n      swap1\n      pop\n      jump\t// out\n        /* \"#utility.yul\":6518:6667   */\n    tag_161:\n        /* \"#utility.yul\":6554:6561   */\n      0x00\n        /* \"#utility.yul\":6594:6660   */\n      0xffffffff00000000000000000000000000000000000000000000000000000000\n        /* \"#utility.yul\":6587:6592   */\n      dup3\n        /* \"#utility.yul\":6583:6661   */\n      and\n        /* \"#utility.yul\":6572:6661   */\n      swap1\n      pop\n        /* \"#utility.yul\":6518:6667   */\n      swap2\n      swap1\n      pop\n      jump\t// out\n        /* \"#utility.yul\":6673:6793   */\n    tag_162:\n        /* \"#utility.yul\":6745:6768   */\n      tag_264\n        /* \"#utility.yul\":6762:6767   */\n      dup2\n        /* \"#utility.yul\":6745:6768   */\n      tag_161\n      jump\t// in\n    tag_264:\n        /* \"#utility.yul\":6738:6743   */\n      dup2\n        /* \"#utility.yul\":6735:6769   */\n      eq\n        /* \"#utility.yul\":6725:6787   */\n      tag_265\n      jumpi\n        /* \"#utility.yul\":6783:6784   */\n      0x00\n        /* \"#utility.yul\":6780:6781   */\n      dup1\n        /* \"#utility.yul\":6773:6785   */\n      revert\n        /* \"#utility.yul\":6725:6787   */\n    tag_265:\n        /* \"#utility.yul\":6673:6793   */\n      pop\n      jump\t// out\n        /* \"#utility.yul\":6799:6936   */\n    tag_163:\n        /* \"#utility.yul\":6844:6849   */\n      0x00\n        /* \"#utility.yul\":6882:6888   */\n      dup2\n        /* \"#utility.yul\":6869:6889   */\n      calldataload\n        /* \"#utility.yul\":6860:6889   */\n      swap1\n      pop\n        /* \"#utility.yul\":6898:6930   */\n      tag_267\n        /* \"#utility.yul\":6924:6929   */\n      dup2\n        /* \"#utility.yul\":6898:6930   */\n      tag_162\n      jump\t// in\n    tag_267:\n        /* \"#utility.yul\":6799:6936   */\n      swap3\n      swap2\n      pop\n      pop\n      jump\t// out\n        /* \"#utility.yul\":6942:7269   */\n    tag_62:\n        /* \"#utility.yul\":7000:7006   */\n      0x00\n        /* \"#utility.yul\":7049:7051   */\n      0x20\n        /* \"#utility.yul\":7037:7046   */\n      dup3\n        /* \"#utility.yul\":7028:7035   */\n      dup5\n        /* \"#utility.yul\":7024:7047   */\n      sub\n        /* \"#utility.yul\":7020:7052   */\n      slt\n        /* \"#utility.yul\":7017:7136   */\n      iszero\n      tag_269\n      jumpi\n        /* \"#utility.yul\":7055:7134   */\n      tag_270\n      tag_145\n      jump\t// in\n    tag_270:\n        /* \"#utility.yul\":7017:7136   */\n    tag_269:\n        /* \"#utility.yul\":7175:7176   */\n      0x00\n        /* \"#utility.yul\":7200:7252   */\n      tag_271\n        /* \"#utility.yul\":7244:7251   */\n      dup5\n        /* \"#utility.yul\":7235:7241   */\n      dup3\n        /* \"#utility.yul\":7224:7233   */\n      dup6\n        /* \"#utility.yul\":7220:7242   */\n      add\n        /* \"#utility.yul\":7200:7252   */\n      tag_163\n      jump\t// in\n    tag_271:\n        /* \"#utility.yul\":7190:7252   */\n      swap2\n      pop\n        /* \"#utility.yul\":7146:7262   */\n      pop\n        /* \"#utility.yul\":6942:7269   */\n      swap3\n      swap2\n      pop\n      pop\n      jump\t// out\n        /* \"#utility.yul\":7275:7604   */\n    tag_68:\n        /* \"#utility.yul\":7334:7340   */\n      0x00\n        /* \"#utility.yul\":7383:7385   */\n      0x20\n        /* \"#utility.yul\":7371:7380   */\n      dup3\n        /* \"#utility.yul\":7362:7369   */\n      dup5\n        /* \"#utility.yul\":7358:7381   */\n      sub\n        /* \"#utility.yul\":7354:7386   */\n      slt\n        /* \"#utility.yul\":7351:7470   */\n      iszero\n      tag_273\n      jumpi\n        /* \"#utility.yul\":7389:7468   */\n      tag_274\n      tag_145\n      jump\t// in\n    tag_274:\n        /* \"#utility.yul\":7351:7470   */\n    tag_273:\n        /* \"#utility.yul\":7509:7510   */\n      0x00\n        /* \"#utility.yul\":7534:7587   */\n      tag_275\n        /* \"#utility.yul\":7579:7586   */\n      dup5\n        /* \"#utility.yul\":7570:7576   */\n      dup3\n        /* \"#utility.yul\":7559:7568   */\n      dup6\n        /* \"#utility.yul\":7555:7577   */\n      add\n        /* \"#utility.yul\":7534:7587   */\n      tag_154\n      jump\t// in\n    tag_275:\n        /* \"#utility.yul\":7524:7587   */\n      swap2\n      pop\n        /* \"#utility.yul\":7480:7597   */\n      pop\n        /* \"#utility.yul\":7275:7604   */\n      swap3\n      swap2\n      pop\n      pop\n      jump\t// out\n        /* \"#utility.yul\":7610:7790   */\n    tag_164:\n        /* \"#utility.yul\":7658:7735   */\n      0x4e487b7100000000000000000000000000000000000000000000000000000000\n        /* \"#utility.yul\":7655:7656   */\n      0x00\n        /* \"#utility.yul\":7648:7736   */\n      mstore\n        /* \"#utility.yul\":7755:7759   */\n      0x11\n        /* \"#utility.yul\":7752:7753   */\n      0x04\n        /* \"#utility.yul\":7745:7760   */\n      mstore\n        /* \"#utility.yul\":7779:7783   */\n      0x24\n        /* \"#utility.yul\":7776:7777   */\n      0x00\n        /* \"#utility.yul\":7769:7784   */\n      revert\n        /* \"#utility.yul\":7796:8029   */\n    tag_77:\n        /* \"#utility.yul\":7835:7838   */\n      0x00\n        /* \"#utility.yul\":7858:7882   */\n      tag_278\n        /* \"#utility.yul\":7876:7881   */\n      dup3\n        /* \"#utility.yul\":7858:7882   */\n      tag_142\n      jump\t// in\n    tag_278:\n        /* \"#utility.yul\":7849:7882   */\n      swap2\n      pop\n        /* \"#utility.yul\":7904:7970   */\n      0xffffffffffffffffffffffffffffffffffffffffffffffffffffffffffffffff\n        /* \"#utility.yul\":7897:7902   */\n      dup3\n        /* \"#utility.yul\":7894:7971   */\n      sub\n        /* \"#utility.yul\":7891:7994   */\n      tag_279\n      jumpi\n        /* \"#utility.yul\":7974:7992   */\n      tag_280\n      tag_164\n      jump\t// in\n    tag_280:\n        /* \"#utility.yul\":7891:7994   */\n    tag_279:\n        /* \"#utility.yul\":8021:8022   */\n      0x01\n        /* \"#utility.yul\":8014:8019   */\n      dup3\n        /* \"#utility.yul\":8010:8023   */\n      add\n        /* \"#utility.yul\":8003:8023   */\n      swap1\n      pop\n        /* \"#utility.yul\":7796:8029   */\n      swap2\n      swap1\n      pop\n      jump\t// out\n        /* \"#utility.yul\":8035:8244   */\n    tag_165:\n        /* \"#utility.yul\":8159:8170   */\n      0x00\n        /* \"#utility.yul\":8193:8199   */\n      dup3\n        /* \"#utility.yul\":8188:8191   */\n      dup3\n        /* \"#utility.yul\":8181:8200   */\n      mstore\n        /* \"#utility.yul\":8233:8237   */\n      0x20\n        /* \"#utility.yul\":8228:8231   */\n      dup3\n        /* \"#utility.yul\":8224:8238   */\n      add\n        /* \"#utility.yul\":8209:8238   */\n      swap1\n      pop\n        /* \"#utility.yul\":8035:8244   */\n      swap3\n      swap2\n      pop\n      pop\n      jump\t// out\n        /* \"#utility.yul\":8250:8379   */\n    tag_166:\n        /* \"#utility.yul\":8346:8350   */\n      0x00\n        /* \"#utility.yul\":8369:8372   */\n      dup2\n        /* \"#utility.yul\":8361:8372   */\n      swap1\n      pop\n        /* \"#utility.yul\":8250:8379   */\n      swap2\n      swap1\n      pop\n      jump\t// out\n        /* \"#utility.yul\":8385:8507   */\n    tag_167:\n        /* \"#utility.yul\":8437:8442   */\n      0x00\n        /* \"#utility.yul\":8462:8501   */\n      tag_284\n        /* \"#utility.yul\":8497:8499   */\n      0x20\n        /* \"#utility.yul\":8492:8495   */\n      dup5\n        /* \"#utility.yul\":8488:8500   */\n      add\n        /* \"#utility.yul\":8483:8486   */\n      dup5\n        /* \"#utility.yul\":8462:8501   */\n      tag_154\n      jump\t// in\n    tag_284:\n        /* \"#utility.yul\":8453:8501   */\n      swap1\n      pop\n        /* \"#utility.yul\":8385:8507   */\n      swap3\n      swap2\n      pop\n      pop\n      jump\t// out\n        /* \"#utility.yul\":8513:8621   */\n    tag_168:\n        /* \"#utility.yul\":8590:8614   */\n      tag_286\n        /* \"#utility.yul\":8608:8613   */\n      dup2\n        /* \"#utility.yul\":8590:8614   */\n      tag_152\n      jump\t// in\n    tag_286:\n        /* \"#utility.yul\":8585:8588   */\n      dup3\n        /* \"#utility.yul\":8578:8615   */\n      mstore\n        /* \"#utility.yul\":8513:8621   */\n      pop\n      pop\n      jump\t// out\n        /* \"#utility.yul\":8627:8785   */\n    tag_169:\n        /* \"#utility.yul\":8697:8702   */\n      0x00\n        /* \"#utility.yul\":8722:8779   */\n      tag_288\n        /* \"#utility.yul\":8775:8777   */\n      0x20\n        /* \"#utility.yul\":8770:8773   */\n      dup5\n        /* \"#utility.yul\":8766:8778   */\n      add\n        /* \"#utility.yul\":8761:8764   */\n      dup5\n        /* \"#utility.yul\":8722:8779   */\n      tag_160\n      jump\t// in\n    tag_288:\n        /* \"#utility.yul\":8713:8779   */\n      swap1\n      pop\n        /* \"#utility.yul\":8627:8785   */\n      swap3\n      swap2\n      pop\n      pop\n      jump\t// out\n        /* \"#utility.yul\":8791:8914   */\n    tag_170:\n        /* \"#utility.yul\":8882:8883   */\n      0x03\n        /* \"#utility.yul\":8875:8880   */\n      dup2\n        /* \"#utility.yul\":8872:8884   */\n      lt\n        /* \"#utility.yul\":8862:8908   */\n      tag_290\n      jumpi\n        /* \"#utility.yul\":8888:8906   */\n      tag_291\n      tag_36\n      jump\t// in\n    tag_291:\n        /* \"#utility.yul\":8862:8908   */\n    tag_290:\n        /* \"#utility.yul\":8791:8914   */\n      pop\n      jump\t// out\n        /* \"#utility.yul\":8920:9067   */\n    tag_171:\n        /* \"#utility.yul\":8975:8982   */\n      0x00\n        /* \"#utility.yul\":9004:9009   */\n      dup2\n        /* \"#utility.yul\":8993:9009   */\n      swap1\n      pop\n        /* \"#utility.yul\":9010:9061   */\n      tag_293\n        /* \"#utility.yul\":9055:9060   */\n      dup3\n        /* \"#utility.yul\":9010:9061   */\n      tag_170\n      jump\t// in\n    tag_293:\n        /* \"#utility.yul\":8920:9067   */\n      swap2\n      swap1\n      pop\n      jump\t// out\n        /* \"#utility.yul\":9073:9220   */\n    tag_172:\n        /* \"#utility.yul\":9139:9148   */\n      0x00\n        /* \"#utility.yul\":9172:9214   */\n      tag_295\n        /* \"#utility.yul\":9208:9213   */\n      dup3\n        /* \"#utility.yul\":9172:9214   */\n      tag_171\n      jump\t// in\n    tag_295:\n        /* \"#utility.yul\":9159:9214   */\n      swap1\n      pop\n        /* \"#utility.yul\":9073:9220   */\n      swap2\n      swap1\n      pop\n      jump\t// out\n        /* \"#utility.yul\":9226:9379   */\n    tag_173:\n        /* \"#utility.yul\":9319:9372   */\n      tag_297\n        /* \"#utility.yul\":9366:9371   */\n      dup2\n        /* \"#utility.yul\":9319:9372   */\n      tag_172\n      jump\t// in\n    tag_297:\n        /* \"#utility.yul\":9314:9317   */\n      dup3\n        /* \"#utility.yul\":9307:9373   */\n      mstore\n        /* \"#utility.yul\":9226:9379   */\n      pop\n      pop\n      jump\t// out\n        /* \"#utility.yul\":9385:9502   */\n    tag_174:\n        /* \"#utility.yul\":9494:9495   */\n      0x00\n        /* \"#utility.yul\":9491:9492   */\n      dup1\n        /* \"#utility.yul\":9484:9496   */\n      revert\n        /* \"#utility.yul\":9508:9625   */\n    tag_175:\n        /* \"#utility.yul\":9617:9618   */\n      0x00\n        /* \"#utility.yul\":9614:9615   */\n      dup1\n        /* \"#utility.yul\":9607:9619   */\n      revert\n        /* \"#utility.yul\":9631:9748   */\n    tag_176:\n        /* \"#utility.yul\":9740:9741   */\n      0x00\n        /* \"#utility.yul\":9737:9738   */\n      dup1\n        /* \"#utility.yul\":9730:9742   */\n      revert\n        /* \"#utility.yul\":9754:10480   */\n    tag_177:\n        /* \"#utility.yul\":9833:9838   */\n      0x00\n        /* \"#utility.yul\":9840:9846   */\n      dup1\n        /* \"#utility.yul\":9896:9899   */\n      dup4\n        /* \"#utility.yul\":9883:9900   */\n      calldataload\n        /* \"#utility.yul\":9988:9989   */\n      0x01\n        /* \"#utility.yul\":9982:9986   */\n      0x20\n        /* \"#utility.yul\":9978:9990   */\n      sub\n        /* \"#utility.yul\":9967:9975   */\n      dup5\n        /* \"#utility.yul\":9951:9965   */\n      calldatasize\n        /* \"#utility.yul\":9947:9976   */\n      sub\n        /* \"#utility.yul\":9943:9991   */\n      sub\n        /* \"#utility.yul\":9923:9941   */\n      dup2\n        /* \"#utility.yul\":9919:9992   */\n      slt\n        /* \"#utility.yul\":9909:10077   */\n      tag_302\n      jumpi\n        /* \"#utility.yul\":9996:10075   */\n      tag_303\n      tag_176\n      jump\t// in\n    tag_303:\n        /* \"#utility.yul\":9909:10077   */\n    tag_302:\n        /* \"#utility.yul\":10119:10127   */\n      dup4\n        /* \"#utility.yul\":10099:10117   */\n      dup2\n        /* \"#utility.yul\":10095:10128   */\n      add\n        /* \"#utility.yul\":10086:10128   */\n      swap3\n      pop\n        /* \"#utility.yul\":10161:10166   */\n      dup3\n        /* \"#utility.yul\":10148:10167   */\n      calldataload\n        /* \"#utility.yul\":10138:10167   */\n      swap2\n      pop\n        /* \"#utility.yul\":10196:10200   */\n      0x20\n        /* \"#utility.yul\":10189:10194   */\n      dup4\n        /* \"#utility.yul\":10185:10201   */\n      add\n        /* \"#utility.yul\":10176:10201   */\n      swap3\n      pop\n        /* \"#utility.yul\":10224:10242   */\n      0xffffffffffffffff\n        /* \"#utility.yul\":10216:10222   */\n      dup3\n        /* \"#utility.yul\":10213:10243   */\n      gt\n        /* \"#utility.yul\":10210:10327   */\n      iszero\n      tag_304\n      jumpi\n        /* \"#utility.yul\":10246:10325   */\n      tag_305\n      tag_174\n      jump\t// in\n    tag_305:\n        /* \"#utility.yul\":10210:10327   */\n    tag_304:\n        /* \"#utility.yul\":10382:10386   */\n      0x20\n        /* \"#utility.yul\":10374:10380   */\n      dup3\n        /* \"#utility.yul\":10370:10387   */\n      mul\n        /* \"#utility.yul\":10354:10368   */\n      calldatasize\n        /* \"#utility.yul\":10350:10388   */\n      sub\n        /* \"#utility.yul\":10343:10348   */\n      dup4\n        /* \"#utility.yul\":10339:10389   */\n      sgt\n        /* \"#utility.yul\":10336:10473   */\n      iszero\n      tag_306\n      jumpi\n        /* \"#utility.yul\":10392:10471   */\n      tag_307\n      tag_175\n      jump\t// in\n    tag_307:\n        /* \"#utility.yul\":10336:10473   */\n    tag_306:\n        /* \"#utility.yul\":9847:10480   */\n      pop\n        /* \"#utility.yul\":9754:10480   */\n      swap3\n      pop\n      swap3\n      swap1\n      pop\n      jump\t// out\n        /* \"#utility.yul\":10486:10659   */\n    tag_178:\n        /* \"#utility.yul\":10574:10585   */\n      0x00\n        /* \"#utility.yul\":10608:10614   */\n      dup3\n        /* \"#utility.yul\":10603:10606   */\n      dup3\n        /* \"#utility.yul\":10596:10615   */\n      mstore\n        /* \"#utility.yul\":10648:10652   */\n      0x20\n        /* \"#utility.yul\":10643:10646   */\n      dup3\n        /* \"#utility.yul\":10639:10653   */\n      add\n        /* \"#utility.yul\":10624:10653   */\n      swap1\n      pop\n        /* \"#utility.yul\":10486:10659   */\n      swap3\n      swap2\n      pop\n      pop\n      jump\t// out\n        /* \"#utility.yul\":10665:10766   */\n    tag_179:\n        /* \"#utility.yul\":10733:10737   */\n      0x00\n        /* \"#utility.yul\":10756:10759   */\n      dup2\n        /* \"#utility.yul\":10748:10759   */\n      swap1\n      pop\n        /* \"#utility.yul\":10665:10766   */\n      swap2\n      swap1\n      pop\n      jump\t// out\n        /* \"#utility.yul\":10772:10877   */\n    tag_180:\n        /* \"#utility.yul\":10847:10870   */\n      tag_311\n        /* \"#utility.yul\":10864:10869   */\n      dup2\n        /* \"#utility.yul\":10847:10870   */\n      tag_161\n      jump\t// in\n    tag_311:\n        /* \"#utility.yul\":10842:10845   */\n      dup3\n        /* \"#utility.yul\":10835:10871   */\n      mstore\n        /* \"#utility.yul\":10772:10877   */\n      pop\n      pop\n      jump\t// out\n        /* \"#utility.yul\":10883:11058   */\n    tag_181:\n        /* \"#utility.yul\":10950:10960   */\n      0x00\n        /* \"#utility.yul\":10971:11015   */\n      tag_313\n        /* \"#utility.yul\":11011:11014   */\n      dup4\n        /* \"#utility.yul\":11003:11009   */\n      dup4\n        /* \"#utility.yul\":10971:11015   */\n      tag_180\n      jump\t// in\n    tag_313:\n        /* \"#utility.yul\":11047:11051   */\n      0x20\n        /* \"#utility.yul\":11042:11045   */\n      dup4\n        /* \"#utility.yul\":11038:11052   */\n      add\n        /* \"#utility.yul\":11024:11052   */\n      swap1\n      pop\n        /* \"#utility.yul\":10883:11058   */\n      swap3\n      swap2\n      pop\n      pop\n      jump\t// out\n        /* \"#utility.yul\":11064:11184   */\n    tag_182:\n        /* \"#utility.yul\":11115:11120   */\n      0x00\n        /* \"#utility.yul\":11140:11178   */\n      tag_315\n        /* \"#utility.yul\":11174:11176   */\n      0x20\n        /* \"#utility.yul\":11169:11172   */\n      dup5\n        /* \"#utility.yul\":11165:11177   */\n      add\n        /* \"#utility.yul\":11160:11163   */\n      dup5\n        /* \"#utility.yul\":11140:11178   */\n      tag_163\n      jump\t// in\n    tag_315:\n        /* \"#utility.yul\":11131:11178   */\n      swap1\n      pop\n        /* \"#utility.yul\":11064:11184   */\n      swap3\n      swap2\n      pop\n      pop\n      jump\t// out\n        /* \"#utility.yul\":11190:11304   */\n    tag_183:\n        /* \"#utility.yul\":11261:11265   */\n      0x00\n        /* \"#utility.yul\":11293:11297   */\n      0x20\n        /* \"#utility.yul\":11288:11291   */\n      dup3\n        /* \"#utility.yul\":11284:11298   */\n      add\n        /* \"#utility.yul\":11276:11298   */\n      swap1\n      pop\n        /* \"#utility.yul\":11190:11304   */\n      swap2\n      swap1\n      pop\n      jump\t// out\n        /* \"#utility.yul\":11338:12009   */\n    tag_184:\n        /* \"#utility.yul\":11455:11458   */\n      0x00\n        /* \"#utility.yul\":11478:11553   */\n      tag_318\n        /* \"#utility.yul\":11546:11552   */\n      dup4\n        /* \"#utility.yul\":11541:11544   */\n      dup6\n        /* \"#utility.yul\":11478:11553   */\n      tag_178\n      jump\t// in\n    tag_318:\n        /* \"#utility.yul\":11471:11553   */\n      swap4\n      pop\n        /* \"#utility.yul\":11577:11634   */\n      tag_319\n        /* \"#utility.yul\":11628:11633   */\n      dup3\n        /* \"#utility.yul\":11577:11634   */\n      tag_179\n      jump\t// in\n    tag_319:\n        /* \"#utility.yul\":11657:11664   */\n      dup1\n        /* \"#utility.yul\":11688:11689   */\n      0x00\n        /* \"#utility.yul\":11673:11984   */\n    tag_320:\n        /* \"#utility.yul\":11698:11704   */\n      dup6\n        /* \"#utility.yul\":11695:11696   */\n      dup2\n        /* \"#utility.yul\":11692:11705   */\n      lt\n        /* \"#utility.yul\":11673:11984   */\n      iszero\n      tag_322\n      jumpi\n        /* \"#utility.yul\":11768:11809   */\n      tag_323\n        /* \"#utility.yul\":11802:11808   */\n      dup3\n        /* \"#utility.yul\":11793:11800   */\n      dup5\n        /* \"#utility.yul\":11768:11809   */\n      tag_182\n      jump\t// in\n    tag_323:\n        /* \"#utility.yul\":11829:11890   */\n      tag_324\n        /* \"#utility.yul\":11886:11889   */\n      dup9\n        /* \"#utility.yul\":11871:11884   */\n      dup3\n        /* \"#utility.yul\":11829:11890   */\n      tag_181\n      jump\t// in\n    tag_324:\n        /* \"#utility.yul\":11822:11890   */\n      swap8\n      pop\n        /* \"#utility.yul\":11913:11974   */\n      tag_325\n        /* \"#utility.yul\":11967:11973   */\n      dup4\n        /* \"#utility.yul\":11913:11974   */\n      tag_183\n      jump\t// in\n    tag_325:\n        /* \"#utility.yul\":11903:11974   */\n      swap3\n      pop\n        /* \"#utility.yul\":11733:11984   */\n      pop\n        /* \"#utility.yul\":11720:11721   */\n      0x01\n        /* \"#utility.yul\":11717:11718   */\n      dup2\n        /* \"#utility.yul\":11713:11722   */\n      add\n        /* \"#utility.yul\":11708:11722   */\n      swap1\n      pop\n        /* \"#utility.yul\":11673:11984   */\n      jump(tag_320)\n    tag_322:\n        /* \"#utility.yul\":11677:11691   */\n      pop\n        /* \"#utility.yul\":12000:12003   */\n      dup6\n        /* \"#utility.yul\":11993:12003   */\n      swap3\n      pop\n        /* \"#utility.yul\":11460:12009   */\n      pop\n      pop\n        /* \"#utility.yul\":11338:12009   */\n      swap4\n      swap3\n      pop\n      pop\n      pop\n      jump\t// out\n        /* \"#utility.yul\":12075:13069   */\n    tag_185:\n        /* \"#utility.yul\":12186:12189   */\n      0x00\n        /* \"#utility.yul\":12222:12226   */\n      0x60\n        /* \"#utility.yul\":12217:12220   */\n      dup4\n        /* \"#utility.yul\":12213:12227   */\n      add\n        /* \"#utility.yul\":12300:12350   */\n      tag_327\n        /* \"#utility.yul\":12344:12348   */\n      0x00\n        /* \"#utility.yul\":12337:12342   */\n      dup5\n        /* \"#utility.yul\":12333:12349   */\n      add\n        /* \"#utility.yul\":12326:12331   */\n      dup5\n        /* \"#utility.yul\":12300:12350   */\n      tag_167\n      jump\t// in\n    tag_327:\n        /* \"#utility.yul\":12363:12426   */\n      tag_328\n        /* \"#utility.yul\":12420:12424   */\n      0x00\n        /* \"#utility.yul\":12415:12418   */\n      dup7\n        /* \"#utility.yul\":12411:12425   */\n      add\n        /* \"#utility.yul\":12397:12409   */\n      dup3\n        /* \"#utility.yul\":12363:12426   */\n      tag_168\n      jump\t// in\n    tag_328:\n        /* \"#utility.yul\":12237:12436   */\n      pop\n        /* \"#utility.yul\":12503:12571   */\n      tag_329\n        /* \"#utility.yul\":12565:12569   */\n      0x20\n        /* \"#utility.yul\":12558:12563   */\n      dup5\n        /* \"#utility.yul\":12554:12570   */\n      add\n        /* \"#utility.yul\":12547:12552   */\n      dup5\n        /* \"#utility.yul\":12503:12571   */\n      tag_169\n      jump\t// in\n    tag_329:\n        /* \"#utility.yul\":12584:12663   */\n      tag_330\n        /* \"#utility.yul\":12657:12661   */\n      0x20\n        /* \"#utility.yul\":12652:12655   */\n      dup7\n        /* \"#utility.yul\":12648:12662   */\n      add\n        /* \"#utility.yul\":12634:12646   */\n      dup3\n        /* \"#utility.yul\":12584:12663   */\n      tag_173\n      jump\t// in\n    tag_330:\n        /* \"#utility.yul\":12446:12673   */\n      pop\n        /* \"#utility.yul\":12765:12841   */\n      tag_331\n        /* \"#utility.yul\":12835:12839   */\n      0x40\n        /* \"#utility.yul\":12828:12833   */\n      dup5\n        /* \"#utility.yul\":12824:12840   */\n      add\n        /* \"#utility.yul\":12817:12822   */\n      dup5\n        /* \"#utility.yul\":12765:12841   */\n      tag_177\n      jump\t// in\n    tag_331:\n        /* \"#utility.yul\":12888:12891   */\n      dup6\n        /* \"#utility.yul\":12882:12886   */\n      dup4\n        /* \"#utility.yul\":12878:12892   */\n      sub\n        /* \"#utility.yul\":12871:12875   */\n      0x40\n        /* \"#utility.yul\":12866:12869   */\n      dup8\n        /* \"#utility.yul\":12862:12876   */\n      add\n        /* \"#utility.yul\":12855:12893   */\n      mstore\n        /* \"#utility.yul\":12914:13031   */\n      tag_332\n        /* \"#utility.yul\":13026:13030   */\n      dup4\n        /* \"#utility.yul\":13012:13024   */\n      dup3\n        /* \"#utility.yul\":12998:13010   */\n      dup5\n        /* \"#utility.yul\":12914:13031   */\n      tag_184\n      jump\t// in\n    tag_332:\n        /* \"#utility.yul\":12906:13031   */\n      swap3\n      pop\n        /* \"#utility.yul\":12683:13042   */\n      pop\n      pop\n        /* \"#utility.yul\":13059:13063   */\n      dup1\n        /* \"#utility.yul\":13052:13063   */\n      swap2\n      pop\n        /* \"#utility.yul\":12191:13069   */\n      pop\n        /* \"#utility.yul\":12075:13069   */\n      swap3\n      swap2\n      pop\n      pop\n      jump\t// out\n        /* \"#utility.yul\":13075:13335   */\n    tag_186:\n        /* \"#utility.yul\":13196:13206   */\n      0x00\n        /* \"#utility.yul\":13231:13329   */\n      tag_334\n        /* \"#utility.yul\":13325:13328   */\n      dup4\n        /* \"#utility.yul\":13317:13323   */\n      dup4\n        /* \"#utility.yul\":13231:13329   */\n      tag_185\n      jump\t// in\n    tag_334:\n        /* \"#utility.yul\":13217:13329   */\n      swap1\n      pop\n        /* \"#utility.yul\":13075:13335   */\n      swap3\n      swap2\n      pop\n      pop\n      jump\t// out\n        /* \"#utility.yul\":13341:13715   */\n    tag_187:\n        /* \"#utility.yul\":13421:13426   */\n      0x00\n        /* \"#utility.yul\":13476:13479   */\n      dup3\n        /* \"#utility.yul\":13463:13480   */\n      calldataload\n        /* \"#utility.yul\":13568:13569   */\n      0x01\n        /* \"#utility.yul\":13562:13566   */\n      0x60\n        /* \"#utility.yul\":13558:13570   */\n      sub\n        /* \"#utility.yul\":13547:13555   */\n      dup4\n        /* \"#utility.yul\":13531:13545   */\n      calldatasize\n        /* \"#utility.yul\":13527:13556   */\n      sub\n        /* \"#utility.yul\":13523:13571   */\n      sub\n        /* \"#utility.yul\":13503:13521   */\n      dup2\n        /* \"#utility.yul\":13499:13572   */\n      slt\n        /* \"#utility.yul\":13489:13657   */\n      tag_336\n      jumpi\n        /* \"#utility.yul\":13576:13655   */\n      tag_337\n      tag_176\n      jump\t// in\n    tag_337:\n        /* \"#utility.yul\":13489:13657   */\n    tag_336:\n        /* \"#utility.yul\":13699:13707   */\n      dup3\n        /* \"#utility.yul\":13679:13697   */\n      dup2\n        /* \"#utility.yul\":13675:13708   */\n      add\n        /* \"#utility.yul\":13666:13708   */\n      swap2\n      pop\n        /* \"#utility.yul\":13427:13715   */\n      pop\n        /* \"#utility.yul\":13341:13715   */\n      swap3\n      swap2\n      pop\n      pop\n      jump\t// out\n        /* \"#utility.yul\":13721:13863   */\n    tag_188:\n        /* \"#utility.yul\":13820:13824   */\n      0x00\n        /* \"#utility.yul\":13852:13856   */\n      0x20\n        /* \"#utility.yul\":13847:13850   */\n      dup3\n        /* \"#utility.yul\":13843:13857   */\n      add\n        /* \"#utility.yul\":13835:13857   */\n      swap1\n      pop\n        /* \"#utility.yul\":13721:13863   */\n      swap2\n      swap1\n      pop\n      jump\t// out\n        /* \"#utility.yul\":13933:15021   */\n    tag_189:\n        /* \"#utility.yul\":14114:14117   */\n      0x00\n        /* \"#utility.yul\":14137:14248   */\n      tag_340\n        /* \"#utility.yul\":14241:14247   */\n      dup4\n        /* \"#utility.yul\":14236:14239   */\n      dup6\n        /* \"#utility.yul\":14137:14248   */\n      tag_165\n      jump\t// in\n    tag_340:\n        /* \"#utility.yul\":14130:14248   */\n      swap4\n      pop\n        /* \"#utility.yul\":14274:14277   */\n      dup4\n        /* \"#utility.yul\":14319:14323   */\n      0x20\n        /* \"#utility.yul\":14311:14317   */\n      dup5\n        /* \"#utility.yul\":14307:14324   */\n      mul\n        /* \"#utility.yul\":14302:14305   */\n      dup6\n        /* \"#utility.yul\":14298:14325   */\n      add\n        /* \"#utility.yul\":14349:14434   */\n      tag_341\n        /* \"#utility.yul\":14428:14433   */\n      dup5\n        /* \"#utility.yul\":14349:14434   */\n      tag_166\n      jump\t// in\n    tag_341:\n        /* \"#utility.yul\":14457:14464   */\n      dup1\n        /* \"#utility.yul\":14488:14489   */\n      0x00\n        /* \"#utility.yul\":14473:14976   */\n    tag_342:\n        /* \"#utility.yul\":14498:14504   */\n      dup8\n        /* \"#utility.yul\":14495:14496   */\n      dup2\n        /* \"#utility.yul\":14492:14505   */\n      lt\n        /* \"#utility.yul\":14473:14976   */\n      iszero\n      tag_344\n      jumpi\n        /* \"#utility.yul\":14569:14578   */\n      dup5\n        /* \"#utility.yul\":14563:14567   */\n      dup5\n        /* \"#utility.yul\":14559:14579   */\n      sub\n        /* \"#utility.yul\":14554:14557   */\n      dup10\n        /* \"#utility.yul\":14547:14580   */\n      mstore\n        /* \"#utility.yul\":14614:14683   */\n      tag_345\n        /* \"#utility.yul\":14676:14682   */\n      dup3\n        /* \"#utility.yul\":14667:14674   */\n      dup5\n        /* \"#utility.yul\":14614:14683   */\n      tag_187\n      jump\t// in\n    tag_345:\n        /* \"#utility.yul\":14704:14820   */\n      tag_346\n        /* \"#utility.yul\":14815:14819   */\n      dup6\n        /* \"#utility.yul\":14800:14813   */\n      dup3\n        /* \"#utility.yul\":14704:14820   */\n      tag_186\n      jump\t// in\n    tag_346:\n        /* \"#utility.yul\":14696:14820   */\n      swap5\n      pop\n        /* \"#utility.yul\":14843:14932   */\n      tag_347\n        /* \"#utility.yul\":14925:14931   */\n      dup4\n        /* \"#utility.yul\":14843:14932   */\n      tag_188\n      jump\t// in\n    tag_347:\n        /* \"#utility.yul\":14833:14932   */\n      swap3\n      pop\n        /* \"#utility.yul\":14961:14965   */\n      0x20\n        /* \"#utility.yul\":14956:14959   */\n      dup11\n        /* \"#utility.yul\":14952:14966   */\n      add\n        /* \"#utility.yul\":14945:14966   */\n      swap10\n      pop\n        /* \"#utility.yul\":14533:14976   */\n      pop\n        /* \"#utility.yul\":14520:14521   */\n      0x01\n        /* \"#utility.yul\":14517:14518   */\n      dup2\n        /* \"#utility.yul\":14513:14522   */\n      add\n        /* \"#utility.yul\":14508:14522   */\n      swap1\n      pop\n        /* \"#utility.yul\":14473:14976   */\n      jump(tag_342)\n    tag_344:\n        /* \"#utility.yul\":14477:14491   */\n      pop\n        /* \"#utility.yul\":14992:14996   */\n      dup3\n        /* \"#utility.yul\":14985:14996   */\n      swap8\n      pop\n        /* \"#utility.yul\":15012:15015   */\n      dup8\n        /* \"#utility.yul\":15005:15015   */\n      swap5\n      pop\n        /* \"#utility.yul\":14119:15021   */\n      pop\n      pop\n      pop\n      pop\n        /* \"#utility.yul\":13933:15021   */\n      swap4\n      swap3\n      pop\n      pop\n      pop\n      jump\t// out\n        /* \"#utility.yul\":15027:15145   */\n    tag_190:\n        /* \"#utility.yul\":15114:15138   */\n      tag_349\n        /* \"#utility.yul\":15132:15137   */\n      dup2\n        /* \"#utility.yul\":15114:15138   */\n      tag_152\n      jump\t// in\n    tag_349:\n        /* \"#utility.yul\":15109:15112   */\n      dup3\n        /* \"#utility.yul\":15102:15139   */\n      mstore\n        /* \"#utility.yul\":15027:15145   */\n      pop\n      pop\n      jump\t// out\n        /* \"#utility.yul\":15151:15319   */\n    tag_191:\n        /* \"#utility.yul\":15234:15245   */\n      0x00\n        /* \"#utility.yul\":15268:15274   */\n      dup3\n        /* \"#utility.yul\":15263:15266   */\n      dup3\n        /* \"#utility.yul\":15256:15275   */\n      mstore\n        /* \"#utility.yul\":15308:15312   */\n      0x20\n        /* \"#utility.yul\":15303:15306   */\n      dup3\n        /* \"#utility.yul\":15299:15313   */\n      add\n        /* \"#utility.yul\":15284:15313   */\n      swap1\n      pop\n        /* \"#utility.yul\":15151:15319   */\n      swap3\n      swap2\n      pop\n      pop\n      jump\t// out\n        /* \"#utility.yul\":15325:15471   */\n    tag_192:\n        /* \"#utility.yul\":15422:15428   */\n      dup3\n        /* \"#utility.yul\":15417:15420   */\n      dup2\n        /* \"#utility.yul\":15412:15415   */\n      dup4\n        /* \"#utility.yul\":15399:15429   */\n      calldatacopy\n        /* \"#utility.yul\":15463:15464   */\n      0x00\n        /* \"#utility.yul\":15454:15460   */\n      dup4\n        /* \"#utility.yul\":15449:15452   */\n      dup4\n        /* \"#utility.yul\":15445:15461   */\n      add\n        /* \"#utility.yul\":15438:15465   */\n      mstore\n        /* \"#utility.yul\":15325:15471   */\n      pop\n      pop\n      pop\n      jump\t// out\n        /* \"#utility.yul\":15477:15579   */\n    tag_193:\n        /* \"#utility.yul\":15518:15524   */\n      0x00\n        /* \"#utility.yul\":15569:15571   */\n      0x1f\n        /* \"#utility.yul\":15565:15572   */\n      not\n        /* \"#utility.yul\":15560:15562   */\n      0x1f\n        /* \"#utility.yul\":15553:15558   */\n      dup4\n        /* \"#utility.yul\":15549:15563   */\n      add\n        /* \"#utility.yul\":15545:15573   */\n      and\n        /* \"#utility.yul\":15535:15573   */\n      swap1\n      pop\n        /* \"#utility.yul\":15477:15579   */\n      swap2\n      swap1\n      pop\n      jump\t// out\n        /* \"#utility.yul\":15607:15921   */\n    tag_194:\n        /* \"#utility.yul\":15703:15706   */\n      0x00\n        /* \"#utility.yul\":15724:15794   */\n      tag_354\n        /* \"#utility.yul\":15787:15793   */\n      dup4\n        /* \"#utility.yul\":15782:15785   */\n      dup6\n        /* \"#utility.yul\":15724:15794   */\n      tag_191\n      jump\t// in\n    tag_354:\n        /* \"#utility.yul\":15717:15794   */\n      swap4\n      pop\n        /* \"#utility.yul\":15804:15860   */\n      tag_355\n        /* \"#utility.yul\":15853:15859   */\n      dup4\n        /* \"#utility.yul\":15848:15851   */\n      dup6\n        /* \"#utility.yul\":15841:15846   */\n      dup5\n        /* \"#utility.yul\":15804:15860   */\n      tag_192\n      jump\t// in\n    tag_355:\n        /* \"#utility.yul\":15885:15914   */\n      tag_356\n        /* \"#utility.yul\":15907:15913   */\n      dup4\n        /* \"#utility.yul\":15885:15914   */\n      tag_193\n      jump\t// in\n    tag_356:\n        /* \"#utility.yul\":15880:15883   */\n      dup5\n        /* \"#utility.yul\":15876:15915   */\n      add\n        /* \"#utility.yul\":15869:15915   */\n      swap1\n      pop\n        /* \"#utility.yul\":15607:15921   */\n      swap4\n      swap3\n      pop\n      pop\n      pop\n      jump\t// out\n        /* \"#utility.yul\":15927:16751   */\n    tag_139:\n        /* \"#utility.yul\":16216:16220   */\n      0x00\n        /* \"#utility.yul\":16254:16256   */\n      0x60\n        /* \"#utility.yul\":16243:16252   */\n      dup3\n        /* \"#utility.yul\":16239:16257   */\n      add\n        /* \"#utility.yul\":16231:16257   */\n      swap1\n      pop\n        /* \"#utility.yul\":16303:16312   */\n      dup2\n        /* \"#utility.yul\":16297:16301   */\n      dup2\n        /* \"#utility.yul\":16293:16313   */\n      sub\n        /* \"#utility.yul\":16289:16290   */\n      0x00\n        /* \"#utility.yul\":16278:16287   */\n      dup4\n        /* \"#utility.yul\":16274:16291   */\n      add\n        /* \"#utility.yul\":16267:16314   */\n      mstore\n        /* \"#utility.yul\":16331:16501   */\n      tag_358\n        /* \"#utility.yul\":16496:16500   */\n      dup2\n        /* \"#utility.yul\":16487:16493   */\n      dup8\n        /* \"#utility.yul\":16479:16485   */\n      dup10\n        /* \"#utility.yul\":16331:16501   */\n      tag_189\n      jump\t// in\n    tag_358:\n        /* \"#utility.yul\":16323:16501   */\n      swap1\n      pop\n        /* \"#utility.yul\":16511:16583   */\n      tag_359\n        /* \"#utility.yul\":16579:16581   */\n      0x20\n        /* \"#utility.yul\":16568:16577   */\n      dup4\n        /* \"#utility.yul\":16564:16582   */\n      add\n        /* \"#utility.yul\":16555:16561   */\n      dup7\n        /* \"#utility.yul\":16511:16583   */\n      tag_190\n      jump\t// in\n    tag_359:\n        /* \"#utility.yul\":16630:16639   */\n      dup2\n        /* \"#utility.yul\":16624:16628   */\n      dup2\n        /* \"#utility.yul\":16620:16640   */\n      sub\n        /* \"#utility.yul\":16615:16617   */\n      0x40\n        /* \"#utility.yul\":16604:16613   */\n      dup4\n        /* \"#utility.yul\":16600:16618   */\n      add\n        /* \"#utility.yul\":16593:16641   */\n      mstore\n        /* \"#utility.yul\":16658:16744   */\n      tag_360\n        /* \"#utility.yul\":16739:16743   */\n      dup2\n        /* \"#utility.yul\":16730:16736   */\n      dup5\n        /* \"#utility.yul\":16722:16728   */\n      dup7\n        /* \"#utility.yul\":16658:16744   */\n      tag_194\n      jump\t// in\n    tag_360:\n        /* \"#utility.yul\":16650:16744   */\n      swap1\n      pop\n        /* \"#utility.yul\":15927:16751   */\n      swap7\n      swap6\n      pop\n      pop\n      pop\n      pop\n      pop\n      pop\n      jump\t// out\n\n    auxdata: 0xa2646970667358221220cb7c08d547dd2cdb92accf4a1bd7982e50bc662bf5f182310f15060ec14e06de64736f6c63430008140033\n}\n",
				"bytecode": {
					"linkReferences": {},
					"object": "608060405234801562000010575f80fd5b506040516200141e3803806200141e833981810160405281019062000036919062000217565b835f80847bffffffffffffffffffffffffffffffffffffffffffffffffffffffff19167bffffffffffffffffffffffffffffffffffffffffffffffffffffffff191681526020019081526020015f205f6101000a81548173ffffffffffffffffffffffffffffffffffffffff021916908373ffffffffffffffffffffffffffffffffffffffff160217905550825f80837bffffffffffffffffffffffffffffffffffffffffffffffffffffffff19167bffffffffffffffffffffffffffffffffffffffffffffffffffffffff191681526020019081526020015f205f6101000a81548173ffffffffffffffffffffffffffffffffffffffff021916908373ffffffffffffffffffffffffffffffffffffffff1602179055505050505062000286565b5f80fd5b5f73ffffffffffffffffffffffffffffffffffffffff82169050919050565b5f62000187826200015c565b9050919050565b62000199816200017b565b8114620001a4575f80fd5b50565b5f81519050620001b7816200018e565b92915050565b5f7fffffffff0000000000000000000000000000000000000000000000000000000082169050919050565b620001f381620001bd565b8114620001fe575f80fd5b50565b5f815190506200021181620001e8565b92915050565b5f805f806080858703121562000232576200023162000158565b5b5f6200024187828801620001a7565b94505060206200025487828801620001a7565b9350506040620002678782880162000201565b92505060606200027a8782880162000201565b91505092959194509250565b61118a80620002945f395ff3fe608060405260043610610037575f3560e01c806302c85697146101225780630e90f45d1461014c5780631f931c1c1461017657610038565b5b5f805f80357fffffffff00000000000000000000000000000000000000000000000000000000167bffffffffffffffffffffffffffffffffffffffffffffffffffffffff19167bffffffffffffffffffffffffffffffffffffffffffffffffffffffff191681526020019081526020015f205f9054906101000a900473ffffffffffffffffffffffffffffffffffffffff1690505f73ffffffffffffffffffffffffffffffffffffffff168173ffffffffffffffffffffffffffffffffffffffff1603610103575f80fd5b365f80375f80365f845af43d5f803e805f811461011e573d5ff35b3d5ffd5b34801561012d575f80fd5b5061013661019e565b60405161014391906109a3565b60405180910390f35b348015610157575f80fd5b506101606101b5565b60405161016d91906109a3565b60405180910390f35b348015610181575f80fd5b5061019c60048036038101906101979190610ad4565b6101cb565b005b5f806101a861095f565b9050806001015491505090565b5f806101bf61095f565b9050805f015491505090565b5f5b85859050811015610957575f60028111156101eb576101ea610b65565b5b8686838181106101fe576101fd610b92565b5b90506020028101906102109190610bcb565b60200160208101906102229190610c15565b600281111561023457610233610b65565b5b036104a1575f5b86868381811061024e5761024d610b92565b5b90506020028101906102609190610bcb565b806040019061026f9190610c40565b905081101561049f575f73ffffffffffffffffffffffffffffffffffffffff165f808989868181106102a4576102a3610b92565b5b90506020028101906102b69190610bcb565b80604001906102c59190610c40565b858181106102d6576102d5610b92565b5b90506020020160208101906102eb9190610cf7565b7bffffffffffffffffffffffffffffffffffffffffffffffffffffffff19167bffffffffffffffffffffffffffffffffffffffffffffffffffffffff191681526020019081526020015f205f9054906101000a900473ffffffffffffffffffffffffffffffffffffffff1673ffffffffffffffffffffffffffffffffffffffff160361048c5786868381811061038457610383610b92565b5b90506020028101906103969190610bcb565b5f0160208101906103a79190610d22565b5f808989868181106103bc576103bb610b92565b5b90506020028101906103ce9190610bcb565b80604001906103dd9190610c40565b858181106103ee576103ed610b92565b5b90506020020160208101906104039190610cf7565b7bffffffffffffffffffffffffffffffffffffffffffffffffffffffff19167bffffffffffffffffffffffffffffffffffffffffffffffffffffffff191681526020019081526020015f205f6101000a81548173ffffffffffffffffffffffffffffffffffffffff021916908373ffffffffffffffffffffffffffffffffffffffff1602179055505b808061049790610d7a565b91505061023b565b505b600160028111156104b5576104b4610b65565b5b8686838181106104c8576104c7610b92565b5b90506020028101906104da9190610bcb565b60200160208101906104ec9190610c15565b60028111156104fe576104fd610b65565b5b0361076b575f5b86868381811061051857610517610b92565b5b905060200281019061052a9190610bcb565b80604001906105399190610c40565b9050811015610769575f73ffffffffffffffffffffffffffffffffffffffff165f8089898681811061056e5761056d610b92565b5b90506020028101906105809190610bcb565b806040019061058f9190610c40565b858181106105a05761059f610b92565b5b90506020020160208101906105b59190610cf7565b7bffffffffffffffffffffffffffffffffffffffffffffffffffffffff19167bffffffffffffffffffffffffffffffffffffffffffffffffffffffff191681526020019081526020015f205f9054906101000a900473ffffffffffffffffffffffffffffffffffffffff1673ffffffffffffffffffffffffffffffffffffffff16146107565786868381811061064e5761064d610b92565b5b90506020028101906106609190610bcb565b5f0160208101906106719190610d22565b5f8089898681811061068657610685610b92565b5b90506020028101906106989190610bcb565b80604001906106a79190610c40565b858181106106b8576106b7610b92565b5b90506020020160208101906106cd9190610cf7565b7bffffffffffffffffffffffffffffffffffffffffffffffffffffffff19167bffffffffffffffffffffffffffffffffffffffffffffffffffffffff191681526020019081526020015f205f6101000a81548173ffffffffffffffffffffffffffffffffffffffff021916908373ffffffffffffffffffffffffffffffffffffffff1602179055505b808061076190610d7a565b915050610505565b505b60028081111561077e5761077d610b65565b5b86868381811061079157610790610b92565b5b90506020028101906107a39190610bcb565b60200160208101906107b59190610c15565b60028111156107c7576107c6610b65565b5b03610905575f5b8686838181106107e1576107e0610b92565b5b90506020028101906107f39190610bcb565b80604001906108029190610c40565b9050811015610903575f805f89898681811061082157610820610b92565b5b90506020028101906108339190610bcb565b80604001906108429190610c40565b8581811061085357610852610b92565b5b90506020020160208101906108689190610cf7565b7bffffffffffffffffffffffffffffffffffffffffffffffffffffffff19167bffffffffffffffffffffffffffffffffffffffffffffffffffffffff191681526020019081526020015f205f6101000a81548173ffffffffffffffffffffffffffffffffffffffff021916908373ffffffffffffffffffffffffffffffffffffffff16021790555080806108fb90610d7a565b9150506107ce565b505b7f8faa70878671ccd212d20771b795c50af8fd3ff6cf27f4bde57e5d4de0aeb673868686868660405161093c95949392919061110d565b60405180910390a1808061094f90610d7a565b9150506101cd565b505050505050565b5f807f20bdb322702e8f31eb02a18e466059b6b3224433a6e129849583a03f267f40a390508091505090565b5f819050919050565b61099d8161098b565b82525050565b5f6020820190506109b65f830184610994565b92915050565b5f80fd5b5f80fd5b5f80fd5b5f80fd5b5f80fd5b5f8083601f8401126109e5576109e46109c4565b5b8235905067ffffffffffffffff811115610a0257610a016109c8565b5b602083019150836020820283011115610a1e57610a1d6109cc565b5b9250929050565b5f73ffffffffffffffffffffffffffffffffffffffff82169050919050565b5f610a4e82610a25565b9050919050565b610a5e81610a44565b8114610a68575f80fd5b50565b5f81359050610a7981610a55565b92915050565b5f8083601f840112610a9457610a936109c4565b5b8235905067ffffffffffffffff811115610ab157610ab06109c8565b5b602083019150836001820283011115610acd57610acc6109cc565b5b9250929050565b5f805f805f60608688031215610aed57610aec6109bc565b5b5f86013567ffffffffffffffff811115610b0a57610b096109c0565b5b610b16888289016109d0565b95509550506020610b2988828901610a6b565b935050604086013567ffffffffffffffff811115610b4a57610b496109c0565b5b610b5688828901610a7f565b92509250509295509295909350565b7f4e487b71000000000000000000000000000000000000000000000000000000005f52602160045260245ffd5b7f4e487b71000000000000000000000000000000000000000000000000000000005f52603260045260245ffd5b5f80fd5b5f80fd5b5f80fd5b5f82356001606003833603038112610be657610be5610bbf565b5b80830191505092915050565b60038110610bfe575f80fd5b50565b5f81359050610c0f81610bf2565b92915050565b5f60208284031215610c2a57610c296109bc565b5b5f610c3784828501610c01565b91505092915050565b5f8083356001602003843603038112610c5c57610c5b610bbf565b5b80840192508235915067ffffffffffffffff821115610c7e57610c7d610bc3565b5b602083019250602082023603831315610c9a57610c99610bc7565b5b509250929050565b5f7fffffffff0000000000000000000000000000000000000000000000000000000082169050919050565b610cd681610ca2565b8114610ce0575f80fd5b50565b5f81359050610cf181610ccd565b92915050565b5f60208284031215610d0c57610d0b6109bc565b5b5f610d1984828501610ce3565b91505092915050565b5f60208284031215610d3757610d366109bc565b5b5f610d4484828501610a6b565b91505092915050565b7f4e487b71000000000000000000000000000000000000000000000000000000005f52601160045260245ffd5b5f610d848261098b565b91507fffffffffffffffffffffffffffffffffffffffffffffffffffffffffffffffff8203610db657610db5610d4d565b5b600182019050919050565b5f82825260208201905092915050565b5f819050919050565b5f610de86020840184610a6b565b905092915050565b610df981610a44565b82525050565b5f610e0d6020840184610c01565b905092915050565b60038110610e2657610e25610b65565b5b50565b5f819050610e3682610e15565b919050565b5f610e4582610e29565b9050919050565b610e5581610e3b565b82525050565b5f80fd5b5f80fd5b5f80fd5b5f8083356001602003843603038112610e8357610e82610e63565b5b83810192508235915060208301925067ffffffffffffffff821115610eab57610eaa610e5b565b5b602082023603831315610ec157610ec0610e5f565b5b509250929050565b5f82825260208201905092915050565b5f819050919050565b610eeb81610ca2565b82525050565b5f610efc8383610ee2565b60208301905092915050565b5f610f166020840184610ce3565b905092915050565b5f602082019050919050565b5f610f358385610ec9565b9350610f4082610ed9565b805f5b85811015610f7857610f558284610f08565b610f5f8882610ef1565b9750610f6a83610f1e565b925050600181019050610f43565b5085925050509392505050565b5f60608301610f965f840184610dda565b610fa25f860182610df0565b50610fb06020840184610dff565b610fbd6020860182610e4c565b50610fcb6040840184610e67565b8583036040870152610fde838284610f2a565b925050508091505092915050565b5f610ff78383610f85565b905092915050565b5f8235600160600383360303811261101a57611019610e63565b5b82810191505092915050565b5f602082019050919050565b5f61103d8385610dc1565b93508360208402850161104f84610dd1565b805f5b878110156110925784840389526110698284610fff565b6110738582610fec565b945061107e83611026565b925060208a01995050600181019050611052565b50829750879450505050509392505050565b6110ad81610a44565b82525050565b5f82825260208201905092915050565b828183375f83830152505050565b5f601f19601f8301169050919050565b5f6110ec83856110b3565b93506110f98385846110c3565b611102836110d1565b840190509392505050565b5f6060820190508181035f830152611126818789611032565b905061113560208301866110a4565b81810360408301526111488184866110e1565b9050969550505050505056fea2646970667358221220cb7c08d547dd2cdb92accf4a1bd7982e50bc662bf5f182310f15060ec14e06de64736f6c63430008140033",
					"opcodes": "PUSH1 0x80 PUSH1 0x40 MSTORE CALLVALUE DUP1 ISZERO PUSH3 0x10 JUMPI PUSH0 DUP1 REVERT JUMPDEST POP PUSH1 0x40 MLOAD PUSH3 0x141E CODESIZE SUB DUP1 PUSH3 0x141E DUP4 CODECOPY DUP2 DUP2 ADD PUSH1 0x40 MSTORE DUP2 ADD SWAP1 PUSH3 0x36 SWAP2 SWAP1 PUSH3 0x217 JUMP JUMPDEST DUP4 PUSH0 DUP1 DUP5 PUSH28 0xFFFFFFFFFFFFFFFFFFFFFFFFFFFFFFFFFFFFFFFFFFFFFFFFFFFFFFFF NOT AND PUSH28 0xFFFFFFFFFFFFFFFFFFFFFFFFFFFFFFFFFFFFFFFFFFFFFFFFFFFFFFFF NOT AND DUP2 MSTORE PUSH1 0x20 ADD SWAP1 DUP2 MSTORE PUSH1 0x20 ADD PUSH0 KECCAK256 PUSH0 PUSH2 0x100 EXP DUP2 SLOAD DUP2 PUSH20 0xFFFFFFFFFFFFFFFFFFFFFFFFFFFFFFFFFFFFFFFF MUL NOT AND SWAP1 DUP4 PUSH20 0xFFFFFFFFFFFFFFFFFFFFFFFFFFFFFFFFFFFFFFFF AND MUL OR SWAP1 SSTORE POP DUP3 PUSH0 DUP1 DUP4 PUSH28 0xFFFFFFFFFFFFFFFFFFFFFFFFFFFFFFFFFFFFFFFFFFFFFFFFFFFFFFFF NOT AND PUSH28 0xFFFFFFFFFFFFFFFFFFFFFFFFFFFFFFFFFFFFFFFFFFFFFFFFFFFFFFFF NOT AND DUP2 MSTORE PUSH1 0x20 ADD SWAP1 DUP2 MSTORE PUSH1 0x20 ADD PUSH0 KECCAK256 PUSH0 PUSH2 0x100 EXP DUP2 SLOAD DUP2 PUSH20 0xFFFFFFFFFFFFFFFFFFFFFFFFFFFFFFFFFFFFFFFF MUL NOT AND SWAP1 DUP4 PUSH20 0xFFFFFFFFFFFFFFFFFFFFFFFFFFFFFFFFFFFFFFFF AND MUL OR SWAP1 SSTORE POP POP POP POP POP PUSH3 0x286 JUMP JUMPDEST PUSH0 DUP1 REVERT JUMPDEST PUSH0 PUSH20 0xFFFFFFFFFFFFFFFFFFFFFFFFFFFFFFFFFFFFFFFF DUP3 AND SWAP1 POP SWAP2 SWAP1 POP JUMP JUMPDEST PUSH0 PUSH3 0x187 DUP3 PUSH3 0x15C JUMP JUMPDEST SWAP1 POP SWAP2 SWAP1 POP JUMP JUMPDEST PUSH3 0x199 DUP2 PUSH3 0x17B JUMP JUMPDEST DUP2 EQ PUSH3 0x1A4 JUMPI PUSH0 DUP1 REVERT JUMPDEST POP JUMP JUMPDEST PUSH0 DUP2 MLOAD SWAP1 POP PUSH3 0x1B7 DUP2 PUSH3 0x18E JUMP JUMPDEST SWAP3 SWAP2 POP POP JUMP JUMPDEST PUSH0 PUSH32 0xFFFFFFFF00000000000000000000000000000000000000000000000000000000 DUP3 AND SWAP1 POP SWAP2 SWAP1 POP JUMP JUMPDEST PUSH3 0x1F3 DUP2 PUSH3 0x1BD JUMP JUMPDEST DUP2 EQ PUSH3 0x1FE JUMPI PUSH0 DUP1 REVERT JUMPDEST POP JUMP JUMPDEST PUSH0 DUP2 MLOAD SWAP1 POP PUSH3 0x211 DUP2 PUSH3 0x1E8 JUMP JUMPDEST SWAP3 SWAP2 POP POP JUMP JUMPDEST PUSH0 DUP1 PUSH0 DUP1 PUSH1 0x80 DUP6 DUP8 SUB SLT ISZERO PUSH3 0x232 JUMPI PUSH3 0x231 PUSH3 0x158 JUMP JUMPDEST JUMPDEST PUSH0 PUSH3 0x241 DUP8 DUP3 DUP9 ADD PUSH3 0x1A7 JUMP JUMPDEST SWAP5 POP POP PUSH1 0x20 PUSH3 0x254 DUP8 DUP3 DUP9 ADD PUSH3 0x1A7 JUMP JUMPDEST SWAP4 POP POP PUSH1 0x40 PUSH3 0x267 DUP8 DUP3 DUP9 ADD PUSH3 0x201 JUMP JUMPDEST SWAP3 POP POP PUSH1 0x60 PUSH3 0x27A DUP8 DUP3 DUP9 ADD PUSH3 0x201 JUMP JUMPDEST SWAP2 POP POP SWAP3 SWAP6 SWAP2 SWAP5 POP SWAP3 POP JUMP JUMPDEST PUSH2 0x118A DUP1 PUSH3 0x294 PUSH0 CODECOPY PUSH0 RETURN INVALID PUSH1 0x80 PUSH1 0x40 MSTORE PUSH1 0x4 CALLDATASIZE LT PUSH2 0x37 JUMPI PUSH0 CALLDATALOAD PUSH1 0xE0 SHR DUP1 PUSH4 0x2C85697 EQ PUSH2 0x122 JUMPI DUP1 PUSH4 0xE90F45D EQ PUSH2 0x14C JUMPI DUP1 PUSH4 0x1F931C1C EQ PUSH2 0x176 JUMPI PUSH2 0x38 JUMP JUMPDEST JUMPDEST PUSH0 DUP1 PUSH0 DUP1 CALLDATALOAD PUSH32 0xFFFFFFFF00000000000000000000000000000000000000000000000000000000 AND PUSH28 0xFFFFFFFFFFFFFFFFFFFFFFFFFFFFFFFFFFFFFFFFFFFFFFFFFFFFFFFF NOT AND PUSH28 0xFFFFFFFFFFFFFFFFFFFFFFFFFFFFFFFFFFFFFFFFFFFFFFFFFFFFFFFF NOT AND DUP2 MSTORE PUSH1 0x20 ADD SWAP1 DUP2 MSTORE PUSH1 0x20 ADD PUSH0 KECCAK256 PUSH0 SWAP1 SLOAD SWAP1 PUSH2 0x100 EXP SWAP1 DIV PUSH20 0xFFFFFFFFFFFFFFFFFFFFFFFFFFFFFFFFFFFFFFFF AND SWAP1 POP PUSH0 PUSH20 0xFFFFFFFFFFFFFFFFFFFFFFFFFFFFFFFFFFFFFFFF AND DUP2 PUSH20 0xFFFFFFFFFFFFFFFFFFFFFFFFFFFFFFFFFFFFFFFF AND SUB PUSH2 0x103 JUMPI PUSH0 DUP1 REVERT JUMPDEST CALLDATASIZE PUSH0 DUP1 CALLDATACOPY PUSH0 DUP1 CALLDATASIZE PUSH0 DUP5 GAS DELEGATECALL RETURNDATASIZE PUSH0 DUP1 RETURNDATACOPY DUP1 PUSH0 DUP2 EQ PUSH2 0x11E JUMPI RETURNDATASIZE PUSH0 RETURN JUMPDEST RETURNDATASIZE PUSH0 REVERT JUMPDEST CALLVALUE DUP1 ISZERO PUSH2 0x12D JUMPI PUSH0 DUP1 REVERT JUMPDEST POP PUSH2 0x136 PUSH2 0x19E JUMP JUMPDEST PUSH1 0x40 MLOAD PUSH2 0x143 SWAP2 SWAP1 PUSH2 0x9A3 JUMP JUMPDEST PUSH1 0x40 MLOAD DUP1 SWAP2 SUB SWAP1 RETURN JUMPDEST CALLVALUE DUP1 ISZERO PUSH2 0x157 JUMPI PUSH0 DUP1 REVERT JUMPDEST POP PUSH2 0x160 PUSH2 0x1B5 JUMP JUMPDEST PUSH1 0x40 MLOAD PUSH2 0x16D SWAP2 SWAP1 PUSH2 0x9A3 JUMP JUMPDEST PUSH1 0x40 MLOAD DUP1 SWAP2 SUB SWAP1 RETURN JUMPDEST CALLVALUE DUP1 ISZERO PUSH2 0x181 JUMPI PUSH0 DUP1 REVERT JUMPDEST POP PUSH2 0x19C PUSH1 0x4 DUP1 CALLDATASIZE SUB DUP2 ADD SWAP1 PUSH2 0x197 SWAP2 SWAP1 PUSH2 0xAD4 JUMP JUMPDEST PUSH2 0x1CB JUMP JUMPDEST STOP JUMPDEST PUSH0 DUP1 PUSH2 0x1A8 PUSH2 0x95F JUMP JUMPDEST SWAP1 POP DUP1 PUSH1 0x1 ADD SLOAD SWAP2 POP POP SWAP1 JUMP JUMPDEST PUSH0 DUP1 PUSH2 0x1BF PUSH2 0x95F JUMP JUMPDEST SWAP1 POP DUP1 PUSH0 ADD SLOAD SWAP2 POP POP SWAP1 JUMP JUMPDEST PUSH0 JUMPDEST DUP6 DUP6 SWAP1 POP DUP2 LT ISZERO PUSH2 0x957 JUMPI PUSH0 PUSH1 0x2 DUP2 GT ISZERO PUSH2 0x1EB JUMPI PUSH2 0x1EA PUSH2 0xB65 JUMP JUMPDEST JUMPDEST DUP7 DUP7 DUP4 DUP2 DUP2 LT PUSH2 0x1FE JUMPI PUSH2 0x1FD PUSH2 0xB92 JUMP JUMPDEST JUMPDEST SWAP1 POP PUSH1 0x20 MUL DUP2 ADD SWAP1 PUSH2 0x210 SWAP2 SWAP1 PUSH2 0xBCB JUMP JUMPDEST PUSH1 0x20 ADD PUSH1 0x20 DUP2 ADD SWAP1 PUSH2 0x222 SWAP2 SWAP1 PUSH2 0xC15 JUMP JUMPDEST PUSH1 0x2 DUP2 GT ISZERO PUSH2 0x234 JUMPI PUSH2 0x233 PUSH2 0xB65 JUMP JUMPDEST JUMPDEST SUB PUSH2 0x4A1 JUMPI PUSH0 JUMPDEST DUP7 DUP7 DUP4 DUP2 DUP2 LT PUSH2 0x24E JUMPI PUSH2 0x24D PUSH2 0xB92 JUMP JUMPDEST JUMPDEST SWAP1 POP PUSH1 0x20 MUL DUP2 ADD SWAP1 PUSH2 0x260 SWAP2 SWAP1 PUSH2 0xBCB JUMP JUMPDEST DUP1 PUSH1 0x40 ADD SWAP1 PUSH2 0x26F SWAP2 SWAP1 PUSH2 0xC40 JUMP JUMPDEST SWAP1 POP DUP2 LT ISZERO PUSH2 0x49F JUMPI PUSH0 PUSH20 0xFFFFFFFFFFFFFFFFFFFFFFFFFFFFFFFFFFFFFFFF AND PUSH0 DUP1 DUP10 DUP10 DUP7 DUP2 DUP2 LT PUSH2 0x2A4 JUMPI PUSH2 0x2A3 PUSH2 0xB92 JUMP JUMPDEST JUMPDEST SWAP1 POP PUSH1 0x20 MUL DUP2 ADD SWAP1 PUSH2 0x2B6 SWAP2 SWAP1 PUSH2 0xBCB JUMP JUMPDEST DUP1 PUSH1 0x40 ADD SWAP1 PUSH2 0x2C5 SWAP2 SWAP1 PUSH2 0xC40 JUMP JUMPDEST DUP6 DUP2 DUP2 LT PUSH2 0x2D6 JUMPI PUSH2 0x2D5 PUSH2 0xB92 JUMP JUMPDEST JUMPDEST SWAP1 POP PUSH1 0x20 MUL ADD PUSH1 0x20 DUP2 ADD SWAP1 PUSH2 0x2EB SWAP2 SWAP1 PUSH2 0xCF7 JUMP JUMPDEST PUSH28 0xFFFFFFFFFFFFFFFFFFFFFFFFFFFFFFFFFFFFFFFFFFFFFFFFFFFFFFFF NOT AND PUSH28 0xFFFFFFFFFFFFFFFFFFFFFFFFFFFFFFFFFFFFFFFFFFFFFFFFFFFFFFFF NOT AND DUP2 MSTORE PUSH1 0x20 ADD SWAP1 DUP2 MSTORE PUSH1 0x20 ADD PUSH0 KECCAK256 PUSH0 SWAP1 SLOAD SWAP1 PUSH2 0x100 EXP SWAP1 DIV PUSH20 0xFFFFFFFFFFFFFFFFFFFFFFFFFFFFFFFFFFFFFFFF AND PUSH20 0xFFFFFFFFFFFFFFFFFFFFFFFFFFFFFFFFFFFFFFFF AND SUB PUSH2 0x48C JUMPI DUP7 DUP7 DUP4 DUP2 DUP2 LT PUSH2 0x384 JUMPI PUSH2 0x383 PUSH2 0xB92 JUMP JUMPDEST JUMPDEST SWAP1 POP PUSH1 0x20 MUL DUP2 ADD SWAP1 PUSH2 0x396 SWAP2 SWAP1 PUSH2 0xBCB JUMP JUMPDEST PUSH0 ADD PUSH1 0x20 DUP2 ADD SWAP1 PUSH2 0x3A7 SWAP2 SWAP1 PUSH2 0xD22 JUMP JUMPDEST PUSH0 DUP1 DUP10 DUP10 DUP7 DUP2 DUP2 LT PUSH2 0x3BC JUMPI PUSH2 0x3BB PUSH2 0xB92 JUMP JUMPDEST JUMPDEST SWAP1 POP PUSH1 0x20 MUL DUP2 ADD SWAP1 PUSH2 0x3CE SWAP2 SWAP1 PUSH2 0xBCB JUMP JUMPDEST DUP1 PUSH1 0x40 ADD SWAP1 PUSH2 0x3DD SWAP2 SWAP1 PUSH2 0xC40 JUMP JUMPDEST DUP6 DUP2 DUP2 LT PUSH2 0x3EE JUMPI PUSH2 0x3ED PUSH2 0xB92 JUMP JUMPDEST JUMPDEST SWAP1 POP PUSH1 0x20 MUL ADD PUSH1 0x20 DUP2 ADD SWAP1 PUSH2 0x403 SWAP2 SWAP1 PUSH2 0xCF7 JUMP JUMPDEST PUSH28 0xFFFFFFFFFFFFFFFFFFFFFFFFFFFFFFFFFFFFFFFFFFFFFFFFFFFFFFFF NOT AND PUSH28 0xFFFFFFFFFFFFFFFFFFFFFFFFFFFFFFFFFFFFFFFFFFFFFFFFFFFFFFFF NOT AND DUP2 MSTORE PUSH1 0x20 ADD SWAP1 DUP2 MSTORE PUSH1 0x20 ADD PUSH0 KECCAK256 PUSH0 PUSH2 0x100 EXP DUP2 SLOAD DUP2 PUSH20 0xFFFFFFFFFFFFFFFFFFFFFFFFFFFFFFFFFFFFFFFF MUL NOT AND SWAP1 DUP4 PUSH20 0xFFFFFFFFFFFFFFFFFFFFFFFFFFFFFFFFFFFFFFFF AND MUL OR SWAP1 SSTORE POP JUMPDEST DUP1 DUP1 PUSH2 0x497 SWAP1 PUSH2 0xD7A JUMP JUMPDEST SWAP2 POP POP PUSH2 0x23B JUMP JUMPDEST POP JUMPDEST PUSH1 0x1 PUSH1 0x2 DUP2 GT ISZERO PUSH2 0x4B5 JUMPI PUSH2 0x4B4 PUSH2 0xB65 JUMP JUMPDEST JUMPDEST DUP7 DUP7 DUP4 DUP2 DUP2 LT PUSH2 0x4C8 JUMPI PUSH2 0x4C7 PUSH2 0xB92 JUMP JUMPDEST JUMPDEST SWAP1 POP PUSH1 0x20 MUL DUP2 ADD SWAP1 PUSH2 0x4DA SWAP2 SWAP1 PUSH2 0xBCB JUMP JUMPDEST PUSH1 0x20 ADD PUSH1 0x20 DUP2 ADD SWAP1 PUSH2 0x4EC SWAP2 SWAP1 PUSH2 0xC15 JUMP JUMPDEST PUSH1 0x2 DUP2 GT ISZERO PUSH2 0x4FE JUMPI PUSH2 0x4FD PUSH2 0xB65 JUMP JUMPDEST JUMPDEST SUB PUSH2 0x76B JUMPI PUSH0 JUMPDEST DUP7 DUP7 DUP4 DUP2 DUP2 LT PUSH2 0x518 JUMPI PUSH2 0x517 PUSH2 0xB92 JUMP JUMPDEST JUMPDEST SWAP1 POP PUSH1 0x20 MUL DUP2 ADD SWAP1 PUSH2 0x52A SWAP2 SWAP1 PUSH2 0xBCB JUMP JUMPDEST DUP1 PUSH1 0x40 ADD SWAP1 PUSH2 0x539 SWAP2 SWAP1 PUSH2 0xC40 JUMP JUMPDEST SWAP1 POP DUP2 LT ISZERO PUSH2 0x769 JUMPI PUSH0 PUSH20 0xFFFFFFFFFFFFFFFFFFFFFFFFFFFFFFFFFFFFFFFF AND PUSH0 DUP1 DUP10 DUP10 DUP7 DUP2 DUP2 LT PUSH2 0x56E JUMPI PUSH2 0x56D PUSH2 0xB92 JUMP JUMPDEST JUMPDEST SWAP1 POP PUSH1 0x20 MUL DUP2 ADD SWAP1 PUSH2 0x580 SWAP2 SWAP1 PUSH2 0xBCB JUMP JUMPDEST DUP1 PUSH1 0x40 ADD SWAP1 PUSH2 0x58F SWAP2 SWAP1 PUSH2 0xC40 JUMP JUMPDEST DUP6 DUP2 DUP2 LT PUSH2 0x5A0 JUMPI PUSH2 0x59F PUSH2 0xB92 JUMP JUMPDEST JUMPDEST SWAP1 POP PUSH1 0x20 MUL ADD PUSH1 0x20 DUP2 ADD SWAP1 PUSH2 0x5B5 SWAP2 SWAP1 PUSH2 0xCF7 JUMP JUMPDEST PUSH28 0xFFFFFFFFFFFFFFFFFFFFFFFFFFFFFFFFFFFFFFFFFFFFFFFFFFFFFFFF NOT AND PUSH28 0xFFFFFFFFFFFFFFFFFFFFFFFFFFFFFFFFFFFFFFFFFFFFFFFFFFFFFFFF NOT AND DUP2 MSTORE PUSH1 0x20 ADD SWAP1 DUP2 MSTORE PUSH1 0x20 ADD PUSH0 KECCAK256 PUSH0 SWAP1 SLOAD SWAP1 PUSH2 0x100 EXP SWAP1 DIV PUSH20 0xFFFFFFFFFFFFFFFFFFFFFFFFFFFFFFFFFFFFFFFF AND PUSH20 0xFFFFFFFFFFFFFFFFFFFFFFFFFFFFFFFFFFFFFFFF AND EQ PUSH2 0x756 JUMPI DUP7 DUP7 DUP4 DUP2 DUP2 LT PUSH2 0x64E JUMPI PUSH2 0x64D PUSH2 0xB92 JUMP JUMPDEST JUMPDEST SWAP1 POP PUSH1 0x20 MUL DUP2 ADD SWAP1 PUSH2 0x660 SWAP2 SWAP1 PUSH2 0xBCB JUMP JUMPDEST PUSH0 ADD PUSH1 0x20 DUP2 ADD SWAP1 PUSH2 0x671 SWAP2 SWAP1 PUSH2 0xD22 JUMP JUMPDEST PUSH0 DUP1 DUP10 DUP10 DUP7 DUP2 DUP2 LT PUSH2 0x686 JUMPI PUSH2 0x685 PUSH2 0xB92 JUMP JUMPDEST JUMPDEST SWAP1 POP PUSH1 0x20 MUL DUP2 ADD SWAP1 PUSH2 0x698 SWAP2 SWAP1 PUSH2 0xBCB JUMP JUMPDEST DUP1 PUSH1 0x40 ADD SWAP1 PUSH2 0x6A7 SWAP2 SWAP1 PUSH2 0xC40 JUMP JUMPDEST DUP6 DUP2 DUP2 LT PUSH2 0x6B8 JUMPI PUSH2 0x6B7 PUSH2 0xB92 JUMP JUMPDEST JUMPDEST SWAP1 POP PUSH1 0x20 MUL ADD PUSH1 0x20 DUP2 ADD SWAP1 PUSH2 0x6CD SWAP2 SWAP1 PUSH2 0xCF7 JUMP JUMPDEST PUSH28 0xFFFFFFFFFFFFFFFFFFFFFFFFFFFFFFFFFFFFFFFFFFFFFFFFFFFFFFFF NOT AND PUSH28 0xFFFFFFFFFFFFFFFFFFFFFFFFFFFFFFFFFFFFFFFFFFFFFFFFFFFFFFFF NOT AND DUP2 MSTORE PUSH1 0x20 ADD SWAP1 DUP2 MSTORE PUSH1 0x20 ADD PUSH0 KECCAK256 PUSH0 PUSH2 0x100 EXP DUP2 SLOAD DUP2 PUSH20 0xFFFFFFFFFFFFFFFFFFFFFFFFFFFFFFFFFFFFFFFF MUL NOT AND SWAP1 DUP4 PUSH20 0xFFFFFFFFFFFFFFFFFFFFFFFFFFFFFFFFFFFFFFFF AND MUL OR SWAP1 SSTORE POP JUMPDEST DUP1 DUP1 PUSH2 0x761 SWAP1 PUSH2 0xD7A JUMP JUMPDEST SWAP2 POP POP PUSH2 0x505 JUMP JUMPDEST POP JUMPDEST PUSH1 0x2 DUP1 DUP2 GT ISZERO PUSH2 0x77E JUMPI PUSH2 0x77D PUSH2 0xB65 JUMP JUMPDEST JUMPDEST DUP7 DUP7 DUP4 DUP2 DUP2 LT PUSH2 0x791 JUMPI PUSH2 0x790 PUSH2 0xB92 JUMP JUMPDEST JUMPDEST SWAP1 POP PUSH1 0x20 MUL DUP2 ADD SWAP1 PUSH2 0x7A3 SWAP2 SWAP1 PUSH2 0xBCB JUMP JUMPDEST PUSH1 0x20 ADD PUSH1 0x20 DUP2 ADD SWAP1 PUSH2 0x7B5 SWAP2 SWAP1 PUSH2 0xC15 JUMP JUMPDEST PUSH1 0x2 DUP2 GT ISZERO PUSH2 0x7C7 JUMPI PUSH2 0x7C6 PUSH2 0xB65 JUMP JUMPDEST JUMPDEST SUB PUSH2 0x905 JUMPI PUSH0 JUMPDEST DUP7 DUP7 DUP4 DUP2 DUP2 LT PUSH2 0x7E1 JUMPI PUSH2 0x7E0 PUSH2 0xB92 JUMP JUMPDEST JUMPDEST SWAP1 POP PUSH1 0x20 MUL DUP2 ADD SWAP1 PUSH2 0x7F3 SWAP2 SWAP1 PUSH2 0xBCB JUMP JUMPDEST DUP1 PUSH1 0x40 ADD SWAP1 PUSH2 0x802 SWAP2 SWAP1 PUSH2 0xC40 JUMP JUMPDEST SWAP1 POP DUP2 LT ISZERO PUSH2 0x903 JUMPI PUSH0 DUP1 PUSH0 DUP10 DUP10 DUP7 DUP2 DUP2 LT PUSH2 0x821 JUMPI PUSH2 0x820 PUSH2 0xB92 JUMP JUMPDEST JUMPDEST SWAP1 POP PUSH1 0x20 MUL DUP2 ADD SWAP1 PUSH2 0x833 SWAP2 SWAP1 PUSH2 0xBCB JUMP JUMPDEST DUP1 PUSH1 0x40 ADD SWAP1 PUSH2 0x842 SWAP2 SWAP1 PUSH2 0xC40 JUMP JUMPDEST DUP6 DUP2 DUP2 LT PUSH2 0x853 JUMPI PUSH2 0x852 PUSH2 0xB92 JUMP JUMPDEST JUMPDEST SWAP1 POP PUSH1 0x20 MUL ADD PUSH1 0x20 DUP2 ADD SWAP1 PUSH2 0x868 SWAP2 SWAP1 PUSH2 0xCF7 JUMP JUMPDEST PUSH28 0xFFFFFFFFFFFFFFFFFFFFFFFFFFFFFFFFFFFFFFFFFFFFFFFFFFFFFFFF NOT AND PUSH28 0xFFFFFFFFFFFFFFFFFFFFFFFFFFFFFFFFFFFFFFFFFFFFFFFFFFFFFFFF NOT AND DUP2 MSTORE PUSH1 0x20 ADD SWAP1 DUP2 MSTORE PUSH1 0x20 ADD PUSH0 KECCAK256 PUSH0 PUSH2 0x100 EXP DUP2 SLOAD DUP2 PUSH20 0xFFFFFFFFFFFFFFFFFFFFFFFFFFFFFFFFFFFFFFFF MUL NOT AND SWAP1 DUP4 PUSH20 0xFFFFFFFFFFFFFFFFFFFFFFFFFFFFFFFFFFFFFFFF AND MUL OR SWAP1 SSTORE POP DUP1 DUP1 PUSH2 0x8FB SWAP1 PUSH2 0xD7A JUMP JUMPDEST SWAP2 POP POP PUSH2 0x7CE JUMP JUMPDEST POP JUMPDEST PUSH32 0x8FAA70878671CCD212D20771B795C50AF8FD3FF6CF27F4BDE57E5D4DE0AEB673 DUP7 DUP7 DUP7 DUP7 DUP7 PUSH1 0x40 MLOAD PUSH2 0x93C SWAP6 SWAP5 SWAP4 SWAP3 SWAP2 SWAP1 PUSH2 0x110D JUMP JUMPDEST PUSH1 0x40 MLOAD DUP1 SWAP2 SUB SWAP1 LOG1 DUP1 DUP1 PUSH2 0x94F SWAP1 PUSH2 0xD7A JUMP JUMPDEST SWAP2 POP POP PUSH2 0x1CD JUMP JUMPDEST POP POP POP POP POP POP JUMP JUMPDEST PUSH0 DUP1 PUSH32 0x20BDB322702E8F31EB02A18E466059B6B3224433A6E129849583A03F267F40A3 SWAP1 POP DUP1 SWAP2 POP POP SWAP1 JUMP JUMPDEST PUSH0 DUP2 SWAP1 POP SWAP2 SWAP1 POP JUMP JUMPDEST PUSH2 0x99D DUP2 PUSH2 0x98B JUMP JUMPDEST DUP3 MSTORE POP POP JUMP JUMPDEST PUSH0 PUSH1 0x20 DUP3 ADD SWAP1 POP PUSH2 0x9B6 PUSH0 DUP4 ADD DUP5 PUSH2 0x994 JUMP JUMPDEST SWAP3 SWAP2 POP POP JUMP JUMPDEST PUSH0 DUP1 REVERT JUMPDEST PUSH0 DUP1 REVERT JUMPDEST PUSH0 DUP1 REVERT JUMPDEST PUSH0 DUP1 REVERT JUMPDEST PUSH0 DUP1 REVERT JUMPDEST PUSH0 DUP1 DUP4 PUSH1 0x1F DUP5 ADD SLT PUSH2 0x9E5 JUMPI PUSH2 0x9E4 PUSH2 0x9C4 JUMP JUMPDEST JUMPDEST DUP3 CALLDATALOAD SWAP1 POP PUSH8 0xFFFFFFFFFFFFFFFF DUP2 GT ISZERO PUSH2 0xA02 JUMPI PUSH2 0xA01 PUSH2 0x9C8 JUMP JUMPDEST JUMPDEST PUSH1 0x20 DUP4 ADD SWAP2 POP DUP4 PUSH1 0x20 DUP3 MUL DUP4 ADD GT ISZERO PUSH2 0xA1E JUMPI PUSH2 0xA1D PUSH2 0x9CC JUMP JUMPDEST JUMPDEST SWAP3 POP SWAP3 SWAP1 POP JUMP JUMPDEST PUSH0 PUSH20 0xFFFFFFFFFFFFFFFFFFFFFFFFFFFFFFFFFFFFFFFF DUP3 AND SWAP1 POP SWAP2 SWAP1 POP JUMP JUMPDEST PUSH0 PUSH2 0xA4E DUP3 PUSH2 0xA25 JUMP JUMPDEST SWAP1 POP SWAP2 SWAP1 POP JUMP JUMPDEST PUSH2 0xA5E DUP2 PUSH2 0xA44 JUMP JUMPDEST DUP2 EQ PUSH2 0xA68 JUMPI PUSH0 DUP1 REVERT JUMPDEST POP JUMP JUMPDEST PUSH0 DUP2 CALLDATALOAD SWAP1 POP PUSH2 0xA79 DUP2 PUSH2 0xA55 JUMP JUMPDEST SWAP3 SWAP2 POP POP JUMP JUMPDEST PUSH0 DUP1 DUP4 PUSH1 0x1F DUP5 ADD SLT PUSH2 0xA94 JUMPI PUSH2 0xA93 PUSH2 0x9C4 JUMP JUMPDEST JUMPDEST DUP3 CALLDATALOAD SWAP1 POP PUSH8 0xFFFFFFFFFFFFFFFF DUP2 GT ISZERO PUSH2 0xAB1 JUMPI PUSH2 0xAB0 PUSH2 0x9C8 JUMP JUMPDEST JUMPDEST PUSH1 0x20 DUP4 ADD SWAP2 POP DUP4 PUSH1 0x1 DUP3 MUL DUP4 ADD GT ISZERO PUSH2 0xACD JUMPI PUSH2 0xACC PUSH2 0x9CC JUMP JUMPDEST JUMPDEST SWAP3 POP SWAP3 SWAP1 POP JUMP JUMPDEST PUSH0 DUP1 PUSH0 DUP1 PUSH0 PUSH1 0x60 DUP7 DUP9 SUB SLT ISZERO PUSH2 0xAED JUMPI PUSH2 0xAEC PUSH2 0x9BC JUMP JUMPDEST JUMPDEST PUSH0 DUP7 ADD CALLDATALOAD PUSH8 0xFFFFFFFFFFFFFFFF DUP2 GT ISZERO PUSH2 0xB0A JUMPI PUSH2 0xB09 PUSH2 0x9C0 JUMP JUMPDEST JUMPDEST PUSH2 0xB16 DUP9 DUP3 DUP10 ADD PUSH2 0x9D0 JUMP JUMPDEST SWAP6 POP SWAP6 POP POP PUSH1 0x20 PUSH2 0xB29 DUP9 DUP3 DUP10 ADD PUSH2 0xA6B JUMP JUMPDEST SWAP4 POP POP PUSH1 0x40 DUP7 ADD CALLDATALOAD PUSH8 0xFFFFFFFFFFFFFFFF DUP2 GT ISZERO PUSH2 0xB4A JUMPI PUSH2 0xB49 PUSH2 0x9C0 JUMP JUMPDEST JUMPDEST PUSH2 0xB56 DUP9 DUP3 DUP10 ADD PUSH2 0xA7F JUMP JUMPDEST SWAP3 POP SWAP3 POP POP SWAP3 SWAP6 POP SWAP3 SWAP6 SWAP1 SWAP4 POP JUMP JUMPDEST PUSH32 0x4E487B7100000000000000000000000000000000000000000000000000000000 PUSH0 MSTORE PUSH1 0x21 PUSH1 0x4 MSTORE PUSH1 0x24 PUSH0 REVERT JUMPDEST PUSH32 0x4E487B7100000000000000000000000000000000000000000000000000000000 PUSH0 MSTORE PUSH1 0x32 PUSH1 0x4 MSTORE PUSH1 0x24 PUSH0 REVERT JUMPDEST PUSH0 DUP1 REVERT JUMPDEST PUSH0 DUP1 REVERT JUMPDEST PUSH0 DUP1 REVERT JUMPDEST PUSH0 DUP3 CALLDATALOAD PUSH1 0x1 PUSH1 0x60 SUB DUP4 CALLDATASIZE SUB SUB DUP2 SLT PUSH2 0xBE6 JUMPI PUSH2 0xBE5 PUSH2 0xBBF JUMP JUMPDEST JUMPDEST DUP1 DUP4 ADD SWAP2 POP POP SWAP3 SWAP2 POP POP JUMP JUMPDEST PUSH1 0x3 DUP2 LT PUSH2 0xBFE JUMPI PUSH0 DUP1 REVERT JUMPDEST POP JUMP JUMPDEST PUSH0 DUP2 CALLDATALOAD SWAP1 POP PUSH2 0xC0F DUP2 PUSH2 0xBF2 JUMP JUMPDEST SWAP3 SWAP2 POP POP JUMP JUMPDEST PUSH0 PUSH1 0x20 DUP3 DUP5 SUB SLT ISZERO PUSH2 0xC2A JUMPI PUSH2 0xC29 PUSH2 0x9BC JUMP JUMPDEST JUMPDEST PUSH0 PUSH2 0xC37 DUP5 DUP3 DUP6 ADD PUSH2 0xC01 JUMP JUMPDEST SWAP2 POP POP SWAP3 SWAP2 POP POP JUMP JUMPDEST PUSH0 DUP1 DUP4 CALLDATALOAD PUSH1 0x1 PUSH1 0x20 SUB DUP5 CALLDATASIZE SUB SUB DUP2 SLT PUSH2 0xC5C JUMPI PUSH2 0xC5B PUSH2 0xBBF JUMP JUMPDEST JUMPDEST DUP1 DUP5 ADD SWAP3 POP DUP3 CALLDATALOAD SWAP2 POP PUSH8 0xFFFFFFFFFFFFFFFF DUP3 GT ISZERO PUSH2 0xC7E JUMPI PUSH2 0xC7D PUSH2 0xBC3 JUMP JUMPDEST JUMPDEST PUSH1 0x20 DUP4 ADD SWAP3 POP PUSH1 0x20 DUP3 MUL CALLDATASIZE SUB DUP4 SGT ISZERO PUSH2 0xC9A JUMPI PUSH2 0xC99 PUSH2 0xBC7 JUMP JUMPDEST JUMPDEST POP SWAP3 POP SWAP3 SWAP1 POP JUMP JUMPDEST PUSH0 PUSH32 0xFFFFFFFF00000000000000000000000000000000000000000000000000000000 DUP3 AND SWAP1 POP SWAP2 SWAP1 POP JUMP JUMPDEST PUSH2 0xCD6 DUP2 PUSH2 0xCA2 JUMP JUMPDEST DUP2 EQ PUSH2 0xCE0 JUMPI PUSH0 DUP1 REVERT JUMPDEST POP JUMP JUMPDEST PUSH0 DUP2 CALLDATALOAD SWAP1 POP PUSH2 0xCF1 DUP2 PUSH2 0xCCD JUMP JUMPDEST SWAP3 SWAP2 POP POP JUMP JUMPDEST PUSH0 PUSH1 0x20 DUP3 DUP5 SUB SLT ISZERO PUSH2 0xD0C JUMPI PUSH2 0xD0B PUSH2 0x9BC JUMP JUMPDEST JUMPDEST PUSH0 PUSH2 0xD19 DUP5 DUP3 DUP6 ADD PUSH2 0xCE3 JUMP JUMPDEST SWAP2 POP POP SWAP3 SWAP2 POP POP JUMP JUMPDEST PUSH0 PUSH1 0x20 DUP3 DUP5 SUB SLT ISZERO PUSH2 0xD37 JUMPI PUSH2 0xD36 PUSH2 0x9BC JUMP JUMPDEST JUMPDEST PUSH0 PUSH2 0xD44 DUP5 DUP3 DUP6 ADD PUSH2 0xA6B JUMP JUMPDEST SWAP2 POP POP SWAP3 SWAP2 POP POP JUMP JUMPDEST PUSH32 0x4E487B7100000000000000000000000000000000000000000000000000000000 PUSH0 MSTORE PUSH1 0x11 PUSH1 0x4 MSTORE PUSH1 0x24 PUSH0 REVERT JUMPDEST PUSH0 PUSH2 0xD84 DUP3 PUSH2 0x98B JUMP JUMPDEST SWAP2 POP PUSH32 0xFFFFFFFFFFFFFFFFFFFFFFFFFFFFFFFFFFFFFFFFFFFFFFFFFFFFFFFFFFFFFFFF DUP3 SUB PUSH2 0xDB6 JUMPI PUSH2 0xDB5 PUSH2 0xD4D JUMP JUMPDEST JUMPDEST PUSH1 0x1 DUP3 ADD SWAP1 POP SWAP2 SWAP1 POP JUMP JUMPDEST PUSH0 DUP3 DUP3 MSTORE PUSH1 0x20 DUP3 ADD SWAP1 POP SWAP3 SWAP2 POP POP JUMP JUMPDEST PUSH0 DUP2 SWAP1 POP SWAP2 SWAP1 POP JUMP JUMPDEST PUSH0 PUSH2 0xDE8 PUSH1 0x20 DUP5 ADD DUP5 PUSH2 0xA6B JUMP JUMPDEST SWAP1 POP SWAP3 SWAP2 POP POP JUMP JUMPDEST PUSH2 0xDF9 DUP2 PUSH2 0xA44 JUMP JUMPDEST DUP3 MSTORE POP POP JUMP JUMPDEST PUSH0 PUSH2 0xE0D PUSH1 0x20 DUP5 ADD DUP5 PUSH2 0xC01 JUMP JUMPDEST SWAP1 POP SWAP3 SWAP2 POP POP JUMP JUMPDEST PUSH1 0x3 DUP2 LT PUSH2 0xE26 JUMPI PUSH2 0xE25 PUSH2 0xB65 JUMP JUMPDEST JUMPDEST POP JUMP JUMPDEST PUSH0 DUP2 SWAP1 POP PUSH2 0xE36 DUP3 PUSH2 0xE15 JUMP JUMPDEST SWAP2 SWAP1 POP JUMP JUMPDEST PUSH0 PUSH2 0xE45 DUP3 PUSH2 0xE29 JUMP JUMPDEST SWAP1 POP SWAP2 SWAP1 POP JUMP JUMPDEST PUSH2 0xE55 DUP2 PUSH2 0xE3B JUMP JUMPDEST DUP3 MSTORE POP POP JUMP JUMPDEST PUSH0 DUP1 REVERT JUMPDEST PUSH0 DUP1 REVERT JUMPDEST PUSH0 DUP1 REVERT JUMPDEST PUSH0 DUP1 DUP4 CALLDATALOAD PUSH1 0x1 PUSH1 0x20 SUB DUP5 CALLDATASIZE SUB SUB DUP2 SLT PUSH2 0xE83 JUMPI PUSH2 0xE82 PUSH2 0xE63 JUMP JUMPDEST JUMPDEST DUP4 DUP2 ADD SWAP3 POP DUP3 CALLDATALOAD SWAP2 POP PUSH1 0x20 DUP4 ADD SWAP3 POP PUSH8 0xFFFFFFFFFFFFFFFF DUP3 GT ISZERO PUSH2 0xEAB JUMPI PUSH2 0xEAA PUSH2 0xE5B JUMP JUMPDEST JUMPDEST PUSH1 0x20 DUP3 MUL CALLDATASIZE SUB DUP4 SGT ISZERO PUSH2 0xEC1 JUMPI PUSH2 0xEC0 PUSH2 0xE5F JUMP JUMPDEST JUMPDEST POP SWAP3 POP SWAP3 SWAP1 POP JUMP JUMPDEST PUSH0 DUP3 DUP3 MSTORE PUSH1 0x20 DUP3 ADD SWAP1 POP SWAP3 SWAP2 POP POP JUMP JUMPDEST PUSH0 DUP2 SWAP1 POP SWAP2 SWAP1 POP JUMP JUMPDEST PUSH2 0xEEB DUP2 PUSH2 0xCA2 JUMP JUMPDEST DUP3 MSTORE POP POP JUMP JUMPDEST PUSH0 PUSH2 0xEFC DUP4 DUP4 PUSH2 0xEE2 JUMP JUMPDEST PUSH1 0x20 DUP4 ADD SWAP1 POP SWAP3 SWAP2 POP POP JUMP JUMPDEST PUSH0 PUSH2 0xF16 PUSH1 0x20 DUP5 ADD DUP5 PUSH2 0xCE3 JUMP JUMPDEST SWAP1 POP SWAP3 SWAP2 POP POP JUMP JUMPDEST PUSH0 PUSH1 0x20 DUP3 ADD SWAP1 POP SWAP2 SWAP1 POP JUMP JUMPDEST PUSH0 PUSH2 0xF35 DUP4 DUP6 PUSH2 0xEC9 JUMP JUMPDEST SWAP4 POP PUSH2 0xF40 DUP3 PUSH2 0xED9 JUMP JUMPDEST DUP1 PUSH0 JUMPDEST DUP6 DUP2 LT ISZERO PUSH2 0xF78 JUMPI PUSH2 0xF55 DUP3 DUP5 PUSH2 0xF08 JUMP JUMPDEST PUSH2 0xF5F DUP9 DUP3 PUSH2 0xEF1 JUMP JUMPDEST SWAP8 POP PUSH2 0xF6A DUP4 PUSH2 0xF1E JUMP JUMPDEST SWAP3 POP POP PUSH1 0x1 DUP2 ADD SWAP1 POP PUSH2 0xF43 JUMP JUMPDEST POP DUP6 SWAP3 POP POP POP SWAP4 SWAP3 POP POP POP JUMP JUMPDEST PUSH0 PUSH1 0x60 DUP4 ADD PUSH2 0xF96 PUSH0 DUP5 ADD DUP5 PUSH2 0xDDA JUMP JUMPDEST PUSH2 0xFA2 PUSH0 DUP7 ADD DUP3 PUSH2 0xDF0 JUMP JUMPDEST POP PUSH2 0xFB0 PUSH1 0x20 DUP5 ADD DUP5 PUSH2 0xDFF JUMP JUMPDEST PUSH2 0xFBD PUSH1 0x20 DUP7 ADD DUP3 PUSH2 0xE4C JUMP JUMPDEST POP PUSH2 0xFCB PUSH1 0x40 DUP5 ADD DUP5 PUSH2 0xE67 JUMP JUMPDEST DUP6 DUP4 SUB PUSH1 0x40 DUP8 ADD MSTORE PUSH2 0xFDE DUP4 DUP3 DUP5 PUSH2 0xF2A JUMP JUMPDEST SWAP3 POP POP POP DUP1 SWAP2 POP POP SWAP3 SWAP2 POP POP JUMP JUMPDEST PUSH0 PUSH2 0xFF7 DUP4 DUP4 PUSH2 0xF85 JUMP JUMPDEST SWAP1 POP SWAP3 SWAP2 POP POP JUMP JUMPDEST PUSH0 DUP3 CALLDATALOAD PUSH1 0x1 PUSH1 0x60 SUB DUP4 CALLDATASIZE SUB SUB DUP2 SLT PUSH2 0x101A JUMPI PUSH2 0x1019 PUSH2 0xE63 JUMP JUMPDEST JUMPDEST DUP3 DUP2 ADD SWAP2 POP POP SWAP3 SWAP2 POP POP JUMP JUMPDEST PUSH0 PUSH1 0x20 DUP3 ADD SWAP1 POP SWAP2 SWAP1 POP JUMP JUMPDEST PUSH0 PUSH2 0x103D DUP4 DUP6 PUSH2 0xDC1 JUMP JUMPDEST SWAP4 POP DUP4 PUSH1 0x20 DUP5 MUL DUP6 ADD PUSH2 0x104F DUP5 PUSH2 0xDD1 JUMP JUMPDEST DUP1 PUSH0 JUMPDEST DUP8 DUP2 LT ISZERO PUSH2 0x1092 JUMPI DUP5 DUP5 SUB DUP10 MSTORE PUSH2 0x1069 DUP3 DUP5 PUSH2 0xFFF JUMP JUMPDEST PUSH2 0x1073 DUP6 DUP3 PUSH2 0xFEC JUMP JUMPDEST SWAP5 POP PUSH2 0x107E DUP4 PUSH2 0x1026 JUMP JUMPDEST SWAP3 POP PUSH1 0x20 DUP11 ADD SWAP10 POP POP PUSH1 0x1 DUP2 ADD SWAP1 POP PUSH2 0x1052 JUMP JUMPDEST POP DUP3 SWAP8 POP DUP8 SWAP5 POP POP POP POP POP SWAP4 SWAP3 POP POP POP JUMP JUMPDEST PUSH2 0x10AD DUP2 PUSH2 0xA44 JUMP JUMPDEST DUP3 MSTORE POP POP JUMP JUMPDEST PUSH0 DUP3 DUP3 MSTORE PUSH1 0x20 DUP3 ADD SWAP1 POP SWAP3 SWAP2 POP POP JUMP JUMPDEST DUP3 DUP2 DUP4 CALLDATACOPY PUSH0 DUP4 DUP4 ADD MSTORE POP POP POP JUMP JUMPDEST PUSH0 PUSH1 0x1F NOT PUSH1 0x1F DUP4 ADD AND SWAP1 POP SWAP2 SWAP1 POP JUMP JUMPDEST PUSH0 PUSH2 0x10EC DUP4 DUP6 PUSH2 0x10B3 JUMP JUMPDEST SWAP4 POP PUSH2 0x10F9 DUP4 DUP6 DUP5 PUSH2 0x10C3 JUMP JUMPDEST PUSH2 0x1102 DUP4 PUSH2 0x10D1 JUMP JUMPDEST DUP5 ADD SWAP1 POP SWAP4 SWAP3 POP POP POP JUMP JUMPDEST PUSH0 PUSH1 0x60 DUP3 ADD SWAP1 POP DUP2 DUP2 SUB PUSH0 DUP4 ADD MSTORE PUSH2 0x1126 DUP2 DUP8 DUP10 PUSH2 0x1032 JUMP JUMPDEST SWAP1 POP PUSH2 0x1135 PUSH1 0x20 DUP4 ADD DUP7 PUSH2 0x10A4 JUMP JUMPDEST DUP2 DUP2 SUB PUSH1 0x40 DUP4 ADD MSTORE PUSH2 0x1148 DUP2 DUP5 DUP7 PUSH2 0x10E1 JUMP JUMPDEST SWAP1 POP SWAP7 SWAP6 POP POP POP POP POP POP JUMP INVALID LOG2 PUSH5 0x6970667358 0x22 SLT KECCAK256 0xCB PUSH29 0x8D547DD2CDB92ACCF4A1BD7982E50BC662BF5F182310F15060EC14E06 0xDE PUSH5 0x736F6C6343 STOP ADDMOD EQ STOP CALLER "
				},
				"gasEstimates": {
					"creation": {
						"codeDepositCost": "898000",
						"executionCost": "infinite",
						"totalCost": "infinite"
					},
					"external": {
						"": "infinite",
						"diamondCut((address,uint8,bytes4[])[],address,bytes)": "infinite",
						"getNumber10()": "2497",
						"getNumber100()": "2476"
					}
				},
				"methodIdentifiers": {
					"diamondCut((address,uint8,bytes4[])[],address,bytes)": "1f931c1c",
					"getNumber10()": "0e90f45d",
					"getNumber100()": "02c85697"
				}
			},
			"storageLayout": {
				"storage": [
					{
						"astId": 11,
						"contract": "contracts/Diamond/Diamond.sol:Diamond",
						"label": "selectorToAddress",
						"offset": 0,
						"slot": "0",
						"type": "t_mapping(t_bytes4,t_address)"
					}
				],
				"types": {
					"t_address": {
						"encoding": "inplace",
						"label": "address",
						"numberOfBytes": "20"
					},
					"t_bytes4": {
						"encoding": "inplace",
						"label": "bytes4",
						"numberOfBytes": "4"
					},
					"t_mapping(t_bytes4,t_address)": {
						"encoding": "mapping",
						"key": "t_bytes4",
						"label": "mapping(bytes4 => address)",
						"numberOfBytes": "32",
						"value": "t_address"
					}
				}
			},
			"userdoc": {
				"kind": "user",
				"methods": {
					"diamondCut((address,uint8,bytes4[])[],address,bytes)": {
						"notice": "Add/replace/remove any number of functions and optionally execute         a function with delegatecall"
					}
				},
				"version": 1
			}
		}
	}
}