{
	"contracts/Diamond/1_StorageMod100.sol": {
		"Storage": {
			"abi": [
				{
					"anonymous": false,
					"inputs": [
						{
							"indexed": false,
							"internalType": "uint256",
							"name": "numberOld",
							"type": "uint256"
						},
						{
							"indexed": false,
							"internalType": "uint256",
							"name": "numberNew",
							"type": "uint256"
						}
					],
					"name": "numberUpdated",
					"type": "event"
				},
				{
					"inputs": [],
					"name": "retrieve",
					"outputs": [
						{
							"internalType": "uint256",
							"name": "",
							"type": "uint256"
						}
					],
					"stateMutability": "view",
					"type": "function"
				},
				{
					"inputs": [
						{
							"internalType": "uint256",
							"name": "num",
							"type": "uint256"
						},
						{
							"internalType": "uint256",
							"name": "scale",
							"type": "uint256"
						}
					],
					"name": "store",
					"outputs": [
						{
							"internalType": "uint256",
							"name": "",
							"type": "uint256"
						}
					],
					"stateMutability": "nonpayable",
					"type": "function"
				}
			],
			"devdoc": {
				"custom:dev-run-script": "./scripts/deploy_with_ethers.ts",
				"details": "Store & retrieve value in a variable",
				"kind": "dev",
				"methods": {
					"retrieve()": {
						"details": "Return value ",
						"returns": {
							"_0": "value of 'number'"
						}
					},
					"store(uint256,uint256)": {
						"details": "Store value in variable",
						"params": {
							"num": "value to store"
						}
					}
				},
				"title": "Storage",
				"version": 1
			},
			"evm": {
				"assembly": "    /* \"contracts/Diamond/1_StorageMod100.sol\":231:887  contract Storage is DiamondStorage{... */\n  mstore(0x40, 0x80)\n  callvalue\n  dup1\n  iszero\n  tag_1\n  jumpi\n  0x00\n  dup1\n  revert\ntag_1:\n  pop\n  dataSize(sub_0)\n  dup1\n  dataOffset(sub_0)\n  0x00\n  codecopy\n  0x00\n  return\nstop\n\nsub_0: assembly {\n        /* \"contracts/Diamond/1_StorageMod100.sol\":231:887  contract Storage is DiamondStorage{... */\n      mstore(0x40, 0x80)\n      callvalue\n      dup1\n      iszero\n      tag_1\n      jumpi\n      0x00\n      dup1\n      revert\n    tag_1:\n      pop\n      jumpi(tag_2, lt(calldatasize, 0x04))\n      shr(0xe0, calldataload(0x00))\n      dup1\n      0x2e64cec1\n      eq\n      tag_3\n      jumpi\n      dup1\n      0x6ed28ed0\n      eq\n      tag_4\n      jumpi\n    tag_2:\n      0x00\n      dup1\n      revert\n        /* \"contracts/Diamond/1_StorageMod100.sol\":759:885  function retrieve() public view returns (uint256){... */\n    tag_3:\n      tag_5\n      tag_6\n      jump\t// in\n    tag_5:\n      mload(0x40)\n      tag_7\n      swap2\n      swap1\n      tag_8\n      jump\t// in\n    tag_7:\n      mload(0x40)\n      dup1\n      swap2\n      sub\n      swap1\n      return\n        /* \"contracts/Diamond/1_StorageMod100.sol\":420:678  function store(uint256 num, uint scale) external returns (uint256) {... */\n    tag_4:\n      tag_9\n      0x04\n      dup1\n      calldatasize\n      sub\n      dup2\n      add\n      swap1\n      tag_10\n      swap2\n      swap1\n      tag_11\n      jump\t// in\n    tag_10:\n      tag_12\n      jump\t// in\n    tag_9:\n      mload(0x40)\n      tag_13\n      swap2\n      swap1\n      tag_8\n      jump\t// in\n    tag_13:\n      mload(0x40)\n      dup1\n      swap2\n      sub\n      swap1\n      return\n        /* \"contracts/Diamond/1_StorageMod100.sol\":759:885  function retrieve() public view returns (uint256){... */\n    tag_6:\n        /* \"contracts/Diamond/1_StorageMod100.sol\":800:807  uint256 */\n      0x00\n        /* \"contracts/Diamond/1_StorageMod100.sol\":818:838  MyStorage storage ms */\n      dup1\n        /* \"contracts/Diamond/1_StorageMod100.sol\":841:852  myStorage() */\n      tag_15\n        /* \"contracts/Diamond/1_StorageMod100.sol\":841:850  myStorage */\n      tag_16\n        /* \"contracts/Diamond/1_StorageMod100.sol\":841:852  myStorage() */\n      jump\t// in\n    tag_15:\n        /* \"contracts/Diamond/1_StorageMod100.sol\":818:852  MyStorage storage ms = myStorage() */\n      swap1\n      pop\n        /* \"contracts/Diamond/1_StorageMod100.sol\":869:871  ms */\n      dup1\n        /* \"contracts/Diamond/1_StorageMod100.sol\":869:878  ms.num100 */\n      0x01\n      add\n      sload\n        /* \"contracts/Diamond/1_StorageMod100.sol\":862:878  return ms.num100 */\n      swap2\n      pop\n      pop\n        /* \"contracts/Diamond/1_StorageMod100.sol\":759:885  function retrieve() public view returns (uint256){... */\n      swap1\n      jump\t// out\n        /* \"contracts/Diamond/1_StorageMod100.sol\":420:678  function store(uint256 num, uint scale) external returns (uint256) {... */\n    tag_12:\n        /* \"contracts/Diamond/1_StorageMod100.sol\":478:485  uint256 */\n      0x00\n        /* \"contracts/Diamond/1_StorageMod100.sol\":497:517  MyStorage storage ms */\n      dup1\n        /* \"contracts/Diamond/1_StorageMod100.sol\":520:531  myStorage() */\n      tag_18\n        /* \"contracts/Diamond/1_StorageMod100.sol\":520:529  myStorage */\n      tag_16\n        /* \"contracts/Diamond/1_StorageMod100.sol\":520:531  myStorage() */\n      jump\t// in\n    tag_18:\n        /* \"contracts/Diamond/1_StorageMod100.sol\":497:531  MyStorage storage ms = myStorage() */\n      swap1\n      pop\n        /* \"contracts/Diamond/1_StorageMod100.sol\":541:555  uint256 tmpNum */\n      0x00\n        /* \"contracts/Diamond/1_StorageMod100.sol\":558:560  ms */\n      dup2\n        /* \"contracts/Diamond/1_StorageMod100.sol\":558:567  ms.num100 */\n      0x01\n      add\n      sload\n        /* \"contracts/Diamond/1_StorageMod100.sol\":541:567  uint256 tmpNum = ms.num100 */\n      swap1\n      pop\n        /* \"contracts/Diamond/1_StorageMod100.sol\":593:598  scale */\n      dup4\n        /* \"contracts/Diamond/1_StorageMod100.sol\":589:592  num */\n      dup6\n        /* \"contracts/Diamond/1_StorageMod100.sol\":589:598  num*scale */\n      tag_19\n      swap2\n      swap1\n      tag_20\n      jump\t// in\n    tag_19:\n        /* \"contracts/Diamond/1_StorageMod100.sol\":577:579  ms */\n      dup3\n        /* \"contracts/Diamond/1_StorageMod100.sol\":577:586  ms.num100 */\n      0x01\n      add\n        /* \"contracts/Diamond/1_StorageMod100.sol\":577:598  ms.num100 = num*scale */\n      dup2\n      swap1\n      sstore\n      pop\n        /* \"contracts/Diamond/1_StorageMod100.sol\":613:645  numberUpdated(tmpNum, ms.num100) */\n      0x109e063a1f44684827deee572e5013a35bfc4c839fcfcc571cfcf0e7812d895c\n        /* \"contracts/Diamond/1_StorageMod100.sol\":627:633  tmpNum */\n      dup2\n        /* \"contracts/Diamond/1_StorageMod100.sol\":635:637  ms */\n      dup4\n        /* \"contracts/Diamond/1_StorageMod100.sol\":635:644  ms.num100 */\n      0x01\n      add\n      sload\n        /* \"contracts/Diamond/1_StorageMod100.sol\":613:645  numberUpdated(tmpNum, ms.num100) */\n      mload(0x40)\n      tag_21\n      swap3\n      swap2\n      swap1\n      tag_22\n      jump\t// in\n    tag_21:\n      mload(0x40)\n      dup1\n      swap2\n      sub\n      swap1\n      log1\n        /* \"contracts/Diamond/1_StorageMod100.sol\":666:671  scale */\n      dup4\n        /* \"contracts/Diamond/1_StorageMod100.sol\":662:665  num */\n      dup6\n        /* \"contracts/Diamond/1_StorageMod100.sol\":662:671  num*scale */\n      tag_23\n      swap2\n      swap1\n      tag_20\n      jump\t// in\n    tag_23:\n        /* \"contracts/Diamond/1_StorageMod100.sol\":655:671  return num*scale */\n      swap3\n      pop\n      pop\n      pop\n        /* \"contracts/Diamond/1_StorageMod100.sol\":420:678  function store(uint256 num, uint scale) external returns (uint256) {... */\n      swap3\n      swap2\n      pop\n      pop\n      jump\t// out\n        /* \"contracts/Diamond/DiamondStorage.sol\":217:362  function myStorage() internal pure returns(MyStorage storage ms) {... */\n    tag_16:\n        /* \"contracts/Diamond/DiamondStorage.sol\":260:280  MyStorage storage ms */\n      0x00\n        /* \"contracts/Diamond/DiamondStorage.sol\":288:303  bytes32 ms_slot */\n      dup1\n        /* \"contracts/Diamond/DiamondStorage.sol\":306:323  keccak256(\"nums\") */\n      0x20bdb322702e8f31eb02a18e466059b6b3224433a6e129849583a03f267f40a3\n        /* \"contracts/Diamond/DiamondStorage.sol\":288:323  bytes32 ms_slot = keccak256(\"nums\") */\n      swap1\n      pop\n        /* \"contracts/Diamond/DiamondStorage.sol\":350:357  ms_slot */\n      dup1\n        /* \"contracts/Diamond/DiamondStorage.sol\":339:357  ms.slot := ms_slot */\n      swap2\n      pop\n        /* \"contracts/Diamond/DiamondStorage.sol\":338:358  {ms.slot := ms_slot} */\n      pop\n        /* \"contracts/Diamond/DiamondStorage.sol\":217:362  function myStorage() internal pure returns(MyStorage storage ms) {... */\n      swap1\n      jump\t// out\n        /* \"#utility.yul\":7:84   */\n    tag_25:\n        /* \"#utility.yul\":44:51   */\n      0x00\n        /* \"#utility.yul\":73:78   */\n      dup2\n        /* \"#utility.yul\":62:78   */\n      swap1\n      pop\n        /* \"#utility.yul\":7:84   */\n      swap2\n      swap1\n      pop\n      jump\t// out\n        /* \"#utility.yul\":90:208   */\n    tag_26:\n        /* \"#utility.yul\":177:201   */\n      tag_36\n        /* \"#utility.yul\":195:200   */\n      dup2\n        /* \"#utility.yul\":177:201   */\n      tag_25\n      jump\t// in\n    tag_36:\n        /* \"#utility.yul\":172:175   */\n      dup3\n        /* \"#utility.yul\":165:202   */\n      mstore\n        /* \"#utility.yul\":90:208   */\n      pop\n      pop\n      jump\t// out\n        /* \"#utility.yul\":214:436   */\n    tag_8:\n        /* \"#utility.yul\":307:311   */\n      0x00\n        /* \"#utility.yul\":345:347   */\n      0x20\n        /* \"#utility.yul\":334:343   */\n      dup3\n        /* \"#utility.yul\":330:348   */\n      add\n        /* \"#utility.yul\":322:348   */\n      swap1\n      pop\n        /* \"#utility.yul\":358:429   */\n      tag_38\n        /* \"#utility.yul\":426:427   */\n      0x00\n        /* \"#utility.yul\":415:424   */\n      dup4\n        /* \"#utility.yul\":411:428   */\n      add\n        /* \"#utility.yul\":402:408   */\n      dup5\n        /* \"#utility.yul\":358:429   */\n      tag_26\n      jump\t// in\n    tag_38:\n        /* \"#utility.yul\":214:436   */\n      swap3\n      swap2\n      pop\n      pop\n      jump\t// out\n        /* \"#utility.yul\":523:640   */\n    tag_28:\n        /* \"#utility.yul\":632:633   */\n      0x00\n        /* \"#utility.yul\":629:630   */\n      dup1\n        /* \"#utility.yul\":622:634   */\n      revert\n        /* \"#utility.yul\":769:891   */\n    tag_30:\n        /* \"#utility.yul\":842:866   */\n      tag_43\n        /* \"#utility.yul\":860:865   */\n      dup2\n        /* \"#utility.yul\":842:866   */\n      tag_25\n      jump\t// in\n    tag_43:\n        /* \"#utility.yul\":835:840   */\n      dup2\n        /* \"#utility.yul\":832:867   */\n      eq\n        /* \"#utility.yul\":822:885   */\n      tag_44\n      jumpi\n        /* \"#utility.yul\":881:882   */\n      0x00\n        /* \"#utility.yul\":878:879   */\n      dup1\n        /* \"#utility.yul\":871:883   */\n      revert\n        /* \"#utility.yul\":822:885   */\n    tag_44:\n        /* \"#utility.yul\":769:891   */\n      pop\n      jump\t// out\n        /* \"#utility.yul\":897:1036   */\n    tag_31:\n        /* \"#utility.yul\":943:948   */\n      0x00\n        /* \"#utility.yul\":981:987   */\n      dup2\n        /* \"#utility.yul\":968:988   */\n      calldataload\n        /* \"#utility.yul\":959:988   */\n      swap1\n      pop\n        /* \"#utility.yul\":997:1030   */\n      tag_46\n        /* \"#utility.yul\":1024:1029   */\n      dup2\n        /* \"#utility.yul\":997:1030   */\n      tag_30\n      jump\t// in\n    tag_46:\n        /* \"#utility.yul\":897:1036   */\n      swap3\n      swap2\n      pop\n      pop\n      jump\t// out\n        /* \"#utility.yul\":1042:1516   */\n    tag_11:\n        /* \"#utility.yul\":1110:1116   */\n      0x00\n        /* \"#utility.yul\":1118:1124   */\n      dup1\n        /* \"#utility.yul\":1167:1169   */\n      0x40\n        /* \"#utility.yul\":1155:1164   */\n      dup4\n        /* \"#utility.yul\":1146:1153   */\n      dup6\n        /* \"#utility.yul\":1142:1165   */\n      sub\n        /* \"#utility.yul\":1138:1170   */\n      slt\n        /* \"#utility.yul\":1135:1254   */\n      iszero\n      tag_48\n      jumpi\n        /* \"#utility.yul\":1173:1252   */\n      tag_49\n      tag_28\n      jump\t// in\n    tag_49:\n        /* \"#utility.yul\":1135:1254   */\n    tag_48:\n        /* \"#utility.yul\":1293:1294   */\n      0x00\n        /* \"#utility.yul\":1318:1371   */\n      tag_50\n        /* \"#utility.yul\":1363:1370   */\n      dup6\n        /* \"#utility.yul\":1354:1360   */\n      dup3\n        /* \"#utility.yul\":1343:1352   */\n      dup7\n        /* \"#utility.yul\":1339:1361   */\n      add\n        /* \"#utility.yul\":1318:1371   */\n      tag_31\n      jump\t// in\n    tag_50:\n        /* \"#utility.yul\":1308:1371   */\n      swap3\n      pop\n        /* \"#utility.yul\":1264:1381   */\n      pop\n        /* \"#utility.yul\":1420:1422   */\n      0x20\n        /* \"#utility.yul\":1446:1499   */\n      tag_51\n        /* \"#utility.yul\":1491:1498   */\n      dup6\n        /* \"#utility.yul\":1482:1488   */\n      dup3\n        /* \"#utility.yul\":1471:1480   */\n      dup7\n        /* \"#utility.yul\":1467:1489   */\n      add\n        /* \"#utility.yul\":1446:1499   */\n      tag_31\n      jump\t// in\n    tag_51:\n        /* \"#utility.yul\":1436:1499   */\n      swap2\n      pop\n        /* \"#utility.yul\":1391:1509   */\n      pop\n        /* \"#utility.yul\":1042:1516   */\n      swap3\n      pop\n      swap3\n      swap1\n      pop\n      jump\t// out\n        /* \"#utility.yul\":1522:1702   */\n    tag_32:\n        /* \"#utility.yul\":1570:1647   */\n      0x4e487b7100000000000000000000000000000000000000000000000000000000\n        /* \"#utility.yul\":1567:1568   */\n      0x00\n        /* \"#utility.yul\":1560:1648   */\n      mstore\n        /* \"#utility.yul\":1667:1671   */\n      0x11\n        /* \"#utility.yul\":1664:1665   */\n      0x04\n        /* \"#utility.yul\":1657:1672   */\n      mstore\n        /* \"#utility.yul\":1691:1695   */\n      0x24\n        /* \"#utility.yul\":1688:1689   */\n      0x00\n        /* \"#utility.yul\":1681:1696   */\n      revert\n        /* \"#utility.yul\":1708:2118   */\n    tag_20:\n        /* \"#utility.yul\":1748:1755   */\n      0x00\n        /* \"#utility.yul\":1771:1791   */\n      tag_54\n        /* \"#utility.yul\":1789:1790   */\n      dup3\n        /* \"#utility.yul\":1771:1791   */\n      tag_25\n      jump\t// in\n    tag_54:\n        /* \"#utility.yul\":1766:1791   */\n      swap2\n      pop\n        /* \"#utility.yul\":1805:1825   */\n      tag_55\n        /* \"#utility.yul\":1823:1824   */\n      dup4\n        /* \"#utility.yul\":1805:1825   */\n      tag_25\n      jump\t// in\n    tag_55:\n        /* \"#utility.yul\":1800:1825   */\n      swap3\n      pop\n        /* \"#utility.yul\":1860:1861   */\n      dup3\n        /* \"#utility.yul\":1857:1858   */\n      dup3\n        /* \"#utility.yul\":1853:1862   */\n      mul\n        /* \"#utility.yul\":1882:1912   */\n      tag_56\n        /* \"#utility.yul\":1900:1911   */\n      dup2\n        /* \"#utility.yul\":1882:1912   */\n      tag_25\n      jump\t// in\n    tag_56:\n        /* \"#utility.yul\":1871:1912   */\n      swap2\n      pop\n        /* \"#utility.yul\":2061:2062   */\n      dup3\n        /* \"#utility.yul\":2052:2059   */\n      dup3\n        /* \"#utility.yul\":2048:2063   */\n      div\n        /* \"#utility.yul\":2045:2046   */\n      dup5\n        /* \"#utility.yul\":2042:2064   */\n      eq\n        /* \"#utility.yul\":2022:2023   */\n      dup4\n        /* \"#utility.yul\":2015:2024   */\n      iszero\n        /* \"#utility.yul\":1995:2078   */\n      or\n        /* \"#utility.yul\":1972:2111   */\n      tag_57\n      jumpi\n        /* \"#utility.yul\":2091:2109   */\n      tag_58\n      tag_32\n      jump\t// in\n    tag_58:\n        /* \"#utility.yul\":1972:2111   */\n    tag_57:\n        /* \"#utility.yul\":1756:2118   */\n      pop\n        /* \"#utility.yul\":1708:2118   */\n      swap3\n      swap2\n      pop\n      pop\n      jump\t// out\n        /* \"#utility.yul\":2124:2456   */\n    tag_22:\n        /* \"#utility.yul\":2245:2249   */\n      0x00\n        /* \"#utility.yul\":2283:2285   */\n      0x40\n        /* \"#utility.yul\":2272:2281   */\n      dup3\n        /* \"#utility.yul\":2268:2286   */\n      add\n        /* \"#utility.yul\":2260:2286   */\n      swap1\n      pop\n        /* \"#utility.yul\":2296:2367   */\n      tag_60\n        /* \"#utility.yul\":2364:2365   */\n      0x00\n        /* \"#utility.yul\":2353:2362   */\n      dup4\n        /* \"#utility.yul\":2349:2366   */\n      add\n        /* \"#utility.yul\":2340:2346   */\n      dup6\n        /* \"#utility.yul\":2296:2367   */\n      tag_26\n      jump\t// in\n    tag_60:\n        /* \"#utility.yul\":2377:2449   */\n      tag_61\n        /* \"#utility.yul\":2445:2447   */\n      0x20\n        /* \"#utility.yul\":2434:2443   */\n      dup4\n        /* \"#utility.yul\":2430:2448   */\n      add\n        /* \"#utility.yul\":2421:2427   */\n      dup5\n        /* \"#utility.yul\":2377:2449   */\n      tag_26\n      jump\t// in\n    tag_61:\n        /* \"#utility.yul\":2124:2456   */\n      swap4\n      swap3\n      pop\n      pop\n      pop\n      jump\t// out\n\n    auxdata: 0xa2646970667358221220e8015737ae1774657e983e85bfc20ebbf15122d7aff11f83a99c1c4ca1c1736664736f6c63430008140033\n}\n",
				"bytecode": {
					"linkReferences": {},
					"object": "608060405234801561000f575f80fd5b506102ac8061001d5f395ff3fe608060405234801561000f575f80fd5b5060043610610034575f3560e01c80632e64cec1146100385780636ed28ed014610056575b5f80fd5b610040610086565b60405161004d919061015c565b60405180910390f35b610070600480360381019061006b91906101a3565b61009d565b60405161007d919061015c565b60405180910390f35b5f80610090610118565b9050806001015491505090565b5f806100a7610118565b90505f8160010154905083856100bd919061020e565b82600101819055507f109e063a1f44684827deee572e5013a35bfc4c839fcfcc571cfcf0e7812d895c8183600101546040516100fa92919061024f565b60405180910390a1838561010e919061020e565b9250505092915050565b5f807f20bdb322702e8f31eb02a18e466059b6b3224433a6e129849583a03f267f40a390508091505090565b5f819050919050565b61015681610144565b82525050565b5f60208201905061016f5f83018461014d565b92915050565b5f80fd5b61018281610144565b811461018c575f80fd5b50565b5f8135905061019d81610179565b92915050565b5f80604083850312156101b9576101b8610175565b5b5f6101c68582860161018f565b92505060206101d78582860161018f565b9150509250929050565b7f4e487b71000000000000000000000000000000000000000000000000000000005f52601160045260245ffd5b5f61021882610144565b915061022383610144565b925082820261023181610144565b91508282048414831517610248576102476101e1565b5b5092915050565b5f6040820190506102625f83018561014d565b61026f602083018461014d565b939250505056fea2646970667358221220e8015737ae1774657e983e85bfc20ebbf15122d7aff11f83a99c1c4ca1c1736664736f6c63430008140033",
					"opcodes": "PUSH1 0x80 PUSH1 0x40 MSTORE CALLVALUE DUP1 ISZERO PUSH2 0xF JUMPI PUSH0 DUP1 REVERT JUMPDEST POP PUSH2 0x2AC DUP1 PUSH2 0x1D PUSH0 CODECOPY PUSH0 RETURN INVALID PUSH1 0x80 PUSH1 0x40 MSTORE CALLVALUE DUP1 ISZERO PUSH2 0xF JUMPI PUSH0 DUP1 REVERT JUMPDEST POP PUSH1 0x4 CALLDATASIZE LT PUSH2 0x34 JUMPI PUSH0 CALLDATALOAD PUSH1 0xE0 SHR DUP1 PUSH4 0x2E64CEC1 EQ PUSH2 0x38 JUMPI DUP1 PUSH4 0x6ED28ED0 EQ PUSH2 0x56 JUMPI JUMPDEST PUSH0 DUP1 REVERT JUMPDEST PUSH2 0x40 PUSH2 0x86 JUMP JUMPDEST PUSH1 0x40 MLOAD PUSH2 0x4D SWAP2 SWAP1 PUSH2 0x15C JUMP JUMPDEST PUSH1 0x40 MLOAD DUP1 SWAP2 SUB SWAP1 RETURN JUMPDEST PUSH2 0x70 PUSH1 0x4 DUP1 CALLDATASIZE SUB DUP2 ADD SWAP1 PUSH2 0x6B SWAP2 SWAP1 PUSH2 0x1A3 JUMP JUMPDEST PUSH2 0x9D JUMP JUMPDEST PUSH1 0x40 MLOAD PUSH2 0x7D SWAP2 SWAP1 PUSH2 0x15C JUMP JUMPDEST PUSH1 0x40 MLOAD DUP1 SWAP2 SUB SWAP1 RETURN JUMPDEST PUSH0 DUP1 PUSH2 0x90 PUSH2 0x118 JUMP JUMPDEST SWAP1 POP DUP1 PUSH1 0x1 ADD SLOAD SWAP2 POP POP SWAP1 JUMP JUMPDEST PUSH0 DUP1 PUSH2 0xA7 PUSH2 0x118 JUMP JUMPDEST SWAP1 POP PUSH0 DUP2 PUSH1 0x1 ADD SLOAD SWAP1 POP DUP4 DUP6 PUSH2 0xBD SWAP2 SWAP1 PUSH2 0x20E JUMP JUMPDEST DUP3 PUSH1 0x1 ADD DUP2 SWAP1 SSTORE POP PUSH32 0x109E063A1F44684827DEEE572E5013A35BFC4C839FCFCC571CFCF0E7812D895C DUP2 DUP4 PUSH1 0x1 ADD SLOAD PUSH1 0x40 MLOAD PUSH2 0xFA SWAP3 SWAP2 SWAP1 PUSH2 0x24F JUMP JUMPDEST PUSH1 0x40 MLOAD DUP1 SWAP2 SUB SWAP1 LOG1 DUP4 DUP6 PUSH2 0x10E SWAP2 SWAP1 PUSH2 0x20E JUMP JUMPDEST SWAP3 POP POP POP SWAP3 SWAP2 POP POP JUMP JUMPDEST PUSH0 DUP1 PUSH32 0x20BDB322702E8F31EB02A18E466059B6B3224433A6E129849583A03F267F40A3 SWAP1 POP DUP1 SWAP2 POP POP SWAP1 JUMP JUMPDEST PUSH0 DUP2 SWAP1 POP SWAP2 SWAP1 POP JUMP JUMPDEST PUSH2 0x156 DUP2 PUSH2 0x144 JUMP JUMPDEST DUP3 MSTORE POP POP JUMP JUMPDEST PUSH0 PUSH1 0x20 DUP3 ADD SWAP1 POP PUSH2 0x16F PUSH0 DUP4 ADD DUP5 PUSH2 0x14D JUMP JUMPDEST SWAP3 SWAP2 POP POP JUMP JUMPDEST PUSH0 DUP1 REVERT JUMPDEST PUSH2 0x182 DUP2 PUSH2 0x144 JUMP JUMPDEST DUP2 EQ PUSH2 0x18C JUMPI PUSH0 DUP1 REVERT JUMPDEST POP JUMP JUMPDEST PUSH0 DUP2 CALLDATALOAD SWAP1 POP PUSH2 0x19D DUP2 PUSH2 0x179 JUMP JUMPDEST SWAP3 SWAP2 POP POP JUMP JUMPDEST PUSH0 DUP1 PUSH1 0x40 DUP4 DUP6 SUB SLT ISZERO PUSH2 0x1B9 JUMPI PUSH2 0x1B8 PUSH2 0x175 JUMP JUMPDEST JUMPDEST PUSH0 PUSH2 0x1C6 DUP6 DUP3 DUP7 ADD PUSH2 0x18F JUMP JUMPDEST SWAP3 POP POP PUSH1 0x20 PUSH2 0x1D7 DUP6 DUP3 DUP7 ADD PUSH2 0x18F JUMP JUMPDEST SWAP2 POP POP SWAP3 POP SWAP3 SWAP1 POP JUMP JUMPDEST PUSH32 0x4E487B7100000000000000000000000000000000000000000000000000000000 PUSH0 MSTORE PUSH1 0x11 PUSH1 0x4 MSTORE PUSH1 0x24 PUSH0 REVERT JUMPDEST PUSH0 PUSH2 0x218 DUP3 PUSH2 0x144 JUMP JUMPDEST SWAP2 POP PUSH2 0x223 DUP4 PUSH2 0x144 JUMP JUMPDEST SWAP3 POP DUP3 DUP3 MUL PUSH2 0x231 DUP2 PUSH2 0x144 JUMP JUMPDEST SWAP2 POP DUP3 DUP3 DIV DUP5 EQ DUP4 ISZERO OR PUSH2 0x248 JUMPI PUSH2 0x247 PUSH2 0x1E1 JUMP JUMPDEST JUMPDEST POP SWAP3 SWAP2 POP POP JUMP JUMPDEST PUSH0 PUSH1 0x40 DUP3 ADD SWAP1 POP PUSH2 0x262 PUSH0 DUP4 ADD DUP6 PUSH2 0x14D JUMP JUMPDEST PUSH2 0x26F PUSH1 0x20 DUP4 ADD DUP5 PUSH2 0x14D JUMP JUMPDEST SWAP4 SWAP3 POP POP POP JUMP INVALID LOG2 PUSH5 0x6970667358 0x22 SLT KECCAK256 0xE8 ADD JUMPI CALLDATACOPY 0xAE OR PUSH21 0x657E983E85BFC20EBBF15122D7AFF11F83A99C1C4C LOG1 0xC1 PUSH20 0x6664736F6C634300081400330000000000000000 "
				},
				"gasEstimates": {
					"creation": {
						"codeDepositCost": "136800",
						"executionCost": "181",
						"totalCost": "136981"
					},
					"external": {
						"retrieve()": "2476",
						"store(uint256,uint256)": "infinite"
					}
				},
				"methodIdentifiers": {
					"retrieve()": "2e64cec1",
					"store(uint256,uint256)": "6ed28ed0"
				}
			},
			"storageLayout": {
				"storage": [],
				"types": null
			},
			"userdoc": {
				"kind": "user",
				"methods": {},
				"version": 1
			}
		}
	}
}