{
	"contracts/Registry/BasicRegistry.sol": {
		"BasicRegistry": {
			"abi": [
				{
					"anonymous": false,
					"inputs": [
						{
							"indexed": false,
							"internalType": "string",
							"name": "name",
							"type": "string"
						},
						{
							"indexed": false,
							"internalType": "address",
							"name": "contractAddress",
							"type": "address"
						}
					],
					"name": "AddedContract",
					"type": "event"
				},
				{
					"anonymous": false,
					"inputs": [
						{
							"indexed": false,
							"internalType": "string",
							"name": "name",
							"type": "string"
						}
					],
					"name": "RemovedContract",
					"type": "event"
				},
				{
					"inputs": [
						{
							"internalType": "string",
							"name": "name",
							"type": "string"
						},
						{
							"internalType": "address",
							"name": "contractAddress",
							"type": "address"
						}
					],
					"name": "addContract",
					"outputs": [],
					"stateMutability": "nonpayable",
					"type": "function"
				},
				{
					"inputs": [
						{
							"internalType": "string",
							"name": "name",
							"type": "string"
						}
					],
					"name": "getContract",
					"outputs": [
						{
							"internalType": "address",
							"name": "",
							"type": "address"
						}
					],
					"stateMutability": "view",
					"type": "function"
				},
				{
					"inputs": [
						{
							"internalType": "string",
							"name": "name",
							"type": "string"
						}
					],
					"name": "getImplementation",
					"outputs": [
						{
							"internalType": "address",
							"name": "",
							"type": "address"
						}
					],
					"stateMutability": "view",
					"type": "function"
				},
				{
					"inputs": [
						{
							"internalType": "string",
							"name": "name",
							"type": "string"
						}
					],
					"name": "getUpgrader",
					"outputs": [
						{
							"internalType": "address",
							"name": "",
							"type": "address"
						}
					],
					"stateMutability": "view",
					"type": "function"
				},
				{
					"inputs": [
						{
							"internalType": "string",
							"name": "name",
							"type": "string"
						}
					],
					"name": "hasContract",
					"outputs": [
						{
							"internalType": "bool",
							"name": "",
							"type": "bool"
						}
					],
					"stateMutability": "view",
					"type": "function"
				},
				{
					"inputs": [
						{
							"internalType": "string",
							"name": "name",
							"type": "string"
						}
					],
					"name": "removeContract",
					"outputs": [],
					"stateMutability": "nonpayable",
					"type": "function"
				},
				{
					"inputs": [
						{
							"internalType": "string",
							"name": "name",
							"type": "string"
						},
						{
							"internalType": "address",
							"name": "newImplementation",
							"type": "address"
						}
					],
					"name": "upgradeContract",
					"outputs": [],
					"stateMutability": "nonpayable",
					"type": "function"
				}
			],
			"devdoc": {
				"events": {
					"RemovedContract(string)": {
						"params": {
							"name": "the name of the removed contract"
						}
					}
				},
				"kind": "dev",
				"methods": {
					"addContract(string,address)": {
						"params": {
							"contractAddress": "the address of the contract",
							"name": "the name to associate the contract with"
						}
					},
					"getContract(string)": {
						"params": {
							"name": "the name of the contract"
						},
						"returns": {
							"_0": "the address of the contract"
						}
					},
					"getImplementation(string)": {
						"params": {
							"name": "the name of the contract"
						},
						"returns": {
							"_0": "the implementation address"
						}
					},
					"getUpgrader(string)": {
						"returns": {
							"_0": "the proxy admin address"
						}
					},
					"hasContract(string)": {
						"params": {
							"name": "the name of the contract"
						},
						"returns": {
							"_0": "true if the contract is present in the registry"
						}
					},
					"removeContract(string)": {
						"params": {
							"name": "the associated name with the contract"
						}
					},
					"upgradeContract(string,address)": {
						"params": {
							"name": "the name of the proxy contract",
							"newImplementation": "the new implementation the proxy will be upgraded to  It is the Owner's responsibility to ensure the compatibility between implementations"
						}
					}
				},
				"version": 1
			},
			"evm": {
				"assembly": "    /* \"contracts/Registry/BasicRegistry.sol\":63:3050  contract BasicRegistry is IContractRegistryMod {... */\n  mstore(0x40, 0x80)\n  callvalue\n  dup1\n  iszero\n  tag_1\n  jumpi\n  0x00\n  dup1\n  revert\ntag_1:\n  pop\n  dataSize(sub_0)\n  dup1\n  dataOffset(sub_0)\n  0x00\n  codecopy\n  0x00\n  return\nstop\n\nsub_0: assembly {\n        /* \"contracts/Registry/BasicRegistry.sol\":63:3050  contract BasicRegistry is IContractRegistryMod {... */\n      mstore(0x40, 0x80)\n      callvalue\n      dup1\n      iszero\n      tag_1\n      jumpi\n      0x00\n      dup1\n      revert\n    tag_1:\n      pop\n      jumpi(tag_2, lt(calldatasize, 0x04))\n      shr(0xe0, calldataload(0x00))\n      dup1\n      0x6b683896\n      gt\n      tag_10\n      jumpi\n      dup1\n      0x6b683896\n      eq\n      tag_6\n      jumpi\n      dup1\n      0x8c223601\n      eq\n      tag_7\n      jumpi\n      dup1\n      0x97623b58\n      eq\n      tag_8\n      jumpi\n      dup1\n      0xbf5b6016\n      eq\n      tag_9\n      jumpi\n      jump(tag_2)\n    tag_10:\n      dup1\n      0x1271bd53\n      eq\n      tag_3\n      jumpi\n      dup1\n      0x2d4e5980\n      eq\n      tag_4\n      jumpi\n      dup1\n      0x35817773\n      eq\n      tag_5\n      jumpi\n    tag_2:\n      0x00\n      dup1\n      revert\n        /* \"contracts/Registry/BasicRegistry.sol\":1868:2004  function upgradeContract(string memory name, address newImplementation) external {... */\n    tag_3:\n      tag_11\n      0x04\n      dup1\n      calldatasize\n      sub\n      dup2\n      add\n      swap1\n      tag_12\n      swap2\n      swap1\n      tag_13\n      jump\t// in\n    tag_12:\n      tag_14\n      jump\t// in\n    tag_11:\n      stop\n        /* \"contracts/Registry/BasicRegistry.sol\":1081:1193  function getUpgrader(string memory name) external view returns (address) {... */\n    tag_4:\n      tag_15\n      0x04\n      dup1\n      calldatasize\n      sub\n      dup2\n      add\n      swap1\n      tag_16\n      swap2\n      swap1\n      tag_17\n      jump\t// in\n    tag_16:\n      tag_18\n      jump\t// in\n    tag_15:\n      mload(0x40)\n      tag_19\n      swap2\n      swap1\n      tag_20\n      jump\t// in\n    tag_19:\n      mload(0x40)\n      dup1\n      swap2\n      sub\n      swap1\n      return\n        /* \"contracts/Registry/BasicRegistry.sol\":409:524  function getContract(string memory name) external view returns (address) {... */\n    tag_5:\n      tag_21\n      0x04\n      dup1\n      calldatasize\n      sub\n      dup2\n      add\n      swap1\n      tag_22\n      swap2\n      swap1\n      tag_17\n      jump\t// in\n    tag_22:\n      tag_23\n      jump\t// in\n    tag_21:\n      mload(0x40)\n      tag_24\n      swap2\n      swap1\n      tag_20\n      jump\t// in\n    tag_24:\n      mload(0x40)\n      dup1\n      swap2\n      sub\n      swap1\n      return\n        /* \"contracts/Registry/BasicRegistry.sol\":1397:1518  function getImplementation(string memory name) external view returns (address) {... */\n    tag_6:\n      tag_25\n      0x04\n      dup1\n      calldatasize\n      sub\n      dup2\n      add\n      swap1\n      tag_26\n      swap2\n      swap1\n      tag_17\n      jump\t// in\n    tag_26:\n      tag_27\n      jump\t// in\n    tag_25:\n      mload(0x40)\n      tag_28\n      swap2\n      swap1\n      tag_20\n      jump\t// in\n    tag_28:\n      mload(0x40)\n      dup1\n      swap2\n      sub\n      swap1\n      return\n        /* \"contracts/Registry/BasicRegistry.sol\":749:931  function hasContract(string memory name) external view returns (bool) {... */\n    tag_7:\n      tag_29\n      0x04\n      dup1\n      calldatasize\n      sub\n      dup2\n      add\n      swap1\n      tag_30\n      swap2\n      swap1\n      tag_17\n      jump\t// in\n    tag_30:\n      tag_31\n      jump\t// in\n    tag_29:\n      mload(0x40)\n      tag_32\n      swap2\n      swap1\n      tag_33\n      jump\t// in\n    tag_32:\n      mload(0x40)\n      dup1\n      swap2\n      sub\n      swap1\n      return\n        /* \"contracts/Registry/BasicRegistry.sol\":2825:3047  function removeContract(string memory name) external {... */\n    tag_8:\n      tag_34\n      0x04\n      dup1\n      calldatasize\n      sub\n      dup2\n      add\n      swap1\n      tag_35\n      swap2\n      swap1\n      tag_17\n      jump\t// in\n    tag_35:\n      tag_36\n      jump\t// in\n    tag_34:\n      stop\n        /* \"contracts/Registry/BasicRegistry.sol\":2391:2665  function addContract(string memory name, address contractAddress) external {... */\n    tag_9:\n      tag_37\n      0x04\n      dup1\n      calldatasize\n      sub\n      dup2\n      add\n      swap1\n      tag_38\n      swap2\n      swap1\n      tag_13\n      jump\t// in\n    tag_38:\n      tag_39\n      jump\t// in\n    tag_37:\n      stop\n        /* \"contracts/Registry/BasicRegistry.sol\":1868:2004  function upgradeContract(string memory name, address newImplementation) external {... */\n    tag_14:\n        /* \"contracts/Registry/BasicRegistry.sol\":1981:1998  newImplementation */\n      dup1\n        /* \"contracts/Registry/BasicRegistry.sol\":1958:1972  nameToContract */\n      0x00\n        /* \"contracts/Registry/BasicRegistry.sol\":1973:1977  name */\n      dup4\n        /* \"contracts/Registry/BasicRegistry.sol\":1958:1978  nameToContract[name] */\n      mload(0x40)\n      tag_41\n      swap2\n      swap1\n      tag_42\n      jump\t// in\n    tag_41:\n      swap1\n      dup2\n      mstore\n      0x20\n      add\n      mload(0x40)\n      dup1\n      swap2\n      sub\n      swap1\n      keccak256\n      0x00\n        /* \"contracts/Registry/BasicRegistry.sol\":1958:1998  nameToContract[name] = newImplementation */\n      0x0100\n      exp\n      dup2\n      sload\n      dup2\n      0xffffffffffffffffffffffffffffffffffffffff\n      mul\n      not\n      and\n      swap1\n      dup4\n      0xffffffffffffffffffffffffffffffffffffffff\n      and\n      mul\n      or\n      swap1\n      sstore\n      pop\n        /* \"contracts/Registry/BasicRegistry.sol\":1868:2004  function upgradeContract(string memory name, address newImplementation) external {... */\n      pop\n      pop\n      jump\t// out\n        /* \"contracts/Registry/BasicRegistry.sol\":1081:1193  function getUpgrader(string memory name) external view returns (address) {... */\n    tag_18:\n        /* \"contracts/Registry/BasicRegistry.sol\":1145:1152  address */\n      0x00\n        /* \"contracts/Registry/BasicRegistry.sol\":1170:1181  nameToOwner */\n      0x01\n        /* \"contracts/Registry/BasicRegistry.sol\":1182:1186  name */\n      dup3\n        /* \"contracts/Registry/BasicRegistry.sol\":1170:1187  nameToOwner[name] */\n      mload(0x40)\n      tag_44\n      swap2\n      swap1\n      tag_42\n      jump\t// in\n    tag_44:\n      swap1\n      dup2\n      mstore\n      0x20\n      add\n      mload(0x40)\n      dup1\n      swap2\n      sub\n      swap1\n      keccak256\n      0x00\n      swap1\n      sload\n      swap1\n      0x0100\n      exp\n      swap1\n      div\n      0xffffffffffffffffffffffffffffffffffffffff\n      and\n        /* \"contracts/Registry/BasicRegistry.sol\":1163:1187  return nameToOwner[name] */\n      swap1\n      pop\n        /* \"contracts/Registry/BasicRegistry.sol\":1081:1193  function getUpgrader(string memory name) external view returns (address) {... */\n      swap2\n      swap1\n      pop\n      jump\t// out\n        /* \"contracts/Registry/BasicRegistry.sol\":409:524  function getContract(string memory name) external view returns (address) {... */\n    tag_23:\n        /* \"contracts/Registry/BasicRegistry.sol\":473:480  address */\n      0x00\n        /* \"contracts/Registry/BasicRegistry.sol\":498:512  nameToContract */\n      dup1\n        /* \"contracts/Registry/BasicRegistry.sol\":513:517  name */\n      dup3\n        /* \"contracts/Registry/BasicRegistry.sol\":498:518  nameToContract[name] */\n      mload(0x40)\n      tag_46\n      swap2\n      swap1\n      tag_42\n      jump\t// in\n    tag_46:\n      swap1\n      dup2\n      mstore\n      0x20\n      add\n      mload(0x40)\n      dup1\n      swap2\n      sub\n      swap1\n      keccak256\n      0x00\n      swap1\n      sload\n      swap1\n      0x0100\n      exp\n      swap1\n      div\n      0xffffffffffffffffffffffffffffffffffffffff\n      and\n        /* \"contracts/Registry/BasicRegistry.sol\":491:518  return nameToContract[name] */\n      swap1\n      pop\n        /* \"contracts/Registry/BasicRegistry.sol\":409:524  function getContract(string memory name) external view returns (address) {... */\n      swap2\n      swap1\n      pop\n      jump\t// out\n        /* \"contracts/Registry/BasicRegistry.sol\":1397:1518  function getImplementation(string memory name) external view returns (address) {... */\n    tag_27:\n        /* \"contracts/Registry/BasicRegistry.sol\":1467:1474  address */\n      0x00\n        /* \"contracts/Registry/BasicRegistry.sol\":1492:1506  nameToContract */\n      dup1\n        /* \"contracts/Registry/BasicRegistry.sol\":1507:1511  name */\n      dup3\n        /* \"contracts/Registry/BasicRegistry.sol\":1492:1512  nameToContract[name] */\n      mload(0x40)\n      tag_48\n      swap2\n      swap1\n      tag_42\n      jump\t// in\n    tag_48:\n      swap1\n      dup2\n      mstore\n      0x20\n      add\n      mload(0x40)\n      dup1\n      swap2\n      sub\n      swap1\n      keccak256\n      0x00\n      swap1\n      sload\n      swap1\n      0x0100\n      exp\n      swap1\n      div\n      0xffffffffffffffffffffffffffffffffffffffff\n      and\n        /* \"contracts/Registry/BasicRegistry.sol\":1485:1512  return nameToContract[name] */\n      swap1\n      pop\n        /* \"contracts/Registry/BasicRegistry.sol\":1397:1518  function getImplementation(string memory name) external view returns (address) {... */\n      swap2\n      swap1\n      pop\n      jump\t// out\n        /* \"contracts/Registry/BasicRegistry.sol\":749:931  function hasContract(string memory name) external view returns (bool) {... */\n    tag_31:\n        /* \"contracts/Registry/BasicRegistry.sol\":813:817  bool */\n      0x00\n        /* \"contracts/Registry/BasicRegistry.sol\":864:865  0 */\n      dup1\n        /* \"contracts/Registry/BasicRegistry.sol\":832:866  nameToContract[name] != address(0) */\n      0xffffffffffffffffffffffffffffffffffffffff\n      and\n        /* \"contracts/Registry/BasicRegistry.sol\":832:846  nameToContract */\n      0x00\n        /* \"contracts/Registry/BasicRegistry.sol\":847:851  name */\n      dup4\n        /* \"contracts/Registry/BasicRegistry.sol\":832:852  nameToContract[name] */\n      mload(0x40)\n      tag_50\n      swap2\n      swap1\n      tag_42\n      jump\t// in\n    tag_50:\n      swap1\n      dup2\n      mstore\n      0x20\n      add\n      mload(0x40)\n      dup1\n      swap2\n      sub\n      swap1\n      keccak256\n      0x00\n      swap1\n      sload\n      swap1\n      0x0100\n      exp\n      swap1\n      div\n      0xffffffffffffffffffffffffffffffffffffffff\n      and\n        /* \"contracts/Registry/BasicRegistry.sol\":832:866  nameToContract[name] != address(0) */\n      0xffffffffffffffffffffffffffffffffffffffff\n      and\n      eq\n        /* \"contracts/Registry/BasicRegistry.sol\":829:903  if(nameToContract[name] != address(0)){... */\n      tag_51\n      jumpi\n        /* \"contracts/Registry/BasicRegistry.sol\":888:892  true */\n      0x01\n        /* \"contracts/Registry/BasicRegistry.sol\":881:892  return true */\n      swap1\n      pop\n      jump(tag_49)\n        /* \"contracts/Registry/BasicRegistry.sol\":829:903  if(nameToContract[name] != address(0)){... */\n    tag_51:\n        /* \"contracts/Registry/BasicRegistry.sol\":919:924  false */\n      0x00\n        /* \"contracts/Registry/BasicRegistry.sol\":912:924  return false */\n      swap1\n      pop\n        /* \"contracts/Registry/BasicRegistry.sol\":749:931  function hasContract(string memory name) external view returns (bool) {... */\n    tag_49:\n      swap2\n      swap1\n      pop\n      jump\t// out\n        /* \"contracts/Registry/BasicRegistry.sol\":2825:3047  function removeContract(string memory name) external {... */\n    tag_36:\n        /* \"contracts/Registry/BasicRegistry.sol\":2890:2894  this */\n      address\n        /* \"contracts/Registry/BasicRegistry.sol\":2890:2906  this.hasContract */\n      0xffffffffffffffffffffffffffffffffffffffff\n      and\n      0x8c223601\n        /* \"contracts/Registry/BasicRegistry.sol\":2907:2911  name */\n      dup3\n        /* \"contracts/Registry/BasicRegistry.sol\":2890:2912  this.hasContract(name) */\n      mload(0x40)\n      dup3\n      0xffffffff\n      and\n      0xe0\n      shl\n      dup2\n      mstore\n      0x04\n      add\n      tag_53\n      swap2\n      swap1\n      tag_54\n      jump\t// in\n    tag_53:\n      0x20\n      mload(0x40)\n      dup1\n      dup4\n      sub\n      dup2\n      dup7\n      gas\n      staticcall\n      iszero\n      dup1\n      iszero\n      tag_56\n      jumpi\n      returndatasize\n      0x00\n      dup1\n      returndatacopy\n      revert(0x00, returndatasize)\n    tag_56:\n      pop\n      pop\n      pop\n      pop\n      mload(0x40)\n      returndatasize\n      not(0x1f)\n      0x1f\n      dup3\n      add\n      and\n      dup3\n      add\n      dup1\n      0x40\n      mstore\n      pop\n      dup2\n      add\n      swap1\n      tag_57\n      swap2\n      swap1\n      tag_58\n      jump\t// in\n    tag_57:\n        /* \"contracts/Registry/BasicRegistry.sol\":2887:3042  if(this.hasContract(name)){... */\n      iszero\n      tag_59\n      jumpi\n        /* \"contracts/Registry/BasicRegistry.sol\":2951:2952  0 */\n      0x00\n        /* \"contracts/Registry/BasicRegistry.sol\":2923:2934  nameToOwner */\n      0x01\n        /* \"contracts/Registry/BasicRegistry.sol\":2935:2939  name */\n      dup3\n        /* \"contracts/Registry/BasicRegistry.sol\":2923:2940  nameToOwner[name] */\n      mload(0x40)\n      tag_60\n      swap2\n      swap1\n      tag_42\n      jump\t// in\n    tag_60:\n      swap1\n      dup2\n      mstore\n      0x20\n      add\n      mload(0x40)\n      dup1\n      swap2\n      sub\n      swap1\n      keccak256\n      0x00\n        /* \"contracts/Registry/BasicRegistry.sol\":2923:2953  nameToOwner[name] = address(0) */\n      0x0100\n      exp\n      dup2\n      sload\n      dup2\n      0xffffffffffffffffffffffffffffffffffffffff\n      mul\n      not\n      and\n      swap1\n      dup4\n      0xffffffffffffffffffffffffffffffffffffffff\n      and\n      mul\n      or\n      swap1\n      sstore\n      pop\n        /* \"contracts/Registry/BasicRegistry.sol\":2994:2995  0 */\n      0x00\n        /* \"contracts/Registry/BasicRegistry.sol\":2963:2977  nameToContract */\n      dup1\n        /* \"contracts/Registry/BasicRegistry.sol\":2978:2982  name */\n      dup3\n        /* \"contracts/Registry/BasicRegistry.sol\":2963:2983  nameToContract[name] */\n      mload(0x40)\n      tag_61\n      swap2\n      swap1\n      tag_42\n      jump\t// in\n    tag_61:\n      swap1\n      dup2\n      mstore\n      0x20\n      add\n      mload(0x40)\n      dup1\n      swap2\n      sub\n      swap1\n      keccak256\n      0x00\n        /* \"contracts/Registry/BasicRegistry.sol\":2963:2996  nameToContract[name] = address(0) */\n      0x0100\n      exp\n      dup2\n      sload\n      dup2\n      0xffffffffffffffffffffffffffffffffffffffff\n      mul\n      not\n      and\n      swap1\n      dup4\n      0xffffffffffffffffffffffffffffffffffffffff\n      and\n      mul\n      or\n      swap1\n      sstore\n      pop\n        /* \"contracts/Registry/BasicRegistry.sol\":3011:3032  RemovedContract(name) */\n      0x2216f135d7c337bc5b25f8bf96227730d40241c50adf6fde4d180deca4b25664\n        /* \"contracts/Registry/BasicRegistry.sol\":3027:3031  name */\n      dup2\n        /* \"contracts/Registry/BasicRegistry.sol\":3011:3032  RemovedContract(name) */\n      mload(0x40)\n      tag_62\n      swap2\n      swap1\n      tag_54\n      jump\t// in\n    tag_62:\n      mload(0x40)\n      dup1\n      swap2\n      sub\n      swap1\n      log1\n        /* \"contracts/Registry/BasicRegistry.sol\":2887:3042  if(this.hasContract(name)){... */\n    tag_59:\n        /* \"contracts/Registry/BasicRegistry.sol\":2825:3047  function removeContract(string memory name) external {... */\n      pop\n      jump\t// out\n        /* \"contracts/Registry/BasicRegistry.sol\":2391:2665  function addContract(string memory name, address contractAddress) external {... */\n    tag_39:\n        /* \"contracts/Registry/BasicRegistry.sol\":2479:2483  this */\n      address\n        /* \"contracts/Registry/BasicRegistry.sol\":2479:2495  this.hasContract */\n      0xffffffffffffffffffffffffffffffffffffffff\n      and\n      0x8c223601\n        /* \"contracts/Registry/BasicRegistry.sol\":2496:2500  name */\n      dup4\n        /* \"contracts/Registry/BasicRegistry.sol\":2479:2501  this.hasContract(name) */\n      mload(0x40)\n      dup3\n      0xffffffff\n      and\n      0xe0\n      shl\n      dup2\n      mstore\n      0x04\n      add\n      tag_64\n      swap2\n      swap1\n      tag_54\n      jump\t// in\n    tag_64:\n      0x20\n      mload(0x40)\n      dup1\n      dup4\n      sub\n      dup2\n      dup7\n      gas\n      staticcall\n      iszero\n      dup1\n      iszero\n      tag_66\n      jumpi\n      returndatasize\n      0x00\n      dup1\n      returndatacopy\n      revert(0x00, returndatasize)\n    tag_66:\n      pop\n      pop\n      pop\n      pop\n      mload(0x40)\n      returndatasize\n      not(0x1f)\n      0x1f\n      dup3\n      add\n      and\n      dup3\n      add\n      dup1\n      0x40\n      mstore\n      pop\n      dup2\n      add\n      swap1\n      tag_67\n      swap2\n      swap1\n      tag_58\n      jump\t// in\n    tag_67:\n        /* \"contracts/Registry/BasicRegistry.sol\":2475:2660  if(!this.hasContract(name)){... */\n      tag_68\n      jumpi\n        /* \"contracts/Registry/BasicRegistry.sol\":2535:2545  msg.sender */\n      caller\n        /* \"contracts/Registry/BasicRegistry.sol\":2515:2526  nameToOwner */\n      0x01\n        /* \"contracts/Registry/BasicRegistry.sol\":2527:2531  name */\n      dup4\n        /* \"contracts/Registry/BasicRegistry.sol\":2515:2532  nameToOwner[name] */\n      mload(0x40)\n      tag_69\n      swap2\n      swap1\n      tag_42\n      jump\t// in\n    tag_69:\n      swap1\n      dup2\n      mstore\n      0x20\n      add\n      mload(0x40)\n      dup1\n      swap2\n      sub\n      swap1\n      keccak256\n      0x00\n        /* \"contracts/Registry/BasicRegistry.sol\":2515:2545  nameToOwner[name] = msg.sender */\n      0x0100\n      exp\n      dup2\n      sload\n      dup2\n      0xffffffffffffffffffffffffffffffffffffffff\n      mul\n      not\n      and\n      swap1\n      dup4\n      0xffffffffffffffffffffffffffffffffffffffff\n      and\n      mul\n      or\n      swap1\n      sstore\n      pop\n        /* \"contracts/Registry/BasicRegistry.sol\":2563:2599  AddedContract(name, contractAddress) */\n      0x6130f2e3c893e99120ae105d8ca4a81834e9eea2d56b76a78fe306d0fabd7bf2\n        /* \"contracts/Registry/BasicRegistry.sol\":2577:2581  name */\n      dup3\n        /* \"contracts/Registry/BasicRegistry.sol\":2583:2598  contractAddress */\n      dup3\n        /* \"contracts/Registry/BasicRegistry.sol\":2563:2599  AddedContract(name, contractAddress) */\n      mload(0x40)\n      tag_70\n      swap3\n      swap2\n      swap1\n      tag_71\n      jump\t// in\n    tag_70:\n      mload(0x40)\n      dup1\n      swap2\n      sub\n      swap1\n      log1\n        /* \"contracts/Registry/BasicRegistry.sol\":2635:2650  contractAddress */\n      dup1\n        /* \"contracts/Registry/BasicRegistry.sol\":2612:2626  nameToContract */\n      0x00\n        /* \"contracts/Registry/BasicRegistry.sol\":2627:2631  name */\n      dup4\n        /* \"contracts/Registry/BasicRegistry.sol\":2612:2632  nameToContract[name] */\n      mload(0x40)\n      tag_72\n      swap2\n      swap1\n      tag_42\n      jump\t// in\n    tag_72:\n      swap1\n      dup2\n      mstore\n      0x20\n      add\n      mload(0x40)\n      dup1\n      swap2\n      sub\n      swap1\n      keccak256\n      0x00\n        /* \"contracts/Registry/BasicRegistry.sol\":2612:2650  nameToContract[name] = contractAddress */\n      0x0100\n      exp\n      dup2\n      sload\n      dup2\n      0xffffffffffffffffffffffffffffffffffffffff\n      mul\n      not\n      and\n      swap1\n      dup4\n      0xffffffffffffffffffffffffffffffffffffffff\n      and\n      mul\n      or\n      swap1\n      sstore\n      pop\n        /* \"contracts/Registry/BasicRegistry.sol\":2475:2660  if(!this.hasContract(name)){... */\n    tag_68:\n        /* \"contracts/Registry/BasicRegistry.sol\":2391:2665  function addContract(string memory name, address contractAddress) external {... */\n      pop\n      pop\n      jump\t// out\n        /* \"#utility.yul\":7:82   */\n    tag_73:\n        /* \"#utility.yul\":40:46   */\n      0x00\n        /* \"#utility.yul\":73:75   */\n      0x40\n        /* \"#utility.yul\":67:76   */\n      mload\n        /* \"#utility.yul\":57:76   */\n      swap1\n      pop\n        /* \"#utility.yul\":7:82   */\n      swap1\n      jump\t// out\n        /* \"#utility.yul\":88:205   */\n    tag_74:\n        /* \"#utility.yul\":197:198   */\n      0x00\n        /* \"#utility.yul\":194:195   */\n      dup1\n        /* \"#utility.yul\":187:199   */\n      revert\n        /* \"#utility.yul\":211:328   */\n    tag_75:\n        /* \"#utility.yul\":320:321   */\n      0x00\n        /* \"#utility.yul\":317:318   */\n      dup1\n        /* \"#utility.yul\":310:322   */\n      revert\n        /* \"#utility.yul\":334:451   */\n    tag_76:\n        /* \"#utility.yul\":443:444   */\n      0x00\n        /* \"#utility.yul\":440:441   */\n      dup1\n        /* \"#utility.yul\":433:445   */\n      revert\n        /* \"#utility.yul\":457:574   */\n    tag_77:\n        /* \"#utility.yul\":566:567   */\n      0x00\n        /* \"#utility.yul\":563:564   */\n      dup1\n        /* \"#utility.yul\":556:568   */\n      revert\n        /* \"#utility.yul\":580:682   */\n    tag_78:\n        /* \"#utility.yul\":621:627   */\n      0x00\n        /* \"#utility.yul\":672:674   */\n      0x1f\n        /* \"#utility.yul\":668:675   */\n      not\n        /* \"#utility.yul\":663:665   */\n      0x1f\n        /* \"#utility.yul\":656:661   */\n      dup4\n        /* \"#utility.yul\":652:666   */\n      add\n        /* \"#utility.yul\":648:676   */\n      and\n        /* \"#utility.yul\":638:676   */\n      swap1\n      pop\n        /* \"#utility.yul\":580:682   */\n      swap2\n      swap1\n      pop\n      jump\t// out\n        /* \"#utility.yul\":688:868   */\n    tag_79:\n        /* \"#utility.yul\":736:813   */\n      0x4e487b7100000000000000000000000000000000000000000000000000000000\n        /* \"#utility.yul\":733:734   */\n      0x00\n        /* \"#utility.yul\":726:814   */\n      mstore\n        /* \"#utility.yul\":833:837   */\n      0x41\n        /* \"#utility.yul\":830:831   */\n      0x04\n        /* \"#utility.yul\":823:838   */\n      mstore\n        /* \"#utility.yul\":857:861   */\n      0x24\n        /* \"#utility.yul\":854:855   */\n      0x00\n        /* \"#utility.yul\":847:862   */\n      revert\n        /* \"#utility.yul\":874:1155   */\n    tag_80:\n        /* \"#utility.yul\":957:984   */\n      tag_110\n        /* \"#utility.yul\":979:983   */\n      dup3\n        /* \"#utility.yul\":957:984   */\n      tag_78\n      jump\t// in\n    tag_110:\n        /* \"#utility.yul\":949:955   */\n      dup2\n        /* \"#utility.yul\":945:985   */\n      add\n        /* \"#utility.yul\":1087:1093   */\n      dup2\n        /* \"#utility.yul\":1075:1085   */\n      dup2\n        /* \"#utility.yul\":1072:1094   */\n      lt\n        /* \"#utility.yul\":1051:1069   */\n      0xffffffffffffffff\n        /* \"#utility.yul\":1039:1049   */\n      dup3\n        /* \"#utility.yul\":1036:1070   */\n      gt\n        /* \"#utility.yul\":1033:1095   */\n      or\n        /* \"#utility.yul\":1030:1118   */\n      iszero\n      tag_111\n      jumpi\n        /* \"#utility.yul\":1098:1116   */\n      tag_112\n      tag_79\n      jump\t// in\n    tag_112:\n        /* \"#utility.yul\":1030:1118   */\n    tag_111:\n        /* \"#utility.yul\":1138:1148   */\n      dup1\n        /* \"#utility.yul\":1134:1136   */\n      0x40\n        /* \"#utility.yul\":1127:1149   */\n      mstore\n        /* \"#utility.yul\":917:1155   */\n      pop\n        /* \"#utility.yul\":874:1155   */\n      pop\n      pop\n      jump\t// out\n        /* \"#utility.yul\":1161:1290   */\n    tag_81:\n        /* \"#utility.yul\":1195:1201   */\n      0x00\n        /* \"#utility.yul\":1222:1242   */\n      tag_114\n      tag_73\n      jump\t// in\n    tag_114:\n        /* \"#utility.yul\":1212:1242   */\n      swap1\n      pop\n        /* \"#utility.yul\":1251:1284   */\n      tag_115\n        /* \"#utility.yul\":1279:1283   */\n      dup3\n        /* \"#utility.yul\":1271:1277   */\n      dup3\n        /* \"#utility.yul\":1251:1284   */\n      tag_80\n      jump\t// in\n    tag_115:\n        /* \"#utility.yul\":1161:1290   */\n      swap2\n      swap1\n      pop\n      jump\t// out\n        /* \"#utility.yul\":1296:1604   */\n    tag_82:\n        /* \"#utility.yul\":1358:1362   */\n      0x00\n        /* \"#utility.yul\":1448:1466   */\n      0xffffffffffffffff\n        /* \"#utility.yul\":1440:1446   */\n      dup3\n        /* \"#utility.yul\":1437:1467   */\n      gt\n        /* \"#utility.yul\":1434:1490   */\n      iszero\n      tag_117\n      jumpi\n        /* \"#utility.yul\":1470:1488   */\n      tag_118\n      tag_79\n      jump\t// in\n    tag_118:\n        /* \"#utility.yul\":1434:1490   */\n    tag_117:\n        /* \"#utility.yul\":1508:1537   */\n      tag_119\n        /* \"#utility.yul\":1530:1536   */\n      dup3\n        /* \"#utility.yul\":1508:1537   */\n      tag_78\n      jump\t// in\n    tag_119:\n        /* \"#utility.yul\":1500:1537   */\n      swap1\n      pop\n        /* \"#utility.yul\":1592:1596   */\n      0x20\n        /* \"#utility.yul\":1586:1590   */\n      dup2\n        /* \"#utility.yul\":1582:1597   */\n      add\n        /* \"#utility.yul\":1574:1597   */\n      swap1\n      pop\n        /* \"#utility.yul\":1296:1604   */\n      swap2\n      swap1\n      pop\n      jump\t// out\n        /* \"#utility.yul\":1610:1756   */\n    tag_83:\n        /* \"#utility.yul\":1707:1713   */\n      dup3\n        /* \"#utility.yul\":1702:1705   */\n      dup2\n        /* \"#utility.yul\":1697:1700   */\n      dup4\n        /* \"#utility.yul\":1684:1714   */\n      calldatacopy\n        /* \"#utility.yul\":1748:1749   */\n      0x00\n        /* \"#utility.yul\":1739:1745   */\n      dup4\n        /* \"#utility.yul\":1734:1737   */\n      dup4\n        /* \"#utility.yul\":1730:1746   */\n      add\n        /* \"#utility.yul\":1723:1750   */\n      mstore\n        /* \"#utility.yul\":1610:1756   */\n      pop\n      pop\n      pop\n      jump\t// out\n        /* \"#utility.yul\":1762:2187   */\n    tag_84:\n        /* \"#utility.yul\":1840:1845   */\n      0x00\n        /* \"#utility.yul\":1865:1931   */\n      tag_122\n        /* \"#utility.yul\":1881:1930   */\n      tag_123\n        /* \"#utility.yul\":1923:1929   */\n      dup5\n        /* \"#utility.yul\":1881:1930   */\n      tag_82\n      jump\t// in\n    tag_123:\n        /* \"#utility.yul\":1865:1931   */\n      tag_81\n      jump\t// in\n    tag_122:\n        /* \"#utility.yul\":1856:1931   */\n      swap1\n      pop\n        /* \"#utility.yul\":1954:1960   */\n      dup3\n        /* \"#utility.yul\":1947:1952   */\n      dup2\n        /* \"#utility.yul\":1940:1961   */\n      mstore\n        /* \"#utility.yul\":1992:1996   */\n      0x20\n        /* \"#utility.yul\":1985:1990   */\n      dup2\n        /* \"#utility.yul\":1981:1997   */\n      add\n        /* \"#utility.yul\":2030:2033   */\n      dup5\n        /* \"#utility.yul\":2021:2027   */\n      dup5\n        /* \"#utility.yul\":2016:2019   */\n      dup5\n        /* \"#utility.yul\":2012:2028   */\n      add\n        /* \"#utility.yul\":2009:2034   */\n      gt\n        /* \"#utility.yul\":2006:2118   */\n      iszero\n      tag_124\n      jumpi\n        /* \"#utility.yul\":2037:2116   */\n      tag_125\n      tag_77\n      jump\t// in\n    tag_125:\n        /* \"#utility.yul\":2006:2118   */\n    tag_124:\n        /* \"#utility.yul\":2127:2181   */\n      tag_126\n        /* \"#utility.yul\":2174:2180   */\n      dup5\n        /* \"#utility.yul\":2169:2172   */\n      dup3\n        /* \"#utility.yul\":2164:2167   */\n      dup6\n        /* \"#utility.yul\":2127:2181   */\n      tag_83\n      jump\t// in\n    tag_126:\n        /* \"#utility.yul\":1846:2187   */\n      pop\n        /* \"#utility.yul\":1762:2187   */\n      swap4\n      swap3\n      pop\n      pop\n      pop\n      jump\t// out\n        /* \"#utility.yul\":2207:2547   */\n    tag_85:\n        /* \"#utility.yul\":2263:2268   */\n      0x00\n        /* \"#utility.yul\":2312:2315   */\n      dup3\n        /* \"#utility.yul\":2305:2309   */\n      0x1f\n        /* \"#utility.yul\":2297:2303   */\n      dup4\n        /* \"#utility.yul\":2293:2310   */\n      add\n        /* \"#utility.yul\":2289:2316   */\n      slt\n        /* \"#utility.yul\":2279:2401   */\n      tag_128\n      jumpi\n        /* \"#utility.yul\":2320:2399   */\n      tag_129\n      tag_76\n      jump\t// in\n    tag_129:\n        /* \"#utility.yul\":2279:2401   */\n    tag_128:\n        /* \"#utility.yul\":2437:2443   */\n      dup2\n        /* \"#utility.yul\":2424:2444   */\n      calldataload\n        /* \"#utility.yul\":2462:2541   */\n      tag_130\n        /* \"#utility.yul\":2537:2540   */\n      dup5\n        /* \"#utility.yul\":2529:2535   */\n      dup3\n        /* \"#utility.yul\":2522:2526   */\n      0x20\n        /* \"#utility.yul\":2514:2520   */\n      dup7\n        /* \"#utility.yul\":2510:2527   */\n      add\n        /* \"#utility.yul\":2462:2541   */\n      tag_84\n      jump\t// in\n    tag_130:\n        /* \"#utility.yul\":2453:2541   */\n      swap2\n      pop\n        /* \"#utility.yul\":2269:2547   */\n      pop\n        /* \"#utility.yul\":2207:2547   */\n      swap3\n      swap2\n      pop\n      pop\n      jump\t// out\n        /* \"#utility.yul\":2553:2679   */\n    tag_86:\n        /* \"#utility.yul\":2590:2597   */\n      0x00\n        /* \"#utility.yul\":2630:2672   */\n      0xffffffffffffffffffffffffffffffffffffffff\n        /* \"#utility.yul\":2623:2628   */\n      dup3\n        /* \"#utility.yul\":2619:2673   */\n      and\n        /* \"#utility.yul\":2608:2673   */\n      swap1\n      pop\n        /* \"#utility.yul\":2553:2679   */\n      swap2\n      swap1\n      pop\n      jump\t// out\n        /* \"#utility.yul\":2685:2781   */\n    tag_87:\n        /* \"#utility.yul\":2722:2729   */\n      0x00\n        /* \"#utility.yul\":2751:2775   */\n      tag_133\n        /* \"#utility.yul\":2769:2774   */\n      dup3\n        /* \"#utility.yul\":2751:2775   */\n      tag_86\n      jump\t// in\n    tag_133:\n        /* \"#utility.yul\":2740:2775   */\n      swap1\n      pop\n        /* \"#utility.yul\":2685:2781   */\n      swap2\n      swap1\n      pop\n      jump\t// out\n        /* \"#utility.yul\":2787:2909   */\n    tag_88:\n        /* \"#utility.yul\":2860:2884   */\n      tag_135\n        /* \"#utility.yul\":2878:2883   */\n      dup2\n        /* \"#utility.yul\":2860:2884   */\n      tag_87\n      jump\t// in\n    tag_135:\n        /* \"#utility.yul\":2853:2858   */\n      dup2\n        /* \"#utility.yul\":2850:2885   */\n      eq\n        /* \"#utility.yul\":2840:2903   */\n      tag_136\n      jumpi\n        /* \"#utility.yul\":2899:2900   */\n      0x00\n        /* \"#utility.yul\":2896:2897   */\n      dup1\n        /* \"#utility.yul\":2889:2901   */\n      revert\n        /* \"#utility.yul\":2840:2903   */\n    tag_136:\n        /* \"#utility.yul\":2787:2909   */\n      pop\n      jump\t// out\n        /* \"#utility.yul\":2915:3054   */\n    tag_89:\n        /* \"#utility.yul\":2961:2966   */\n      0x00\n        /* \"#utility.yul\":2999:3005   */\n      dup2\n        /* \"#utility.yul\":2986:3006   */\n      calldataload\n        /* \"#utility.yul\":2977:3006   */\n      swap1\n      pop\n        /* \"#utility.yul\":3015:3048   */\n      tag_138\n        /* \"#utility.yul\":3042:3047   */\n      dup2\n        /* \"#utility.yul\":3015:3048   */\n      tag_88\n      jump\t// in\n    tag_138:\n        /* \"#utility.yul\":2915:3054   */\n      swap3\n      swap2\n      pop\n      pop\n      jump\t// out\n        /* \"#utility.yul\":3060:3714   */\n    tag_13:\n        /* \"#utility.yul\":3138:3144   */\n      0x00\n        /* \"#utility.yul\":3146:3152   */\n      dup1\n        /* \"#utility.yul\":3195:3197   */\n      0x40\n        /* \"#utility.yul\":3183:3192   */\n      dup4\n        /* \"#utility.yul\":3174:3181   */\n      dup6\n        /* \"#utility.yul\":3170:3193   */\n      sub\n        /* \"#utility.yul\":3166:3198   */\n      slt\n        /* \"#utility.yul\":3163:3282   */\n      iszero\n      tag_140\n      jumpi\n        /* \"#utility.yul\":3201:3280   */\n      tag_141\n      tag_74\n      jump\t// in\n    tag_141:\n        /* \"#utility.yul\":3163:3282   */\n    tag_140:\n        /* \"#utility.yul\":3349:3350   */\n      0x00\n        /* \"#utility.yul\":3338:3347   */\n      dup4\n        /* \"#utility.yul\":3334:3351   */\n      add\n        /* \"#utility.yul\":3321:3352   */\n      calldataload\n        /* \"#utility.yul\":3379:3397   */\n      0xffffffffffffffff\n        /* \"#utility.yul\":3371:3377   */\n      dup2\n        /* \"#utility.yul\":3368:3398   */\n      gt\n        /* \"#utility.yul\":3365:3482   */\n      iszero\n      tag_142\n      jumpi\n        /* \"#utility.yul\":3401:3480   */\n      tag_143\n      tag_75\n      jump\t// in\n    tag_143:\n        /* \"#utility.yul\":3365:3482   */\n    tag_142:\n        /* \"#utility.yul\":3506:3569   */\n      tag_144\n        /* \"#utility.yul\":3561:3568   */\n      dup6\n        /* \"#utility.yul\":3552:3558   */\n      dup3\n        /* \"#utility.yul\":3541:3550   */\n      dup7\n        /* \"#utility.yul\":3537:3559   */\n      add\n        /* \"#utility.yul\":3506:3569   */\n      tag_85\n      jump\t// in\n    tag_144:\n        /* \"#utility.yul\":3496:3569   */\n      swap3\n      pop\n        /* \"#utility.yul\":3292:3579   */\n      pop\n        /* \"#utility.yul\":3618:3620   */\n      0x20\n        /* \"#utility.yul\":3644:3697   */\n      tag_145\n        /* \"#utility.yul\":3689:3696   */\n      dup6\n        /* \"#utility.yul\":3680:3686   */\n      dup3\n        /* \"#utility.yul\":3669:3678   */\n      dup7\n        /* \"#utility.yul\":3665:3687   */\n      add\n        /* \"#utility.yul\":3644:3697   */\n      tag_89\n      jump\t// in\n    tag_145:\n        /* \"#utility.yul\":3634:3697   */\n      swap2\n      pop\n        /* \"#utility.yul\":3589:3707   */\n      pop\n        /* \"#utility.yul\":3060:3714   */\n      swap3\n      pop\n      swap3\n      swap1\n      pop\n      jump\t// out\n        /* \"#utility.yul\":3720:4229   */\n    tag_17:\n        /* \"#utility.yul\":3789:3795   */\n      0x00\n        /* \"#utility.yul\":3838:3840   */\n      0x20\n        /* \"#utility.yul\":3826:3835   */\n      dup3\n        /* \"#utility.yul\":3817:3824   */\n      dup5\n        /* \"#utility.yul\":3813:3836   */\n      sub\n        /* \"#utility.yul\":3809:3841   */\n      slt\n        /* \"#utility.yul\":3806:3925   */\n      iszero\n      tag_147\n      jumpi\n        /* \"#utility.yul\":3844:3923   */\n      tag_148\n      tag_74\n      jump\t// in\n    tag_148:\n        /* \"#utility.yul\":3806:3925   */\n    tag_147:\n        /* \"#utility.yul\":3992:3993   */\n      0x00\n        /* \"#utility.yul\":3981:3990   */\n      dup3\n        /* \"#utility.yul\":3977:3994   */\n      add\n        /* \"#utility.yul\":3964:3995   */\n      calldataload\n        /* \"#utility.yul\":4022:4040   */\n      0xffffffffffffffff\n        /* \"#utility.yul\":4014:4020   */\n      dup2\n        /* \"#utility.yul\":4011:4041   */\n      gt\n        /* \"#utility.yul\":4008:4125   */\n      iszero\n      tag_149\n      jumpi\n        /* \"#utility.yul\":4044:4123   */\n      tag_150\n      tag_75\n      jump\t// in\n    tag_150:\n        /* \"#utility.yul\":4008:4125   */\n    tag_149:\n        /* \"#utility.yul\":4149:4212   */\n      tag_151\n        /* \"#utility.yul\":4204:4211   */\n      dup5\n        /* \"#utility.yul\":4195:4201   */\n      dup3\n        /* \"#utility.yul\":4184:4193   */\n      dup6\n        /* \"#utility.yul\":4180:4202   */\n      add\n        /* \"#utility.yul\":4149:4212   */\n      tag_85\n      jump\t// in\n    tag_151:\n        /* \"#utility.yul\":4139:4212   */\n      swap2\n      pop\n        /* \"#utility.yul\":3935:4222   */\n      pop\n        /* \"#utility.yul\":3720:4229   */\n      swap3\n      swap2\n      pop\n      pop\n      jump\t// out\n        /* \"#utility.yul\":4235:4353   */\n    tag_90:\n        /* \"#utility.yul\":4322:4346   */\n      tag_153\n        /* \"#utility.yul\":4340:4345   */\n      dup2\n        /* \"#utility.yul\":4322:4346   */\n      tag_87\n      jump\t// in\n    tag_153:\n        /* \"#utility.yul\":4317:4320   */\n      dup3\n        /* \"#utility.yul\":4310:4347   */\n      mstore\n        /* \"#utility.yul\":4235:4353   */\n      pop\n      pop\n      jump\t// out\n        /* \"#utility.yul\":4359:4581   */\n    tag_20:\n        /* \"#utility.yul\":4452:4456   */\n      0x00\n        /* \"#utility.yul\":4490:4492   */\n      0x20\n        /* \"#utility.yul\":4479:4488   */\n      dup3\n        /* \"#utility.yul\":4475:4493   */\n      add\n        /* \"#utility.yul\":4467:4493   */\n      swap1\n      pop\n        /* \"#utility.yul\":4503:4574   */\n      tag_155\n        /* \"#utility.yul\":4571:4572   */\n      0x00\n        /* \"#utility.yul\":4560:4569   */\n      dup4\n        /* \"#utility.yul\":4556:4573   */\n      add\n        /* \"#utility.yul\":4547:4553   */\n      dup5\n        /* \"#utility.yul\":4503:4574   */\n      tag_90\n      jump\t// in\n    tag_155:\n        /* \"#utility.yul\":4359:4581   */\n      swap3\n      swap2\n      pop\n      pop\n      jump\t// out\n        /* \"#utility.yul\":4587:4677   */\n    tag_91:\n        /* \"#utility.yul\":4621:4628   */\n      0x00\n        /* \"#utility.yul\":4664:4669   */\n      dup2\n        /* \"#utility.yul\":4657:4670   */\n      iszero\n        /* \"#utility.yul\":4650:4671   */\n      iszero\n        /* \"#utility.yul\":4639:4671   */\n      swap1\n      pop\n        /* \"#utility.yul\":4587:4677   */\n      swap2\n      swap1\n      pop\n      jump\t// out\n        /* \"#utility.yul\":4683:4792   */\n    tag_92:\n        /* \"#utility.yul\":4764:4785   */\n      tag_158\n        /* \"#utility.yul\":4779:4784   */\n      dup2\n        /* \"#utility.yul\":4764:4785   */\n      tag_91\n      jump\t// in\n    tag_158:\n        /* \"#utility.yul\":4759:4762   */\n      dup3\n        /* \"#utility.yul\":4752:4786   */\n      mstore\n        /* \"#utility.yul\":4683:4792   */\n      pop\n      pop\n      jump\t// out\n        /* \"#utility.yul\":4798:5008   */\n    tag_33:\n        /* \"#utility.yul\":4885:4889   */\n      0x00\n        /* \"#utility.yul\":4923:4925   */\n      0x20\n        /* \"#utility.yul\":4912:4921   */\n      dup3\n        /* \"#utility.yul\":4908:4926   */\n      add\n        /* \"#utility.yul\":4900:4926   */\n      swap1\n      pop\n        /* \"#utility.yul\":4936:5001   */\n      tag_160\n        /* \"#utility.yul\":4998:4999   */\n      0x00\n        /* \"#utility.yul\":4987:4996   */\n      dup4\n        /* \"#utility.yul\":4983:5000   */\n      add\n        /* \"#utility.yul\":4974:4980   */\n      dup5\n        /* \"#utility.yul\":4936:5001   */\n      tag_92\n      jump\t// in\n    tag_160:\n        /* \"#utility.yul\":4798:5008   */\n      swap3\n      swap2\n      pop\n      pop\n      jump\t// out\n        /* \"#utility.yul\":5014:5113   */\n    tag_93:\n        /* \"#utility.yul\":5066:5072   */\n      0x00\n        /* \"#utility.yul\":5100:5105   */\n      dup2\n        /* \"#utility.yul\":5094:5106   */\n      mload\n        /* \"#utility.yul\":5084:5106   */\n      swap1\n      pop\n        /* \"#utility.yul\":5014:5113   */\n      swap2\n      swap1\n      pop\n      jump\t// out\n        /* \"#utility.yul\":5119:5267   */\n    tag_94:\n        /* \"#utility.yul\":5221:5232   */\n      0x00\n        /* \"#utility.yul\":5258:5261   */\n      dup2\n        /* \"#utility.yul\":5243:5261   */\n      swap1\n      pop\n        /* \"#utility.yul\":5119:5267   */\n      swap3\n      swap2\n      pop\n      pop\n      jump\t// out\n        /* \"#utility.yul\":5273:5519   */\n    tag_95:\n        /* \"#utility.yul\":5354:5355   */\n      0x00\n        /* \"#utility.yul\":5364:5477   */\n    tag_164:\n        /* \"#utility.yul\":5378:5384   */\n      dup4\n        /* \"#utility.yul\":5375:5376   */\n      dup2\n        /* \"#utility.yul\":5372:5385   */\n      lt\n        /* \"#utility.yul\":5364:5477   */\n      iszero\n      tag_166\n      jumpi\n        /* \"#utility.yul\":5463:5464   */\n      dup1\n        /* \"#utility.yul\":5458:5461   */\n      dup3\n        /* \"#utility.yul\":5454:5465   */\n      add\n        /* \"#utility.yul\":5448:5466   */\n      mload\n        /* \"#utility.yul\":5444:5445   */\n      dup2\n        /* \"#utility.yul\":5439:5442   */\n      dup5\n        /* \"#utility.yul\":5435:5446   */\n      add\n        /* \"#utility.yul\":5428:5467   */\n      mstore\n        /* \"#utility.yul\":5400:5402   */\n      0x20\n        /* \"#utility.yul\":5397:5398   */\n      dup2\n        /* \"#utility.yul\":5393:5403   */\n      add\n        /* \"#utility.yul\":5388:5403   */\n      swap1\n      pop\n        /* \"#utility.yul\":5364:5477   */\n      jump(tag_164)\n    tag_166:\n        /* \"#utility.yul\":5511:5512   */\n      0x00\n        /* \"#utility.yul\":5502:5508   */\n      dup5\n        /* \"#utility.yul\":5497:5500   */\n      dup5\n        /* \"#utility.yul\":5493:5509   */\n      add\n        /* \"#utility.yul\":5486:5513   */\n      mstore\n        /* \"#utility.yul\":5335:5519   */\n      pop\n        /* \"#utility.yul\":5273:5519   */\n      pop\n      pop\n      pop\n      jump\t// out\n        /* \"#utility.yul\":5525:5915   */\n    tag_96:\n        /* \"#utility.yul\":5631:5634   */\n      0x00\n        /* \"#utility.yul\":5659:5698   */\n      tag_168\n        /* \"#utility.yul\":5692:5697   */\n      dup3\n        /* \"#utility.yul\":5659:5698   */\n      tag_93\n      jump\t// in\n    tag_168:\n        /* \"#utility.yul\":5714:5803   */\n      tag_169\n        /* \"#utility.yul\":5796:5802   */\n      dup2\n        /* \"#utility.yul\":5791:5794   */\n      dup6\n        /* \"#utility.yul\":5714:5803   */\n      tag_94\n      jump\t// in\n    tag_169:\n        /* \"#utility.yul\":5707:5803   */\n      swap4\n      pop\n        /* \"#utility.yul\":5812:5877   */\n      tag_170\n        /* \"#utility.yul\":5870:5876   */\n      dup2\n        /* \"#utility.yul\":5865:5868   */\n      dup6\n        /* \"#utility.yul\":5858:5862   */\n      0x20\n        /* \"#utility.yul\":5851:5856   */\n      dup7\n        /* \"#utility.yul\":5847:5863   */\n      add\n        /* \"#utility.yul\":5812:5877   */\n      tag_95\n      jump\t// in\n    tag_170:\n        /* \"#utility.yul\":5902:5908   */\n      dup1\n        /* \"#utility.yul\":5897:5900   */\n      dup5\n        /* \"#utility.yul\":5893:5909   */\n      add\n        /* \"#utility.yul\":5886:5909   */\n      swap2\n      pop\n        /* \"#utility.yul\":5635:5915   */\n      pop\n        /* \"#utility.yul\":5525:5915   */\n      swap3\n      swap2\n      pop\n      pop\n      jump\t// out\n        /* \"#utility.yul\":5921:6196   */\n    tag_42:\n        /* \"#utility.yul\":6053:6056   */\n      0x00\n        /* \"#utility.yul\":6075:6170   */\n      tag_172\n        /* \"#utility.yul\":6166:6169   */\n      dup3\n        /* \"#utility.yul\":6157:6163   */\n      dup5\n        /* \"#utility.yul\":6075:6170   */\n      tag_96\n      jump\t// in\n    tag_172:\n        /* \"#utility.yul\":6068:6170   */\n      swap2\n      pop\n        /* \"#utility.yul\":6187:6190   */\n      dup2\n        /* \"#utility.yul\":6180:6190   */\n      swap1\n      pop\n        /* \"#utility.yul\":5921:6196   */\n      swap3\n      swap2\n      pop\n      pop\n      jump\t// out\n        /* \"#utility.yul\":6202:6371   */\n    tag_97:\n        /* \"#utility.yul\":6286:6297   */\n      0x00\n        /* \"#utility.yul\":6320:6326   */\n      dup3\n        /* \"#utility.yul\":6315:6318   */\n      dup3\n        /* \"#utility.yul\":6308:6327   */\n      mstore\n        /* \"#utility.yul\":6360:6364   */\n      0x20\n        /* \"#utility.yul\":6355:6358   */\n      dup3\n        /* \"#utility.yul\":6351:6365   */\n      add\n        /* \"#utility.yul\":6336:6365   */\n      swap1\n      pop\n        /* \"#utility.yul\":6202:6371   */\n      swap3\n      swap2\n      pop\n      pop\n      jump\t// out\n        /* \"#utility.yul\":6377:6754   */\n    tag_98:\n        /* \"#utility.yul\":6465:6468   */\n      0x00\n        /* \"#utility.yul\":6493:6532   */\n      tag_175\n        /* \"#utility.yul\":6526:6531   */\n      dup3\n        /* \"#utility.yul\":6493:6532   */\n      tag_93\n      jump\t// in\n    tag_175:\n        /* \"#utility.yul\":6548:6619   */\n      tag_176\n        /* \"#utility.yul\":6612:6618   */\n      dup2\n        /* \"#utility.yul\":6607:6610   */\n      dup6\n        /* \"#utility.yul\":6548:6619   */\n      tag_97\n      jump\t// in\n    tag_176:\n        /* \"#utility.yul\":6541:6619   */\n      swap4\n      pop\n        /* \"#utility.yul\":6628:6693   */\n      tag_177\n        /* \"#utility.yul\":6686:6692   */\n      dup2\n        /* \"#utility.yul\":6681:6684   */\n      dup6\n        /* \"#utility.yul\":6674:6678   */\n      0x20\n        /* \"#utility.yul\":6667:6672   */\n      dup7\n        /* \"#utility.yul\":6663:6679   */\n      add\n        /* \"#utility.yul\":6628:6693   */\n      tag_95\n      jump\t// in\n    tag_177:\n        /* \"#utility.yul\":6718:6747   */\n      tag_178\n        /* \"#utility.yul\":6740:6746   */\n      dup2\n        /* \"#utility.yul\":6718:6747   */\n      tag_78\n      jump\t// in\n    tag_178:\n        /* \"#utility.yul\":6713:6716   */\n      dup5\n        /* \"#utility.yul\":6709:6748   */\n      add\n        /* \"#utility.yul\":6702:6748   */\n      swap2\n      pop\n        /* \"#utility.yul\":6469:6754   */\n      pop\n        /* \"#utility.yul\":6377:6754   */\n      swap3\n      swap2\n      pop\n      pop\n      jump\t// out\n        /* \"#utility.yul\":6760:7073   */\n    tag_54:\n        /* \"#utility.yul\":6873:6877   */\n      0x00\n        /* \"#utility.yul\":6911:6913   */\n      0x20\n        /* \"#utility.yul\":6900:6909   */\n      dup3\n        /* \"#utility.yul\":6896:6914   */\n      add\n        /* \"#utility.yul\":6888:6914   */\n      swap1\n      pop\n        /* \"#utility.yul\":6960:6969   */\n      dup2\n        /* \"#utility.yul\":6954:6958   */\n      dup2\n        /* \"#utility.yul\":6950:6970   */\n      sub\n        /* \"#utility.yul\":6946:6947   */\n      0x00\n        /* \"#utility.yul\":6935:6944   */\n      dup4\n        /* \"#utility.yul\":6931:6948   */\n      add\n        /* \"#utility.yul\":6924:6971   */\n      mstore\n        /* \"#utility.yul\":6988:7066   */\n      tag_180\n        /* \"#utility.yul\":7061:7065   */\n      dup2\n        /* \"#utility.yul\":7052:7058   */\n      dup5\n        /* \"#utility.yul\":6988:7066   */\n      tag_98\n      jump\t// in\n    tag_180:\n        /* \"#utility.yul\":6980:7066   */\n      swap1\n      pop\n        /* \"#utility.yul\":6760:7073   */\n      swap3\n      swap2\n      pop\n      pop\n      jump\t// out\n        /* \"#utility.yul\":7079:7195   */\n    tag_99:\n        /* \"#utility.yul\":7149:7170   */\n      tag_182\n        /* \"#utility.yul\":7164:7169   */\n      dup2\n        /* \"#utility.yul\":7149:7170   */\n      tag_91\n      jump\t// in\n    tag_182:\n        /* \"#utility.yul\":7142:7147   */\n      dup2\n        /* \"#utility.yul\":7139:7171   */\n      eq\n        /* \"#utility.yul\":7129:7189   */\n      tag_183\n      jumpi\n        /* \"#utility.yul\":7185:7186   */\n      0x00\n        /* \"#utility.yul\":7182:7183   */\n      dup1\n        /* \"#utility.yul\":7175:7187   */\n      revert\n        /* \"#utility.yul\":7129:7189   */\n    tag_183:\n        /* \"#utility.yul\":7079:7195   */\n      pop\n      jump\t// out\n        /* \"#utility.yul\":7201:7338   */\n    tag_100:\n        /* \"#utility.yul\":7255:7260   */\n      0x00\n        /* \"#utility.yul\":7286:7292   */\n      dup2\n        /* \"#utility.yul\":7280:7293   */\n      mload\n        /* \"#utility.yul\":7271:7293   */\n      swap1\n      pop\n        /* \"#utility.yul\":7302:7332   */\n      tag_185\n        /* \"#utility.yul\":7326:7331   */\n      dup2\n        /* \"#utility.yul\":7302:7332   */\n      tag_99\n      jump\t// in\n    tag_185:\n        /* \"#utility.yul\":7201:7338   */\n      swap3\n      swap2\n      pop\n      pop\n      jump\t// out\n        /* \"#utility.yul\":7344:7689   */\n    tag_58:\n        /* \"#utility.yul\":7411:7417   */\n      0x00\n        /* \"#utility.yul\":7460:7462   */\n      0x20\n        /* \"#utility.yul\":7448:7457   */\n      dup3\n        /* \"#utility.yul\":7439:7446   */\n      dup5\n        /* \"#utility.yul\":7435:7458   */\n      sub\n        /* \"#utility.yul\":7431:7463   */\n      slt\n        /* \"#utility.yul\":7428:7547   */\n      iszero\n      tag_187\n      jumpi\n        /* \"#utility.yul\":7466:7545   */\n      tag_188\n      tag_74\n      jump\t// in\n    tag_188:\n        /* \"#utility.yul\":7428:7547   */\n    tag_187:\n        /* \"#utility.yul\":7586:7587   */\n      0x00\n        /* \"#utility.yul\":7611:7672   */\n      tag_189\n        /* \"#utility.yul\":7664:7671   */\n      dup5\n        /* \"#utility.yul\":7655:7661   */\n      dup3\n        /* \"#utility.yul\":7644:7653   */\n      dup6\n        /* \"#utility.yul\":7640:7662   */\n      add\n        /* \"#utility.yul\":7611:7672   */\n      tag_100\n      jump\t// in\n    tag_189:\n        /* \"#utility.yul\":7601:7672   */\n      swap2\n      pop\n        /* \"#utility.yul\":7557:7682   */\n      pop\n        /* \"#utility.yul\":7344:7689   */\n      swap3\n      swap2\n      pop\n      pop\n      jump\t// out\n        /* \"#utility.yul\":7695:8118   */\n    tag_71:\n        /* \"#utility.yul\":7836:7840   */\n      0x00\n        /* \"#utility.yul\":7874:7876   */\n      0x40\n        /* \"#utility.yul\":7863:7872   */\n      dup3\n        /* \"#utility.yul\":7859:7877   */\n      add\n        /* \"#utility.yul\":7851:7877   */\n      swap1\n      pop\n        /* \"#utility.yul\":7923:7932   */\n      dup2\n        /* \"#utility.yul\":7917:7921   */\n      dup2\n        /* \"#utility.yul\":7913:7933   */\n      sub\n        /* \"#utility.yul\":7909:7910   */\n      0x00\n        /* \"#utility.yul\":7898:7907   */\n      dup4\n        /* \"#utility.yul\":7894:7911   */\n      add\n        /* \"#utility.yul\":7887:7934   */\n      mstore\n        /* \"#utility.yul\":7951:8029   */\n      tag_191\n        /* \"#utility.yul\":8024:8028   */\n      dup2\n        /* \"#utility.yul\":8015:8021   */\n      dup6\n        /* \"#utility.yul\":7951:8029   */\n      tag_98\n      jump\t// in\n    tag_191:\n        /* \"#utility.yul\":7943:8029   */\n      swap1\n      pop\n        /* \"#utility.yul\":8039:8111   */\n      tag_192\n        /* \"#utility.yul\":8107:8109   */\n      0x20\n        /* \"#utility.yul\":8096:8105   */\n      dup4\n        /* \"#utility.yul\":8092:8110   */\n      add\n        /* \"#utility.yul\":8083:8089   */\n      dup5\n        /* \"#utility.yul\":8039:8111   */\n      tag_90\n      jump\t// in\n    tag_192:\n        /* \"#utility.yul\":7695:8118   */\n      swap4\n      swap3\n      pop\n      pop\n      pop\n      jump\t// out\n\n    auxdata: 0xa2646970667358221220b0be9527fe08c8be04b535e797b98983faab4254934ff71c28f80ffd3f6f280264736f6c63430008140033\n}\n",
				"bytecode": {
					"linkReferences": {},
					"object": "608060405234801561000f575f80fd5b50610a6a8061001d5f395ff3fe608060405234801561000f575f80fd5b506004361061007b575f3560e01c80636b683896116100595780636b683896146100fb5780638c2236011461012b57806397623b581461015b578063bf5b6016146101775761007b565b80631271bd531461007f5780632d4e59801461009b57806335817773146100cb575b5f80fd5b610099600480360381019061009491906107cb565b610193565b005b6100b560048036038101906100b09190610825565b6101f2565b6040516100c2919061087b565b60405180910390f35b6100e560048036038101906100e09190610825565b610238565b6040516100f2919061087b565b60405180910390f35b61011560048036038101906101109190610825565b61027d565b604051610122919061087b565b60405180910390f35b61014560048036038101906101409190610825565b6102c2565b60405161015291906108ae565b60405180910390f35b61017560048036038101906101709190610825565b610344565b005b610191600480360381019061018c91906107cb565b6104b3565b005b805f836040516101a39190610933565b90815260200160405180910390205f6101000a81548173ffffffffffffffffffffffffffffffffffffffff021916908373ffffffffffffffffffffffffffffffffffffffff1602179055505050565b5f6001826040516102039190610933565b90815260200160405180910390205f9054906101000a900473ffffffffffffffffffffffffffffffffffffffff169050919050565b5f80826040516102489190610933565b90815260200160405180910390205f9054906101000a900473ffffffffffffffffffffffffffffffffffffffff169050919050565b5f808260405161028d9190610933565b90815260200160405180910390205f9054906101000a900473ffffffffffffffffffffffffffffffffffffffff169050919050565b5f8073ffffffffffffffffffffffffffffffffffffffff165f836040516102e99190610933565b90815260200160405180910390205f9054906101000a900473ffffffffffffffffffffffffffffffffffffffff1673ffffffffffffffffffffffffffffffffffffffff161461033b576001905061033f565b5f90505b919050565b3073ffffffffffffffffffffffffffffffffffffffff16638c223601826040518263ffffffff1660e01b815260040161037d9190610991565b602060405180830381865afa158015610398573d5f803e3d5ffd5b505050506040513d601f19601f820116820180604052508101906103bc91906109db565b156104b0575f6001826040516103d29190610933565b90815260200160405180910390205f6101000a81548173ffffffffffffffffffffffffffffffffffffffff021916908373ffffffffffffffffffffffffffffffffffffffff1602179055505f808260405161042d9190610933565b90815260200160405180910390205f6101000a81548173ffffffffffffffffffffffffffffffffffffffff021916908373ffffffffffffffffffffffffffffffffffffffff1602179055507f2216f135d7c337bc5b25f8bf96227730d40241c50adf6fde4d180deca4b25664816040516104a79190610991565b60405180910390a15b50565b3073ffffffffffffffffffffffffffffffffffffffff16638c223601836040518263ffffffff1660e01b81526004016104ec9190610991565b602060405180830381865afa158015610507573d5f803e3d5ffd5b505050506040513d601f19601f8201168201806040525081019061052b91906109db565b61062057336001836040516105409190610933565b90815260200160405180910390205f6101000a81548173ffffffffffffffffffffffffffffffffffffffff021916908373ffffffffffffffffffffffffffffffffffffffff1602179055507f6130f2e3c893e99120ae105d8ca4a81834e9eea2d56b76a78fe306d0fabd7bf282826040516105bc929190610a06565b60405180910390a1805f836040516105d49190610933565b90815260200160405180910390205f6101000a81548173ffffffffffffffffffffffffffffffffffffffff021916908373ffffffffffffffffffffffffffffffffffffffff1602179055505b5050565b5f604051905090565b5f80fd5b5f80fd5b5f80fd5b5f80fd5b5f601f19601f8301169050919050565b7f4e487b71000000000000000000000000000000000000000000000000000000005f52604160045260245ffd5b6106838261063d565b810181811067ffffffffffffffff821117156106a2576106a161064d565b5b80604052505050565b5f6106b4610624565b90506106c0828261067a565b919050565b5f67ffffffffffffffff8211156106df576106de61064d565b5b6106e88261063d565b9050602081019050919050565b828183375f83830152505050565b5f610715610710846106c5565b6106ab565b90508281526020810184848401111561073157610730610639565b5b61073c8482856106f5565b509392505050565b5f82601f83011261075857610757610635565b5b8135610768848260208601610703565b91505092915050565b5f73ffffffffffffffffffffffffffffffffffffffff82169050919050565b5f61079a82610771565b9050919050565b6107aa81610790565b81146107b4575f80fd5b50565b5f813590506107c5816107a1565b92915050565b5f80604083850312156107e1576107e061062d565b5b5f83013567ffffffffffffffff8111156107fe576107fd610631565b5b61080a85828601610744565b925050602061081b858286016107b7565b9150509250929050565b5f6020828403121561083a5761083961062d565b5b5f82013567ffffffffffffffff81111561085757610856610631565b5b61086384828501610744565b91505092915050565b61087581610790565b82525050565b5f60208201905061088e5f83018461086c565b92915050565b5f8115159050919050565b6108a881610894565b82525050565b5f6020820190506108c15f83018461089f565b92915050565b5f81519050919050565b5f81905092915050565b5f5b838110156108f85780820151818401526020810190506108dd565b5f8484015250505050565b5f61090d826108c7565b61091781856108d1565b93506109278185602086016108db565b80840191505092915050565b5f61093e8284610903565b915081905092915050565b5f82825260208201905092915050565b5f610963826108c7565b61096d8185610949565b935061097d8185602086016108db565b6109868161063d565b840191505092915050565b5f6020820190508181035f8301526109a98184610959565b905092915050565b6109ba81610894565b81146109c4575f80fd5b50565b5f815190506109d5816109b1565b92915050565b5f602082840312156109f0576109ef61062d565b5b5f6109fd848285016109c7565b91505092915050565b5f6040820190508181035f830152610a1e8185610959565b9050610a2d602083018461086c565b939250505056fea2646970667358221220b0be9527fe08c8be04b535e797b98983faab4254934ff71c28f80ffd3f6f280264736f6c63430008140033",
					"opcodes": "PUSH1 0x80 PUSH1 0x40 MSTORE CALLVALUE DUP1 ISZERO PUSH2 0xF JUMPI PUSH0 DUP1 REVERT JUMPDEST POP PUSH2 0xA6A DUP1 PUSH2 0x1D PUSH0 CODECOPY PUSH0 RETURN INVALID PUSH1 0x80 PUSH1 0x40 MSTORE CALLVALUE DUP1 ISZERO PUSH2 0xF JUMPI PUSH0 DUP1 REVERT JUMPDEST POP PUSH1 0x4 CALLDATASIZE LT PUSH2 0x7B JUMPI PUSH0 CALLDATALOAD PUSH1 0xE0 SHR DUP1 PUSH4 0x6B683896 GT PUSH2 0x59 JUMPI DUP1 PUSH4 0x6B683896 EQ PUSH2 0xFB JUMPI DUP1 PUSH4 0x8C223601 EQ PUSH2 0x12B JUMPI DUP1 PUSH4 0x97623B58 EQ PUSH2 0x15B JUMPI DUP1 PUSH4 0xBF5B6016 EQ PUSH2 0x177 JUMPI PUSH2 0x7B JUMP JUMPDEST DUP1 PUSH4 0x1271BD53 EQ PUSH2 0x7F JUMPI DUP1 PUSH4 0x2D4E5980 EQ PUSH2 0x9B JUMPI DUP1 PUSH4 0x35817773 EQ PUSH2 0xCB JUMPI JUMPDEST PUSH0 DUP1 REVERT JUMPDEST PUSH2 0x99 PUSH1 0x4 DUP1 CALLDATASIZE SUB DUP2 ADD SWAP1 PUSH2 0x94 SWAP2 SWAP1 PUSH2 0x7CB JUMP JUMPDEST PUSH2 0x193 JUMP JUMPDEST STOP JUMPDEST PUSH2 0xB5 PUSH1 0x4 DUP1 CALLDATASIZE SUB DUP2 ADD SWAP1 PUSH2 0xB0 SWAP2 SWAP1 PUSH2 0x825 JUMP JUMPDEST PUSH2 0x1F2 JUMP JUMPDEST PUSH1 0x40 MLOAD PUSH2 0xC2 SWAP2 SWAP1 PUSH2 0x87B JUMP JUMPDEST PUSH1 0x40 MLOAD DUP1 SWAP2 SUB SWAP1 RETURN JUMPDEST PUSH2 0xE5 PUSH1 0x4 DUP1 CALLDATASIZE SUB DUP2 ADD SWAP1 PUSH2 0xE0 SWAP2 SWAP1 PUSH2 0x825 JUMP JUMPDEST PUSH2 0x238 JUMP JUMPDEST PUSH1 0x40 MLOAD PUSH2 0xF2 SWAP2 SWAP1 PUSH2 0x87B JUMP JUMPDEST PUSH1 0x40 MLOAD DUP1 SWAP2 SUB SWAP1 RETURN JUMPDEST PUSH2 0x115 PUSH1 0x4 DUP1 CALLDATASIZE SUB DUP2 ADD SWAP1 PUSH2 0x110 SWAP2 SWAP1 PUSH2 0x825 JUMP JUMPDEST PUSH2 0x27D JUMP JUMPDEST PUSH1 0x40 MLOAD PUSH2 0x122 SWAP2 SWAP1 PUSH2 0x87B JUMP JUMPDEST PUSH1 0x40 MLOAD DUP1 SWAP2 SUB SWAP1 RETURN JUMPDEST PUSH2 0x145 PUSH1 0x4 DUP1 CALLDATASIZE SUB DUP2 ADD SWAP1 PUSH2 0x140 SWAP2 SWAP1 PUSH2 0x825 JUMP JUMPDEST PUSH2 0x2C2 JUMP JUMPDEST PUSH1 0x40 MLOAD PUSH2 0x152 SWAP2 SWAP1 PUSH2 0x8AE JUMP JUMPDEST PUSH1 0x40 MLOAD DUP1 SWAP2 SUB SWAP1 RETURN JUMPDEST PUSH2 0x175 PUSH1 0x4 DUP1 CALLDATASIZE SUB DUP2 ADD SWAP1 PUSH2 0x170 SWAP2 SWAP1 PUSH2 0x825 JUMP JUMPDEST PUSH2 0x344 JUMP JUMPDEST STOP JUMPDEST PUSH2 0x191 PUSH1 0x4 DUP1 CALLDATASIZE SUB DUP2 ADD SWAP1 PUSH2 0x18C SWAP2 SWAP1 PUSH2 0x7CB JUMP JUMPDEST PUSH2 0x4B3 JUMP JUMPDEST STOP JUMPDEST DUP1 PUSH0 DUP4 PUSH1 0x40 MLOAD PUSH2 0x1A3 SWAP2 SWAP1 PUSH2 0x933 JUMP JUMPDEST SWAP1 DUP2 MSTORE PUSH1 0x20 ADD PUSH1 0x40 MLOAD DUP1 SWAP2 SUB SWAP1 KECCAK256 PUSH0 PUSH2 0x100 EXP DUP2 SLOAD DUP2 PUSH20 0xFFFFFFFFFFFFFFFFFFFFFFFFFFFFFFFFFFFFFFFF MUL NOT AND SWAP1 DUP4 PUSH20 0xFFFFFFFFFFFFFFFFFFFFFFFFFFFFFFFFFFFFFFFF AND MUL OR SWAP1 SSTORE POP POP POP JUMP JUMPDEST PUSH0 PUSH1 0x1 DUP3 PUSH1 0x40 MLOAD PUSH2 0x203 SWAP2 SWAP1 PUSH2 0x933 JUMP JUMPDEST SWAP1 DUP2 MSTORE PUSH1 0x20 ADD PUSH1 0x40 MLOAD DUP1 SWAP2 SUB SWAP1 KECCAK256 PUSH0 SWAP1 SLOAD SWAP1 PUSH2 0x100 EXP SWAP1 DIV PUSH20 0xFFFFFFFFFFFFFFFFFFFFFFFFFFFFFFFFFFFFFFFF AND SWAP1 POP SWAP2 SWAP1 POP JUMP JUMPDEST PUSH0 DUP1 DUP3 PUSH1 0x40 MLOAD PUSH2 0x248 SWAP2 SWAP1 PUSH2 0x933 JUMP JUMPDEST SWAP1 DUP2 MSTORE PUSH1 0x20 ADD PUSH1 0x40 MLOAD DUP1 SWAP2 SUB SWAP1 KECCAK256 PUSH0 SWAP1 SLOAD SWAP1 PUSH2 0x100 EXP SWAP1 DIV PUSH20 0xFFFFFFFFFFFFFFFFFFFFFFFFFFFFFFFFFFFFFFFF AND SWAP1 POP SWAP2 SWAP1 POP JUMP JUMPDEST PUSH0 DUP1 DUP3 PUSH1 0x40 MLOAD PUSH2 0x28D SWAP2 SWAP1 PUSH2 0x933 JUMP JUMPDEST SWAP1 DUP2 MSTORE PUSH1 0x20 ADD PUSH1 0x40 MLOAD DUP1 SWAP2 SUB SWAP1 KECCAK256 PUSH0 SWAP1 SLOAD SWAP1 PUSH2 0x100 EXP SWAP1 DIV PUSH20 0xFFFFFFFFFFFFFFFFFFFFFFFFFFFFFFFFFFFFFFFF AND SWAP1 POP SWAP2 SWAP1 POP JUMP JUMPDEST PUSH0 DUP1 PUSH20 0xFFFFFFFFFFFFFFFFFFFFFFFFFFFFFFFFFFFFFFFF AND PUSH0 DUP4 PUSH1 0x40 MLOAD PUSH2 0x2E9 SWAP2 SWAP1 PUSH2 0x933 JUMP JUMPDEST SWAP1 DUP2 MSTORE PUSH1 0x20 ADD PUSH1 0x40 MLOAD DUP1 SWAP2 SUB SWAP1 KECCAK256 PUSH0 SWAP1 SLOAD SWAP1 PUSH2 0x100 EXP SWAP1 DIV PUSH20 0xFFFFFFFFFFFFFFFFFFFFFFFFFFFFFFFFFFFFFFFF AND PUSH20 0xFFFFFFFFFFFFFFFFFFFFFFFFFFFFFFFFFFFFFFFF AND EQ PUSH2 0x33B JUMPI PUSH1 0x1 SWAP1 POP PUSH2 0x33F JUMP JUMPDEST PUSH0 SWAP1 POP JUMPDEST SWAP2 SWAP1 POP JUMP JUMPDEST ADDRESS PUSH20 0xFFFFFFFFFFFFFFFFFFFFFFFFFFFFFFFFFFFFFFFF AND PUSH4 0x8C223601 DUP3 PUSH1 0x40 MLOAD DUP3 PUSH4 0xFFFFFFFF AND PUSH1 0xE0 SHL DUP2 MSTORE PUSH1 0x4 ADD PUSH2 0x37D SWAP2 SWAP1 PUSH2 0x991 JUMP JUMPDEST PUSH1 0x20 PUSH1 0x40 MLOAD DUP1 DUP4 SUB DUP2 DUP7 GAS STATICCALL ISZERO DUP1 ISZERO PUSH2 0x398 JUMPI RETURNDATASIZE PUSH0 DUP1 RETURNDATACOPY RETURNDATASIZE PUSH0 REVERT JUMPDEST POP POP POP POP PUSH1 0x40 MLOAD RETURNDATASIZE PUSH1 0x1F NOT PUSH1 0x1F DUP3 ADD AND DUP3 ADD DUP1 PUSH1 0x40 MSTORE POP DUP2 ADD SWAP1 PUSH2 0x3BC SWAP2 SWAP1 PUSH2 0x9DB JUMP JUMPDEST ISZERO PUSH2 0x4B0 JUMPI PUSH0 PUSH1 0x1 DUP3 PUSH1 0x40 MLOAD PUSH2 0x3D2 SWAP2 SWAP1 PUSH2 0x933 JUMP JUMPDEST SWAP1 DUP2 MSTORE PUSH1 0x20 ADD PUSH1 0x40 MLOAD DUP1 SWAP2 SUB SWAP1 KECCAK256 PUSH0 PUSH2 0x100 EXP DUP2 SLOAD DUP2 PUSH20 0xFFFFFFFFFFFFFFFFFFFFFFFFFFFFFFFFFFFFFFFF MUL NOT AND SWAP1 DUP4 PUSH20 0xFFFFFFFFFFFFFFFFFFFFFFFFFFFFFFFFFFFFFFFF AND MUL OR SWAP1 SSTORE POP PUSH0 DUP1 DUP3 PUSH1 0x40 MLOAD PUSH2 0x42D SWAP2 SWAP1 PUSH2 0x933 JUMP JUMPDEST SWAP1 DUP2 MSTORE PUSH1 0x20 ADD PUSH1 0x40 MLOAD DUP1 SWAP2 SUB SWAP1 KECCAK256 PUSH0 PUSH2 0x100 EXP DUP2 SLOAD DUP2 PUSH20 0xFFFFFFFFFFFFFFFFFFFFFFFFFFFFFFFFFFFFFFFF MUL NOT AND SWAP1 DUP4 PUSH20 0xFFFFFFFFFFFFFFFFFFFFFFFFFFFFFFFFFFFFFFFF AND MUL OR SWAP1 SSTORE POP PUSH32 0x2216F135D7C337BC5B25F8BF96227730D40241C50ADF6FDE4D180DECA4B25664 DUP2 PUSH1 0x40 MLOAD PUSH2 0x4A7 SWAP2 SWAP1 PUSH2 0x991 JUMP JUMPDEST PUSH1 0x40 MLOAD DUP1 SWAP2 SUB SWAP1 LOG1 JUMPDEST POP JUMP JUMPDEST ADDRESS PUSH20 0xFFFFFFFFFFFFFFFFFFFFFFFFFFFFFFFFFFFFFFFF AND PUSH4 0x8C223601 DUP4 PUSH1 0x40 MLOAD DUP3 PUSH4 0xFFFFFFFF AND PUSH1 0xE0 SHL DUP2 MSTORE PUSH1 0x4 ADD PUSH2 0x4EC SWAP2 SWAP1 PUSH2 0x991 JUMP JUMPDEST PUSH1 0x20 PUSH1 0x40 MLOAD DUP1 DUP4 SUB DUP2 DUP7 GAS STATICCALL ISZERO DUP1 ISZERO PUSH2 0x507 JUMPI RETURNDATASIZE PUSH0 DUP1 RETURNDATACOPY RETURNDATASIZE PUSH0 REVERT JUMPDEST POP POP POP POP PUSH1 0x40 MLOAD RETURNDATASIZE PUSH1 0x1F NOT PUSH1 0x1F DUP3 ADD AND DUP3 ADD DUP1 PUSH1 0x40 MSTORE POP DUP2 ADD SWAP1 PUSH2 0x52B SWAP2 SWAP1 PUSH2 0x9DB JUMP JUMPDEST PUSH2 0x620 JUMPI CALLER PUSH1 0x1 DUP4 PUSH1 0x40 MLOAD PUSH2 0x540 SWAP2 SWAP1 PUSH2 0x933 JUMP JUMPDEST SWAP1 DUP2 MSTORE PUSH1 0x20 ADD PUSH1 0x40 MLOAD DUP1 SWAP2 SUB SWAP1 KECCAK256 PUSH0 PUSH2 0x100 EXP DUP2 SLOAD DUP2 PUSH20 0xFFFFFFFFFFFFFFFFFFFFFFFFFFFFFFFFFFFFFFFF MUL NOT AND SWAP1 DUP4 PUSH20 0xFFFFFFFFFFFFFFFFFFFFFFFFFFFFFFFFFFFFFFFF AND MUL OR SWAP1 SSTORE POP PUSH32 0x6130F2E3C893E99120AE105D8CA4A81834E9EEA2D56B76A78FE306D0FABD7BF2 DUP3 DUP3 PUSH1 0x40 MLOAD PUSH2 0x5BC SWAP3 SWAP2 SWAP1 PUSH2 0xA06 JUMP JUMPDEST PUSH1 0x40 MLOAD DUP1 SWAP2 SUB SWAP1 LOG1 DUP1 PUSH0 DUP4 PUSH1 0x40 MLOAD PUSH2 0x5D4 SWAP2 SWAP1 PUSH2 0x933 JUMP JUMPDEST SWAP1 DUP2 MSTORE PUSH1 0x20 ADD PUSH1 0x40 MLOAD DUP1 SWAP2 SUB SWAP1 KECCAK256 PUSH0 PUSH2 0x100 EXP DUP2 SLOAD DUP2 PUSH20 0xFFFFFFFFFFFFFFFFFFFFFFFFFFFFFFFFFFFFFFFF MUL NOT AND SWAP1 DUP4 PUSH20 0xFFFFFFFFFFFFFFFFFFFFFFFFFFFFFFFFFFFFFFFF AND MUL OR SWAP1 SSTORE POP JUMPDEST POP POP JUMP JUMPDEST PUSH0 PUSH1 0x40 MLOAD SWAP1 POP SWAP1 JUMP JUMPDEST PUSH0 DUP1 REVERT JUMPDEST PUSH0 DUP1 REVERT JUMPDEST PUSH0 DUP1 REVERT JUMPDEST PUSH0 DUP1 REVERT JUMPDEST PUSH0 PUSH1 0x1F NOT PUSH1 0x1F DUP4 ADD AND SWAP1 POP SWAP2 SWAP1 POP JUMP JUMPDEST PUSH32 0x4E487B7100000000000000000000000000000000000000000000000000000000 PUSH0 MSTORE PUSH1 0x41 PUSH1 0x4 MSTORE PUSH1 0x24 PUSH0 REVERT JUMPDEST PUSH2 0x683 DUP3 PUSH2 0x63D JUMP JUMPDEST DUP2 ADD DUP2 DUP2 LT PUSH8 0xFFFFFFFFFFFFFFFF DUP3 GT OR ISZERO PUSH2 0x6A2 JUMPI PUSH2 0x6A1 PUSH2 0x64D JUMP JUMPDEST JUMPDEST DUP1 PUSH1 0x40 MSTORE POP POP POP JUMP JUMPDEST PUSH0 PUSH2 0x6B4 PUSH2 0x624 JUMP JUMPDEST SWAP1 POP PUSH2 0x6C0 DUP3 DUP3 PUSH2 0x67A JUMP JUMPDEST SWAP2 SWAP1 POP JUMP JUMPDEST PUSH0 PUSH8 0xFFFFFFFFFFFFFFFF DUP3 GT ISZERO PUSH2 0x6DF JUMPI PUSH2 0x6DE PUSH2 0x64D JUMP JUMPDEST JUMPDEST PUSH2 0x6E8 DUP3 PUSH2 0x63D JUMP JUMPDEST SWAP1 POP PUSH1 0x20 DUP2 ADD SWAP1 POP SWAP2 SWAP1 POP JUMP JUMPDEST DUP3 DUP2 DUP4 CALLDATACOPY PUSH0 DUP4 DUP4 ADD MSTORE POP POP POP JUMP JUMPDEST PUSH0 PUSH2 0x715 PUSH2 0x710 DUP5 PUSH2 0x6C5 JUMP JUMPDEST PUSH2 0x6AB JUMP JUMPDEST SWAP1 POP DUP3 DUP2 MSTORE PUSH1 0x20 DUP2 ADD DUP5 DUP5 DUP5 ADD GT ISZERO PUSH2 0x731 JUMPI PUSH2 0x730 PUSH2 0x639 JUMP JUMPDEST JUMPDEST PUSH2 0x73C DUP5 DUP3 DUP6 PUSH2 0x6F5 JUMP JUMPDEST POP SWAP4 SWAP3 POP POP POP JUMP JUMPDEST PUSH0 DUP3 PUSH1 0x1F DUP4 ADD SLT PUSH2 0x758 JUMPI PUSH2 0x757 PUSH2 0x635 JUMP JUMPDEST JUMPDEST DUP2 CALLDATALOAD PUSH2 0x768 DUP5 DUP3 PUSH1 0x20 DUP7 ADD PUSH2 0x703 JUMP JUMPDEST SWAP2 POP POP SWAP3 SWAP2 POP POP JUMP JUMPDEST PUSH0 PUSH20 0xFFFFFFFFFFFFFFFFFFFFFFFFFFFFFFFFFFFFFFFF DUP3 AND SWAP1 POP SWAP2 SWAP1 POP JUMP JUMPDEST PUSH0 PUSH2 0x79A DUP3 PUSH2 0x771 JUMP JUMPDEST SWAP1 POP SWAP2 SWAP1 POP JUMP JUMPDEST PUSH2 0x7AA DUP2 PUSH2 0x790 JUMP JUMPDEST DUP2 EQ PUSH2 0x7B4 JUMPI PUSH0 DUP1 REVERT JUMPDEST POP JUMP JUMPDEST PUSH0 DUP2 CALLDATALOAD SWAP1 POP PUSH2 0x7C5 DUP2 PUSH2 0x7A1 JUMP JUMPDEST SWAP3 SWAP2 POP POP JUMP JUMPDEST PUSH0 DUP1 PUSH1 0x40 DUP4 DUP6 SUB SLT ISZERO PUSH2 0x7E1 JUMPI PUSH2 0x7E0 PUSH2 0x62D JUMP JUMPDEST JUMPDEST PUSH0 DUP4 ADD CALLDATALOAD PUSH8 0xFFFFFFFFFFFFFFFF DUP2 GT ISZERO PUSH2 0x7FE JUMPI PUSH2 0x7FD PUSH2 0x631 JUMP JUMPDEST JUMPDEST PUSH2 0x80A DUP6 DUP3 DUP7 ADD PUSH2 0x744 JUMP JUMPDEST SWAP3 POP POP PUSH1 0x20 PUSH2 0x81B DUP6 DUP3 DUP7 ADD PUSH2 0x7B7 JUMP JUMPDEST SWAP2 POP POP SWAP3 POP SWAP3 SWAP1 POP JUMP JUMPDEST PUSH0 PUSH1 0x20 DUP3 DUP5 SUB SLT ISZERO PUSH2 0x83A JUMPI PUSH2 0x839 PUSH2 0x62D JUMP JUMPDEST JUMPDEST PUSH0 DUP3 ADD CALLDATALOAD PUSH8 0xFFFFFFFFFFFFFFFF DUP2 GT ISZERO PUSH2 0x857 JUMPI PUSH2 0x856 PUSH2 0x631 JUMP JUMPDEST JUMPDEST PUSH2 0x863 DUP5 DUP3 DUP6 ADD PUSH2 0x744 JUMP JUMPDEST SWAP2 POP POP SWAP3 SWAP2 POP POP JUMP JUMPDEST PUSH2 0x875 DUP2 PUSH2 0x790 JUMP JUMPDEST DUP3 MSTORE POP POP JUMP JUMPDEST PUSH0 PUSH1 0x20 DUP3 ADD SWAP1 POP PUSH2 0x88E PUSH0 DUP4 ADD DUP5 PUSH2 0x86C JUMP JUMPDEST SWAP3 SWAP2 POP POP JUMP JUMPDEST PUSH0 DUP2 ISZERO ISZERO SWAP1 POP SWAP2 SWAP1 POP JUMP JUMPDEST PUSH2 0x8A8 DUP2 PUSH2 0x894 JUMP JUMPDEST DUP3 MSTORE POP POP JUMP JUMPDEST PUSH0 PUSH1 0x20 DUP3 ADD SWAP1 POP PUSH2 0x8C1 PUSH0 DUP4 ADD DUP5 PUSH2 0x89F JUMP JUMPDEST SWAP3 SWAP2 POP POP JUMP JUMPDEST PUSH0 DUP2 MLOAD SWAP1 POP SWAP2 SWAP1 POP JUMP JUMPDEST PUSH0 DUP2 SWAP1 POP SWAP3 SWAP2 POP POP JUMP JUMPDEST PUSH0 JUMPDEST DUP4 DUP2 LT ISZERO PUSH2 0x8F8 JUMPI DUP1 DUP3 ADD MLOAD DUP2 DUP5 ADD MSTORE PUSH1 0x20 DUP2 ADD SWAP1 POP PUSH2 0x8DD JUMP JUMPDEST PUSH0 DUP5 DUP5 ADD MSTORE POP POP POP POP JUMP JUMPDEST PUSH0 PUSH2 0x90D DUP3 PUSH2 0x8C7 JUMP JUMPDEST PUSH2 0x917 DUP2 DUP6 PUSH2 0x8D1 JUMP JUMPDEST SWAP4 POP PUSH2 0x927 DUP2 DUP6 PUSH1 0x20 DUP7 ADD PUSH2 0x8DB JUMP JUMPDEST DUP1 DUP5 ADD SWAP2 POP POP SWAP3 SWAP2 POP POP JUMP JUMPDEST PUSH0 PUSH2 0x93E DUP3 DUP5 PUSH2 0x903 JUMP JUMPDEST SWAP2 POP DUP2 SWAP1 POP SWAP3 SWAP2 POP POP JUMP JUMPDEST PUSH0 DUP3 DUP3 MSTORE PUSH1 0x20 DUP3 ADD SWAP1 POP SWAP3 SWAP2 POP POP JUMP JUMPDEST PUSH0 PUSH2 0x963 DUP3 PUSH2 0x8C7 JUMP JUMPDEST PUSH2 0x96D DUP2 DUP6 PUSH2 0x949 JUMP JUMPDEST SWAP4 POP PUSH2 0x97D DUP2 DUP6 PUSH1 0x20 DUP7 ADD PUSH2 0x8DB JUMP JUMPDEST PUSH2 0x986 DUP2 PUSH2 0x63D JUMP JUMPDEST DUP5 ADD SWAP2 POP POP SWAP3 SWAP2 POP POP JUMP JUMPDEST PUSH0 PUSH1 0x20 DUP3 ADD SWAP1 POP DUP2 DUP2 SUB PUSH0 DUP4 ADD MSTORE PUSH2 0x9A9 DUP2 DUP5 PUSH2 0x959 JUMP JUMPDEST SWAP1 POP SWAP3 SWAP2 POP POP JUMP JUMPDEST PUSH2 0x9BA DUP2 PUSH2 0x894 JUMP JUMPDEST DUP2 EQ PUSH2 0x9C4 JUMPI PUSH0 DUP1 REVERT JUMPDEST POP JUMP JUMPDEST PUSH0 DUP2 MLOAD SWAP1 POP PUSH2 0x9D5 DUP2 PUSH2 0x9B1 JUMP JUMPDEST SWAP3 SWAP2 POP POP JUMP JUMPDEST PUSH0 PUSH1 0x20 DUP3 DUP5 SUB SLT ISZERO PUSH2 0x9F0 JUMPI PUSH2 0x9EF PUSH2 0x62D JUMP JUMPDEST JUMPDEST PUSH0 PUSH2 0x9FD DUP5 DUP3 DUP6 ADD PUSH2 0x9C7 JUMP JUMPDEST SWAP2 POP POP SWAP3 SWAP2 POP POP JUMP JUMPDEST PUSH0 PUSH1 0x40 DUP3 ADD SWAP1 POP DUP2 DUP2 SUB PUSH0 DUP4 ADD MSTORE PUSH2 0xA1E DUP2 DUP6 PUSH2 0x959 JUMP JUMPDEST SWAP1 POP PUSH2 0xA2D PUSH1 0x20 DUP4 ADD DUP5 PUSH2 0x86C JUMP JUMPDEST SWAP4 SWAP3 POP POP POP JUMP INVALID LOG2 PUSH5 0x6970667358 0x22 SLT KECCAK256 0xB0 0xBE SWAP6 0x27 INVALID ADDMOD 0xC8 0xBE DIV 0xB5 CALLDATALOAD 0xE7 SWAP8 0xB9 DUP10 DUP4 STATICCALL 0xAB TIMESTAMP SLOAD SWAP4 0x4F 0xF7 SHR 0x28 0xF8 0xF REVERT EXTCODEHASH PUSH16 0x280264736F6C63430008140033000000 "
				},
				"gasEstimates": {
					"creation": {
						"codeDepositCost": "533200",
						"executionCost": "566",
						"totalCost": "533766"
					},
					"external": {
						"addContract(string,address)": "infinite",
						"getContract(string)": "infinite",
						"getImplementation(string)": "infinite",
						"getUpgrader(string)": "infinite",
						"hasContract(string)": "infinite",
						"removeContract(string)": "infinite",
						"upgradeContract(string,address)": "infinite"
					}
				},
				"methodIdentifiers": {
					"addContract(string,address)": "bf5b6016",
					"getContract(string)": "35817773",
					"getImplementation(string)": "6b683896",
					"getUpgrader(string)": "2d4e5980",
					"hasContract(string)": "8c223601",
					"removeContract(string)": "97623b58",
					"upgradeContract(string,address)": "1271bd53"
				}
			},
			"storageLayout": {
				"storage": [
					{
						"astId": 8,
						"contract": "contracts/Registry/BasicRegistry.sol:BasicRegistry",
						"label": "nameToContract",
						"offset": 0,
						"slot": "0",
						"type": "t_mapping(t_string_memory_ptr,t_address)"
					},
					{
						"astId": 12,
						"contract": "contracts/Registry/BasicRegistry.sol:BasicRegistry",
						"label": "nameToOwner",
						"offset": 0,
						"slot": "1",
						"type": "t_mapping(t_string_memory_ptr,t_address)"
					}
				],
				"types": {
					"t_address": {
						"encoding": "inplace",
						"label": "address",
						"numberOfBytes": "20"
					},
					"t_mapping(t_string_memory_ptr,t_address)": {
						"encoding": "mapping",
						"key": "t_string_memory_ptr",
						"label": "mapping(string => address)",
						"numberOfBytes": "32",
						"value": "t_address"
					},
					"t_string_memory_ptr": {
						"encoding": "bytes",
						"label": "string",
						"numberOfBytes": "32"
					}
				}
			},
			"userdoc": {
				"events": {
					"RemovedContract(string)": {
						"notice": "REQUIRED The event that is emitted when the contract get removed from the registry"
					}
				},
				"kind": "user",
				"methods": {
					"addContract(string,address)": {
						"notice": "REQUIRED The function that adds pure (non-proxy) contracts to the ContractsRegistry. The contracts MAY either be  the ones the system does not have direct upgradeability control over or the ones that are not upgradeable by design"
					},
					"getContract(string)": {
						"notice": "REQUIRED The function that returns an associated contract by the name"
					},
					"getImplementation(string)": {
						"notice": "RECOMMENDED The function that returns an implementation of the given proxy contract"
					},
					"getUpgrader(string)": {
						"notice": "RECOMMENDED The function that returns the admin of the added proxy contracts"
					},
					"hasContract(string)": {
						"notice": "OPTIONAL The function that checks if a contract with a given name has been added"
					},
					"removeContract(string)": {
						"notice": "REQUIRED The function to remove contracts from the ContractsRegistry"
					},
					"upgradeContract(string,address)": {
						"notice": "REQUIRED The function that upgrades added proxy contract with a new implementation"
					}
				},
				"version": 1
			}
		}
	}
}