{
	"data": {
		"bytecode": {
			"linkReferences": {},
			"object": "60806040523480156200001157600080fd5b50604051620014a8380380620014a8833981810160405281019062000037919062000226565b83600080847bffffffffffffffffffffffffffffffffffffffffffffffffffffffff19167bffffffffffffffffffffffffffffffffffffffffffffffffffffffff1916815260200190815260200160002060006101000a81548173ffffffffffffffffffffffffffffffffffffffff021916908373ffffffffffffffffffffffffffffffffffffffff16021790555082600080837bffffffffffffffffffffffffffffffffffffffffffffffffffffffff19167bffffffffffffffffffffffffffffffffffffffffffffffffffffffff1916815260200190815260200160002060006101000a81548173ffffffffffffffffffffffffffffffffffffffff021916908373ffffffffffffffffffffffffffffffffffffffff1602179055505050505062000298565b600080fd5b600073ffffffffffffffffffffffffffffffffffffffff82169050919050565b6000620001918262000164565b9050919050565b620001a38162000184565b8114620001af57600080fd5b50565b600081519050620001c38162000198565b92915050565b60007fffffffff0000000000000000000000000000000000000000000000000000000082169050919050565b6200020081620001c9565b81146200020c57600080fd5b50565b6000815190506200022081620001f5565b92915050565b600080600080608085870312156200024357620002426200015f565b5b60006200025387828801620001b2565b94505060206200026687828801620001b2565b935050604062000279878288016200020f565b92505060606200028c878288016200020f565b91505092959194509250565b61120080620002a86000396000f3fe6080604052600436106100385760003560e01c806302c85697146101305780630e90f45d1461015b5780631f931c1c1461018657610039565b5b600080600080357fffffffff00000000000000000000000000000000000000000000000000000000167bffffffffffffffffffffffffffffffffffffffffffffffffffffffff19167bffffffffffffffffffffffffffffffffffffffffffffffffffffffff1916815260200190815260200160002060009054906101000a900473ffffffffffffffffffffffffffffffffffffffff169050600073ffffffffffffffffffffffffffffffffffffffff168173ffffffffffffffffffffffffffffffffffffffff160361010a57600080fd5b3660008037600080366000845af43d6000803e806000811461012b573d6000f35b3d6000fd5b34801561013c57600080fd5b506101456101af565b60405161015291906109d2565b60405180910390f35b34801561016757600080fd5b506101706101c7565b60405161017d91906109d2565b60405180910390f35b34801561019257600080fd5b506101ad60048036038101906101a89190610b10565b6101df565b005b6000806101ba61098c565b9050806001015491505090565b6000806101d261098c565b9050806000015491505090565b60005b85859050811015610984576000600281111561020157610200610ba5565b5b86868381811061021457610213610bd4565b5b90506020028101906102269190610c12565b60200160208101906102389190610c5f565b600281111561024a57610249610ba5565b5b036104c05760005b86868381811061026557610264610bd4565b5b90506020028101906102779190610c12565b80604001906102869190610c8c565b90508110156104be57600073ffffffffffffffffffffffffffffffffffffffff166000808989868181106102bd576102bc610bd4565b5b90506020028101906102cf9190610c12565b80604001906102de9190610c8c565b858181106102ef576102ee610bd4565b5b90506020020160208101906103049190610d47565b7bffffffffffffffffffffffffffffffffffffffffffffffffffffffff19167bffffffffffffffffffffffffffffffffffffffffffffffffffffffff1916815260200190815260200160002060009054906101000a900473ffffffffffffffffffffffffffffffffffffffff1673ffffffffffffffffffffffffffffffffffffffff16036104ab5786868381811061039f5761039e610bd4565b5b90506020028101906103b19190610c12565b60000160208101906103c39190610d74565b6000808989868181106103d9576103d8610bd4565b5b90506020028101906103eb9190610c12565b80604001906103fa9190610c8c565b8581811061040b5761040a610bd4565b5b90506020020160208101906104209190610d47565b7bffffffffffffffffffffffffffffffffffffffffffffffffffffffff19167bffffffffffffffffffffffffffffffffffffffffffffffffffffffff1916815260200190815260200160002060006101000a81548173ffffffffffffffffffffffffffffffffffffffff021916908373ffffffffffffffffffffffffffffffffffffffff1602179055505b80806104b690610dd0565b915050610252565b505b600160028111156104d4576104d3610ba5565b5b8686838181106104e7576104e6610bd4565b5b90506020028101906104f99190610c12565b602001602081019061050b9190610c5f565b600281111561051d5761051c610ba5565b5b036107935760005b86868381811061053857610537610bd4565b5b905060200281019061054a9190610c12565b80604001906105599190610c8c565b905081101561079157600073ffffffffffffffffffffffffffffffffffffffff166000808989868181106105905761058f610bd4565b5b90506020028101906105a29190610c12565b80604001906105b19190610c8c565b858181106105c2576105c1610bd4565b5b90506020020160208101906105d79190610d47565b7bffffffffffffffffffffffffffffffffffffffffffffffffffffffff19167bffffffffffffffffffffffffffffffffffffffffffffffffffffffff1916815260200190815260200160002060009054906101000a900473ffffffffffffffffffffffffffffffffffffffff1673ffffffffffffffffffffffffffffffffffffffff161461077e5786868381811061067257610671610bd4565b5b90506020028101906106849190610c12565b60000160208101906106969190610d74565b6000808989868181106106ac576106ab610bd4565b5b90506020028101906106be9190610c12565b80604001906106cd9190610c8c565b858181106106de576106dd610bd4565b5b90506020020160208101906106f39190610d47565b7bffffffffffffffffffffffffffffffffffffffffffffffffffffffff19167bffffffffffffffffffffffffffffffffffffffffffffffffffffffff1916815260200190815260200160002060006101000a81548173ffffffffffffffffffffffffffffffffffffffff021916908373ffffffffffffffffffffffffffffffffffffffff1602179055505b808061078990610dd0565b915050610525565b505b6002808111156107a6576107a5610ba5565b5b8686838181106107b9576107b8610bd4565b5b90506020028101906107cb9190610c12565b60200160208101906107dd9190610c5f565b60028111156107ef576107ee610ba5565b5b036109325760005b86868381811061080a57610809610bd4565b5b905060200281019061081c9190610c12565b806040019061082b9190610c8c565b905081101561093057600080600089898681811061084c5761084b610bd4565b5b905060200281019061085e9190610c12565b806040019061086d9190610c8c565b8581811061087e5761087d610bd4565b5b90506020020160208101906108939190610d47565b7bffffffffffffffffffffffffffffffffffffffffffffffffffffffff19167bffffffffffffffffffffffffffffffffffffffffffffffffffffffff1916815260200190815260200160002060006101000a81548173ffffffffffffffffffffffffffffffffffffffff021916908373ffffffffffffffffffffffffffffffffffffffff160217905550808061092890610dd0565b9150506107f7565b505b7f8faa70878671ccd212d20771b795c50af8fd3ff6cf27f4bde57e5d4de0aeb6738686868686604051610969959493929190611181565b60405180910390a1808061097c90610dd0565b9150506101e2565b505050505050565b6000807f20bdb322702e8f31eb02a18e466059b6b3224433a6e129849583a03f267f40a390508091505090565b6000819050919050565b6109cc816109b9565b82525050565b60006020820190506109e760008301846109c3565b92915050565b600080fd5b600080fd5b600080fd5b600080fd5b600080fd5b60008083601f840112610a1c57610a1b6109f7565b5b8235905067ffffffffffffffff811115610a3957610a386109fc565b5b602083019150836020820283011115610a5557610a54610a01565b5b9250929050565b600073ffffffffffffffffffffffffffffffffffffffff82169050919050565b6000610a8782610a5c565b9050919050565b610a9781610a7c565b8114610aa257600080fd5b50565b600081359050610ab481610a8e565b92915050565b60008083601f840112610ad057610acf6109f7565b5b8235905067ffffffffffffffff811115610aed57610aec6109fc565b5b602083019150836001820283011115610b0957610b08610a01565b5b9250929050565b600080600080600060608688031215610b2c57610b2b6109ed565b5b600086013567ffffffffffffffff811115610b4a57610b496109f2565b5b610b5688828901610a06565b95509550506020610b6988828901610aa5565b935050604086013567ffffffffffffffff811115610b8a57610b896109f2565b5b610b9688828901610aba565b92509250509295509295909350565b7f4e487b7100000000000000000000000000000000000000000000000000000000600052602160045260246000fd5b7f4e487b7100000000000000000000000000000000000000000000000000000000600052603260045260246000fd5b600080fd5b600080fd5b600080fd5b600082356001606003833603038112610c2e57610c2d610c03565b5b80830191505092915050565b60038110610c4757600080fd5b50565b600081359050610c5981610c3a565b92915050565b600060208284031215610c7557610c746109ed565b5b6000610c8384828501610c4a565b91505092915050565b60008083356001602003843603038112610ca957610ca8610c03565b5b80840192508235915067ffffffffffffffff821115610ccb57610cca610c08565b5b602083019250602082023603831315610ce757610ce6610c0d565b5b509250929050565b60007fffffffff0000000000000000000000000000000000000000000000000000000082169050919050565b610d2481610cef565b8114610d2f57600080fd5b50565b600081359050610d4181610d1b565b92915050565b600060208284031215610d5d57610d5c6109ed565b5b6000610d6b84828501610d32565b91505092915050565b600060208284031215610d8a57610d896109ed565b5b6000610d9884828501610aa5565b91505092915050565b7f4e487b7100000000000000000000000000000000000000000000000000000000600052601160045260246000fd5b6000610ddb826109b9565b91507fffffffffffffffffffffffffffffffffffffffffffffffffffffffffffffffff8203610e0d57610e0c610da1565b5b600182019050919050565b600082825260208201905092915050565b6000819050919050565b6000610e426020840184610aa5565b905092915050565b610e5381610a7c565b82525050565b6000610e686020840184610c4a565b905092915050565b60038110610e8157610e80610ba5565b5b50565b6000819050610e9282610e70565b919050565b6000610ea282610e84565b9050919050565b610eb281610e97565b82525050565b600080fd5b600080fd5b600080fd5b60008083356001602003843603038112610ee457610ee3610ec2565b5b83810192508235915060208301925067ffffffffffffffff821115610f0c57610f0b610eb8565b5b602082023603831315610f2257610f21610ebd565b5b509250929050565b600082825260208201905092915050565b6000819050919050565b610f4e81610cef565b82525050565b6000610f608383610f45565b60208301905092915050565b6000610f7b6020840184610d32565b905092915050565b6000602082019050919050565b6000610f9c8385610f2a565b9350610fa782610f3b565b8060005b85811015610fe057610fbd8284610f6c565b610fc78882610f54565b9750610fd283610f83565b925050600181019050610fab565b5085925050509392505050565b6000606083016110006000840184610e33565b61100d6000860182610e4a565b5061101b6020840184610e59565b6110286020860182610ea9565b506110366040840184610ec7565b8583036040870152611049838284610f90565b925050508091505092915050565b60006110638383610fed565b905092915050565b60008235600160600383360303811261108757611086610ec2565b5b82810191505092915050565b6000602082019050919050565b60006110ac8385610e18565b9350836020840285016110be84610e29565b8060005b878110156111025784840389526110d9828461106b565b6110e38582611057565b94506110ee83611093565b925060208a019950506001810190506110c2565b50829750879450505050509392505050565b61111d81610a7c565b82525050565b600082825260208201905092915050565b82818337600083830152505050565b6000601f19601f8301169050919050565b60006111608385611123565b935061116d838584611134565b61117683611143565b840190509392505050565b6000606082019050818103600083015261119c8187896110a0565b90506111ab6020830186611114565b81810360408301526111be818486611154565b9050969550505050505056fea2646970667358221220e6d7ba99c599cfba19b5de91504d8247dd63cda4f4cd3ab8c76ff310d4bf48c664736f6c63430008120033",
			"opcodes": "PUSH1 0x80 PUSH1 0x40 MSTORE CALLVALUE DUP1 ISZERO PUSH3 0x11 JUMPI PUSH1 0x0 DUP1 REVERT JUMPDEST POP PUSH1 0x40 MLOAD PUSH3 0x14A8 CODESIZE SUB DUP1 PUSH3 0x14A8 DUP4 CODECOPY DUP2 DUP2 ADD PUSH1 0x40 MSTORE DUP2 ADD SWAP1 PUSH3 0x37 SWAP2 SWAP1 PUSH3 0x226 JUMP JUMPDEST DUP4 PUSH1 0x0 DUP1 DUP5 PUSH28 0xFFFFFFFFFFFFFFFFFFFFFFFFFFFFFFFFFFFFFFFFFFFFFFFFFFFFFFFF NOT AND PUSH28 0xFFFFFFFFFFFFFFFFFFFFFFFFFFFFFFFFFFFFFFFFFFFFFFFFFFFFFFFF NOT AND DUP2 MSTORE PUSH1 0x20 ADD SWAP1 DUP2 MSTORE PUSH1 0x20 ADD PUSH1 0x0 KECCAK256 PUSH1 0x0 PUSH2 0x100 EXP DUP2 SLOAD DUP2 PUSH20 0xFFFFFFFFFFFFFFFFFFFFFFFFFFFFFFFFFFFFFFFF MUL NOT AND SWAP1 DUP4 PUSH20 0xFFFFFFFFFFFFFFFFFFFFFFFFFFFFFFFFFFFFFFFF AND MUL OR SWAP1 SSTORE POP DUP3 PUSH1 0x0 DUP1 DUP4 PUSH28 0xFFFFFFFFFFFFFFFFFFFFFFFFFFFFFFFFFFFFFFFFFFFFFFFFFFFFFFFF NOT AND PUSH28 0xFFFFFFFFFFFFFFFFFFFFFFFFFFFFFFFFFFFFFFFFFFFFFFFFFFFFFFFF NOT AND DUP2 MSTORE PUSH1 0x20 ADD SWAP1 DUP2 MSTORE PUSH1 0x20 ADD PUSH1 0x0 KECCAK256 PUSH1 0x0 PUSH2 0x100 EXP DUP2 SLOAD DUP2 PUSH20 0xFFFFFFFFFFFFFFFFFFFFFFFFFFFFFFFFFFFFFFFF MUL NOT AND SWAP1 DUP4 PUSH20 0xFFFFFFFFFFFFFFFFFFFFFFFFFFFFFFFFFFFFFFFF AND MUL OR SWAP1 SSTORE POP POP POP POP POP PUSH3 0x298 JUMP JUMPDEST PUSH1 0x0 DUP1 REVERT JUMPDEST PUSH1 0x0 PUSH20 0xFFFFFFFFFFFFFFFFFFFFFFFFFFFFFFFFFFFFFFFF DUP3 AND SWAP1 POP SWAP2 SWAP1 POP JUMP JUMPDEST PUSH1 0x0 PUSH3 0x191 DUP3 PUSH3 0x164 JUMP JUMPDEST SWAP1 POP SWAP2 SWAP1 POP JUMP JUMPDEST PUSH3 0x1A3 DUP2 PUSH3 0x184 JUMP JUMPDEST DUP2 EQ PUSH3 0x1AF JUMPI PUSH1 0x0 DUP1 REVERT JUMPDEST POP JUMP JUMPDEST PUSH1 0x0 DUP2 MLOAD SWAP1 POP PUSH3 0x1C3 DUP2 PUSH3 0x198 JUMP JUMPDEST SWAP3 SWAP2 POP POP JUMP JUMPDEST PUSH1 0x0 PUSH32 0xFFFFFFFF00000000000000000000000000000000000000000000000000000000 DUP3 AND SWAP1 POP SWAP2 SWAP1 POP JUMP JUMPDEST PUSH3 0x200 DUP2 PUSH3 0x1C9 JUMP JUMPDEST DUP2 EQ PUSH3 0x20C JUMPI PUSH1 0x0 DUP1 REVERT JUMPDEST POP JUMP JUMPDEST PUSH1 0x0 DUP2 MLOAD SWAP1 POP PUSH3 0x220 DUP2 PUSH3 0x1F5 JUMP JUMPDEST SWAP3 SWAP2 POP POP JUMP JUMPDEST PUSH1 0x0 DUP1 PUSH1 0x0 DUP1 PUSH1 0x80 DUP6 DUP8 SUB SLT ISZERO PUSH3 0x243 JUMPI PUSH3 0x242 PUSH3 0x15F JUMP JUMPDEST JUMPDEST PUSH1 0x0 PUSH3 0x253 DUP8 DUP3 DUP9 ADD PUSH3 0x1B2 JUMP JUMPDEST SWAP5 POP POP PUSH1 0x20 PUSH3 0x266 DUP8 DUP3 DUP9 ADD PUSH3 0x1B2 JUMP JUMPDEST SWAP4 POP POP PUSH1 0x40 PUSH3 0x279 DUP8 DUP3 DUP9 ADD PUSH3 0x20F JUMP JUMPDEST SWAP3 POP POP PUSH1 0x60 PUSH3 0x28C DUP8 DUP3 DUP9 ADD PUSH3 0x20F JUMP JUMPDEST SWAP2 POP POP SWAP3 SWAP6 SWAP2 SWAP5 POP SWAP3 POP JUMP JUMPDEST PUSH2 0x1200 DUP1 PUSH3 0x2A8 PUSH1 0x0 CODECOPY PUSH1 0x0 RETURN INVALID PUSH1 0x80 PUSH1 0x40 MSTORE PUSH1 0x4 CALLDATASIZE LT PUSH2 0x38 JUMPI PUSH1 0x0 CALLDATALOAD PUSH1 0xE0 SHR DUP1 PUSH4 0x2C85697 EQ PUSH2 0x130 JUMPI DUP1 PUSH4 0xE90F45D EQ PUSH2 0x15B JUMPI DUP1 PUSH4 0x1F931C1C EQ PUSH2 0x186 JUMPI PUSH2 0x39 JUMP JUMPDEST JUMPDEST PUSH1 0x0 DUP1 PUSH1 0x0 DUP1 CALLDATALOAD PUSH32 0xFFFFFFFF00000000000000000000000000000000000000000000000000000000 AND PUSH28 0xFFFFFFFFFFFFFFFFFFFFFFFFFFFFFFFFFFFFFFFFFFFFFFFFFFFFFFFF NOT AND PUSH28 0xFFFFFFFFFFFFFFFFFFFFFFFFFFFFFFFFFFFFFFFFFFFFFFFFFFFFFFFF NOT AND DUP2 MSTORE PUSH1 0x20 ADD SWAP1 DUP2 MSTORE PUSH1 0x20 ADD PUSH1 0x0 KECCAK256 PUSH1 0x0 SWAP1 SLOAD SWAP1 PUSH2 0x100 EXP SWAP1 DIV PUSH20 0xFFFFFFFFFFFFFFFFFFFFFFFFFFFFFFFFFFFFFFFF AND SWAP1 POP PUSH1 0x0 PUSH20 0xFFFFFFFFFFFFFFFFFFFFFFFFFFFFFFFFFFFFFFFF AND DUP2 PUSH20 0xFFFFFFFFFFFFFFFFFFFFFFFFFFFFFFFFFFFFFFFF AND SUB PUSH2 0x10A JUMPI PUSH1 0x0 DUP1 REVERT JUMPDEST CALLDATASIZE PUSH1 0x0 DUP1 CALLDATACOPY PUSH1 0x0 DUP1 CALLDATASIZE PUSH1 0x0 DUP5 GAS DELEGATECALL RETURNDATASIZE PUSH1 0x0 DUP1 RETURNDATACOPY DUP1 PUSH1 0x0 DUP2 EQ PUSH2 0x12B JUMPI RETURNDATASIZE PUSH1 0x0 RETURN JUMPDEST RETURNDATASIZE PUSH1 0x0 REVERT JUMPDEST CALLVALUE DUP1 ISZERO PUSH2 0x13C JUMPI PUSH1 0x0 DUP1 REVERT JUMPDEST POP PUSH2 0x145 PUSH2 0x1AF JUMP JUMPDEST PUSH1 0x40 MLOAD PUSH2 0x152 SWAP2 SWAP1 PUSH2 0x9D2 JUMP JUMPDEST PUSH1 0x40 MLOAD DUP1 SWAP2 SUB SWAP1 RETURN JUMPDEST CALLVALUE DUP1 ISZERO PUSH2 0x167 JUMPI PUSH1 0x0 DUP1 REVERT JUMPDEST POP PUSH2 0x170 PUSH2 0x1C7 JUMP JUMPDEST PUSH1 0x40 MLOAD PUSH2 0x17D SWAP2 SWAP1 PUSH2 0x9D2 JUMP JUMPDEST PUSH1 0x40 MLOAD DUP1 SWAP2 SUB SWAP1 RETURN JUMPDEST CALLVALUE DUP1 ISZERO PUSH2 0x192 JUMPI PUSH1 0x0 DUP1 REVERT JUMPDEST POP PUSH2 0x1AD PUSH1 0x4 DUP1 CALLDATASIZE SUB DUP2 ADD SWAP1 PUSH2 0x1A8 SWAP2 SWAP1 PUSH2 0xB10 JUMP JUMPDEST PUSH2 0x1DF JUMP JUMPDEST STOP JUMPDEST PUSH1 0x0 DUP1 PUSH2 0x1BA PUSH2 0x98C JUMP JUMPDEST SWAP1 POP DUP1 PUSH1 0x1 ADD SLOAD SWAP2 POP POP SWAP1 JUMP JUMPDEST PUSH1 0x0 DUP1 PUSH2 0x1D2 PUSH2 0x98C JUMP JUMPDEST SWAP1 POP DUP1 PUSH1 0x0 ADD SLOAD SWAP2 POP POP SWAP1 JUMP JUMPDEST PUSH1 0x0 JUMPDEST DUP6 DUP6 SWAP1 POP DUP2 LT ISZERO PUSH2 0x984 JUMPI PUSH1 0x0 PUSH1 0x2 DUP2 GT ISZERO PUSH2 0x201 JUMPI PUSH2 0x200 PUSH2 0xBA5 JUMP JUMPDEST JUMPDEST DUP7 DUP7 DUP4 DUP2 DUP2 LT PUSH2 0x214 JUMPI PUSH2 0x213 PUSH2 0xBD4 JUMP JUMPDEST JUMPDEST SWAP1 POP PUSH1 0x20 MUL DUP2 ADD SWAP1 PUSH2 0x226 SWAP2 SWAP1 PUSH2 0xC12 JUMP JUMPDEST PUSH1 0x20 ADD PUSH1 0x20 DUP2 ADD SWAP1 PUSH2 0x238 SWAP2 SWAP1 PUSH2 0xC5F JUMP JUMPDEST PUSH1 0x2 DUP2 GT ISZERO PUSH2 0x24A JUMPI PUSH2 0x249 PUSH2 0xBA5 JUMP JUMPDEST JUMPDEST SUB PUSH2 0x4C0 JUMPI PUSH1 0x0 JUMPDEST DUP7 DUP7 DUP4 DUP2 DUP2 LT PUSH2 0x265 JUMPI PUSH2 0x264 PUSH2 0xBD4 JUMP JUMPDEST JUMPDEST SWAP1 POP PUSH1 0x20 MUL DUP2 ADD SWAP1 PUSH2 0x277 SWAP2 SWAP1 PUSH2 0xC12 JUMP JUMPDEST DUP1 PUSH1 0x40 ADD SWAP1 PUSH2 0x286 SWAP2 SWAP1 PUSH2 0xC8C JUMP JUMPDEST SWAP1 POP DUP2 LT ISZERO PUSH2 0x4BE JUMPI PUSH1 0x0 PUSH20 0xFFFFFFFFFFFFFFFFFFFFFFFFFFFFFFFFFFFFFFFF AND PUSH1 0x0 DUP1 DUP10 DUP10 DUP7 DUP2 DUP2 LT PUSH2 0x2BD JUMPI PUSH2 0x2BC PUSH2 0xBD4 JUMP JUMPDEST JUMPDEST SWAP1 POP PUSH1 0x20 MUL DUP2 ADD SWAP1 PUSH2 0x2CF SWAP2 SWAP1 PUSH2 0xC12 JUMP JUMPDEST DUP1 PUSH1 0x40 ADD SWAP1 PUSH2 0x2DE SWAP2 SWAP1 PUSH2 0xC8C JUMP JUMPDEST DUP6 DUP2 DUP2 LT PUSH2 0x2EF JUMPI PUSH2 0x2EE PUSH2 0xBD4 JUMP JUMPDEST JUMPDEST SWAP1 POP PUSH1 0x20 MUL ADD PUSH1 0x20 DUP2 ADD SWAP1 PUSH2 0x304 SWAP2 SWAP1 PUSH2 0xD47 JUMP JUMPDEST PUSH28 0xFFFFFFFFFFFFFFFFFFFFFFFFFFFFFFFFFFFFFFFFFFFFFFFFFFFFFFFF NOT AND PUSH28 0xFFFFFFFFFFFFFFFFFFFFFFFFFFFFFFFFFFFFFFFFFFFFFFFFFFFFFFFF NOT AND DUP2 MSTORE PUSH1 0x20 ADD SWAP1 DUP2 MSTORE PUSH1 0x20 ADD PUSH1 0x0 KECCAK256 PUSH1 0x0 SWAP1 SLOAD SWAP1 PUSH2 0x100 EXP SWAP1 DIV PUSH20 0xFFFFFFFFFFFFFFFFFFFFFFFFFFFFFFFFFFFFFFFF AND PUSH20 0xFFFFFFFFFFFFFFFFFFFFFFFFFFFFFFFFFFFFFFFF AND SUB PUSH2 0x4AB JUMPI DUP7 DUP7 DUP4 DUP2 DUP2 LT PUSH2 0x39F JUMPI PUSH2 0x39E PUSH2 0xBD4 JUMP JUMPDEST JUMPDEST SWAP1 POP PUSH1 0x20 MUL DUP2 ADD SWAP1 PUSH2 0x3B1 SWAP2 SWAP1 PUSH2 0xC12 JUMP JUMPDEST PUSH1 0x0 ADD PUSH1 0x20 DUP2 ADD SWAP1 PUSH2 0x3C3 SWAP2 SWAP1 PUSH2 0xD74 JUMP JUMPDEST PUSH1 0x0 DUP1 DUP10 DUP10 DUP7 DUP2 DUP2 LT PUSH2 0x3D9 JUMPI PUSH2 0x3D8 PUSH2 0xBD4 JUMP JUMPDEST JUMPDEST SWAP1 POP PUSH1 0x20 MUL DUP2 ADD SWAP1 PUSH2 0x3EB SWAP2 SWAP1 PUSH2 0xC12 JUMP JUMPDEST DUP1 PUSH1 0x40 ADD SWAP1 PUSH2 0x3FA SWAP2 SWAP1 PUSH2 0xC8C JUMP JUMPDEST DUP6 DUP2 DUP2 LT PUSH2 0x40B JUMPI PUSH2 0x40A PUSH2 0xBD4 JUMP JUMPDEST JUMPDEST SWAP1 POP PUSH1 0x20 MUL ADD PUSH1 0x20 DUP2 ADD SWAP1 PUSH2 0x420 SWAP2 SWAP1 PUSH2 0xD47 JUMP JUMPDEST PUSH28 0xFFFFFFFFFFFFFFFFFFFFFFFFFFFFFFFFFFFFFFFFFFFFFFFFFFFFFFFF NOT AND PUSH28 0xFFFFFFFFFFFFFFFFFFFFFFFFFFFFFFFFFFFFFFFFFFFFFFFFFFFFFFFF NOT AND DUP2 MSTORE PUSH1 0x20 ADD SWAP1 DUP2 MSTORE PUSH1 0x20 ADD PUSH1 0x0 KECCAK256 PUSH1 0x0 PUSH2 0x100 EXP DUP2 SLOAD DUP2 PUSH20 0xFFFFFFFFFFFFFFFFFFFFFFFFFFFFFFFFFFFFFFFF MUL NOT AND SWAP1 DUP4 PUSH20 0xFFFFFFFFFFFFFFFFFFFFFFFFFFFFFFFFFFFFFFFF AND MUL OR SWAP1 SSTORE POP JUMPDEST DUP1 DUP1 PUSH2 0x4B6 SWAP1 PUSH2 0xDD0 JUMP JUMPDEST SWAP2 POP POP PUSH2 0x252 JUMP JUMPDEST POP JUMPDEST PUSH1 0x1 PUSH1 0x2 DUP2 GT ISZERO PUSH2 0x4D4 JUMPI PUSH2 0x4D3 PUSH2 0xBA5 JUMP JUMPDEST JUMPDEST DUP7 DUP7 DUP4 DUP2 DUP2 LT PUSH2 0x4E7 JUMPI PUSH2 0x4E6 PUSH2 0xBD4 JUMP JUMPDEST JUMPDEST SWAP1 POP PUSH1 0x20 MUL DUP2 ADD SWAP1 PUSH2 0x4F9 SWAP2 SWAP1 PUSH2 0xC12 JUMP JUMPDEST PUSH1 0x20 ADD PUSH1 0x20 DUP2 ADD SWAP1 PUSH2 0x50B SWAP2 SWAP1 PUSH2 0xC5F JUMP JUMPDEST PUSH1 0x2 DUP2 GT ISZERO PUSH2 0x51D JUMPI PUSH2 0x51C PUSH2 0xBA5 JUMP JUMPDEST JUMPDEST SUB PUSH2 0x793 JUMPI PUSH1 0x0 JUMPDEST DUP7 DUP7 DUP4 DUP2 DUP2 LT PUSH2 0x538 JUMPI PUSH2 0x537 PUSH2 0xBD4 JUMP JUMPDEST JUMPDEST SWAP1 POP PUSH1 0x20 MUL DUP2 ADD SWAP1 PUSH2 0x54A SWAP2 SWAP1 PUSH2 0xC12 JUMP JUMPDEST DUP1 PUSH1 0x40 ADD SWAP1 PUSH2 0x559 SWAP2 SWAP1 PUSH2 0xC8C JUMP JUMPDEST SWAP1 POP DUP2 LT ISZERO PUSH2 0x791 JUMPI PUSH1 0x0 PUSH20 0xFFFFFFFFFFFFFFFFFFFFFFFFFFFFFFFFFFFFFFFF AND PUSH1 0x0 DUP1 DUP10 DUP10 DUP7 DUP2 DUP2 LT PUSH2 0x590 JUMPI PUSH2 0x58F PUSH2 0xBD4 JUMP JUMPDEST JUMPDEST SWAP1 POP PUSH1 0x20 MUL DUP2 ADD SWAP1 PUSH2 0x5A2 SWAP2 SWAP1 PUSH2 0xC12 JUMP JUMPDEST DUP1 PUSH1 0x40 ADD SWAP1 PUSH2 0x5B1 SWAP2 SWAP1 PUSH2 0xC8C JUMP JUMPDEST DUP6 DUP2 DUP2 LT PUSH2 0x5C2 JUMPI PUSH2 0x5C1 PUSH2 0xBD4 JUMP JUMPDEST JUMPDEST SWAP1 POP PUSH1 0x20 MUL ADD PUSH1 0x20 DUP2 ADD SWAP1 PUSH2 0x5D7 SWAP2 SWAP1 PUSH2 0xD47 JUMP JUMPDEST PUSH28 0xFFFFFFFFFFFFFFFFFFFFFFFFFFFFFFFFFFFFFFFFFFFFFFFFFFFFFFFF NOT AND PUSH28 0xFFFFFFFFFFFFFFFFFFFFFFFFFFFFFFFFFFFFFFFFFFFFFFFFFFFFFFFF NOT AND DUP2 MSTORE PUSH1 0x20 ADD SWAP1 DUP2 MSTORE PUSH1 0x20 ADD PUSH1 0x0 KECCAK256 PUSH1 0x0 SWAP1 SLOAD SWAP1 PUSH2 0x100 EXP SWAP1 DIV PUSH20 0xFFFFFFFFFFFFFFFFFFFFFFFFFFFFFFFFFFFFFFFF AND PUSH20 0xFFFFFFFFFFFFFFFFFFFFFFFFFFFFFFFFFFFFFFFF AND EQ PUSH2 0x77E JUMPI DUP7 DUP7 DUP4 DUP2 DUP2 LT PUSH2 0x672 JUMPI PUSH2 0x671 PUSH2 0xBD4 JUMP JUMPDEST JUMPDEST SWAP1 POP PUSH1 0x20 MUL DUP2 ADD SWAP1 PUSH2 0x684 SWAP2 SWAP1 PUSH2 0xC12 JUMP JUMPDEST PUSH1 0x0 ADD PUSH1 0x20 DUP2 ADD SWAP1 PUSH2 0x696 SWAP2 SWAP1 PUSH2 0xD74 JUMP JUMPDEST PUSH1 0x0 DUP1 DUP10 DUP10 DUP7 DUP2 DUP2 LT PUSH2 0x6AC JUMPI PUSH2 0x6AB PUSH2 0xBD4 JUMP JUMPDEST JUMPDEST SWAP1 POP PUSH1 0x20 MUL DUP2 ADD SWAP1 PUSH2 0x6BE SWAP2 SWAP1 PUSH2 0xC12 JUMP JUMPDEST DUP1 PUSH1 0x40 ADD SWAP1 PUSH2 0x6CD SWAP2 SWAP1 PUSH2 0xC8C JUMP JUMPDEST DUP6 DUP2 DUP2 LT PUSH2 0x6DE JUMPI PUSH2 0x6DD PUSH2 0xBD4 JUMP JUMPDEST JUMPDEST SWAP1 POP PUSH1 0x20 MUL ADD PUSH1 0x20 DUP2 ADD SWAP1 PUSH2 0x6F3 SWAP2 SWAP1 PUSH2 0xD47 JUMP JUMPDEST PUSH28 0xFFFFFFFFFFFFFFFFFFFFFFFFFFFFFFFFFFFFFFFFFFFFFFFFFFFFFFFF NOT AND PUSH28 0xFFFFFFFFFFFFFFFFFFFFFFFFFFFFFFFFFFFFFFFFFFFFFFFFFFFFFFFF NOT AND DUP2 MSTORE PUSH1 0x20 ADD SWAP1 DUP2 MSTORE PUSH1 0x20 ADD PUSH1 0x0 KECCAK256 PUSH1 0x0 PUSH2 0x100 EXP DUP2 SLOAD DUP2 PUSH20 0xFFFFFFFFFFFFFFFFFFFFFFFFFFFFFFFFFFFFFFFF MUL NOT AND SWAP1 DUP4 PUSH20 0xFFFFFFFFFFFFFFFFFFFFFFFFFFFFFFFFFFFFFFFF AND MUL OR SWAP1 SSTORE POP JUMPDEST DUP1 DUP1 PUSH2 0x789 SWAP1 PUSH2 0xDD0 JUMP JUMPDEST SWAP2 POP POP PUSH2 0x525 JUMP JUMPDEST POP JUMPDEST PUSH1 0x2 DUP1 DUP2 GT ISZERO PUSH2 0x7A6 JUMPI PUSH2 0x7A5 PUSH2 0xBA5 JUMP JUMPDEST JUMPDEST DUP7 DUP7 DUP4 DUP2 DUP2 LT PUSH2 0x7B9 JUMPI PUSH2 0x7B8 PUSH2 0xBD4 JUMP JUMPDEST JUMPDEST SWAP1 POP PUSH1 0x20 MUL DUP2 ADD SWAP1 PUSH2 0x7CB SWAP2 SWAP1 PUSH2 0xC12 JUMP JUMPDEST PUSH1 0x20 ADD PUSH1 0x20 DUP2 ADD SWAP1 PUSH2 0x7DD SWAP2 SWAP1 PUSH2 0xC5F JUMP JUMPDEST PUSH1 0x2 DUP2 GT ISZERO PUSH2 0x7EF JUMPI PUSH2 0x7EE PUSH2 0xBA5 JUMP JUMPDEST JUMPDEST SUB PUSH2 0x932 JUMPI PUSH1 0x0 JUMPDEST DUP7 DUP7 DUP4 DUP2 DUP2 LT PUSH2 0x80A JUMPI PUSH2 0x809 PUSH2 0xBD4 JUMP JUMPDEST JUMPDEST SWAP1 POP PUSH1 0x20 MUL DUP2 ADD SWAP1 PUSH2 0x81C SWAP2 SWAP1 PUSH2 0xC12 JUMP JUMPDEST DUP1 PUSH1 0x40 ADD SWAP1 PUSH2 0x82B SWAP2 SWAP1 PUSH2 0xC8C JUMP JUMPDEST SWAP1 POP DUP2 LT ISZERO PUSH2 0x930 JUMPI PUSH1 0x0 DUP1 PUSH1 0x0 DUP10 DUP10 DUP7 DUP2 DUP2 LT PUSH2 0x84C JUMPI PUSH2 0x84B PUSH2 0xBD4 JUMP JUMPDEST JUMPDEST SWAP1 POP PUSH1 0x20 MUL DUP2 ADD SWAP1 PUSH2 0x85E SWAP2 SWAP1 PUSH2 0xC12 JUMP JUMPDEST DUP1 PUSH1 0x40 ADD SWAP1 PUSH2 0x86D SWAP2 SWAP1 PUSH2 0xC8C JUMP JUMPDEST DUP6 DUP2 DUP2 LT PUSH2 0x87E JUMPI PUSH2 0x87D PUSH2 0xBD4 JUMP JUMPDEST JUMPDEST SWAP1 POP PUSH1 0x20 MUL ADD PUSH1 0x20 DUP2 ADD SWAP1 PUSH2 0x893 SWAP2 SWAP1 PUSH2 0xD47 JUMP JUMPDEST PUSH28 0xFFFFFFFFFFFFFFFFFFFFFFFFFFFFFFFFFFFFFFFFFFFFFFFFFFFFFFFF NOT AND PUSH28 0xFFFFFFFFFFFFFFFFFFFFFFFFFFFFFFFFFFFFFFFFFFFFFFFFFFFFFFFF NOT AND DUP2 MSTORE PUSH1 0x20 ADD SWAP1 DUP2 MSTORE PUSH1 0x20 ADD PUSH1 0x0 KECCAK256 PUSH1 0x0 PUSH2 0x100 EXP DUP2 SLOAD DUP2 PUSH20 0xFFFFFFFFFFFFFFFFFFFFFFFFFFFFFFFFFFFFFFFF MUL NOT AND SWAP1 DUP4 PUSH20 0xFFFFFFFFFFFFFFFFFFFFFFFFFFFFFFFFFFFFFFFF AND MUL OR SWAP1 SSTORE POP DUP1 DUP1 PUSH2 0x928 SWAP1 PUSH2 0xDD0 JUMP JUMPDEST SWAP2 POP POP PUSH2 0x7F7 JUMP JUMPDEST POP JUMPDEST PUSH32 0x8FAA70878671CCD212D20771B795C50AF8FD3FF6CF27F4BDE57E5D4DE0AEB673 DUP7 DUP7 DUP7 DUP7 DUP7 PUSH1 0x40 MLOAD PUSH2 0x969 SWAP6 SWAP5 SWAP4 SWAP3 SWAP2 SWAP1 PUSH2 0x1181 JUMP JUMPDEST PUSH1 0x40 MLOAD DUP1 SWAP2 SUB SWAP1 LOG1 DUP1 DUP1 PUSH2 0x97C SWAP1 PUSH2 0xDD0 JUMP JUMPDEST SWAP2 POP POP PUSH2 0x1E2 JUMP JUMPDEST POP POP POP POP POP POP JUMP JUMPDEST PUSH1 0x0 DUP1 PUSH32 0x20BDB322702E8F31EB02A18E466059B6B3224433A6E129849583A03F267F40A3 SWAP1 POP DUP1 SWAP2 POP POP SWAP1 JUMP JUMPDEST PUSH1 0x0 DUP2 SWAP1 POP SWAP2 SWAP1 POP JUMP JUMPDEST PUSH2 0x9CC DUP2 PUSH2 0x9B9 JUMP JUMPDEST DUP3 MSTORE POP POP JUMP JUMPDEST PUSH1 0x0 PUSH1 0x20 DUP3 ADD SWAP1 POP PUSH2 0x9E7 PUSH1 0x0 DUP4 ADD DUP5 PUSH2 0x9C3 JUMP JUMPDEST SWAP3 SWAP2 POP POP JUMP JUMPDEST PUSH1 0x0 DUP1 REVERT JUMPDEST PUSH1 0x0 DUP1 REVERT JUMPDEST PUSH1 0x0 DUP1 REVERT JUMPDEST PUSH1 0x0 DUP1 REVERT JUMPDEST PUSH1 0x0 DUP1 REVERT JUMPDEST PUSH1 0x0 DUP1 DUP4 PUSH1 0x1F DUP5 ADD SLT PUSH2 0xA1C JUMPI PUSH2 0xA1B PUSH2 0x9F7 JUMP JUMPDEST JUMPDEST DUP3 CALLDATALOAD SWAP1 POP PUSH8 0xFFFFFFFFFFFFFFFF DUP2 GT ISZERO PUSH2 0xA39 JUMPI PUSH2 0xA38 PUSH2 0x9FC JUMP JUMPDEST JUMPDEST PUSH1 0x20 DUP4 ADD SWAP2 POP DUP4 PUSH1 0x20 DUP3 MUL DUP4 ADD GT ISZERO PUSH2 0xA55 JUMPI PUSH2 0xA54 PUSH2 0xA01 JUMP JUMPDEST JUMPDEST SWAP3 POP SWAP3 SWAP1 POP JUMP JUMPDEST PUSH1 0x0 PUSH20 0xFFFFFFFFFFFFFFFFFFFFFFFFFFFFFFFFFFFFFFFF DUP3 AND SWAP1 POP SWAP2 SWAP1 POP JUMP JUMPDEST PUSH1 0x0 PUSH2 0xA87 DUP3 PUSH2 0xA5C JUMP JUMPDEST SWAP1 POP SWAP2 SWAP1 POP JUMP JUMPDEST PUSH2 0xA97 DUP2 PUSH2 0xA7C JUMP JUMPDEST DUP2 EQ PUSH2 0xAA2 JUMPI PUSH1 0x0 DUP1 REVERT JUMPDEST POP JUMP JUMPDEST PUSH1 0x0 DUP2 CALLDATALOAD SWAP1 POP PUSH2 0xAB4 DUP2 PUSH2 0xA8E JUMP JUMPDEST SWAP3 SWAP2 POP POP JUMP JUMPDEST PUSH1 0x0 DUP1 DUP4 PUSH1 0x1F DUP5 ADD SLT PUSH2 0xAD0 JUMPI PUSH2 0xACF PUSH2 0x9F7 JUMP JUMPDEST JUMPDEST DUP3 CALLDATALOAD SWAP1 POP PUSH8 0xFFFFFFFFFFFFFFFF DUP2 GT ISZERO PUSH2 0xAED JUMPI PUSH2 0xAEC PUSH2 0x9FC JUMP JUMPDEST JUMPDEST PUSH1 0x20 DUP4 ADD SWAP2 POP DUP4 PUSH1 0x1 DUP3 MUL DUP4 ADD GT ISZERO PUSH2 0xB09 JUMPI PUSH2 0xB08 PUSH2 0xA01 JUMP JUMPDEST JUMPDEST SWAP3 POP SWAP3 SWAP1 POP JUMP JUMPDEST PUSH1 0x0 DUP1 PUSH1 0x0 DUP1 PUSH1 0x0 PUSH1 0x60 DUP7 DUP9 SUB SLT ISZERO PUSH2 0xB2C JUMPI PUSH2 0xB2B PUSH2 0x9ED JUMP JUMPDEST JUMPDEST PUSH1 0x0 DUP7 ADD CALLDATALOAD PUSH8 0xFFFFFFFFFFFFFFFF DUP2 GT ISZERO PUSH2 0xB4A JUMPI PUSH2 0xB49 PUSH2 0x9F2 JUMP JUMPDEST JUMPDEST PUSH2 0xB56 DUP9 DUP3 DUP10 ADD PUSH2 0xA06 JUMP JUMPDEST SWAP6 POP SWAP6 POP POP PUSH1 0x20 PUSH2 0xB69 DUP9 DUP3 DUP10 ADD PUSH2 0xAA5 JUMP JUMPDEST SWAP4 POP POP PUSH1 0x40 DUP7 ADD CALLDATALOAD PUSH8 0xFFFFFFFFFFFFFFFF DUP2 GT ISZERO PUSH2 0xB8A JUMPI PUSH2 0xB89 PUSH2 0x9F2 JUMP JUMPDEST JUMPDEST PUSH2 0xB96 DUP9 DUP3 DUP10 ADD PUSH2 0xABA JUMP JUMPDEST SWAP3 POP SWAP3 POP POP SWAP3 SWAP6 POP SWAP3 SWAP6 SWAP1 SWAP4 POP JUMP JUMPDEST PUSH32 0x4E487B7100000000000000000000000000000000000000000000000000000000 PUSH1 0x0 MSTORE PUSH1 0x21 PUSH1 0x4 MSTORE PUSH1 0x24 PUSH1 0x0 REVERT JUMPDEST PUSH32 0x4E487B7100000000000000000000000000000000000000000000000000000000 PUSH1 0x0 MSTORE PUSH1 0x32 PUSH1 0x4 MSTORE PUSH1 0x24 PUSH1 0x0 REVERT JUMPDEST PUSH1 0x0 DUP1 REVERT JUMPDEST PUSH1 0x0 DUP1 REVERT JUMPDEST PUSH1 0x0 DUP1 REVERT JUMPDEST PUSH1 0x0 DUP3 CALLDATALOAD PUSH1 0x1 PUSH1 0x60 SUB DUP4 CALLDATASIZE SUB SUB DUP2 SLT PUSH2 0xC2E JUMPI PUSH2 0xC2D PUSH2 0xC03 JUMP JUMPDEST JUMPDEST DUP1 DUP4 ADD SWAP2 POP POP SWAP3 SWAP2 POP POP JUMP JUMPDEST PUSH1 0x3 DUP2 LT PUSH2 0xC47 JUMPI PUSH1 0x0 DUP1 REVERT JUMPDEST POP JUMP JUMPDEST PUSH1 0x0 DUP2 CALLDATALOAD SWAP1 POP PUSH2 0xC59 DUP2 PUSH2 0xC3A JUMP JUMPDEST SWAP3 SWAP2 POP POP JUMP JUMPDEST PUSH1 0x0 PUSH1 0x20 DUP3 DUP5 SUB SLT ISZERO PUSH2 0xC75 JUMPI PUSH2 0xC74 PUSH2 0x9ED JUMP JUMPDEST JUMPDEST PUSH1 0x0 PUSH2 0xC83 DUP5 DUP3 DUP6 ADD PUSH2 0xC4A JUMP JUMPDEST SWAP2 POP POP SWAP3 SWAP2 POP POP JUMP JUMPDEST PUSH1 0x0 DUP1 DUP4 CALLDATALOAD PUSH1 0x1 PUSH1 0x20 SUB DUP5 CALLDATASIZE SUB SUB DUP2 SLT PUSH2 0xCA9 JUMPI PUSH2 0xCA8 PUSH2 0xC03 JUMP JUMPDEST JUMPDEST DUP1 DUP5 ADD SWAP3 POP DUP3 CALLDATALOAD SWAP2 POP PUSH8 0xFFFFFFFFFFFFFFFF DUP3 GT ISZERO PUSH2 0xCCB JUMPI PUSH2 0xCCA PUSH2 0xC08 JUMP JUMPDEST JUMPDEST PUSH1 0x20 DUP4 ADD SWAP3 POP PUSH1 0x20 DUP3 MUL CALLDATASIZE SUB DUP4 SGT ISZERO PUSH2 0xCE7 JUMPI PUSH2 0xCE6 PUSH2 0xC0D JUMP JUMPDEST JUMPDEST POP SWAP3 POP SWAP3 SWAP1 POP JUMP JUMPDEST PUSH1 0x0 PUSH32 0xFFFFFFFF00000000000000000000000000000000000000000000000000000000 DUP3 AND SWAP1 POP SWAP2 SWAP1 POP JUMP JUMPDEST PUSH2 0xD24 DUP2 PUSH2 0xCEF JUMP JUMPDEST DUP2 EQ PUSH2 0xD2F JUMPI PUSH1 0x0 DUP1 REVERT JUMPDEST POP JUMP JUMPDEST PUSH1 0x0 DUP2 CALLDATALOAD SWAP1 POP PUSH2 0xD41 DUP2 PUSH2 0xD1B JUMP JUMPDEST SWAP3 SWAP2 POP POP JUMP JUMPDEST PUSH1 0x0 PUSH1 0x20 DUP3 DUP5 SUB SLT ISZERO PUSH2 0xD5D JUMPI PUSH2 0xD5C PUSH2 0x9ED JUMP JUMPDEST JUMPDEST PUSH1 0x0 PUSH2 0xD6B DUP5 DUP3 DUP6 ADD PUSH2 0xD32 JUMP JUMPDEST SWAP2 POP POP SWAP3 SWAP2 POP POP JUMP JUMPDEST PUSH1 0x0 PUSH1 0x20 DUP3 DUP5 SUB SLT ISZERO PUSH2 0xD8A JUMPI PUSH2 0xD89 PUSH2 0x9ED JUMP JUMPDEST JUMPDEST PUSH1 0x0 PUSH2 0xD98 DUP5 DUP3 DUP6 ADD PUSH2 0xAA5 JUMP JUMPDEST SWAP2 POP POP SWAP3 SWAP2 POP POP JUMP JUMPDEST PUSH32 0x4E487B7100000000000000000000000000000000000000000000000000000000 PUSH1 0x0 MSTORE PUSH1 0x11 PUSH1 0x4 MSTORE PUSH1 0x24 PUSH1 0x0 REVERT JUMPDEST PUSH1 0x0 PUSH2 0xDDB DUP3 PUSH2 0x9B9 JUMP JUMPDEST SWAP2 POP PUSH32 0xFFFFFFFFFFFFFFFFFFFFFFFFFFFFFFFFFFFFFFFFFFFFFFFFFFFFFFFFFFFFFFFF DUP3 SUB PUSH2 0xE0D JUMPI PUSH2 0xE0C PUSH2 0xDA1 JUMP JUMPDEST JUMPDEST PUSH1 0x1 DUP3 ADD SWAP1 POP SWAP2 SWAP1 POP JUMP JUMPDEST PUSH1 0x0 DUP3 DUP3 MSTORE PUSH1 0x20 DUP3 ADD SWAP1 POP SWAP3 SWAP2 POP POP JUMP JUMPDEST PUSH1 0x0 DUP2 SWAP1 POP SWAP2 SWAP1 POP JUMP JUMPDEST PUSH1 0x0 PUSH2 0xE42 PUSH1 0x20 DUP5 ADD DUP5 PUSH2 0xAA5 JUMP JUMPDEST SWAP1 POP SWAP3 SWAP2 POP POP JUMP JUMPDEST PUSH2 0xE53 DUP2 PUSH2 0xA7C JUMP JUMPDEST DUP3 MSTORE POP POP JUMP JUMPDEST PUSH1 0x0 PUSH2 0xE68 PUSH1 0x20 DUP5 ADD DUP5 PUSH2 0xC4A JUMP JUMPDEST SWAP1 POP SWAP3 SWAP2 POP POP JUMP JUMPDEST PUSH1 0x3 DUP2 LT PUSH2 0xE81 JUMPI PUSH2 0xE80 PUSH2 0xBA5 JUMP JUMPDEST JUMPDEST POP JUMP JUMPDEST PUSH1 0x0 DUP2 SWAP1 POP PUSH2 0xE92 DUP3 PUSH2 0xE70 JUMP JUMPDEST SWAP2 SWAP1 POP JUMP JUMPDEST PUSH1 0x0 PUSH2 0xEA2 DUP3 PUSH2 0xE84 JUMP JUMPDEST SWAP1 POP SWAP2 SWAP1 POP JUMP JUMPDEST PUSH2 0xEB2 DUP2 PUSH2 0xE97 JUMP JUMPDEST DUP3 MSTORE POP POP JUMP JUMPDEST PUSH1 0x0 DUP1 REVERT JUMPDEST PUSH1 0x0 DUP1 REVERT JUMPDEST PUSH1 0x0 DUP1 REVERT JUMPDEST PUSH1 0x0 DUP1 DUP4 CALLDATALOAD PUSH1 0x1 PUSH1 0x20 SUB DUP5 CALLDATASIZE SUB SUB DUP2 SLT PUSH2 0xEE4 JUMPI PUSH2 0xEE3 PUSH2 0xEC2 JUMP JUMPDEST JUMPDEST DUP4 DUP2 ADD SWAP3 POP DUP3 CALLDATALOAD SWAP2 POP PUSH1 0x20 DUP4 ADD SWAP3 POP PUSH8 0xFFFFFFFFFFFFFFFF DUP3 GT ISZERO PUSH2 0xF0C JUMPI PUSH2 0xF0B PUSH2 0xEB8 JUMP JUMPDEST JUMPDEST PUSH1 0x20 DUP3 MUL CALLDATASIZE SUB DUP4 SGT ISZERO PUSH2 0xF22 JUMPI PUSH2 0xF21 PUSH2 0xEBD JUMP JUMPDEST JUMPDEST POP SWAP3 POP SWAP3 SWAP1 POP JUMP JUMPDEST PUSH1 0x0 DUP3 DUP3 MSTORE PUSH1 0x20 DUP3 ADD SWAP1 POP SWAP3 SWAP2 POP POP JUMP JUMPDEST PUSH1 0x0 DUP2 SWAP1 POP SWAP2 SWAP1 POP JUMP JUMPDEST PUSH2 0xF4E DUP2 PUSH2 0xCEF JUMP JUMPDEST DUP3 MSTORE POP POP JUMP JUMPDEST PUSH1 0x0 PUSH2 0xF60 DUP4 DUP4 PUSH2 0xF45 JUMP JUMPDEST PUSH1 0x20 DUP4 ADD SWAP1 POP SWAP3 SWAP2 POP POP JUMP JUMPDEST PUSH1 0x0 PUSH2 0xF7B PUSH1 0x20 DUP5 ADD DUP5 PUSH2 0xD32 JUMP JUMPDEST SWAP1 POP SWAP3 SWAP2 POP POP JUMP JUMPDEST PUSH1 0x0 PUSH1 0x20 DUP3 ADD SWAP1 POP SWAP2 SWAP1 POP JUMP JUMPDEST PUSH1 0x0 PUSH2 0xF9C DUP4 DUP6 PUSH2 0xF2A JUMP JUMPDEST SWAP4 POP PUSH2 0xFA7 DUP3 PUSH2 0xF3B JUMP JUMPDEST DUP1 PUSH1 0x0 JUMPDEST DUP6 DUP2 LT ISZERO PUSH2 0xFE0 JUMPI PUSH2 0xFBD DUP3 DUP5 PUSH2 0xF6C JUMP JUMPDEST PUSH2 0xFC7 DUP9 DUP3 PUSH2 0xF54 JUMP JUMPDEST SWAP8 POP PUSH2 0xFD2 DUP4 PUSH2 0xF83 JUMP JUMPDEST SWAP3 POP POP PUSH1 0x1 DUP2 ADD SWAP1 POP PUSH2 0xFAB JUMP JUMPDEST POP DUP6 SWAP3 POP POP POP SWAP4 SWAP3 POP POP POP JUMP JUMPDEST PUSH1 0x0 PUSH1 0x60 DUP4 ADD PUSH2 0x1000 PUSH1 0x0 DUP5 ADD DUP5 PUSH2 0xE33 JUMP JUMPDEST PUSH2 0x100D PUSH1 0x0 DUP7 ADD DUP3 PUSH2 0xE4A JUMP JUMPDEST POP PUSH2 0x101B PUSH1 0x20 DUP5 ADD DUP5 PUSH2 0xE59 JUMP JUMPDEST PUSH2 0x1028 PUSH1 0x20 DUP7 ADD DUP3 PUSH2 0xEA9 JUMP JUMPDEST POP PUSH2 0x1036 PUSH1 0x40 DUP5 ADD DUP5 PUSH2 0xEC7 JUMP JUMPDEST DUP6 DUP4 SUB PUSH1 0x40 DUP8 ADD MSTORE PUSH2 0x1049 DUP4 DUP3 DUP5 PUSH2 0xF90 JUMP JUMPDEST SWAP3 POP POP POP DUP1 SWAP2 POP POP SWAP3 SWAP2 POP POP JUMP JUMPDEST PUSH1 0x0 PUSH2 0x1063 DUP4 DUP4 PUSH2 0xFED JUMP JUMPDEST SWAP1 POP SWAP3 SWAP2 POP POP JUMP JUMPDEST PUSH1 0x0 DUP3 CALLDATALOAD PUSH1 0x1 PUSH1 0x60 SUB DUP4 CALLDATASIZE SUB SUB DUP2 SLT PUSH2 0x1087 JUMPI PUSH2 0x1086 PUSH2 0xEC2 JUMP JUMPDEST JUMPDEST DUP3 DUP2 ADD SWAP2 POP POP SWAP3 SWAP2 POP POP JUMP JUMPDEST PUSH1 0x0 PUSH1 0x20 DUP3 ADD SWAP1 POP SWAP2 SWAP1 POP JUMP JUMPDEST PUSH1 0x0 PUSH2 0x10AC DUP4 DUP6 PUSH2 0xE18 JUMP JUMPDEST SWAP4 POP DUP4 PUSH1 0x20 DUP5 MUL DUP6 ADD PUSH2 0x10BE DUP5 PUSH2 0xE29 JUMP JUMPDEST DUP1 PUSH1 0x0 JUMPDEST DUP8 DUP2 LT ISZERO PUSH2 0x1102 JUMPI DUP5 DUP5 SUB DUP10 MSTORE PUSH2 0x10D9 DUP3 DUP5 PUSH2 0x106B JUMP JUMPDEST PUSH2 0x10E3 DUP6 DUP3 PUSH2 0x1057 JUMP JUMPDEST SWAP5 POP PUSH2 0x10EE DUP4 PUSH2 0x1093 JUMP JUMPDEST SWAP3 POP PUSH1 0x20 DUP11 ADD SWAP10 POP POP PUSH1 0x1 DUP2 ADD SWAP1 POP PUSH2 0x10C2 JUMP JUMPDEST POP DUP3 SWAP8 POP DUP8 SWAP5 POP POP POP POP POP SWAP4 SWAP3 POP POP POP JUMP JUMPDEST PUSH2 0x111D DUP2 PUSH2 0xA7C JUMP JUMPDEST DUP3 MSTORE POP POP JUMP JUMPDEST PUSH1 0x0 DUP3 DUP3 MSTORE PUSH1 0x20 DUP3 ADD SWAP1 POP SWAP3 SWAP2 POP POP JUMP JUMPDEST DUP3 DUP2 DUP4 CALLDATACOPY PUSH1 0x0 DUP4 DUP4 ADD MSTORE POP POP POP JUMP JUMPDEST PUSH1 0x0 PUSH1 0x1F NOT PUSH1 0x1F DUP4 ADD AND SWAP1 POP SWAP2 SWAP1 POP JUMP JUMPDEST PUSH1 0x0 PUSH2 0x1160 DUP4 DUP6 PUSH2 0x1123 JUMP JUMPDEST SWAP4 POP PUSH2 0x116D DUP4 DUP6 DUP5 PUSH2 0x1134 JUMP JUMPDEST PUSH2 0x1176 DUP4 PUSH2 0x1143 JUMP JUMPDEST DUP5 ADD SWAP1 POP SWAP4 SWAP3 POP POP POP JUMP JUMPDEST PUSH1 0x0 PUSH1 0x60 DUP3 ADD SWAP1 POP DUP2 DUP2 SUB PUSH1 0x0 DUP4 ADD MSTORE PUSH2 0x119C DUP2 DUP8 DUP10 PUSH2 0x10A0 JUMP JUMPDEST SWAP1 POP PUSH2 0x11AB PUSH1 0x20 DUP4 ADD DUP7 PUSH2 0x1114 JUMP JUMPDEST DUP2 DUP2 SUB PUSH1 0x40 DUP4 ADD MSTORE PUSH2 0x11BE DUP2 DUP5 DUP7 PUSH2 0x1154 JUMP JUMPDEST SWAP1 POP SWAP7 SWAP6 POP POP POP POP POP POP JUMP INVALID LOG2 PUSH5 0x6970667358 0x22 SLT KECCAK256 0xE6 0xD7 0xBA SWAP10 0xC5 SWAP10 0xCF 0xBA NOT 0xB5 0xDE SWAP2 POP 0x4D DUP3 SELFBALANCE 0xDD PUSH4 0xCDA4F4CD GASPRICE 0xB8 0xC7 PUSH16 0xF310D4BF48C664736F6C634300081200 CALLER "
		},
		"gasEstimates": {
			"creation": {
				"codeDepositCost": "921600",
				"executionCost": "infinite",
				"totalCost": "infinite"
			},
			"external": {
				"": "infinite",
				"diamondCut((address,uint8,bytes4[])[],address,bytes)": "infinite",
				"getNumber10()": "2504",
				"getNumber100()": "2482"
			}
		},
		"methodIdentifiers": {
			"diamondCut((address,uint8,bytes4[])[],address,bytes)": "1f931c1c",
			"getNumber10()": "0e90f45d",
			"getNumber100()": "02c85697"
		}
	},
	"abi": [
		{
			"inputs": [
				{
					"internalType": "address",
					"name": "r1",
					"type": "address"
				},
				{
					"internalType": "address",
					"name": "r2",
					"type": "address"
				},
				{
					"internalType": "bytes4",
					"name": "s1",
					"type": "bytes4"
				},
				{
					"internalType": "bytes4",
					"name": "s2",
					"type": "bytes4"
				}
			],
			"stateMutability": "nonpayable",
			"type": "constructor"
		},
		{
			"anonymous": false,
			"inputs": [
				{
					"components": [
						{
							"internalType": "address",
							"name": "facetAddress",
							"type": "address"
						},
						{
							"internalType": "enum IDiamond.FacetCutAction",
							"name": "action",
							"type": "uint8"
						},
						{
							"internalType": "bytes4[]",
							"name": "functionSelectors",
							"type": "bytes4[]"
						}
					],
					"indexed": false,
					"internalType": "struct IDiamond.FacetCut[]",
					"name": "_diamondCut",
					"type": "tuple[]"
				},
				{
					"indexed": false,
					"internalType": "address",
					"name": "_init",
					"type": "address"
				},
				{
					"indexed": false,
					"internalType": "bytes",
					"name": "_calldata",
					"type": "bytes"
				}
			],
			"name": "DiamondCut",
			"type": "event"
		},
		{
			"stateMutability": "payable",
			"type": "fallback"
		},
		{
			"inputs": [
				{
					"components": [
						{
							"internalType": "address",
							"name": "facetAddress",
							"type": "address"
						},
						{
							"internalType": "enum IDiamond.FacetCutAction",
							"name": "action",
							"type": "uint8"
						},
						{
							"internalType": "bytes4[]",
							"name": "functionSelectors",
							"type": "bytes4[]"
						}
					],
					"internalType": "struct IDiamond.FacetCut[]",
					"name": "_diamondCut",
					"type": "tuple[]"
				},
				{
					"internalType": "address",
					"name": "_init",
					"type": "address"
				},
				{
					"internalType": "bytes",
					"name": "_calldata",
					"type": "bytes"
				}
			],
			"name": "diamondCut",
			"outputs": [],
			"stateMutability": "nonpayable",
			"type": "function"
		},
		{
			"inputs": [],
			"name": "getNumber10",
			"outputs": [
				{
					"internalType": "uint256",
					"name": "num",
					"type": "uint256"
				}
			],
			"stateMutability": "view",
			"type": "function"
		},
		{
			"inputs": [],
			"name": "getNumber100",
			"outputs": [
				{
					"internalType": "uint256",
					"name": "num",
					"type": "uint256"
				}
			],
			"stateMutability": "view",
			"type": "function"
		}
	]
}