{
	"contracts/ProxyStorage/ProxyPattern.sol": {
		"ProxyPattern": {
			"abi": [
				{
					"inputs": [
						{
							"internalType": "address",
							"name": "_delegate",
							"type": "address"
						}
					],
					"stateMutability": "nonpayable",
					"type": "constructor"
				},
				{
					"anonymous": false,
					"inputs": [
						{
							"indexed": false,
							"internalType": "uint256",
							"name": "numberOld",
							"type": "uint256"
						},
						{
							"indexed": false,
							"internalType": "uint256",
							"name": "numberNew",
							"type": "uint256"
						}
					],
					"name": "numberUpdated",
					"type": "event"
				},
				{
					"stateMutability": "payable",
					"type": "fallback"
				},
				{
					"inputs": [],
					"name": "getDelegate",
					"outputs": [
						{
							"internalType": "address",
							"name": "delegate",
							"type": "address"
						}
					],
					"stateMutability": "view",
					"type": "function"
				},
				{
					"inputs": [],
					"name": "getNumber",
					"outputs": [
						{
							"internalType": "uint256",
							"name": "num",
							"type": "uint256"
						}
					],
					"stateMutability": "view",
					"type": "function"
				}
			],
			"devdoc": {
				"kind": "dev",
				"methods": {},
				"version": 1
			},
			"evm": {
				"assembly": "    /* \"contracts/ProxyStorage/ProxyPattern.sol\":257:1842  contract ProxyPattern{... */\n  mstore(0x40, 0x80)\n    /* \"contracts/ProxyStorage/ProxyPattern.sol\":354:505  constructor(address _delegate){... */\n  callvalue\n  dup1\n  iszero\n  tag_1\n  jumpi\n  0x00\n  dup1\n  revert\ntag_1:\n  pop\n  mload(0x40)\n  sub(codesize, bytecodeSize)\n  dup1\n  bytecodeSize\n  dup4\n  codecopy\n  dup2\n  dup2\n  add\n  0x40\n  mstore\n  dup2\n  add\n  swap1\n  tag_2\n  swap2\n  swap1\n  tag_3\n  jump\t// in\ntag_2:\n    /* \"contracts/ProxyStorage/ProxyPattern.sol\":394:410  bytes32 position */\n  0x00\n    /* \"contracts/ProxyStorage/ProxyPattern.sol\":413:434  keccak256(\"delegate\") */\n  0x6fdcb8fff5ef717a847d344b0a6ae7be40a2656cce2c3881dd009fc855b9d1ec\n    /* \"contracts/ProxyStorage/ProxyPattern.sol\":394:434  bytes32 position = keccak256(\"delegate\") */\n  swap1\n  pop\n    /* \"contracts/ProxyStorage/ProxyPattern.sol\":488:497  _delegate */\n  dup2\n    /* \"contracts/ProxyStorage/ProxyPattern.sol\":478:486  position */\n  dup2\n    /* \"contracts/ProxyStorage/ProxyPattern.sol\":471:498  sstore(position, _delegate) */\n  sstore\n    /* \"contracts/ProxyStorage/ProxyPattern.sol\":457:499  {... */\n  pop\n    /* \"contracts/ProxyStorage/ProxyPattern.sol\":354:505  constructor(address _delegate){... */\n  pop\n    /* \"contracts/ProxyStorage/ProxyPattern.sol\":257:1842  contract ProxyPattern{... */\n  jump(tag_6)\n    /* \"#utility.yul\":88:205   */\ntag_8:\n    /* \"#utility.yul\":197:198   */\n  0x00\n    /* \"#utility.yul\":194:195   */\n  dup1\n    /* \"#utility.yul\":187:199   */\n  revert\n    /* \"#utility.yul\":334:460   */\ntag_10:\n    /* \"#utility.yul\":371:378   */\n  0x00\n    /* \"#utility.yul\":411:453   */\n  0xffffffffffffffffffffffffffffffffffffffff\n    /* \"#utility.yul\":404:409   */\n  dup3\n    /* \"#utility.yul\":400:454   */\n  and\n    /* \"#utility.yul\":389:454   */\n  swap1\n  pop\n    /* \"#utility.yul\":334:460   */\n  swap2\n  swap1\n  pop\n  jump\t// out\n    /* \"#utility.yul\":466:562   */\ntag_11:\n    /* \"#utility.yul\":503:510   */\n  0x00\n    /* \"#utility.yul\":532:556   */\n  tag_20\n    /* \"#utility.yul\":550:555   */\n  dup3\n    /* \"#utility.yul\":532:556   */\n  tag_10\n  jump\t// in\ntag_20:\n    /* \"#utility.yul\":521:556   */\n  swap1\n  pop\n    /* \"#utility.yul\":466:562   */\n  swap2\n  swap1\n  pop\n  jump\t// out\n    /* \"#utility.yul\":568:690   */\ntag_12:\n    /* \"#utility.yul\":641:665   */\n  tag_22\n    /* \"#utility.yul\":659:664   */\n  dup2\n    /* \"#utility.yul\":641:665   */\n  tag_11\n  jump\t// in\ntag_22:\n    /* \"#utility.yul\":634:639   */\n  dup2\n    /* \"#utility.yul\":631:666   */\n  eq\n    /* \"#utility.yul\":621:684   */\n  tag_23\n  jumpi\n    /* \"#utility.yul\":680:681   */\n  0x00\n    /* \"#utility.yul\":677:678   */\n  dup1\n    /* \"#utility.yul\":670:682   */\n  revert\n    /* \"#utility.yul\":621:684   */\ntag_23:\n    /* \"#utility.yul\":568:690   */\n  pop\n  jump\t// out\n    /* \"#utility.yul\":696:839   */\ntag_13:\n    /* \"#utility.yul\":753:758   */\n  0x00\n    /* \"#utility.yul\":784:790   */\n  dup2\n    /* \"#utility.yul\":778:791   */\n  mload\n    /* \"#utility.yul\":769:791   */\n  swap1\n  pop\n    /* \"#utility.yul\":800:833   */\n  tag_25\n    /* \"#utility.yul\":827:832   */\n  dup2\n    /* \"#utility.yul\":800:833   */\n  tag_12\n  jump\t// in\ntag_25:\n    /* \"#utility.yul\":696:839   */\n  swap3\n  swap2\n  pop\n  pop\n  jump\t// out\n    /* \"#utility.yul\":845:1196   */\ntag_3:\n    /* \"#utility.yul\":915:921   */\n  0x00\n    /* \"#utility.yul\":964:966   */\n  0x20\n    /* \"#utility.yul\":952:961   */\n  dup3\n    /* \"#utility.yul\":943:950   */\n  dup5\n    /* \"#utility.yul\":939:962   */\n  sub\n    /* \"#utility.yul\":935:967   */\n  slt\n    /* \"#utility.yul\":932:1051   */\n  iszero\n  tag_27\n  jumpi\n    /* \"#utility.yul\":970:1049   */\n  tag_28\n  tag_8\n  jump\t// in\ntag_28:\n    /* \"#utility.yul\":932:1051   */\ntag_27:\n    /* \"#utility.yul\":1090:1091   */\n  0x00\n    /* \"#utility.yul\":1115:1179   */\n  tag_29\n    /* \"#utility.yul\":1171:1178   */\n  dup5\n    /* \"#utility.yul\":1162:1168   */\n  dup3\n    /* \"#utility.yul\":1151:1160   */\n  dup6\n    /* \"#utility.yul\":1147:1169   */\n  add\n    /* \"#utility.yul\":1115:1179   */\n  tag_13\n  jump\t// in\ntag_29:\n    /* \"#utility.yul\":1105:1179   */\n  swap2\n  pop\n    /* \"#utility.yul\":1061:1189   */\n  pop\n    /* \"#utility.yul\":845:1196   */\n  swap3\n  swap2\n  pop\n  pop\n  jump\t// out\n    /* \"contracts/ProxyStorage/ProxyPattern.sol\":257:1842  contract ProxyPattern{... */\ntag_6:\n  dataSize(sub_0)\n  dup1\n  dataOffset(sub_0)\n  0x00\n  codecopy\n  0x00\n  return\nstop\n\nsub_0: assembly {\n        /* \"contracts/ProxyStorage/ProxyPattern.sol\":257:1842  contract ProxyPattern{... */\n      mstore(0x40, 0x80)\n      jumpi(tag_1, lt(calldatasize, 0x04))\n      shr(0xe0, calldataload(0x00))\n      dup1\n      0xbc7f3b50\n      eq\n      tag_3\n      jumpi\n      dup1\n      0xf2c9ecd8\n      eq\n      tag_4\n      jumpi\n      jump(tag_2)\n    tag_1:\n    tag_2:\n        /* \"contracts/ProxyStorage/ProxyPattern.sol\":1078:1095  address _delegate */\n      0x00\n        /* \"contracts/ProxyStorage/ProxyPattern.sol\":1098:1111  getDelegate() */\n      tag_7\n        /* \"contracts/ProxyStorage/ProxyPattern.sol\":1098:1109  getDelegate */\n      tag_8\n        /* \"contracts/ProxyStorage/ProxyPattern.sol\":1098:1111  getDelegate() */\n      jump\t// in\n    tag_7:\n        /* \"contracts/ProxyStorage/ProxyPattern.sol\":1078:1111  address _delegate = getDelegate() */\n      swap1\n      pop\n        /* \"contracts/ProxyStorage/ProxyPattern.sol\":1150:1151  0 */\n      0x00\n        /* \"contracts/ProxyStorage/ProxyPattern.sol\":1129:1152  _delegate != address(0) */\n      0xffffffffffffffffffffffffffffffffffffffff\n      and\n        /* \"contracts/ProxyStorage/ProxyPattern.sol\":1129:1138  _delegate */\n      dup2\n        /* \"contracts/ProxyStorage/ProxyPattern.sol\":1129:1152  _delegate != address(0) */\n      0xffffffffffffffffffffffffffffffffffffffff\n      and\n      sub\n        /* \"contracts/ProxyStorage/ProxyPattern.sol\":1121:1153  require(_delegate != address(0)) */\n      tag_9\n      jumpi\n      0x00\n      dup1\n      revert\n    tag_9:\n        /* \"contracts/ProxyStorage/ProxyPattern.sol\":1367:1381  calldatasize() */\n      calldatasize\n        /* \"contracts/ProxyStorage/ProxyPattern.sol\":1362:1365  0x0 */\n      0x00\n        /* \"contracts/ProxyStorage/ProxyPattern.sol\":1357:1360  0x0 */\n      dup1\n        /* \"contracts/ProxyStorage/ProxyPattern.sol\":1344:1382  calldatacopy(0x0, 0x0, calldatasize()) */\n      calldatacopy\n        /* \"contracts/ProxyStorage/ProxyPattern.sol\":1532:1535  0x0 */\n      0x00\n        /* \"contracts/ProxyStorage/ProxyPattern.sol\":1527:1530  0x0 */\n      dup1\n        /* \"contracts/ProxyStorage/ProxyPattern.sol\":1511:1525  calldatasize() */\n      calldatasize\n        /* \"contracts/ProxyStorage/ProxyPattern.sol\":1506:1509  0x0 */\n      0x00\n        /* \"contracts/ProxyStorage/ProxyPattern.sol\":1495:1504  _delegate */\n      dup5\n        /* \"contracts/ProxyStorage/ProxyPattern.sol\":1488:1493  gas() */\n      gas\n        /* \"contracts/ProxyStorage/ProxyPattern.sol\":1475:1536  delegatecall(gas(), _delegate, 0x0, calldatasize(), 0x0, 0x0) */\n      delegatecall\n        /* \"contracts/ProxyStorage/ProxyPattern.sol\":1610:1626  returndatasize() */\n      returndatasize\n        /* \"contracts/ProxyStorage/ProxyPattern.sol\":1605:1608  0x0 */\n      0x00\n        /* \"contracts/ProxyStorage/ProxyPattern.sol\":1600:1603  0x0 */\n      dup1\n        /* \"contracts/ProxyStorage/ProxyPattern.sol\":1585:1627  returndatacopy(0x0, 0x0, returndatasize()) */\n      returndatacopy\n        /* \"contracts/ProxyStorage/ProxyPattern.sol\":1714:1720  result */\n      dup1\n        /* \"contracts/ProxyStorage/ProxyPattern.sol\":1738:1739  0 */\n      0x00\n        /* \"contracts/ProxyStorage/ProxyPattern.sol\":1733:1771  case 0 {revert(0x0, returndatasize())} */\n      dup2\n      eq\n      tag_11\n      jumpi\n        /* \"contracts/ProxyStorage/ProxyPattern.sol\":1806:1822  returndatasize() */\n      returndatasize\n        /* \"contracts/ProxyStorage/ProxyPattern.sol\":1801:1804  0x0 */\n      0x00\n        /* \"contracts/ProxyStorage/ProxyPattern.sol\":1793:1823  return (0x0, returndatasize()) */\n      return\n        /* \"contracts/ProxyStorage/ProxyPattern.sol\":1733:1771  case 0 {revert(0x0, returndatasize())} */\n    tag_11:\n        /* \"contracts/ProxyStorage/ProxyPattern.sol\":1753:1769  returndatasize() */\n      returndatasize\n        /* \"contracts/ProxyStorage/ProxyPattern.sol\":1748:1751  0x0 */\n      0x00\n        /* \"contracts/ProxyStorage/ProxyPattern.sol\":1741:1770  revert(0x0, returndatasize()) */\n      revert\n        /* \"contracts/ProxyStorage/ProxyPattern.sol\":787:967  function getDelegate() public view returns(address delegate){... */\n    tag_3:\n      callvalue\n      dup1\n      iszero\n      tag_12\n      jumpi\n      0x00\n      dup1\n      revert\n    tag_12:\n      pop\n      tag_13\n      tag_8\n      jump\t// in\n    tag_13:\n      mload(0x40)\n      tag_14\n      swap2\n      swap1\n      tag_15\n      jump\t// in\n    tag_14:\n      mload(0x40)\n      dup1\n      swap2\n      sub\n      swap1\n      return\n        /* \"contracts/ProxyStorage/ProxyPattern.sol\":563:729  function getNumber() public view returns(uint256 num){... */\n    tag_4:\n      callvalue\n      dup1\n      iszero\n      tag_16\n      jumpi\n      0x00\n      dup1\n      revert\n    tag_16:\n      pop\n      tag_17\n      tag_18\n      jump\t// in\n    tag_17:\n      mload(0x40)\n      tag_19\n      swap2\n      swap1\n      tag_20\n      jump\t// in\n    tag_19:\n      mload(0x40)\n      dup1\n      swap2\n      sub\n      swap1\n      return\n        /* \"contracts/ProxyStorage/ProxyPattern.sol\":787:967  function getDelegate() public view returns(address delegate){... */\n    tag_8:\n        /* \"contracts/ProxyStorage/ProxyPattern.sol\":830:846  address delegate */\n      0x00\n        /* \"contracts/ProxyStorage/ProxyPattern.sol\":857:873  bytes32 position */\n      dup1\n        /* \"contracts/ProxyStorage/ProxyPattern.sol\":876:897  keccak256(\"delegate\") */\n      0x6fdcb8fff5ef717a847d344b0a6ae7be40a2656cce2c3881dd009fc855b9d1ec\n        /* \"contracts/ProxyStorage/ProxyPattern.sol\":857:897  bytes32 position = keccak256(\"delegate\") */\n      swap1\n      pop\n        /* \"contracts/ProxyStorage/ProxyPattern.sol\":944:952  position */\n      dup1\n        /* \"contracts/ProxyStorage/ProxyPattern.sol\":938:953  sload(position) */\n      sload\n        /* \"contracts/ProxyStorage/ProxyPattern.sol\":926:953  delegate := sload(position) */\n      swap2\n      pop\n        /* \"contracts/ProxyStorage/ProxyPattern.sol\":916:961  {... */\n      pop\n        /* \"contracts/ProxyStorage/ProxyPattern.sol\":787:967  function getDelegate() public view returns(address delegate){... */\n      swap1\n      jump\t// out\n        /* \"contracts/ProxyStorage/ProxyPattern.sol\":563:729  function getNumber() public view returns(uint256 num){... */\n    tag_18:\n        /* \"contracts/ProxyStorage/ProxyPattern.sol\":604:615  uint256 num */\n      0x00\n        /* \"contracts/ProxyStorage/ProxyPattern.sol\":626:642  bytes32 position */\n      dup1\n        /* \"contracts/ProxyStorage/ProxyPattern.sol\":645:664  keccak256(\"number\") */\n      0xf648814c67221440671fd7c2de979db4020a9320fb7985ff79ca8e7dced277f8\n        /* \"contracts/ProxyStorage/ProxyPattern.sol\":626:664  bytes32 position = keccak256(\"number\") */\n      swap1\n      pop\n        /* \"contracts/ProxyStorage/ProxyPattern.sol\":706:714  position */\n      dup1\n        /* \"contracts/ProxyStorage/ProxyPattern.sol\":700:715  sload(position) */\n      sload\n        /* \"contracts/ProxyStorage/ProxyPattern.sol\":693:715  num := sload(position) */\n      swap2\n      pop\n        /* \"contracts/ProxyStorage/ProxyPattern.sol\":683:723  {... */\n      pop\n        /* \"contracts/ProxyStorage/ProxyPattern.sol\":563:729  function getNumber() public view returns(uint256 num){... */\n      swap1\n      jump\t// out\n        /* \"#utility.yul\":7:133   */\n    tag_23:\n        /* \"#utility.yul\":44:51   */\n      0x00\n        /* \"#utility.yul\":84:126   */\n      0xffffffffffffffffffffffffffffffffffffffff\n        /* \"#utility.yul\":77:82   */\n      dup3\n        /* \"#utility.yul\":73:127   */\n      and\n        /* \"#utility.yul\":62:127   */\n      swap1\n      pop\n        /* \"#utility.yul\":7:133   */\n      swap2\n      swap1\n      pop\n      jump\t// out\n        /* \"#utility.yul\":139:235   */\n    tag_24:\n        /* \"#utility.yul\":176:183   */\n      0x00\n        /* \"#utility.yul\":205:229   */\n      tag_31\n        /* \"#utility.yul\":223:228   */\n      dup3\n        /* \"#utility.yul\":205:229   */\n      tag_23\n      jump\t// in\n    tag_31:\n        /* \"#utility.yul\":194:229   */\n      swap1\n      pop\n        /* \"#utility.yul\":139:235   */\n      swap2\n      swap1\n      pop\n      jump\t// out\n        /* \"#utility.yul\":241:359   */\n    tag_25:\n        /* \"#utility.yul\":328:352   */\n      tag_33\n        /* \"#utility.yul\":346:351   */\n      dup2\n        /* \"#utility.yul\":328:352   */\n      tag_24\n      jump\t// in\n    tag_33:\n        /* \"#utility.yul\":323:326   */\n      dup3\n        /* \"#utility.yul\":316:353   */\n      mstore\n        /* \"#utility.yul\":241:359   */\n      pop\n      pop\n      jump\t// out\n        /* \"#utility.yul\":365:587   */\n    tag_15:\n        /* \"#utility.yul\":458:462   */\n      0x00\n        /* \"#utility.yul\":496:498   */\n      0x20\n        /* \"#utility.yul\":485:494   */\n      dup3\n        /* \"#utility.yul\":481:499   */\n      add\n        /* \"#utility.yul\":473:499   */\n      swap1\n      pop\n        /* \"#utility.yul\":509:580   */\n      tag_35\n        /* \"#utility.yul\":577:578   */\n      0x00\n        /* \"#utility.yul\":566:575   */\n      dup4\n        /* \"#utility.yul\":562:579   */\n      add\n        /* \"#utility.yul\":553:559   */\n      dup5\n        /* \"#utility.yul\":509:580   */\n      tag_25\n      jump\t// in\n    tag_35:\n        /* \"#utility.yul\":365:587   */\n      swap3\n      swap2\n      pop\n      pop\n      jump\t// out\n        /* \"#utility.yul\":593:670   */\n    tag_26:\n        /* \"#utility.yul\":630:637   */\n      0x00\n        /* \"#utility.yul\":659:664   */\n      dup2\n        /* \"#utility.yul\":648:664   */\n      swap1\n      pop\n        /* \"#utility.yul\":593:670   */\n      swap2\n      swap1\n      pop\n      jump\t// out\n        /* \"#utility.yul\":676:794   */\n    tag_27:\n        /* \"#utility.yul\":763:787   */\n      tag_38\n        /* \"#utility.yul\":781:786   */\n      dup2\n        /* \"#utility.yul\":763:787   */\n      tag_26\n      jump\t// in\n    tag_38:\n        /* \"#utility.yul\":758:761   */\n      dup3\n        /* \"#utility.yul\":751:788   */\n      mstore\n        /* \"#utility.yul\":676:794   */\n      pop\n      pop\n      jump\t// out\n        /* \"#utility.yul\":800:1022   */\n    tag_20:\n        /* \"#utility.yul\":893:897   */\n      0x00\n        /* \"#utility.yul\":931:933   */\n      0x20\n        /* \"#utility.yul\":920:929   */\n      dup3\n        /* \"#utility.yul\":916:934   */\n      add\n        /* \"#utility.yul\":908:934   */\n      swap1\n      pop\n        /* \"#utility.yul\":944:1015   */\n      tag_40\n        /* \"#utility.yul\":1012:1013   */\n      0x00\n        /* \"#utility.yul\":1001:1010   */\n      dup4\n        /* \"#utility.yul\":997:1014   */\n      add\n        /* \"#utility.yul\":988:994   */\n      dup5\n        /* \"#utility.yul\":944:1015   */\n      tag_27\n      jump\t// in\n    tag_40:\n        /* \"#utility.yul\":800:1022   */\n      swap3\n      swap2\n      pop\n      pop\n      jump\t// out\n\n    auxdata: 0xa26469706673582212206aaa3010a07e8b5411d68fd00203bc54484cc3cc94fd53d26c52c4c8b7985f8364736f6c63430008140033\n}\n",
				"bytecode": {
					"linkReferences": {},
					"object": "608060405234801561000f575f80fd5b506040516102f03803806102f0833981810160405281019061003191906100bd565b5f7f6fdcb8fff5ef717a847d344b0a6ae7be40a2656cce2c3881dd009fc855b9d1ec905081815550506100e8565b5f80fd5b5f73ffffffffffffffffffffffffffffffffffffffff82169050919050565b5f61008c82610063565b9050919050565b61009c81610082565b81146100a6575f80fd5b50565b5f815190506100b781610093565b92915050565b5f602082840312156100d2576100d161005f565b5b5f6100df848285016100a9565b91505092915050565b6101fb806100f55f395ff3fe60806040526004361061002c575f3560e01c8063bc7f3b501461008e578063f2c9ecd8146100b85761002d565b5b5f6100366100e2565b90505f73ffffffffffffffffffffffffffffffffffffffff168173ffffffffffffffffffffffffffffffffffffffff160361006f575f80fd5b365f80375f80365f845af43d5f803e805f811461008a573d5ff35b3d5ffd5b348015610099575f80fd5b506100a26100e2565b6040516100af919061017b565b60405180910390f35b3480156100c3575f80fd5b506100cc61010f565b6040516100d991906101ac565b60405180910390f35b5f807f6fdcb8fff5ef717a847d344b0a6ae7be40a2656cce2c3881dd009fc855b9d1ec9050805491505090565b5f807ff648814c67221440671fd7c2de979db4020a9320fb7985ff79ca8e7dced277f89050805491505090565b5f73ffffffffffffffffffffffffffffffffffffffff82169050919050565b5f6101658261013c565b9050919050565b6101758161015b565b82525050565b5f60208201905061018e5f83018461016c565b92915050565b5f819050919050565b6101a681610194565b82525050565b5f6020820190506101bf5f83018461019d565b9291505056fea26469706673582212206aaa3010a07e8b5411d68fd00203bc54484cc3cc94fd53d26c52c4c8b7985f8364736f6c63430008140033",
					"opcodes": "PUSH1 0x80 PUSH1 0x40 MSTORE CALLVALUE DUP1 ISZERO PUSH2 0xF JUMPI PUSH0 DUP1 REVERT JUMPDEST POP PUSH1 0x40 MLOAD PUSH2 0x2F0 CODESIZE SUB DUP1 PUSH2 0x2F0 DUP4 CODECOPY DUP2 DUP2 ADD PUSH1 0x40 MSTORE DUP2 ADD SWAP1 PUSH2 0x31 SWAP2 SWAP1 PUSH2 0xBD JUMP JUMPDEST PUSH0 PUSH32 0x6FDCB8FFF5EF717A847D344B0A6AE7BE40A2656CCE2C3881DD009FC855B9D1EC SWAP1 POP DUP2 DUP2 SSTORE POP POP PUSH2 0xE8 JUMP JUMPDEST PUSH0 DUP1 REVERT JUMPDEST PUSH0 PUSH20 0xFFFFFFFFFFFFFFFFFFFFFFFFFFFFFFFFFFFFFFFF DUP3 AND SWAP1 POP SWAP2 SWAP1 POP JUMP JUMPDEST PUSH0 PUSH2 0x8C DUP3 PUSH2 0x63 JUMP JUMPDEST SWAP1 POP SWAP2 SWAP1 POP JUMP JUMPDEST PUSH2 0x9C DUP2 PUSH2 0x82 JUMP JUMPDEST DUP2 EQ PUSH2 0xA6 JUMPI PUSH0 DUP1 REVERT JUMPDEST POP JUMP JUMPDEST PUSH0 DUP2 MLOAD SWAP1 POP PUSH2 0xB7 DUP2 PUSH2 0x93 JUMP JUMPDEST SWAP3 SWAP2 POP POP JUMP JUMPDEST PUSH0 PUSH1 0x20 DUP3 DUP5 SUB SLT ISZERO PUSH2 0xD2 JUMPI PUSH2 0xD1 PUSH2 0x5F JUMP JUMPDEST JUMPDEST PUSH0 PUSH2 0xDF DUP5 DUP3 DUP6 ADD PUSH2 0xA9 JUMP JUMPDEST SWAP2 POP POP SWAP3 SWAP2 POP POP JUMP JUMPDEST PUSH2 0x1FB DUP1 PUSH2 0xF5 PUSH0 CODECOPY PUSH0 RETURN INVALID PUSH1 0x80 PUSH1 0x40 MSTORE PUSH1 0x4 CALLDATASIZE LT PUSH2 0x2C JUMPI PUSH0 CALLDATALOAD PUSH1 0xE0 SHR DUP1 PUSH4 0xBC7F3B50 EQ PUSH2 0x8E JUMPI DUP1 PUSH4 0xF2C9ECD8 EQ PUSH2 0xB8 JUMPI PUSH2 0x2D JUMP JUMPDEST JUMPDEST PUSH0 PUSH2 0x36 PUSH2 0xE2 JUMP JUMPDEST SWAP1 POP PUSH0 PUSH20 0xFFFFFFFFFFFFFFFFFFFFFFFFFFFFFFFFFFFFFFFF AND DUP2 PUSH20 0xFFFFFFFFFFFFFFFFFFFFFFFFFFFFFFFFFFFFFFFF AND SUB PUSH2 0x6F JUMPI PUSH0 DUP1 REVERT JUMPDEST CALLDATASIZE PUSH0 DUP1 CALLDATACOPY PUSH0 DUP1 CALLDATASIZE PUSH0 DUP5 GAS DELEGATECALL RETURNDATASIZE PUSH0 DUP1 RETURNDATACOPY DUP1 PUSH0 DUP2 EQ PUSH2 0x8A JUMPI RETURNDATASIZE PUSH0 RETURN JUMPDEST RETURNDATASIZE PUSH0 REVERT JUMPDEST CALLVALUE DUP1 ISZERO PUSH2 0x99 JUMPI PUSH0 DUP1 REVERT JUMPDEST POP PUSH2 0xA2 PUSH2 0xE2 JUMP JUMPDEST PUSH1 0x40 MLOAD PUSH2 0xAF SWAP2 SWAP1 PUSH2 0x17B JUMP JUMPDEST PUSH1 0x40 MLOAD DUP1 SWAP2 SUB SWAP1 RETURN JUMPDEST CALLVALUE DUP1 ISZERO PUSH2 0xC3 JUMPI PUSH0 DUP1 REVERT JUMPDEST POP PUSH2 0xCC PUSH2 0x10F JUMP JUMPDEST PUSH1 0x40 MLOAD PUSH2 0xD9 SWAP2 SWAP1 PUSH2 0x1AC JUMP JUMPDEST PUSH1 0x40 MLOAD DUP1 SWAP2 SUB SWAP1 RETURN JUMPDEST PUSH0 DUP1 PUSH32 0x6FDCB8FFF5EF717A847D344B0A6AE7BE40A2656CCE2C3881DD009FC855B9D1EC SWAP1 POP DUP1 SLOAD SWAP2 POP POP SWAP1 JUMP JUMPDEST PUSH0 DUP1 PUSH32 0xF648814C67221440671FD7C2DE979DB4020A9320FB7985FF79CA8E7DCED277F8 SWAP1 POP DUP1 SLOAD SWAP2 POP POP SWAP1 JUMP JUMPDEST PUSH0 PUSH20 0xFFFFFFFFFFFFFFFFFFFFFFFFFFFFFFFFFFFFFFFF DUP3 AND SWAP1 POP SWAP2 SWAP1 POP JUMP JUMPDEST PUSH0 PUSH2 0x165 DUP3 PUSH2 0x13C JUMP JUMPDEST SWAP1 POP SWAP2 SWAP1 POP JUMP JUMPDEST PUSH2 0x175 DUP2 PUSH2 0x15B JUMP JUMPDEST DUP3 MSTORE POP POP JUMP JUMPDEST PUSH0 PUSH1 0x20 DUP3 ADD SWAP1 POP PUSH2 0x18E PUSH0 DUP4 ADD DUP5 PUSH2 0x16C JUMP JUMPDEST SWAP3 SWAP2 POP POP JUMP JUMPDEST PUSH0 DUP2 SWAP1 POP SWAP2 SWAP1 POP JUMP JUMPDEST PUSH2 0x1A6 DUP2 PUSH2 0x194 JUMP JUMPDEST DUP3 MSTORE POP POP JUMP JUMPDEST PUSH0 PUSH1 0x20 DUP3 ADD SWAP1 POP PUSH2 0x1BF PUSH0 DUP4 ADD DUP5 PUSH2 0x19D JUMP JUMPDEST SWAP3 SWAP2 POP POP JUMP INVALID LOG2 PUSH5 0x6970667358 0x22 SLT KECCAK256 PUSH11 0xAA3010A07E8B5411D68FD0 MUL SUB 0xBC SLOAD BASEFEE 0x4C 0xC3 0xCC SWAP5 REVERT MSTORE8 0xD2 PUSH13 0x52C4C8B7985F8364736F6C6343 STOP ADDMOD EQ STOP CALLER "
				},
				"gasEstimates": {
					"creation": {
						"codeDepositCost": "101400",
						"executionCost": "infinite",
						"totalCost": "infinite"
					},
					"external": {
						"": "infinite",
						"getDelegate()": "2471",
						"getNumber()": "2445"
					}
				},
				"methodIdentifiers": {
					"getDelegate()": "bc7f3b50",
					"getNumber()": "f2c9ecd8"
				}
			},
			"storageLayout": {
				"storage": [],
				"types": null
			},
			"userdoc": {
				"kind": "user",
				"methods": {},
				"version": 1
			}
		}
	}
}